{
	"contracts/ExtraStorage.sol": {
		"ExtraStorage": {
			"abi": [
				{
					"anonymous": false,
					"inputs": [
						{
							"indexed": false,
							"internalType": "string",
							"name": "name",
							"type": "string"
						},
						{
							"indexed": false,
							"internalType": "uint256",
							"name": "age",
							"type": "uint256"
						}
					],
					"name": "logValidatorsEvent",
					"type": "event"
				},
				{
					"anonymous": false,
					"inputs": [
						{
							"indexed": false,
							"internalType": "string",
							"name": "name",
							"type": "string"
						},
						{
							"indexed": false,
							"internalType": "uint256",
							"name": "age",
							"type": "uint256"
						}
					],
					"name": "printUsersEvent",
					"type": "event"
				},
				{
					"inputs": [
						{
							"internalType": "string",
							"name": "_name",
							"type": "string"
						},
						{
							"internalType": "uint256",
							"name": "_age",
							"type": "uint256"
						}
					],
					"name": "addUser",
					"outputs": [],
					"stateMutability": "nonpayable",
					"type": "function"
				},
				{
					"inputs": [
						{
							"internalType": "address",
							"name": "_walletAddress",
							"type": "address"
						},
						{
							"internalType": "string",
							"name": "_name",
							"type": "string"
						},
						{
							"internalType": "uint256",
							"name": "_age",
							"type": "uint256"
						}
					],
					"name": "addValidators",
					"outputs": [],
					"stateMutability": "nonpayable",
					"type": "function"
				},
				{
					"inputs": [
						{
							"internalType": "uint256",
							"name": "_additionalNumber",
							"type": "uint256"
						}
					],
					"name": "changeNumber",
					"outputs": [
						{
							"internalType": "uint256",
							"name": "",
							"type": "uint256"
						}
					],
					"stateMutability": "nonpayable",
					"type": "function"
				},
				{
					"inputs": [],
					"name": "logUsers",
					"outputs": [],
					"stateMutability": "nonpayable",
					"type": "function"
				},
				{
					"inputs": [],
					"name": "logValidators",
					"outputs": [],
					"stateMutability": "nonpayable",
					"type": "function"
				},
				{
					"inputs": [
						{
							"internalType": "address",
							"name": "_walletAddress",
							"type": "address"
						}
					],
					"name": "printValidator",
					"outputs": [
						{
							"internalType": "string",
							"name": "",
							"type": "string"
						},
						{
							"internalType": "uint256",
							"name": "",
							"type": "uint256"
						}
					],
					"stateMutability": "view",
					"type": "function"
				},
				{
					"inputs": [
						{
							"internalType": "uint256",
							"name": "",
							"type": "uint256"
						}
					],
					"name": "users",
					"outputs": [
						{
							"internalType": "string",
							"name": "name",
							"type": "string"
						},
						{
							"internalType": "uint256",
							"name": "age",
							"type": "uint256"
						}
					],
					"stateMutability": "view",
					"type": "function"
				},
				{
					"inputs": [
						{
							"internalType": "uint256",
							"name": "",
							"type": "uint256"
						}
					],
					"name": "validatorAddresses",
					"outputs": [
						{
							"internalType": "address",
							"name": "",
							"type": "address"
						}
					],
					"stateMutability": "view",
					"type": "function"
				},
				{
					"inputs": [
						{
							"internalType": "address",
							"name": "",
							"type": "address"
						}
					],
					"name": "validators",
					"outputs": [
						{
							"internalType": "string",
							"name": "name",
							"type": "string"
						},
						{
							"internalType": "uint256",
							"name": "age",
							"type": "uint256"
						}
					],
					"stateMutability": "view",
					"type": "function"
				}
			],
			"devdoc": {
				"kind": "dev",
				"methods": {},
				"version": 1
			},
			"evm": {
				"assembly": "    /* \"contracts/ExtraStorage.sol\":94:295  contract ExtraStorage is SimpleStorage {... */\n  mstore(0x40, 0x80)\n    /* \"contracts/SimpleStorage.sol\":1155:1160  users */\n  0x00\n    /* \"contracts/SimpleStorage.sol\":1155:1167  users.length */\n  dup1\n  sload\n  swap1\n  pop\n    /* \"contracts/SimpleStorage.sol\":1138:1167  uint256 length = users.length */\n  0x03\n  sstore\n    /* \"contracts/SimpleStorage.sol\":1819:1822  256 */\n  0x0100\n    /* \"contracts/SimpleStorage.sol\":1802:1822  uint256 number = 256 */\n  0x04\n  sstore\n    /* \"contracts/ExtraStorage.sol\":94:295  contract ExtraStorage is SimpleStorage {... */\n  callvalue\n  dup1\n  iszero\n  tag_1\n  jumpi\n  revert(0x00, 0x00)\ntag_1:\n  pop\n  dataSize(sub_0)\n  dup1\n  dataOffset(sub_0)\n  0x00\n  codecopy\n  0x00\n  return\nstop\n\nsub_0: assembly {\n        /* \"contracts/ExtraStorage.sol\":94:295  contract ExtraStorage is SimpleStorage {... */\n      mstore(0x40, 0x80)\n      callvalue\n      dup1\n      iszero\n      tag_1\n      jumpi\n      revert(0x00, 0x00)\n    tag_1:\n      pop\n      jumpi(tag_2, lt(calldatasize, 0x04))\n      shr(0xe0, calldataload(0x00))\n      dup1\n      0x4ccc0c64\n      gt\n      tag_12\n      jumpi\n      dup1\n      0x4ccc0c64\n      eq\n      tag_7\n      jumpi\n      dup1\n      0x906f46aa\n      eq\n      tag_8\n      jumpi\n      dup1\n      0x99745318\n      eq\n      tag_9\n      jumpi\n      dup1\n      0xf35d03b2\n      eq\n      tag_10\n      jumpi\n      dup1\n      0xfa52c7d8\n      eq\n      tag_11\n      jumpi\n      jump(tag_2)\n    tag_12:\n      dup1\n      0x03f1d194\n      eq\n      tag_3\n      jumpi\n      dup1\n      0x07391dd6\n      eq\n      tag_4\n      jumpi\n      dup1\n      0x1c5220c2\n      eq\n      tag_5\n      jumpi\n      dup1\n      0x365b98b2\n      eq\n      tag_6\n      jumpi\n    tag_2:\n      revert(0x00, 0x00)\n        /* \"contracts/SimpleStorage.sol\":564:776  function printValidator(address _walletAddress) public view returns(string memory, uint256) {... */\n    tag_3:\n      tag_13\n      0x04\n      dup1\n      calldatasize\n      sub\n      dup2\n      add\n      swap1\n      tag_14\n      swap2\n      swap1\n      tag_15\n      jump\t// in\n    tag_14:\n      tag_16\n      jump\t// in\n    tag_13:\n      mload(0x40)\n      tag_17\n      swap3\n      swap2\n      swap1\n      tag_18\n      jump\t// in\n    tag_17:\n      mload(0x40)\n      dup1\n      swap2\n      sub\n      swap1\n      return\n        /* \"contracts/ExtraStorage.sol\":140:292  function changeNumber(uint256 _additionalNumber) public override returns(uint256) {... */\n    tag_4:\n      tag_19\n      0x04\n      dup1\n      calldatasize\n      sub\n      dup2\n      add\n      swap1\n      tag_20\n      swap2\n      swap1\n      tag_21\n      jump\t// in\n    tag_20:\n      tag_22\n      jump\t// in\n    tag_19:\n      mload(0x40)\n      tag_23\n      swap2\n      swap1\n      tag_24\n      jump\t// in\n    tag_23:\n      mload(0x40)\n      dup1\n      swap2\n      sub\n      swap1\n      return\n        /* \"contracts/SimpleStorage.sol\":1023:1132  function addUser(string memory _name, uint256 _age) public {... */\n    tag_5:\n      tag_25\n      0x04\n      dup1\n      calldatasize\n      sub\n      dup2\n      add\n      swap1\n      tag_26\n      swap2\n      swap1\n      tag_27\n      jump\t// in\n    tag_26:\n      tag_28\n      jump\t// in\n    tag_25:\n      stop\n        /* \"contracts/SimpleStorage.sol\":165:186  People[] public users */\n    tag_6:\n      tag_29\n      0x04\n      dup1\n      calldatasize\n      sub\n      dup2\n      add\n      swap1\n      tag_30\n      swap2\n      swap1\n      tag_21\n      jump\t// in\n    tag_30:\n      tag_31\n      jump\t// in\n    tag_29:\n      mload(0x40)\n      tag_32\n      swap3\n      swap2\n      swap1\n      tag_18\n      jump\t// in\n    tag_32:\n      mload(0x40)\n      dup1\n      swap2\n      sub\n      swap1\n      return\n        /* \"contracts/SimpleStorage.sol\":784:1015  function logValidators() public {... */\n    tag_7:\n      tag_33\n      tag_34\n      jump\t// in\n    tag_33:\n      stop\n        /* \"contracts/SimpleStorage.sol\":291:497  function addValidators(address _walletAddress, string memory _name, uint256 _age) public {... */\n    tag_8:\n      tag_35\n      0x04\n      dup1\n      calldatasize\n      sub\n      dup2\n      add\n      swap1\n      tag_36\n      swap2\n      swap1\n      tag_37\n      jump\t// in\n    tag_36:\n      tag_38\n      jump\t// in\n    tag_35:\n      stop\n        /* \"contracts/SimpleStorage.sol\":246:281  address[] public validatorAddresses */\n    tag_9:\n      tag_39\n      0x04\n      dup1\n      calldatasize\n      sub\n      dup2\n      add\n      swap1\n      tag_40\n      swap2\n      swap1\n      tag_21\n      jump\t// in\n    tag_40:\n      tag_41\n      jump\t// in\n    tag_39:\n      mload(0x40)\n      tag_42\n      swap2\n      swap1\n      tag_43\n      jump\t// in\n    tag_42:\n      mload(0x40)\n      dup1\n      swap2\n      sub\n      swap1\n      return\n        /* \"contracts/SimpleStorage.sol\":1232:1393  function logUsers() public {... */\n    tag_10:\n      tag_44\n      tag_45\n      jump\t// in\n    tag_44:\n      stop\n        /* \"contracts/SimpleStorage.sol\":195:239  mapping(address => People) public validators */\n    tag_11:\n      tag_46\n      0x04\n      dup1\n      calldatasize\n      sub\n      dup2\n      add\n      swap1\n      tag_47\n      swap2\n      swap1\n      tag_15\n      jump\t// in\n    tag_47:\n      tag_48\n      jump\t// in\n    tag_46:\n      mload(0x40)\n      tag_49\n      swap3\n      swap2\n      swap1\n      tag_18\n      jump\t// in\n    tag_49:\n      mload(0x40)\n      dup1\n      swap2\n      sub\n      swap1\n      return\n        /* \"contracts/SimpleStorage.sol\":564:776  function printValidator(address _walletAddress) public view returns(string memory, uint256) {... */\n    tag_16:\n        /* \"contracts/SimpleStorage.sol\":632:645  string memory */\n      0x60\n        /* \"contracts/SimpleStorage.sol\":647:654  uint256 */\n      0x00\n        /* \"contracts/SimpleStorage.sol\":667:690  People memory validator */\n      0x00\n        /* \"contracts/SimpleStorage.sol\":693:703  validators */\n      0x01\n        /* \"contracts/SimpleStorage.sol\":693:719  validators[_walletAddress] */\n      0x00\n        /* \"contracts/SimpleStorage.sol\":704:718  _walletAddress */\n      dup6\n        /* \"contracts/SimpleStorage.sol\":693:719  validators[_walletAddress] */\n      0xffffffffffffffffffffffffffffffffffffffff\n      and\n      0xffffffffffffffffffffffffffffffffffffffff\n      and\n      dup2\n      mstore\n      0x20\n      add\n      swap1\n      dup2\n      mstore\n      0x20\n      add\n      0x00\n      keccak256\n        /* \"contracts/SimpleStorage.sol\":667:719  People memory validator = validators[_walletAddress] */\n      mload(0x40)\n      dup1\n      0x40\n      add\n      0x40\n      mstore\n      swap1\n      dup2\n      0x00\n      dup3\n      add\n      dup1\n      sload\n      tag_51\n      swap1\n      tag_52\n      jump\t// in\n    tag_51:\n      dup1\n      0x1f\n      add\n      0x20\n      dup1\n      swap2\n      div\n      mul\n      0x20\n      add\n      mload(0x40)\n      swap1\n      dup2\n      add\n      0x40\n      mstore\n      dup1\n      swap3\n      swap2\n      swap1\n      dup2\n      dup2\n      mstore\n      0x20\n      add\n      dup3\n      dup1\n      sload\n      tag_53\n      swap1\n      tag_52\n      jump\t// in\n    tag_53:\n      dup1\n      iszero\n      tag_54\n      jumpi\n      dup1\n      0x1f\n      lt\n      tag_55\n      jumpi\n      0x0100\n      dup1\n      dup4\n      sload\n      div\n      mul\n      dup4\n      mstore\n      swap2\n      0x20\n      add\n      swap2\n      jump(tag_54)\n    tag_55:\n      dup3\n      add\n      swap2\n      swap1\n      0x00\n      mstore\n      keccak256(0x00, 0x20)\n      swap1\n    tag_56:\n      dup2\n      sload\n      dup2\n      mstore\n      swap1\n      0x01\n      add\n      swap1\n      0x20\n      add\n      dup1\n      dup4\n      gt\n      tag_56\n      jumpi\n      dup3\n      swap1\n      sub\n      0x1f\n      and\n      dup3\n      add\n      swap2\n    tag_54:\n      pop\n      pop\n      pop\n      pop\n      pop\n      dup2\n      mstore\n      0x20\n      add\n      0x01\n      dup3\n      add\n      sload\n      dup2\n      mstore\n      pop\n      pop\n      swap1\n      pop\n        /* \"contracts/SimpleStorage.sol\":738:747  validator */\n      dup1\n        /* \"contracts/SimpleStorage.sol\":738:752  validator.name */\n      0x00\n      add\n      mload\n        /* \"contracts/SimpleStorage.sol\":754:763  validator */\n      dup2\n        /* \"contracts/SimpleStorage.sol\":754:767  validator.age */\n      0x20\n      add\n      mload\n        /* \"contracts/SimpleStorage.sol\":730:768  return (validator.name, validator.age) */\n      swap3\n      pop\n      swap3\n      pop\n      pop\n        /* \"contracts/SimpleStorage.sol\":564:776  function printValidator(address _walletAddress) public view returns(string memory, uint256) {... */\n      swap2\n      pop\n      swap2\n      jump\t// out\n        /* \"contracts/ExtraStorage.sol\":140:292  function changeNumber(uint256 _additionalNumber) public override returns(uint256) {... */\n    tag_22:\n        /* \"contracts/ExtraStorage.sol\":213:220  uint256 */\n      0x00\n        /* \"contracts/ExtraStorage.sol\":243:260  _additionalNumber */\n      dup2\n        /* \"contracts/ExtraStorage.sol\":233:239  number */\n      0x04\n      0x00\n        /* \"contracts/ExtraStorage.sol\":233:260  number += _additionalNumber */\n      dup3\n      dup3\n      sload\n      tag_58\n      swap2\n      swap1\n      tag_59\n      jump\t// in\n    tag_58:\n      swap3\n      pop\n      pop\n      dup2\n      swap1\n      sstore\n      pop\n        /* \"contracts/ExtraStorage.sol\":278:284  number */\n      sload(0x04)\n        /* \"contracts/ExtraStorage.sol\":271:284  return number */\n      swap1\n      pop\n        /* \"contracts/ExtraStorage.sol\":140:292  function changeNumber(uint256 _additionalNumber) public override returns(uint256) {... */\n      swap2\n      swap1\n      pop\n      jump\t// out\n        /* \"contracts/SimpleStorage.sol\":1023:1132  function addUser(string memory _name, uint256 _age) public {... */\n    tag_28:\n        /* \"contracts/SimpleStorage.sol\":1093:1098  users */\n      0x00\n        /* \"contracts/SimpleStorage.sol\":1104:1123  People(_name, _age) */\n      mload(0x40)\n      dup1\n      0x40\n      add\n      0x40\n      mstore\n      dup1\n        /* \"contracts/SimpleStorage.sol\":1111:1116  _name */\n      dup5\n        /* \"contracts/SimpleStorage.sol\":1104:1123  People(_name, _age) */\n      dup2\n      mstore\n      0x20\n      add\n        /* \"contracts/SimpleStorage.sol\":1118:1122  _age */\n      dup4\n        /* \"contracts/SimpleStorage.sol\":1104:1123  People(_name, _age) */\n      dup2\n      mstore\n      pop\n        /* \"contracts/SimpleStorage.sol\":1093:1124  users.push(People(_name, _age)) */\n      swap1\n      dup1\n      0x01\n      dup2\n      sload\n      add\n      dup1\n      dup3\n      sstore\n      dup1\n      swap2\n      pop\n      pop\n      0x01\n      swap1\n      sub\n      swap1\n      0x00\n      mstore\n      keccak256(0x00, 0x20)\n      swap1\n      0x02\n      mul\n      add\n      0x00\n      swap1\n      swap2\n      swap1\n      swap2\n      swap1\n      swap2\n      pop\n      0x00\n      dup3\n      add\n      mload\n      dup2\n      0x00\n      add\n      swap1\n      dup2\n      tag_62\n      swap2\n      swap1\n      tag_63\n      jump\t// in\n    tag_62:\n      pop\n      0x20\n      dup3\n      add\n      mload\n      dup2\n      0x01\n      add\n      sstore\n      pop\n      pop\n        /* \"contracts/SimpleStorage.sol\":1023:1132  function addUser(string memory _name, uint256 _age) public {... */\n      pop\n      pop\n      jump\t// out\n        /* \"contracts/SimpleStorage.sol\":165:186  People[] public users */\n    tag_31:\n      0x00\n      dup2\n      dup2\n      sload\n      dup2\n      lt\n      tag_64\n      jumpi\n      0x00\n      dup1\n      revert\n    tag_64:\n      swap1\n      0x00\n      mstore\n      keccak256(0x00, 0x20)\n      swap1\n      0x02\n      mul\n      add\n      0x00\n      swap2\n      pop\n      swap1\n      pop\n      dup1\n      0x00\n      add\n      dup1\n      sload\n      tag_66\n      swap1\n      tag_52\n      jump\t// in\n    tag_66:\n      dup1\n      0x1f\n      add\n      0x20\n      dup1\n      swap2\n      div\n      mul\n      0x20\n      add\n      mload(0x40)\n      swap1\n      dup2\n      add\n      0x40\n      mstore\n      dup1\n      swap3\n      swap2\n      swap1\n      dup2\n      dup2\n      mstore\n      0x20\n      add\n      dup3\n      dup1\n      sload\n      tag_67\n      swap1\n      tag_52\n      jump\t// in\n    tag_67:\n      dup1\n      iszero\n      tag_68\n      jumpi\n      dup1\n      0x1f\n      lt\n      tag_69\n      jumpi\n      0x0100\n      dup1\n      dup4\n      sload\n      div\n      mul\n      dup4\n      mstore\n      swap2\n      0x20\n      add\n      swap2\n      jump(tag_68)\n    tag_69:\n      dup3\n      add\n      swap2\n      swap1\n      0x00\n      mstore\n      keccak256(0x00, 0x20)\n      swap1\n    tag_70:\n      dup2\n      sload\n      dup2\n      mstore\n      swap1\n      0x01\n      add\n      swap1\n      0x20\n      add\n      dup1\n      dup4\n      gt\n      tag_70\n      jumpi\n      dup3\n      swap1\n      sub\n      0x1f\n      and\n      dup3\n      add\n      swap2\n    tag_68:\n      pop\n      pop\n      pop\n      pop\n      pop\n      swap1\n      dup1\n      0x01\n      add\n      sload\n      swap1\n      pop\n      dup3\n      jump\t// out\n        /* \"contracts/SimpleStorage.sol\":784:1015  function logValidators() public {... */\n    tag_34:\n        /* \"contracts/SimpleStorage.sol\":831:840  uint256 i */\n      0x00\n        /* \"contracts/SimpleStorage.sol\":843:844  0 */\n      0x00\n        /* \"contracts/SimpleStorage.sol\":831:844  uint256 i = 0 */\n      swap1\n      pop\n        /* \"contracts/SimpleStorage.sol\":827:1008  for(uint256 i = 0; i<validatorAddresses.length; i++){... */\n    tag_72:\n        /* \"contracts/SimpleStorage.sol\":848:866  validatorAddresses */\n      0x02\n        /* \"contracts/SimpleStorage.sol\":848:873  validatorAddresses.length */\n      dup1\n      sload\n      swap1\n      pop\n        /* \"contracts/SimpleStorage.sol\":846:847  i */\n      dup2\n        /* \"contracts/SimpleStorage.sol\":846:873  i<validatorAddresses.length */\n      lt\n        /* \"contracts/SimpleStorage.sol\":827:1008  for(uint256 i = 0; i<validatorAddresses.length; i++){... */\n      iszero\n      tag_73\n      jumpi\n        /* \"contracts/SimpleStorage.sol\":899:996  logValidatorsEvent(validators[validatorAddresses[i]].name, validators[validatorAddresses[i]].age) */\n      0x8fd40d2776b50a211118b480c9bf278a55c60d9ea54dc8666a9fb323744c1121\n        /* \"contracts/SimpleStorage.sol\":918:928  validators */\n      0x01\n        /* \"contracts/SimpleStorage.sol\":918:951  validators[validatorAddresses[i]] */\n      0x00\n        /* \"contracts/SimpleStorage.sol\":929:947  validatorAddresses */\n      0x02\n        /* \"contracts/SimpleStorage.sol\":948:949  i */\n      dup5\n        /* \"contracts/SimpleStorage.sol\":929:950  validatorAddresses[i] */\n      dup2\n      sload\n      dup2\n      lt\n      tag_75\n      jumpi\n      tag_76\n      tag_77\n      jump\t// in\n    tag_76:\n    tag_75:\n      swap1\n      0x00\n      mstore\n      keccak256(0x00, 0x20)\n      add\n      0x00\n      swap1\n      sload\n      swap1\n      0x0100\n      exp\n      swap1\n      div\n      0xffffffffffffffffffffffffffffffffffffffff\n      and\n        /* \"contracts/SimpleStorage.sol\":918:951  validators[validatorAddresses[i]] */\n      0xffffffffffffffffffffffffffffffffffffffff\n      and\n      0xffffffffffffffffffffffffffffffffffffffff\n      and\n      dup2\n      mstore\n      0x20\n      add\n      swap1\n      dup2\n      mstore\n      0x20\n      add\n      0x00\n      keccak256\n        /* \"contracts/SimpleStorage.sol\":918:956  validators[validatorAddresses[i]].name */\n      0x00\n      add\n        /* \"contracts/SimpleStorage.sol\":958:968  validators */\n      0x01\n        /* \"contracts/SimpleStorage.sol\":958:991  validators[validatorAddresses[i]] */\n      0x00\n        /* \"contracts/SimpleStorage.sol\":969:987  validatorAddresses */\n      0x02\n        /* \"contracts/SimpleStorage.sol\":988:989  i */\n      dup6\n        /* \"contracts/SimpleStorage.sol\":969:990  validatorAddresses[i] */\n      dup2\n      sload\n      dup2\n      lt\n      tag_79\n      jumpi\n      tag_80\n      tag_77\n      jump\t// in\n    tag_80:\n    tag_79:\n      swap1\n      0x00\n      mstore\n      keccak256(0x00, 0x20)\n      add\n      0x00\n      swap1\n      sload\n      swap1\n      0x0100\n      exp\n      swap1\n      div\n      0xffffffffffffffffffffffffffffffffffffffff\n      and\n        /* \"contracts/SimpleStorage.sol\":958:991  validators[validatorAddresses[i]] */\n      0xffffffffffffffffffffffffffffffffffffffff\n      and\n      0xffffffffffffffffffffffffffffffffffffffff\n      and\n      dup2\n      mstore\n      0x20\n      add\n      swap1\n      dup2\n      mstore\n      0x20\n      add\n      0x00\n      keccak256\n        /* \"contracts/SimpleStorage.sol\":958:995  validators[validatorAddresses[i]].age */\n      0x01\n      add\n      sload\n        /* \"contracts/SimpleStorage.sol\":899:996  logValidatorsEvent(validators[validatorAddresses[i]].name, validators[validatorAddresses[i]].age) */\n      mload(0x40)\n      tag_82\n      swap3\n      swap2\n      swap1\n      tag_83\n      jump\t// in\n    tag_82:\n      mload(0x40)\n      dup1\n      swap2\n      sub\n      swap1\n      log1\n        /* \"contracts/SimpleStorage.sol\":875:878  i++ */\n      dup1\n      dup1\n      0x01\n      add\n      swap2\n      pop\n      pop\n        /* \"contracts/SimpleStorage.sol\":827:1008  for(uint256 i = 0; i<validatorAddresses.length; i++){... */\n      jump(tag_72)\n    tag_73:\n      pop\n        /* \"contracts/SimpleStorage.sol\":784:1015  function logValidators() public {... */\n      jump\t// out\n        /* \"contracts/SimpleStorage.sol\":291:497  function addValidators(address _walletAddress, string memory _name, uint256 _age) public {... */\n    tag_38:\n        /* \"contracts/SimpleStorage.sol\":420:439  People(_name, _age) */\n      mload(0x40)\n      dup1\n      0x40\n      add\n      0x40\n      mstore\n      dup1\n        /* \"contracts/SimpleStorage.sol\":427:432  _name */\n      dup4\n        /* \"contracts/SimpleStorage.sol\":420:439  People(_name, _age) */\n      dup2\n      mstore\n      0x20\n      add\n        /* \"contracts/SimpleStorage.sol\":434:438  _age */\n      dup3\n        /* \"contracts/SimpleStorage.sol\":420:439  People(_name, _age) */\n      dup2\n      mstore\n      pop\n        /* \"contracts/SimpleStorage.sol\":391:401  validators */\n      0x01\n        /* \"contracts/SimpleStorage.sol\":391:417  validators[_walletAddress] */\n      0x00\n        /* \"contracts/SimpleStorage.sol\":402:416  _walletAddress */\n      dup6\n        /* \"contracts/SimpleStorage.sol\":391:417  validators[_walletAddress] */\n      0xffffffffffffffffffffffffffffffffffffffff\n      and\n      0xffffffffffffffffffffffffffffffffffffffff\n      and\n      dup2\n      mstore\n      0x20\n      add\n      swap1\n      dup2\n      mstore\n      0x20\n      add\n      0x00\n      keccak256\n        /* \"contracts/SimpleStorage.sol\":391:439  validators[_walletAddress] = People(_name, _age) */\n      0x00\n      dup3\n      add\n      mload\n      dup2\n      0x00\n      add\n      swap1\n      dup2\n      tag_85\n      swap2\n      swap1\n      tag_63\n      jump\t// in\n    tag_85:\n      pop\n      0x20\n      dup3\n      add\n      mload\n      dup2\n      0x01\n      add\n      sstore\n      swap1\n      pop\n      pop\n        /* \"contracts/SimpleStorage.sol\":450:468  validatorAddresses */\n      0x02\n        /* \"contracts/SimpleStorage.sol\":474:488  _walletAddress */\n      dup4\n        /* \"contracts/SimpleStorage.sol\":450:489  validatorAddresses.push(_walletAddress) */\n      swap1\n      dup1\n      0x01\n      dup2\n      sload\n      add\n      dup1\n      dup3\n      sstore\n      dup1\n      swap2\n      pop\n      pop\n      0x01\n      swap1\n      sub\n      swap1\n      0x00\n      mstore\n      keccak256(0x00, 0x20)\n      add\n      0x00\n      swap1\n      swap2\n      swap1\n      swap2\n      swap1\n      swap2\n      0x0100\n      exp\n      dup2\n      sload\n      dup2\n      0xffffffffffffffffffffffffffffffffffffffff\n      mul\n      not\n      and\n      swap1\n      dup4\n      0xffffffffffffffffffffffffffffffffffffffff\n      and\n      mul\n      or\n      swap1\n      sstore\n      pop\n        /* \"contracts/SimpleStorage.sol\":291:497  function addValidators(address _walletAddress, string memory _name, uint256 _age) public {... */\n      pop\n      pop\n      pop\n      jump\t// out\n        /* \"contracts/SimpleStorage.sol\":246:281  address[] public validatorAddresses */\n    tag_41:\n      0x02\n      dup2\n      dup2\n      sload\n      dup2\n      lt\n      tag_87\n      jumpi\n      0x00\n      dup1\n      revert\n    tag_87:\n      swap1\n      0x00\n      mstore\n      keccak256(0x00, 0x20)\n      add\n      0x00\n      swap2\n      pop\n      sload\n      swap1\n      0x0100\n      exp\n      swap1\n      div\n      0xffffffffffffffffffffffffffffffffffffffff\n      and\n      dup2\n      jump\t// out\n        /* \"contracts/SimpleStorage.sol\":1232:1393  function logUsers() public {... */\n    tag_45:\n        /* \"contracts/SimpleStorage.sol\":1274:1283  uint256 i */\n      0x00\n        /* \"contracts/SimpleStorage.sol\":1286:1287  0 */\n      0x00\n        /* \"contracts/SimpleStorage.sol\":1274:1287  uint256 i = 0 */\n      swap1\n      pop\n        /* \"contracts/SimpleStorage.sol\":1270:1386  for(uint256 i = 0; i<users.length; i++) {... */\n    tag_90:\n        /* \"contracts/SimpleStorage.sol\":1291:1296  users */\n      0x00\n        /* \"contracts/SimpleStorage.sol\":1291:1303  users.length */\n      dup1\n      sload\n      swap1\n      pop\n        /* \"contracts/SimpleStorage.sol\":1289:1290  i */\n      dup2\n        /* \"contracts/SimpleStorage.sol\":1289:1303  i<users.length */\n      lt\n        /* \"contracts/SimpleStorage.sol\":1270:1386  for(uint256 i = 0; i<users.length; i++) {... */\n      iszero\n      tag_91\n      jumpi\n        /* \"contracts/SimpleStorage.sol\":1330:1374  printUsersEvent(users[i].name, users[i].age) */\n      0xc0a21ab21926025efd867c8ee07294fe346113056d91864434bfcb66bd4b4d08\n        /* \"contracts/SimpleStorage.sol\":1346:1351  users */\n      0x00\n        /* \"contracts/SimpleStorage.sol\":1352:1353  i */\n      dup3\n        /* \"contracts/SimpleStorage.sol\":1346:1354  users[i] */\n      dup2\n      sload\n      dup2\n      lt\n      tag_93\n      jumpi\n      tag_94\n      tag_77\n      jump\t// in\n    tag_94:\n    tag_93:\n      swap1\n      0x00\n      mstore\n      keccak256(0x00, 0x20)\n      swap1\n      0x02\n      mul\n      add\n        /* \"contracts/SimpleStorage.sol\":1346:1359  users[i].name */\n      0x00\n      add\n        /* \"contracts/SimpleStorage.sol\":1361:1366  users */\n      0x00\n        /* \"contracts/SimpleStorage.sol\":1367:1368  i */\n      dup4\n        /* \"contracts/SimpleStorage.sol\":1361:1369  users[i] */\n      dup2\n      sload\n      dup2\n      lt\n      tag_96\n      jumpi\n      tag_97\n      tag_77\n      jump\t// in\n    tag_97:\n    tag_96:\n      swap1\n      0x00\n      mstore\n      keccak256(0x00, 0x20)\n      swap1\n      0x02\n      mul\n      add\n        /* \"contracts/SimpleStorage.sol\":1361:1373  users[i].age */\n      0x01\n      add\n      sload\n        /* \"contracts/SimpleStorage.sol\":1330:1374  printUsersEvent(users[i].name, users[i].age) */\n      mload(0x40)\n      tag_99\n      swap3\n      swap2\n      swap1\n      tag_83\n      jump\t// in\n    tag_99:\n      mload(0x40)\n      dup1\n      swap2\n      sub\n      swap1\n      log1\n        /* \"contracts/SimpleStorage.sol\":1305:1308  i++ */\n      dup1\n      dup1\n      0x01\n      add\n      swap2\n      pop\n      pop\n        /* \"contracts/SimpleStorage.sol\":1270:1386  for(uint256 i = 0; i<users.length; i++) {... */\n      jump(tag_90)\n    tag_91:\n      pop\n        /* \"contracts/SimpleStorage.sol\":1232:1393  function logUsers() public {... */\n      jump\t// out\n        /* \"contracts/SimpleStorage.sol\":195:239  mapping(address => People) public validators */\n    tag_48:\n      mstore(0x20, 0x01)\n      dup1\n      0x00\n      mstore\n      keccak256(0x00, 0x40)\n      0x00\n      swap2\n      pop\n      swap1\n      pop\n      dup1\n      0x00\n      add\n      dup1\n      sload\n      tag_100\n      swap1\n      tag_52\n      jump\t// in\n    tag_100:\n      dup1\n      0x1f\n      add\n      0x20\n      dup1\n      swap2\n      div\n      mul\n      0x20\n      add\n      mload(0x40)\n      swap1\n      dup2\n      add\n      0x40\n      mstore\n      dup1\n      swap3\n      swap2\n      swap1\n      dup2\n      dup2\n      mstore\n      0x20\n      add\n      dup3\n      dup1\n      sload\n      tag_101\n      swap1\n      tag_52\n      jump\t// in\n    tag_101:\n      dup1\n      iszero\n      tag_102\n      jumpi\n      dup1\n      0x1f\n      lt\n      tag_103\n      jumpi\n      0x0100\n      dup1\n      dup4\n      sload\n      div\n      mul\n      dup4\n      mstore\n      swap2\n      0x20\n      add\n      swap2\n      jump(tag_102)\n    tag_103:\n      dup3\n      add\n      swap2\n      swap1\n      0x00\n      mstore\n      keccak256(0x00, 0x20)\n      swap1\n    tag_104:\n      dup2\n      sload\n      dup2\n      mstore\n      swap1\n      0x01\n      add\n      swap1\n      0x20\n      add\n      dup1\n      dup4\n      gt\n      tag_104\n      jumpi\n      dup3\n      swap1\n      sub\n      0x1f\n      and\n      dup3\n      add\n      swap2\n    tag_102:\n      pop\n      pop\n      pop\n      pop\n      pop\n      swap1\n      dup1\n      0x01\n      add\n      sload\n      swap1\n      pop\n      dup3\n      jump\t// out\n        /* \"#utility.yul\":7:82   */\n    tag_105:\n        /* \"#utility.yul\":40:46   */\n      0x00\n        /* \"#utility.yul\":73:75   */\n      0x40\n        /* \"#utility.yul\":67:76   */\n      mload\n        /* \"#utility.yul\":57:76   */\n      swap1\n      pop\n        /* \"#utility.yul\":7:82   */\n      swap1\n      jump\t// out\n        /* \"#utility.yul\":88:205   */\n    tag_106:\n        /* \"#utility.yul\":197:198   */\n      0x00\n        /* \"#utility.yul\":194:195   */\n      0x00\n        /* \"#utility.yul\":187:199   */\n      revert\n        /* \"#utility.yul\":211:328   */\n    tag_107:\n        /* \"#utility.yul\":320:321   */\n      0x00\n        /* \"#utility.yul\":317:318   */\n      0x00\n        /* \"#utility.yul\":310:322   */\n      revert\n        /* \"#utility.yul\":334:460   */\n    tag_108:\n        /* \"#utility.yul\":371:378   */\n      0x00\n        /* \"#utility.yul\":411:453   */\n      0xffffffffffffffffffffffffffffffffffffffff\n        /* \"#utility.yul\":404:409   */\n      dup3\n        /* \"#utility.yul\":400:454   */\n      and\n        /* \"#utility.yul\":389:454   */\n      swap1\n      pop\n        /* \"#utility.yul\":334:460   */\n      swap2\n      swap1\n      pop\n      jump\t// out\n        /* \"#utility.yul\":466:562   */\n    tag_109:\n        /* \"#utility.yul\":503:510   */\n      0x00\n        /* \"#utility.yul\":532:556   */\n      tag_155\n        /* \"#utility.yul\":550:555   */\n      dup3\n        /* \"#utility.yul\":532:556   */\n      tag_108\n      jump\t// in\n    tag_155:\n        /* \"#utility.yul\":521:556   */\n      swap1\n      pop\n        /* \"#utility.yul\":466:562   */\n      swap2\n      swap1\n      pop\n      jump\t// out\n        /* \"#utility.yul\":568:690   */\n    tag_110:\n        /* \"#utility.yul\":641:665   */\n      tag_157\n        /* \"#utility.yul\":659:664   */\n      dup2\n        /* \"#utility.yul\":641:665   */\n      tag_109\n      jump\t// in\n    tag_157:\n        /* \"#utility.yul\":634:639   */\n      dup2\n        /* \"#utility.yul\":631:666   */\n      eq\n        /* \"#utility.yul\":621:684   */\n      tag_158\n      jumpi\n        /* \"#utility.yul\":680:681   */\n      0x00\n        /* \"#utility.yul\":677:678   */\n      0x00\n        /* \"#utility.yul\":670:682   */\n      revert\n        /* \"#utility.yul\":621:684   */\n    tag_158:\n        /* \"#utility.yul\":568:690   */\n      pop\n      jump\t// out\n        /* \"#utility.yul\":696:835   */\n    tag_111:\n        /* \"#utility.yul\":742:747   */\n      0x00\n        /* \"#utility.yul\":780:786   */\n      dup2\n        /* \"#utility.yul\":767:787   */\n      calldataload\n        /* \"#utility.yul\":758:787   */\n      swap1\n      pop\n        /* \"#utility.yul\":796:829   */\n      tag_160\n        /* \"#utility.yul\":823:828   */\n      dup2\n        /* \"#utility.yul\":796:829   */\n      tag_110\n      jump\t// in\n    tag_160:\n        /* \"#utility.yul\":696:835   */\n      swap3\n      swap2\n      pop\n      pop\n      jump\t// out\n        /* \"#utility.yul\":841:1170   */\n    tag_15:\n        /* \"#utility.yul\":900:906   */\n      0x00\n        /* \"#utility.yul\":949:951   */\n      0x20\n        /* \"#utility.yul\":937:946   */\n      dup3\n        /* \"#utility.yul\":928:935   */\n      dup5\n        /* \"#utility.yul\":924:947   */\n      sub\n        /* \"#utility.yul\":920:952   */\n      slt\n        /* \"#utility.yul\":917:1036   */\n      iszero\n      tag_162\n      jumpi\n        /* \"#utility.yul\":955:1034   */\n      tag_163\n      tag_106\n      jump\t// in\n    tag_163:\n        /* \"#utility.yul\":917:1036   */\n    tag_162:\n        /* \"#utility.yul\":1075:1076   */\n      0x00\n        /* \"#utility.yul\":1100:1153   */\n      tag_164\n        /* \"#utility.yul\":1145:1152   */\n      dup5\n        /* \"#utility.yul\":1136:1142   */\n      dup3\n        /* \"#utility.yul\":1125:1134   */\n      dup6\n        /* \"#utility.yul\":1121:1143   */\n      add\n        /* \"#utility.yul\":1100:1153   */\n      tag_111\n      jump\t// in\n    tag_164:\n        /* \"#utility.yul\":1090:1153   */\n      swap2\n      pop\n        /* \"#utility.yul\":1046:1163   */\n      pop\n        /* \"#utility.yul\":841:1170   */\n      swap3\n      swap2\n      pop\n      pop\n      jump\t// out\n        /* \"#utility.yul\":1176:1275   */\n    tag_112:\n        /* \"#utility.yul\":1228:1234   */\n      0x00\n        /* \"#utility.yul\":1262:1267   */\n      dup2\n        /* \"#utility.yul\":1256:1268   */\n      mload\n        /* \"#utility.yul\":1246:1268   */\n      swap1\n      pop\n        /* \"#utility.yul\":1176:1275   */\n      swap2\n      swap1\n      pop\n      jump\t// out\n        /* \"#utility.yul\":1281:1450   */\n    tag_113:\n        /* \"#utility.yul\":1365:1376   */\n      0x00\n        /* \"#utility.yul\":1399:1405   */\n      dup3\n        /* \"#utility.yul\":1394:1397   */\n      dup3\n        /* \"#utility.yul\":1387:1406   */\n      mstore\n        /* \"#utility.yul\":1439:1443   */\n      0x20\n        /* \"#utility.yul\":1434:1437   */\n      dup3\n        /* \"#utility.yul\":1430:1444   */\n      add\n        /* \"#utility.yul\":1415:1444   */\n      swap1\n      pop\n        /* \"#utility.yul\":1281:1450   */\n      swap3\n      swap2\n      pop\n      pop\n      jump\t// out\n        /* \"#utility.yul\":1456:1595   */\n    tag_114:\n        /* \"#utility.yul\":1545:1551   */\n      dup3\n        /* \"#utility.yul\":1540:1543   */\n      dup2\n        /* \"#utility.yul\":1535:1538   */\n      dup4\n        /* \"#utility.yul\":1529:1552   */\n      mcopy\n        /* \"#utility.yul\":1586:1587   */\n      0x00\n        /* \"#utility.yul\":1577:1583   */\n      dup4\n        /* \"#utility.yul\":1572:1575   */\n      dup4\n        /* \"#utility.yul\":1568:1584   */\n      add\n        /* \"#utility.yul\":1561:1588   */\n      mstore\n        /* \"#utility.yul\":1456:1595   */\n      pop\n      pop\n      pop\n      jump\t// out\n        /* \"#utility.yul\":1601:1703   */\n    tag_115:\n        /* \"#utility.yul\":1642:1648   */\n      0x00\n        /* \"#utility.yul\":1693:1695   */\n      0x1f\n        /* \"#utility.yul\":1689:1696   */\n      not\n        /* \"#utility.yul\":1684:1686   */\n      0x1f\n        /* \"#utility.yul\":1677:1682   */\n      dup4\n        /* \"#utility.yul\":1673:1687   */\n      add\n        /* \"#utility.yul\":1669:1697   */\n      and\n        /* \"#utility.yul\":1659:1697   */\n      swap1\n      pop\n        /* \"#utility.yul\":1601:1703   */\n      swap2\n      swap1\n      pop\n      jump\t// out\n        /* \"#utility.yul\":1709:2086   */\n    tag_116:\n        /* \"#utility.yul\":1797:1800   */\n      0x00\n        /* \"#utility.yul\":1825:1864   */\n      tag_170\n        /* \"#utility.yul\":1858:1863   */\n      dup3\n        /* \"#utility.yul\":1825:1864   */\n      tag_112\n      jump\t// in\n    tag_170:\n        /* \"#utility.yul\":1880:1951   */\n      tag_171\n        /* \"#utility.yul\":1944:1950   */\n      dup2\n        /* \"#utility.yul\":1939:1942   */\n      dup6\n        /* \"#utility.yul\":1880:1951   */\n      tag_113\n      jump\t// in\n    tag_171:\n        /* \"#utility.yul\":1873:1951   */\n      swap4\n      pop\n        /* \"#utility.yul\":1960:2025   */\n      tag_172\n        /* \"#utility.yul\":2018:2024   */\n      dup2\n        /* \"#utility.yul\":2013:2016   */\n      dup6\n        /* \"#utility.yul\":2006:2010   */\n      0x20\n        /* \"#utility.yul\":1999:2004   */\n      dup7\n        /* \"#utility.yul\":1995:2011   */\n      add\n        /* \"#utility.yul\":1960:2025   */\n      tag_114\n      jump\t// in\n    tag_172:\n        /* \"#utility.yul\":2050:2079   */\n      tag_173\n        /* \"#utility.yul\":2072:2078   */\n      dup2\n        /* \"#utility.yul\":2050:2079   */\n      tag_115\n      jump\t// in\n    tag_173:\n        /* \"#utility.yul\":2045:2048   */\n      dup5\n        /* \"#utility.yul\":2041:2080   */\n      add\n        /* \"#utility.yul\":2034:2080   */\n      swap2\n      pop\n        /* \"#utility.yul\":1801:2086   */\n      pop\n        /* \"#utility.yul\":1709:2086   */\n      swap3\n      swap2\n      pop\n      pop\n      jump\t// out\n        /* \"#utility.yul\":2092:2169   */\n    tag_117:\n        /* \"#utility.yul\":2129:2136   */\n      0x00\n        /* \"#utility.yul\":2158:2163   */\n      dup2\n        /* \"#utility.yul\":2147:2163   */\n      swap1\n      pop\n        /* \"#utility.yul\":2092:2169   */\n      swap2\n      swap1\n      pop\n      jump\t// out\n        /* \"#utility.yul\":2175:2293   */\n    tag_118:\n        /* \"#utility.yul\":2262:2286   */\n      tag_176\n        /* \"#utility.yul\":2280:2285   */\n      dup2\n        /* \"#utility.yul\":2262:2286   */\n      tag_117\n      jump\t// in\n    tag_176:\n        /* \"#utility.yul\":2257:2260   */\n      dup3\n        /* \"#utility.yul\":2250:2287   */\n      mstore\n        /* \"#utility.yul\":2175:2293   */\n      pop\n      pop\n      jump\t// out\n        /* \"#utility.yul\":2299:2722   */\n    tag_18:\n        /* \"#utility.yul\":2440:2444   */\n      0x00\n        /* \"#utility.yul\":2478:2480   */\n      0x40\n        /* \"#utility.yul\":2467:2476   */\n      dup3\n        /* \"#utility.yul\":2463:2481   */\n      add\n        /* \"#utility.yul\":2455:2481   */\n      swap1\n      pop\n        /* \"#utility.yul\":2527:2536   */\n      dup2\n        /* \"#utility.yul\":2521:2525   */\n      dup2\n        /* \"#utility.yul\":2517:2537   */\n      sub\n        /* \"#utility.yul\":2513:2514   */\n      0x00\n        /* \"#utility.yul\":2502:2511   */\n      dup4\n        /* \"#utility.yul\":2498:2515   */\n      add\n        /* \"#utility.yul\":2491:2538   */\n      mstore\n        /* \"#utility.yul\":2555:2633   */\n      tag_178\n        /* \"#utility.yul\":2628:2632   */\n      dup2\n        /* \"#utility.yul\":2619:2625   */\n      dup6\n        /* \"#utility.yul\":2555:2633   */\n      tag_116\n      jump\t// in\n    tag_178:\n        /* \"#utility.yul\":2547:2633   */\n      swap1\n      pop\n        /* \"#utility.yul\":2643:2715   */\n      tag_179\n        /* \"#utility.yul\":2711:2713   */\n      0x20\n        /* \"#utility.yul\":2700:2709   */\n      dup4\n        /* \"#utility.yul\":2696:2714   */\n      add\n        /* \"#utility.yul\":2687:2693   */\n      dup5\n        /* \"#utility.yul\":2643:2715   */\n      tag_118\n      jump\t// in\n    tag_179:\n        /* \"#utility.yul\":2299:2722   */\n      swap4\n      swap3\n      pop\n      pop\n      pop\n      jump\t// out\n        /* \"#utility.yul\":2728:2850   */\n    tag_119:\n        /* \"#utility.yul\":2801:2825   */\n      tag_181\n        /* \"#utility.yul\":2819:2824   */\n      dup2\n        /* \"#utility.yul\":2801:2825   */\n      tag_117\n      jump\t// in\n    tag_181:\n        /* \"#utility.yul\":2794:2799   */\n      dup2\n        /* \"#utility.yul\":2791:2826   */\n      eq\n        /* \"#utility.yul\":2781:2844   */\n      tag_182\n      jumpi\n        /* \"#utility.yul\":2840:2841   */\n      0x00\n        /* \"#utility.yul\":2837:2838   */\n      0x00\n        /* \"#utility.yul\":2830:2842   */\n      revert\n        /* \"#utility.yul\":2781:2844   */\n    tag_182:\n        /* \"#utility.yul\":2728:2850   */\n      pop\n      jump\t// out\n        /* \"#utility.yul\":2856:2995   */\n    tag_120:\n        /* \"#utility.yul\":2902:2907   */\n      0x00\n        /* \"#utility.yul\":2940:2946   */\n      dup2\n        /* \"#utility.yul\":2927:2947   */\n      calldataload\n        /* \"#utility.yul\":2918:2947   */\n      swap1\n      pop\n        /* \"#utility.yul\":2956:2989   */\n      tag_184\n        /* \"#utility.yul\":2983:2988   */\n      dup2\n        /* \"#utility.yul\":2956:2989   */\n      tag_119\n      jump\t// in\n    tag_184:\n        /* \"#utility.yul\":2856:2995   */\n      swap3\n      swap2\n      pop\n      pop\n      jump\t// out\n        /* \"#utility.yul\":3001:3330   */\n    tag_21:\n        /* \"#utility.yul\":3060:3066   */\n      0x00\n        /* \"#utility.yul\":3109:3111   */\n      0x20\n        /* \"#utility.yul\":3097:3106   */\n      dup3\n        /* \"#utility.yul\":3088:3095   */\n      dup5\n        /* \"#utility.yul\":3084:3107   */\n      sub\n        /* \"#utility.yul\":3080:3112   */\n      slt\n        /* \"#utility.yul\":3077:3196   */\n      iszero\n      tag_186\n      jumpi\n        /* \"#utility.yul\":3115:3194   */\n      tag_187\n      tag_106\n      jump\t// in\n    tag_187:\n        /* \"#utility.yul\":3077:3196   */\n    tag_186:\n        /* \"#utility.yul\":3235:3236   */\n      0x00\n        /* \"#utility.yul\":3260:3313   */\n      tag_188\n        /* \"#utility.yul\":3305:3312   */\n      dup5\n        /* \"#utility.yul\":3296:3302   */\n      dup3\n        /* \"#utility.yul\":3285:3294   */\n      dup6\n        /* \"#utility.yul\":3281:3303   */\n      add\n        /* \"#utility.yul\":3260:3313   */\n      tag_120\n      jump\t// in\n    tag_188:\n        /* \"#utility.yul\":3250:3313   */\n      swap2\n      pop\n        /* \"#utility.yul\":3206:3323   */\n      pop\n        /* \"#utility.yul\":3001:3330   */\n      swap3\n      swap2\n      pop\n      pop\n      jump\t// out\n        /* \"#utility.yul\":3336:3558   */\n    tag_24:\n        /* \"#utility.yul\":3429:3433   */\n      0x00\n        /* \"#utility.yul\":3467:3469   */\n      0x20\n        /* \"#utility.yul\":3456:3465   */\n      dup3\n        /* \"#utility.yul\":3452:3470   */\n      add\n        /* \"#utility.yul\":3444:3470   */\n      swap1\n      pop\n        /* \"#utility.yul\":3480:3551   */\n      tag_190\n        /* \"#utility.yul\":3548:3549   */\n      0x00\n        /* \"#utility.yul\":3537:3546   */\n      dup4\n        /* \"#utility.yul\":3533:3550   */\n      add\n        /* \"#utility.yul\":3524:3530   */\n      dup5\n        /* \"#utility.yul\":3480:3551   */\n      tag_118\n      jump\t// in\n    tag_190:\n        /* \"#utility.yul\":3336:3558   */\n      swap3\n      swap2\n      pop\n      pop\n      jump\t// out\n        /* \"#utility.yul\":3564:3681   */\n    tag_121:\n        /* \"#utility.yul\":3673:3674   */\n      0x00\n        /* \"#utility.yul\":3670:3671   */\n      0x00\n        /* \"#utility.yul\":3663:3675   */\n      revert\n        /* \"#utility.yul\":3687:3804   */\n    tag_122:\n        /* \"#utility.yul\":3796:3797   */\n      0x00\n        /* \"#utility.yul\":3793:3794   */\n      0x00\n        /* \"#utility.yul\":3786:3798   */\n      revert\n        /* \"#utility.yul\":3810:3990   */\n    tag_123:\n        /* \"#utility.yul\":3858:3935   */\n      0x4e487b7100000000000000000000000000000000000000000000000000000000\n        /* \"#utility.yul\":3855:3856   */\n      0x00\n        /* \"#utility.yul\":3848:3936   */\n      mstore\n        /* \"#utility.yul\":3955:3959   */\n      0x41\n        /* \"#utility.yul\":3952:3953   */\n      0x04\n        /* \"#utility.yul\":3945:3960   */\n      mstore\n        /* \"#utility.yul\":3979:3983   */\n      0x24\n        /* \"#utility.yul\":3976:3977   */\n      0x00\n        /* \"#utility.yul\":3969:3984   */\n      revert\n        /* \"#utility.yul\":3996:4277   */\n    tag_124:\n        /* \"#utility.yul\":4079:4106   */\n      tag_195\n        /* \"#utility.yul\":4101:4105   */\n      dup3\n        /* \"#utility.yul\":4079:4106   */\n      tag_115\n      jump\t// in\n    tag_195:\n        /* \"#utility.yul\":4071:4077   */\n      dup2\n        /* \"#utility.yul\":4067:4107   */\n      add\n        /* \"#utility.yul\":4209:4215   */\n      dup2\n        /* \"#utility.yul\":4197:4207   */\n      dup2\n        /* \"#utility.yul\":4194:4216   */\n      lt\n        /* \"#utility.yul\":4173:4191   */\n      0xffffffffffffffff\n        /* \"#utility.yul\":4161:4171   */\n      dup3\n        /* \"#utility.yul\":4158:4192   */\n      gt\n        /* \"#utility.yul\":4155:4217   */\n      or\n        /* \"#utility.yul\":4152:4240   */\n      iszero\n      tag_196\n      jumpi\n        /* \"#utility.yul\":4220:4238   */\n      tag_197\n      tag_123\n      jump\t// in\n    tag_197:\n        /* \"#utility.yul\":4152:4240   */\n    tag_196:\n        /* \"#utility.yul\":4260:4270   */\n      dup1\n        /* \"#utility.yul\":4256:4258   */\n      0x40\n        /* \"#utility.yul\":4249:4271   */\n      mstore\n        /* \"#utility.yul\":4039:4277   */\n      pop\n        /* \"#utility.yul\":3996:4277   */\n      pop\n      pop\n      jump\t// out\n        /* \"#utility.yul\":4283:4412   */\n    tag_125:\n        /* \"#utility.yul\":4317:4323   */\n      0x00\n        /* \"#utility.yul\":4344:4364   */\n      tag_199\n      tag_105\n      jump\t// in\n    tag_199:\n        /* \"#utility.yul\":4334:4364   */\n      swap1\n      pop\n        /* \"#utility.yul\":4373:4406   */\n      tag_200\n        /* \"#utility.yul\":4401:4405   */\n      dup3\n        /* \"#utility.yul\":4393:4399   */\n      dup3\n        /* \"#utility.yul\":4373:4406   */\n      tag_124\n      jump\t// in\n    tag_200:\n        /* \"#utility.yul\":4283:4412   */\n      swap2\n      swap1\n      pop\n      jump\t// out\n        /* \"#utility.yul\":4418:4726   */\n    tag_126:\n        /* \"#utility.yul\":4480:4484   */\n      0x00\n        /* \"#utility.yul\":4570:4588   */\n      0xffffffffffffffff\n        /* \"#utility.yul\":4562:4568   */\n      dup3\n        /* \"#utility.yul\":4559:4589   */\n      gt\n        /* \"#utility.yul\":4556:4612   */\n      iszero\n      tag_202\n      jumpi\n        /* \"#utility.yul\":4592:4610   */\n      tag_203\n      tag_123\n      jump\t// in\n    tag_203:\n        /* \"#utility.yul\":4556:4612   */\n    tag_202:\n        /* \"#utility.yul\":4630:4659   */\n      tag_204\n        /* \"#utility.yul\":4652:4658   */\n      dup3\n        /* \"#utility.yul\":4630:4659   */\n      tag_115\n      jump\t// in\n    tag_204:\n        /* \"#utility.yul\":4622:4659   */\n      swap1\n      pop\n        /* \"#utility.yul\":4714:4718   */\n      0x20\n        /* \"#utility.yul\":4708:4712   */\n      dup2\n        /* \"#utility.yul\":4704:4719   */\n      add\n        /* \"#utility.yul\":4696:4719   */\n      swap1\n      pop\n        /* \"#utility.yul\":4418:4726   */\n      swap2\n      swap1\n      pop\n      jump\t// out\n        /* \"#utility.yul\":4732:4880   */\n    tag_127:\n        /* \"#utility.yul\":4830:4836   */\n      dup3\n        /* \"#utility.yul\":4825:4828   */\n      dup2\n        /* \"#utility.yul\":4820:4823   */\n      dup4\n        /* \"#utility.yul\":4807:4837   */\n      calldatacopy\n        /* \"#utility.yul\":4871:4872   */\n      0x00\n        /* \"#utility.yul\":4862:4868   */\n      dup4\n        /* \"#utility.yul\":4857:4860   */\n      dup4\n        /* \"#utility.yul\":4853:4869   */\n      add\n        /* \"#utility.yul\":4846:4873   */\n      mstore\n        /* \"#utility.yul\":4732:4880   */\n      pop\n      pop\n      pop\n      jump\t// out\n        /* \"#utility.yul\":4886:5311   */\n    tag_128:\n        /* \"#utility.yul\":4964:4969   */\n      0x00\n        /* \"#utility.yul\":4989:5055   */\n      tag_207\n        /* \"#utility.yul\":5005:5054   */\n      tag_208\n        /* \"#utility.yul\":5047:5053   */\n      dup5\n        /* \"#utility.yul\":5005:5054   */\n      tag_126\n      jump\t// in\n    tag_208:\n        /* \"#utility.yul\":4989:5055   */\n      tag_125\n      jump\t// in\n    tag_207:\n        /* \"#utility.yul\":4980:5055   */\n      swap1\n      pop\n        /* \"#utility.yul\":5078:5084   */\n      dup3\n        /* \"#utility.yul\":5071:5076   */\n      dup2\n        /* \"#utility.yul\":5064:5085   */\n      mstore\n        /* \"#utility.yul\":5116:5120   */\n      0x20\n        /* \"#utility.yul\":5109:5114   */\n      dup2\n        /* \"#utility.yul\":5105:5121   */\n      add\n        /* \"#utility.yul\":5154:5157   */\n      dup5\n        /* \"#utility.yul\":5145:5151   */\n      dup5\n        /* \"#utility.yul\":5140:5143   */\n      dup5\n        /* \"#utility.yul\":5136:5152   */\n      add\n        /* \"#utility.yul\":5133:5158   */\n      gt\n        /* \"#utility.yul\":5130:5242   */\n      iszero\n      tag_209\n      jumpi\n        /* \"#utility.yul\":5161:5240   */\n      tag_210\n      tag_122\n      jump\t// in\n    tag_210:\n        /* \"#utility.yul\":5130:5242   */\n    tag_209:\n        /* \"#utility.yul\":5251:5305   */\n      tag_211\n        /* \"#utility.yul\":5298:5304   */\n      dup5\n        /* \"#utility.yul\":5293:5296   */\n      dup3\n        /* \"#utility.yul\":5288:5291   */\n      dup6\n        /* \"#utility.yul\":5251:5305   */\n      tag_127\n      jump\t// in\n    tag_211:\n        /* \"#utility.yul\":4970:5311   */\n      pop\n        /* \"#utility.yul\":4886:5311   */\n      swap4\n      swap3\n      pop\n      pop\n      pop\n      jump\t// out\n        /* \"#utility.yul\":5331:5671   */\n    tag_129:\n        /* \"#utility.yul\":5387:5392   */\n      0x00\n        /* \"#utility.yul\":5436:5439   */\n      dup3\n        /* \"#utility.yul\":5429:5433   */\n      0x1f\n        /* \"#utility.yul\":5421:5427   */\n      dup4\n        /* \"#utility.yul\":5417:5434   */\n      add\n        /* \"#utility.yul\":5413:5440   */\n      slt\n        /* \"#utility.yul\":5403:5525   */\n      tag_213\n      jumpi\n        /* \"#utility.yul\":5444:5523   */\n      tag_214\n      tag_121\n      jump\t// in\n    tag_214:\n        /* \"#utility.yul\":5403:5525   */\n    tag_213:\n        /* \"#utility.yul\":5561:5567   */\n      dup2\n        /* \"#utility.yul\":5548:5568   */\n      calldataload\n        /* \"#utility.yul\":5586:5665   */\n      tag_215\n        /* \"#utility.yul\":5661:5664   */\n      dup5\n        /* \"#utility.yul\":5653:5659   */\n      dup3\n        /* \"#utility.yul\":5646:5650   */\n      0x20\n        /* \"#utility.yul\":5638:5644   */\n      dup7\n        /* \"#utility.yul\":5634:5651   */\n      add\n        /* \"#utility.yul\":5586:5665   */\n      tag_128\n      jump\t// in\n    tag_215:\n        /* \"#utility.yul\":5577:5665   */\n      swap2\n      pop\n        /* \"#utility.yul\":5393:5671   */\n      pop\n        /* \"#utility.yul\":5331:5671   */\n      swap3\n      swap2\n      pop\n      pop\n      jump\t// out\n        /* \"#utility.yul\":5677:6331   */\n    tag_27:\n        /* \"#utility.yul\":5755:5761   */\n      0x00\n        /* \"#utility.yul\":5763:5769   */\n      0x00\n        /* \"#utility.yul\":5812:5814   */\n      0x40\n        /* \"#utility.yul\":5800:5809   */\n      dup4\n        /* \"#utility.yul\":5791:5798   */\n      dup6\n        /* \"#utility.yul\":5787:5810   */\n      sub\n        /* \"#utility.yul\":5783:5815   */\n      slt\n        /* \"#utility.yul\":5780:5899   */\n      iszero\n      tag_217\n      jumpi\n        /* \"#utility.yul\":5818:5897   */\n      tag_218\n      tag_106\n      jump\t// in\n    tag_218:\n        /* \"#utility.yul\":5780:5899   */\n    tag_217:\n        /* \"#utility.yul\":5966:5967   */\n      0x00\n        /* \"#utility.yul\":5955:5964   */\n      dup4\n        /* \"#utility.yul\":5951:5968   */\n      add\n        /* \"#utility.yul\":5938:5969   */\n      calldataload\n        /* \"#utility.yul\":5996:6014   */\n      0xffffffffffffffff\n        /* \"#utility.yul\":5988:5994   */\n      dup2\n        /* \"#utility.yul\":5985:6015   */\n      gt\n        /* \"#utility.yul\":5982:6099   */\n      iszero\n      tag_219\n      jumpi\n        /* \"#utility.yul\":6018:6097   */\n      tag_220\n      tag_107\n      jump\t// in\n    tag_220:\n        /* \"#utility.yul\":5982:6099   */\n    tag_219:\n        /* \"#utility.yul\":6123:6186   */\n      tag_221\n        /* \"#utility.yul\":6178:6185   */\n      dup6\n        /* \"#utility.yul\":6169:6175   */\n      dup3\n        /* \"#utility.yul\":6158:6167   */\n      dup7\n        /* \"#utility.yul\":6154:6176   */\n      add\n        /* \"#utility.yul\":6123:6186   */\n      tag_129\n      jump\t// in\n    tag_221:\n        /* \"#utility.yul\":6113:6186   */\n      swap3\n      pop\n        /* \"#utility.yul\":5909:6196   */\n      pop\n        /* \"#utility.yul\":6235:6237   */\n      0x20\n        /* \"#utility.yul\":6261:6314   */\n      tag_222\n        /* \"#utility.yul\":6306:6313   */\n      dup6\n        /* \"#utility.yul\":6297:6303   */\n      dup3\n        /* \"#utility.yul\":6286:6295   */\n      dup7\n        /* \"#utility.yul\":6282:6304   */\n      add\n        /* \"#utility.yul\":6261:6314   */\n      tag_120\n      jump\t// in\n    tag_222:\n        /* \"#utility.yul\":6251:6314   */\n      swap2\n      pop\n        /* \"#utility.yul\":6206:6324   */\n      pop\n        /* \"#utility.yul\":5677:6331   */\n      swap3\n      pop\n      swap3\n      swap1\n      pop\n      jump\t// out\n        /* \"#utility.yul\":6337:7136   */\n    tag_37:\n        /* \"#utility.yul\":6424:6430   */\n      0x00\n        /* \"#utility.yul\":6432:6438   */\n      0x00\n        /* \"#utility.yul\":6440:6446   */\n      0x00\n        /* \"#utility.yul\":6489:6491   */\n      0x60\n        /* \"#utility.yul\":6477:6486   */\n      dup5\n        /* \"#utility.yul\":6468:6475   */\n      dup7\n        /* \"#utility.yul\":6464:6487   */\n      sub\n        /* \"#utility.yul\":6460:6492   */\n      slt\n        /* \"#utility.yul\":6457:6576   */\n      iszero\n      tag_224\n      jumpi\n        /* \"#utility.yul\":6495:6574   */\n      tag_225\n      tag_106\n      jump\t// in\n    tag_225:\n        /* \"#utility.yul\":6457:6576   */\n    tag_224:\n        /* \"#utility.yul\":6615:6616   */\n      0x00\n        /* \"#utility.yul\":6640:6693   */\n      tag_226\n        /* \"#utility.yul\":6685:6692   */\n      dup7\n        /* \"#utility.yul\":6676:6682   */\n      dup3\n        /* \"#utility.yul\":6665:6674   */\n      dup8\n        /* \"#utility.yul\":6661:6683   */\n      add\n        /* \"#utility.yul\":6640:6693   */\n      tag_111\n      jump\t// in\n    tag_226:\n        /* \"#utility.yul\":6630:6693   */\n      swap4\n      pop\n        /* \"#utility.yul\":6586:6703   */\n      pop\n        /* \"#utility.yul\":6770:6772   */\n      0x20\n        /* \"#utility.yul\":6759:6768   */\n      dup5\n        /* \"#utility.yul\":6755:6773   */\n      add\n        /* \"#utility.yul\":6742:6774   */\n      calldataload\n        /* \"#utility.yul\":6801:6819   */\n      0xffffffffffffffff\n        /* \"#utility.yul\":6793:6799   */\n      dup2\n        /* \"#utility.yul\":6790:6820   */\n      gt\n        /* \"#utility.yul\":6787:6904   */\n      iszero\n      tag_227\n      jumpi\n        /* \"#utility.yul\":6823:6902   */\n      tag_228\n      tag_107\n      jump\t// in\n    tag_228:\n        /* \"#utility.yul\":6787:6904   */\n    tag_227:\n        /* \"#utility.yul\":6928:6991   */\n      tag_229\n        /* \"#utility.yul\":6983:6990   */\n      dup7\n        /* \"#utility.yul\":6974:6980   */\n      dup3\n        /* \"#utility.yul\":6963:6972   */\n      dup8\n        /* \"#utility.yul\":6959:6981   */\n      add\n        /* \"#utility.yul\":6928:6991   */\n      tag_129\n      jump\t// in\n    tag_229:\n        /* \"#utility.yul\":6918:6991   */\n      swap3\n      pop\n        /* \"#utility.yul\":6713:7001   */\n      pop\n        /* \"#utility.yul\":7040:7042   */\n      0x40\n        /* \"#utility.yul\":7066:7119   */\n      tag_230\n        /* \"#utility.yul\":7111:7118   */\n      dup7\n        /* \"#utility.yul\":7102:7108   */\n      dup3\n        /* \"#utility.yul\":7091:7100   */\n      dup8\n        /* \"#utility.yul\":7087:7109   */\n      add\n        /* \"#utility.yul\":7066:7119   */\n      tag_120\n      jump\t// in\n    tag_230:\n        /* \"#utility.yul\":7056:7119   */\n      swap2\n      pop\n        /* \"#utility.yul\":7011:7129   */\n      pop\n        /* \"#utility.yul\":6337:7136   */\n      swap3\n      pop\n      swap3\n      pop\n      swap3\n      jump\t// out\n        /* \"#utility.yul\":7142:7260   */\n    tag_130:\n        /* \"#utility.yul\":7229:7253   */\n      tag_232\n        /* \"#utility.yul\":7247:7252   */\n      dup2\n        /* \"#utility.yul\":7229:7253   */\n      tag_109\n      jump\t// in\n    tag_232:\n        /* \"#utility.yul\":7224:7227   */\n      dup3\n        /* \"#utility.yul\":7217:7254   */\n      mstore\n        /* \"#utility.yul\":7142:7260   */\n      pop\n      pop\n      jump\t// out\n        /* \"#utility.yul\":7266:7488   */\n    tag_43:\n        /* \"#utility.yul\":7359:7363   */\n      0x00\n        /* \"#utility.yul\":7397:7399   */\n      0x20\n        /* \"#utility.yul\":7386:7395   */\n      dup3\n        /* \"#utility.yul\":7382:7400   */\n      add\n        /* \"#utility.yul\":7374:7400   */\n      swap1\n      pop\n        /* \"#utility.yul\":7410:7481   */\n      tag_234\n        /* \"#utility.yul\":7478:7479   */\n      0x00\n        /* \"#utility.yul\":7467:7476   */\n      dup4\n        /* \"#utility.yul\":7463:7480   */\n      add\n        /* \"#utility.yul\":7454:7460   */\n      dup5\n        /* \"#utility.yul\":7410:7481   */\n      tag_130\n      jump\t// in\n    tag_234:\n        /* \"#utility.yul\":7266:7488   */\n      swap3\n      swap2\n      pop\n      pop\n      jump\t// out\n        /* \"#utility.yul\":7494:7674   */\n    tag_131:\n        /* \"#utility.yul\":7542:7619   */\n      0x4e487b7100000000000000000000000000000000000000000000000000000000\n        /* \"#utility.yul\":7539:7540   */\n      0x00\n        /* \"#utility.yul\":7532:7620   */\n      mstore\n        /* \"#utility.yul\":7639:7643   */\n      0x22\n        /* \"#utility.yul\":7636:7637   */\n      0x04\n        /* \"#utility.yul\":7629:7644   */\n      mstore\n        /* \"#utility.yul\":7663:7667   */\n      0x24\n        /* \"#utility.yul\":7660:7661   */\n      0x00\n        /* \"#utility.yul\":7653:7668   */\n      revert\n        /* \"#utility.yul\":7680:8000   */\n    tag_52:\n        /* \"#utility.yul\":7724:7730   */\n      0x00\n        /* \"#utility.yul\":7761:7762   */\n      0x02\n        /* \"#utility.yul\":7755:7759   */\n      dup3\n        /* \"#utility.yul\":7751:7763   */\n      div\n        /* \"#utility.yul\":7741:7763   */\n      swap1\n      pop\n        /* \"#utility.yul\":7808:7809   */\n      0x01\n        /* \"#utility.yul\":7802:7806   */\n      dup3\n        /* \"#utility.yul\":7798:7810   */\n      and\n        /* \"#utility.yul\":7829:7847   */\n      dup1\n        /* \"#utility.yul\":7819:7900   */\n      tag_237\n      jumpi\n        /* \"#utility.yul\":7885:7889   */\n      0x7f\n        /* \"#utility.yul\":7877:7883   */\n      dup3\n        /* \"#utility.yul\":7873:7890   */\n      and\n        /* \"#utility.yul\":7863:7890   */\n      swap2\n      pop\n        /* \"#utility.yul\":7819:7900   */\n    tag_237:\n        /* \"#utility.yul\":7947:7949   */\n      0x20\n        /* \"#utility.yul\":7939:7945   */\n      dup3\n        /* \"#utility.yul\":7936:7950   */\n      lt\n        /* \"#utility.yul\":7916:7934   */\n      dup2\n        /* \"#utility.yul\":7913:7951   */\n      sub\n        /* \"#utility.yul\":7910:7994   */\n      tag_238\n      jumpi\n        /* \"#utility.yul\":7966:7984   */\n      tag_239\n      tag_131\n      jump\t// in\n    tag_239:\n        /* \"#utility.yul\":7910:7994   */\n    tag_238:\n        /* \"#utility.yul\":7731:8000   */\n      pop\n        /* \"#utility.yul\":7680:8000   */\n      swap2\n      swap1\n      pop\n      jump\t// out\n        /* \"#utility.yul\":8006:8186   */\n    tag_132:\n        /* \"#utility.yul\":8054:8131   */\n      0x4e487b7100000000000000000000000000000000000000000000000000000000\n        /* \"#utility.yul\":8051:8052   */\n      0x00\n        /* \"#utility.yul\":8044:8132   */\n      mstore\n        /* \"#utility.yul\":8151:8155   */\n      0x11\n        /* \"#utility.yul\":8148:8149   */\n      0x04\n        /* \"#utility.yul\":8141:8156   */\n      mstore\n        /* \"#utility.yul\":8175:8179   */\n      0x24\n        /* \"#utility.yul\":8172:8173   */\n      0x00\n        /* \"#utility.yul\":8165:8180   */\n      revert\n        /* \"#utility.yul\":8192:8383   */\n    tag_59:\n        /* \"#utility.yul\":8232:8235   */\n      0x00\n        /* \"#utility.yul\":8251:8271   */\n      tag_242\n        /* \"#utility.yul\":8269:8270   */\n      dup3\n        /* \"#utility.yul\":8251:8271   */\n      tag_117\n      jump\t// in\n    tag_242:\n        /* \"#utility.yul\":8246:8271   */\n      swap2\n      pop\n        /* \"#utility.yul\":8285:8305   */\n      tag_243\n        /* \"#utility.yul\":8303:8304   */\n      dup4\n        /* \"#utility.yul\":8285:8305   */\n      tag_117\n      jump\t// in\n    tag_243:\n        /* \"#utility.yul\":8280:8305   */\n      swap3\n      pop\n        /* \"#utility.yul\":8328:8329   */\n      dup3\n        /* \"#utility.yul\":8325:8326   */\n      dup3\n        /* \"#utility.yul\":8321:8330   */\n      add\n        /* \"#utility.yul\":8314:8330   */\n      swap1\n      pop\n        /* \"#utility.yul\":8349:8352   */\n      dup1\n        /* \"#utility.yul\":8346:8347   */\n      dup3\n        /* \"#utility.yul\":8343:8353   */\n      gt\n        /* \"#utility.yul\":8340:8376   */\n      iszero\n      tag_244\n      jumpi\n        /* \"#utility.yul\":8356:8374   */\n      tag_245\n      tag_132\n      jump\t// in\n    tag_245:\n        /* \"#utility.yul\":8340:8376   */\n    tag_244:\n        /* \"#utility.yul\":8192:8383   */\n      swap3\n      swap2\n      pop\n      pop\n      jump\t// out\n        /* \"#utility.yul\":8389:8530   */\n    tag_133:\n        /* \"#utility.yul\":8438:8442   */\n      0x00\n        /* \"#utility.yul\":8461:8464   */\n      dup2\n        /* \"#utility.yul\":8453:8464   */\n      swap1\n      pop\n        /* \"#utility.yul\":8484:8487   */\n      dup2\n        /* \"#utility.yul\":8481:8482   */\n      0x00\n        /* \"#utility.yul\":8474:8488   */\n      mstore\n        /* \"#utility.yul\":8518:8522   */\n      0x20\n        /* \"#utility.yul\":8515:8516   */\n      0x00\n        /* \"#utility.yul\":8505:8523   */\n      keccak256\n        /* \"#utility.yul\":8497:8523   */\n      swap1\n      pop\n        /* \"#utility.yul\":8389:8530   */\n      swap2\n      swap1\n      pop\n      jump\t// out\n        /* \"#utility.yul\":8536:8629   */\n    tag_134:\n        /* \"#utility.yul\":8573:8579   */\n      0x00\n        /* \"#utility.yul\":8620:8622   */\n      0x20\n        /* \"#utility.yul\":8615:8617   */\n      0x1f\n        /* \"#utility.yul\":8608:8613   */\n      dup4\n        /* \"#utility.yul\":8604:8618   */\n      add\n        /* \"#utility.yul\":8600:8623   */\n      div\n        /* \"#utility.yul\":8590:8623   */\n      swap1\n      pop\n        /* \"#utility.yul\":8536:8629   */\n      swap2\n      swap1\n      pop\n      jump\t// out\n        /* \"#utility.yul\":8635:8742   */\n    tag_135:\n        /* \"#utility.yul\":8679:8687   */\n      0x00\n        /* \"#utility.yul\":8729:8734   */\n      dup3\n        /* \"#utility.yul\":8723:8727   */\n      dup3\n        /* \"#utility.yul\":8719:8735   */\n      shl\n        /* \"#utility.yul\":8698:8735   */\n      swap1\n      pop\n        /* \"#utility.yul\":8635:8742   */\n      swap3\n      swap2\n      pop\n      pop\n      jump\t// out\n        /* \"#utility.yul\":8748:9141   */\n    tag_136:\n        /* \"#utility.yul\":8817:8823   */\n      0x00\n        /* \"#utility.yul\":8867:8868   */\n      0x08\n        /* \"#utility.yul\":8855:8865   */\n      dup4\n        /* \"#utility.yul\":8851:8869   */\n      mul\n        /* \"#utility.yul\":8890:8987   */\n      tag_250\n        /* \"#utility.yul\":8920:8986   */\n      0xffffffffffffffffffffffffffffffffffffffffffffffffffffffffffffffff\n        /* \"#utility.yul\":8909:8918   */\n      dup3\n        /* \"#utility.yul\":8890:8987   */\n      tag_135\n      jump\t// in\n    tag_250:\n        /* \"#utility.yul\":9008:9047   */\n      tag_251\n        /* \"#utility.yul\":9038:9046   */\n      dup7\n        /* \"#utility.yul\":9027:9036   */\n      dup4\n        /* \"#utility.yul\":9008:9047   */\n      tag_135\n      jump\t// in\n    tag_251:\n        /* \"#utility.yul\":8996:9047   */\n      swap6\n      pop\n        /* \"#utility.yul\":9080:9084   */\n      dup1\n        /* \"#utility.yul\":9076:9085   */\n      not\n        /* \"#utility.yul\":9069:9074   */\n      dup5\n        /* \"#utility.yul\":9065:9086   */\n      and\n        /* \"#utility.yul\":9056:9086   */\n      swap4\n      pop\n        /* \"#utility.yul\":9129:9133   */\n      dup1\n        /* \"#utility.yul\":9119:9127   */\n      dup7\n        /* \"#utility.yul\":9115:9134   */\n      and\n        /* \"#utility.yul\":9108:9113   */\n      dup5\n        /* \"#utility.yul\":9105:9135   */\n      or\n        /* \"#utility.yul\":9095:9135   */\n      swap3\n      pop\n        /* \"#utility.yul\":8824:9141   */\n      pop\n      pop\n        /* \"#utility.yul\":8748:9141   */\n      swap4\n      swap3\n      pop\n      pop\n      pop\n      jump\t// out\n        /* \"#utility.yul\":9147:9207   */\n    tag_137:\n        /* \"#utility.yul\":9175:9178   */\n      0x00\n        /* \"#utility.yul\":9196:9201   */\n      dup2\n        /* \"#utility.yul\":9189:9201   */\n      swap1\n      pop\n        /* \"#utility.yul\":9147:9207   */\n      swap2\n      swap1\n      pop\n      jump\t// out\n        /* \"#utility.yul\":9213:9355   */\n    tag_138:\n        /* \"#utility.yul\":9263:9272   */\n      0x00\n        /* \"#utility.yul\":9296:9349   */\n      tag_254\n        /* \"#utility.yul\":9314:9348   */\n      tag_255\n        /* \"#utility.yul\":9323:9347   */\n      tag_256\n        /* \"#utility.yul\":9341:9346   */\n      dup5\n        /* \"#utility.yul\":9323:9347   */\n      tag_117\n      jump\t// in\n    tag_256:\n        /* \"#utility.yul\":9314:9348   */\n      tag_137\n      jump\t// in\n    tag_255:\n        /* \"#utility.yul\":9296:9349   */\n      tag_117\n      jump\t// in\n    tag_254:\n        /* \"#utility.yul\":9283:9349   */\n      swap1\n      pop\n        /* \"#utility.yul\":9213:9355   */\n      swap2\n      swap1\n      pop\n      jump\t// out\n        /* \"#utility.yul\":9361:9436   */\n    tag_139:\n        /* \"#utility.yul\":9404:9407   */\n      0x00\n        /* \"#utility.yul\":9425:9430   */\n      dup2\n        /* \"#utility.yul\":9418:9430   */\n      swap1\n      pop\n        /* \"#utility.yul\":9361:9436   */\n      swap2\n      swap1\n      pop\n      jump\t// out\n        /* \"#utility.yul\":9442:9711   */\n    tag_140:\n        /* \"#utility.yul\":9552:9591   */\n      tag_259\n        /* \"#utility.yul\":9583:9590   */\n      dup4\n        /* \"#utility.yul\":9552:9591   */\n      tag_138\n      jump\t// in\n    tag_259:\n        /* \"#utility.yul\":9613:9704   */\n      tag_260\n        /* \"#utility.yul\":9662:9703   */\n      tag_261\n        /* \"#utility.yul\":9686:9702   */\n      dup3\n        /* \"#utility.yul\":9662:9703   */\n      tag_139\n      jump\t// in\n    tag_261:\n        /* \"#utility.yul\":9654:9660   */\n      dup5\n        /* \"#utility.yul\":9647:9651   */\n      dup5\n        /* \"#utility.yul\":9641:9652   */\n      sload\n        /* \"#utility.yul\":9613:9704   */\n      tag_136\n      jump\t// in\n    tag_260:\n        /* \"#utility.yul\":9607:9611   */\n      dup3\n        /* \"#utility.yul\":9600:9705   */\n      sstore\n        /* \"#utility.yul\":9518:9711   */\n      pop\n        /* \"#utility.yul\":9442:9711   */\n      pop\n      pop\n      pop\n      jump\t// out\n        /* \"#utility.yul\":9717:9790   */\n    tag_141:\n        /* \"#utility.yul\":9762:9765   */\n      0x00\n        /* \"#utility.yul\":9783:9784   */\n      0x00\n        /* \"#utility.yul\":9776:9784   */\n      swap1\n      pop\n        /* \"#utility.yul\":9717:9790   */\n      swap1\n      jump\t// out\n        /* \"#utility.yul\":9796:9985   */\n    tag_142:\n        /* \"#utility.yul\":9873:9905   */\n      tag_264\n      tag_141\n      jump\t// in\n    tag_264:\n        /* \"#utility.yul\":9914:9979   */\n      tag_265\n        /* \"#utility.yul\":9972:9978   */\n      dup2\n        /* \"#utility.yul\":9964:9970   */\n      dup5\n        /* \"#utility.yul\":9958:9962   */\n      dup5\n        /* \"#utility.yul\":9914:9979   */\n      tag_140\n      jump\t// in\n    tag_265:\n        /* \"#utility.yul\":9849:9985   */\n      pop\n        /* \"#utility.yul\":9796:9985   */\n      pop\n      pop\n      jump\t// out\n        /* \"#utility.yul\":9991:10205   */\n    tag_143:\n        /* \"#utility.yul\":10076:10077   */\n      0x00\n        /* \"#utility.yul\":10061:10199   */\n    tag_267:\n        /* \"#utility.yul\":10086:10095   */\n      dup3\n        /* \"#utility.yul\":10083:10084   */\n      dup2\n        /* \"#utility.yul\":10080:10096   */\n      lt\n        /* \"#utility.yul\":10061:10199   */\n      iszero\n      tag_269\n      jumpi\n        /* \"#utility.yul\":10138:10189   */\n      tag_270\n        /* \"#utility.yul\":10187:10188   */\n      0x00\n        /* \"#utility.yul\":10183:10184   */\n      dup3\n        /* \"#utility.yul\":10172:10181   */\n      dup5\n        /* \"#utility.yul\":10168:10185   */\n      add\n        /* \"#utility.yul\":10138:10189   */\n      tag_142\n      jump\t// in\n    tag_270:\n        /* \"#utility.yul\":10111:10112   */\n      0x01\n        /* \"#utility.yul\":10108:10109   */\n      dup2\n        /* \"#utility.yul\":10104:10113   */\n      add\n        /* \"#utility.yul\":10099:10113   */\n      swap1\n      pop\n        /* \"#utility.yul\":10061:10199   */\n      jump(tag_267)\n    tag_269:\n        /* \"#utility.yul\":10065:10079   */\n      pop\n        /* \"#utility.yul\":9991:10205   */\n      pop\n      pop\n      jump\t// out\n        /* \"#utility.yul\":10211:10957   */\n    tag_144:\n        /* \"#utility.yul\":10312:10314   */\n      0x1f\n        /* \"#utility.yul\":10307:10310   */\n      dup3\n        /* \"#utility.yul\":10304:10315   */\n      gt\n        /* \"#utility.yul\":10301:10950   */\n      iszero\n      tag_272\n      jumpi\n        /* \"#utility.yul\":10341:10351   */\n      dup3\n        /* \"#utility.yul\":10336:10339   */\n      dup3\n        /* \"#utility.yul\":10333:10352   */\n      gt\n        /* \"#utility.yul\":10330:10940   */\n      iszero\n      tag_273\n      jumpi\n        /* \"#utility.yul\":10387:10425   */\n      tag_274\n        /* \"#utility.yul\":10419:10424   */\n      dup2\n        /* \"#utility.yul\":10387:10425   */\n      tag_133\n      jump\t// in\n    tag_274:\n        /* \"#utility.yul\":10462:10484   */\n      tag_275\n        /* \"#utility.yul\":10480:10483   */\n      dup4\n        /* \"#utility.yul\":10462:10484   */\n      tag_134\n      jump\t// in\n    tag_275:\n        /* \"#utility.yul\":10521:10550   */\n      tag_276\n        /* \"#utility.yul\":10539:10549   */\n      dup6\n        /* \"#utility.yul\":10521:10550   */\n      tag_134\n      jump\t// in\n    tag_276:\n        /* \"#utility.yul\":10711:10713   */\n      0x20\n        /* \"#utility.yul\":10699:10709   */\n      dup7\n        /* \"#utility.yul\":10696:10714   */\n      lt\n        /* \"#utility.yul\":10693:10772   */\n      iszero\n      tag_277\n      jumpi\n        /* \"#utility.yul\":10753:10754   */\n      0x00\n        /* \"#utility.yul\":10737:10754   */\n      swap1\n      pop\n        /* \"#utility.yul\":10693:10772   */\n    tag_277:\n        /* \"#utility.yul\":10822:10834   */\n      dup1\n        /* \"#utility.yul\":10812:10820   */\n      dup4\n        /* \"#utility.yul\":10808:10835   */\n      add\n        /* \"#utility.yul\":10852:10926   */\n      tag_278\n        /* \"#utility.yul\":10912:10924   */\n      dup3\n        /* \"#utility.yul\":10898:10910   */\n      dup5\n        /* \"#utility.yul\":10894:10925   */\n      sub\n        /* \"#utility.yul\":10881:10892   */\n      dup3\n        /* \"#utility.yul\":10852:10926   */\n      tag_143\n      jump\t// in\n    tag_278:\n        /* \"#utility.yul\":10353:10940   */\n      pop\n      pop\n      pop\n      pop\n        /* \"#utility.yul\":10330:10940   */\n    tag_273:\n        /* \"#utility.yul\":10301:10950   */\n    tag_272:\n        /* \"#utility.yul\":10211:10957   */\n      pop\n      pop\n      pop\n      jump\t// out\n        /* \"#utility.yul\":10963:11080   */\n    tag_145:\n        /* \"#utility.yul\":11017:11025   */\n      0x00\n        /* \"#utility.yul\":11067:11072   */\n      dup3\n        /* \"#utility.yul\":11061:11065   */\n      dup3\n        /* \"#utility.yul\":11057:11073   */\n      shr\n        /* \"#utility.yul\":11036:11073   */\n      swap1\n      pop\n        /* \"#utility.yul\":10963:11080   */\n      swap3\n      swap2\n      pop\n      pop\n      jump\t// out\n        /* \"#utility.yul\":11086:11255   */\n    tag_146:\n        /* \"#utility.yul\":11130:11136   */\n      0x00\n        /* \"#utility.yul\":11163:11214   */\n      tag_281\n        /* \"#utility.yul\":11211:11212   */\n      0x00\n        /* \"#utility.yul\":11207:11213   */\n      not\n        /* \"#utility.yul\":11199:11204   */\n      dup5\n        /* \"#utility.yul\":11196:11197   */\n      0x08\n        /* \"#utility.yul\":11192:11205   */\n      mul\n        /* \"#utility.yul\":11163:11214   */\n      tag_145\n      jump\t// in\n    tag_281:\n        /* \"#utility.yul\":11159:11215   */\n      not\n        /* \"#utility.yul\":11244:11248   */\n      dup1\n        /* \"#utility.yul\":11238:11242   */\n      dup4\n        /* \"#utility.yul\":11234:11249   */\n      and\n        /* \"#utility.yul\":11224:11249   */\n      swap2\n      pop\n        /* \"#utility.yul\":11137:11255   */\n      pop\n        /* \"#utility.yul\":11086:11255   */\n      swap3\n      swap2\n      pop\n      pop\n      jump\t// out\n        /* \"#utility.yul\":11260:11555   */\n    tag_147:\n        /* \"#utility.yul\":11336:11340   */\n      0x00\n        /* \"#utility.yul\":11482:11511   */\n      tag_283\n        /* \"#utility.yul\":11507:11510   */\n      dup4\n        /* \"#utility.yul\":11501:11505   */\n      dup4\n        /* \"#utility.yul\":11482:11511   */\n      tag_146\n      jump\t// in\n    tag_283:\n        /* \"#utility.yul\":11474:11511   */\n      swap2\n      pop\n        /* \"#utility.yul\":11544:11547   */\n      dup3\n        /* \"#utility.yul\":11541:11542   */\n      0x02\n        /* \"#utility.yul\":11537:11548   */\n      mul\n        /* \"#utility.yul\":11531:11535   */\n      dup3\n        /* \"#utility.yul\":11528:11549   */\n      or\n        /* \"#utility.yul\":11520:11549   */\n      swap1\n      pop\n        /* \"#utility.yul\":11260:11555   */\n      swap3\n      swap2\n      pop\n      pop\n      jump\t// out\n        /* \"#utility.yul\":11560:12955   */\n    tag_63:\n        /* \"#utility.yul\":11677:11714   */\n      tag_285\n        /* \"#utility.yul\":11710:11713   */\n      dup3\n        /* \"#utility.yul\":11677:11714   */\n      tag_112\n      jump\t// in\n    tag_285:\n        /* \"#utility.yul\":11779:11797   */\n      0xffffffffffffffff\n        /* \"#utility.yul\":11771:11777   */\n      dup2\n        /* \"#utility.yul\":11768:11798   */\n      gt\n        /* \"#utility.yul\":11765:11821   */\n      iszero\n      tag_286\n      jumpi\n        /* \"#utility.yul\":11801:11819   */\n      tag_287\n      tag_123\n      jump\t// in\n    tag_287:\n        /* \"#utility.yul\":11765:11821   */\n    tag_286:\n        /* \"#utility.yul\":11845:11883   */\n      tag_288\n        /* \"#utility.yul\":11877:11881   */\n      dup3\n        /* \"#utility.yul\":11871:11882   */\n      sload\n        /* \"#utility.yul\":11845:11883   */\n      tag_52\n      jump\t// in\n    tag_288:\n        /* \"#utility.yul\":11930:11997   */\n      tag_289\n        /* \"#utility.yul\":11990:11996   */\n      dup3\n        /* \"#utility.yul\":11982:11988   */\n      dup3\n        /* \"#utility.yul\":11976:11980   */\n      dup6\n        /* \"#utility.yul\":11930:11997   */\n      tag_144\n      jump\t// in\n    tag_289:\n        /* \"#utility.yul\":12024:12025   */\n      0x00\n        /* \"#utility.yul\":12048:12052   */\n      0x20\n        /* \"#utility.yul\":12035:12052   */\n      swap1\n      pop\n        /* \"#utility.yul\":12080:12082   */\n      0x1f\n        /* \"#utility.yul\":12072:12078   */\n      dup4\n        /* \"#utility.yul\":12069:12083   */\n      gt\n        /* \"#utility.yul\":12097:12098   */\n      0x01\n        /* \"#utility.yul\":12092:12710   */\n      dup2\n      eq\n      tag_291\n      jumpi\n        /* \"#utility.yul\":12754:12755   */\n      0x00\n        /* \"#utility.yul\":12771:12777   */\n      dup5\n        /* \"#utility.yul\":12768:12845   */\n      iszero\n      tag_292\n      jumpi\n        /* \"#utility.yul\":12820:12829   */\n      dup3\n        /* \"#utility.yul\":12815:12818   */\n      dup8\n        /* \"#utility.yul\":12811:12830   */\n      add\n        /* \"#utility.yul\":12805:12831   */\n      mload\n        /* \"#utility.yul\":12796:12831   */\n      swap1\n      pop\n        /* \"#utility.yul\":12768:12845   */\n    tag_292:\n        /* \"#utility.yul\":12871:12938   */\n      tag_293\n        /* \"#utility.yul\":12931:12937   */\n      dup6\n        /* \"#utility.yul\":12924:12929   */\n      dup3\n        /* \"#utility.yul\":12871:12938   */\n      tag_147\n      jump\t// in\n    tag_293:\n        /* \"#utility.yul\":12865:12869   */\n      dup7\n        /* \"#utility.yul\":12858:12939   */\n      sstore\n        /* \"#utility.yul\":12727:12949   */\n      pop\n        /* \"#utility.yul\":12062:12949   */\n      jump(tag_290)\n        /* \"#utility.yul\":12092:12710   */\n    tag_291:\n        /* \"#utility.yul\":12144:12148   */\n      0x1f\n        /* \"#utility.yul\":12140:12149   */\n      not\n        /* \"#utility.yul\":12132:12138   */\n      dup5\n        /* \"#utility.yul\":12128:12150   */\n      and\n        /* \"#utility.yul\":12178:12215   */\n      tag_294\n        /* \"#utility.yul\":12210:12214   */\n      dup7\n        /* \"#utility.yul\":12178:12215   */\n      tag_133\n      jump\t// in\n    tag_294:\n        /* \"#utility.yul\":12237:12238   */\n      0x00\n        /* \"#utility.yul\":12251:12459   */\n    tag_295:\n        /* \"#utility.yul\":12265:12272   */\n      dup3\n        /* \"#utility.yul\":12262:12263   */\n      dup2\n        /* \"#utility.yul\":12259:12273   */\n      lt\n        /* \"#utility.yul\":12251:12459   */\n      iszero\n      tag_297\n      jumpi\n        /* \"#utility.yul\":12344:12353   */\n      dup5\n        /* \"#utility.yul\":12339:12342   */\n      dup10\n        /* \"#utility.yul\":12335:12354   */\n      add\n        /* \"#utility.yul\":12329:12355   */\n      mload\n        /* \"#utility.yul\":12321:12327   */\n      dup3\n        /* \"#utility.yul\":12314:12356   */\n      sstore\n        /* \"#utility.yul\":12395:12396   */\n      0x01\n        /* \"#utility.yul\":12387:12393   */\n      dup3\n        /* \"#utility.yul\":12383:12397   */\n      add\n        /* \"#utility.yul\":12373:12397   */\n      swap2\n      pop\n        /* \"#utility.yul\":12442:12444   */\n      0x20\n        /* \"#utility.yul\":12431:12440   */\n      dup6\n        /* \"#utility.yul\":12427:12445   */\n      add\n        /* \"#utility.yul\":12414:12445   */\n      swap5\n      pop\n        /* \"#utility.yul\":12288:12292   */\n      0x20\n        /* \"#utility.yul\":12285:12286   */\n      dup2\n        /* \"#utility.yul\":12281:12293   */\n      add\n        /* \"#utility.yul\":12276:12293   */\n      swap1\n      pop\n        /* \"#utility.yul\":12251:12459   */\n      jump(tag_295)\n    tag_297:\n        /* \"#utility.yul\":12487:12493   */\n      dup7\n        /* \"#utility.yul\":12478:12485   */\n      dup4\n        /* \"#utility.yul\":12475:12494   */\n      lt\n        /* \"#utility.yul\":12472:12651   */\n      iszero\n      tag_298\n      jumpi\n        /* \"#utility.yul\":12545:12554   */\n      dup5\n        /* \"#utility.yul\":12540:12543   */\n      dup10\n        /* \"#utility.yul\":12536:12555   */\n      add\n        /* \"#utility.yul\":12530:12556   */\n      mload\n        /* \"#utility.yul\":12588:12636   */\n      tag_299\n        /* \"#utility.yul\":12630:12634   */\n      0x1f\n        /* \"#utility.yul\":12622:12628   */\n      dup10\n        /* \"#utility.yul\":12618:12635   */\n      and\n        /* \"#utility.yul\":12607:12616   */\n      dup3\n        /* \"#utility.yul\":12588:12636   */\n      tag_146\n      jump\t// in\n    tag_299:\n        /* \"#utility.yul\":12580:12586   */\n      dup4\n        /* \"#utility.yul\":12573:12637   */\n      sstore\n        /* \"#utility.yul\":12495:12651   */\n      pop\n        /* \"#utility.yul\":12472:12651   */\n    tag_298:\n        /* \"#utility.yul\":12697:12698   */\n      0x01\n        /* \"#utility.yul\":12693:12694   */\n      0x02\n        /* \"#utility.yul\":12685:12691   */\n      dup9\n        /* \"#utility.yul\":12681:12695   */\n      mul\n        /* \"#utility.yul\":12677:12699   */\n      add\n        /* \"#utility.yul\":12671:12675   */\n      dup9\n        /* \"#utility.yul\":12664:12700   */\n      sstore\n        /* \"#utility.yul\":12099:12710   */\n      pop\n      pop\n      pop\n        /* \"#utility.yul\":12062:12949   */\n    tag_290:\n      pop\n        /* \"#utility.yul\":11652:12955   */\n      pop\n      pop\n      pop\n        /* \"#utility.yul\":11560:12955   */\n      pop\n      pop\n      jump\t// out\n        /* \"#utility.yul\":12961:13141   */\n    tag_77:\n        /* \"#utility.yul\":13009:13086   */\n      0x4e487b7100000000000000000000000000000000000000000000000000000000\n        /* \"#utility.yul\":13006:13007   */\n      0x00\n        /* \"#utility.yul\":12999:13087   */\n      mstore\n        /* \"#utility.yul\":13106:13110   */\n      0x32\n        /* \"#utility.yul\":13103:13104   */\n      0x04\n        /* \"#utility.yul\":13096:13111   */\n      mstore\n        /* \"#utility.yul\":13130:13134   */\n      0x24\n        /* \"#utility.yul\":13127:13128   */\n      0x00\n        /* \"#utility.yul\":13120:13135   */\n      revert\n        /* \"#utility.yul\":13171:14002   */\n    tag_148:\n        /* \"#utility.yul\":13256:13259   */\n      0x00\n        /* \"#utility.yul\":13293:13298   */\n      dup2\n        /* \"#utility.yul\":13287:13299   */\n      sload\n        /* \"#utility.yul\":13322:13358   */\n      tag_302\n        /* \"#utility.yul\":13348:13357   */\n      dup2\n        /* \"#utility.yul\":13322:13358   */\n      tag_52\n      jump\t// in\n    tag_302:\n        /* \"#utility.yul\":13374:13445   */\n      tag_303\n        /* \"#utility.yul\":13438:13444   */\n      dup2\n        /* \"#utility.yul\":13433:13436   */\n      dup7\n        /* \"#utility.yul\":13374:13445   */\n      tag_113\n      jump\t// in\n    tag_303:\n        /* \"#utility.yul\":13367:13445   */\n      swap5\n      pop\n        /* \"#utility.yul\":13476:13477   */\n      0x01\n        /* \"#utility.yul\":13465:13474   */\n      dup3\n        /* \"#utility.yul\":13461:13478   */\n      and\n        /* \"#utility.yul\":13492:13493   */\n      0x00\n        /* \"#utility.yul\":13487:13651   */\n      dup2\n      eq\n      tag_305\n      jumpi\n        /* \"#utility.yul\":13665:13666   */\n      0x01\n        /* \"#utility.yul\":13660:13996   */\n      dup2\n      eq\n      tag_306\n      jumpi\n        /* \"#utility.yul\":13454:13996   */\n      jump(tag_304)\n        /* \"#utility.yul\":13487:13651   */\n    tag_305:\n        /* \"#utility.yul\":13571:13575   */\n      0xff\n        /* \"#utility.yul\":13567:13576   */\n      not\n        /* \"#utility.yul\":13556:13565   */\n      dup4\n        /* \"#utility.yul\":13552:13577   */\n      and\n        /* \"#utility.yul\":13547:13550   */\n      dup7\n        /* \"#utility.yul\":13540:13578   */\n      mstore\n        /* \"#utility.yul\":13631:13637   */\n      dup2\n        /* \"#utility.yul\":13624:13638   */\n      iszero\n        /* \"#utility.yul\":13617:13639   */\n      iszero\n        /* \"#utility.yul\":13611:13615   */\n      0x20\n        /* \"#utility.yul\":13607:13640   */\n      mul\n        /* \"#utility.yul\":13602:13605   */\n      dup7\n        /* \"#utility.yul\":13598:13641   */\n      add\n        /* \"#utility.yul\":13591:13641   */\n      swap4\n      pop\n        /* \"#utility.yul\":13487:13651   */\n      jump(tag_304)\n        /* \"#utility.yul\":13660:13996   */\n    tag_306:\n        /* \"#utility.yul\":13727:13765   */\n      tag_307\n        /* \"#utility.yul\":13759:13764   */\n      dup6\n        /* \"#utility.yul\":13727:13765   */\n      tag_133\n      jump\t// in\n    tag_307:\n        /* \"#utility.yul\":13787:13788   */\n      0x00\n        /* \"#utility.yul\":13801:13955   */\n    tag_308:\n        /* \"#utility.yul\":13815:13821   */\n      dup4\n        /* \"#utility.yul\":13812:13813   */\n      dup2\n        /* \"#utility.yul\":13809:13822   */\n      lt\n        /* \"#utility.yul\":13801:13955   */\n      iszero\n      tag_310\n      jumpi\n        /* \"#utility.yul\":13889:13896   */\n      dup2\n        /* \"#utility.yul\":13883:13897   */\n      sload\n        /* \"#utility.yul\":13879:13880   */\n      dup2\n        /* \"#utility.yul\":13874:13877   */\n      dup10\n        /* \"#utility.yul\":13870:13881   */\n      add\n        /* \"#utility.yul\":13863:13898   */\n      mstore\n        /* \"#utility.yul\":13939:13940   */\n      0x01\n        /* \"#utility.yul\":13930:13937   */\n      dup3\n        /* \"#utility.yul\":13926:13941   */\n      add\n        /* \"#utility.yul\":13915:13941   */\n      swap2\n      pop\n        /* \"#utility.yul\":13837:13841   */\n      0x20\n        /* \"#utility.yul\":13834:13835   */\n      dup2\n        /* \"#utility.yul\":13830:13842   */\n      add\n        /* \"#utility.yul\":13825:13842   */\n      swap1\n      pop\n        /* \"#utility.yul\":13801:13955   */\n      jump(tag_308)\n    tag_310:\n        /* \"#utility.yul\":13984:13985   */\n      dup1\n        /* \"#utility.yul\":13979:13982   */\n      dup9\n        /* \"#utility.yul\":13975:13986   */\n      add\n        /* \"#utility.yul\":13968:13986   */\n      swap6\n      pop\n        /* \"#utility.yul\":13667:13996   */\n      pop\n      pop\n        /* \"#utility.yul\":13454:13996   */\n    tag_304:\n      pop\n        /* \"#utility.yul\":13260:14002   */\n      pop\n      pop\n        /* \"#utility.yul\":13171:14002   */\n      swap3\n      swap2\n      pop\n      pop\n      jump\t// out\n        /* \"#utility.yul\":14008:14425   */\n    tag_83:\n        /* \"#utility.yul\":14146:14150   */\n      0x00\n        /* \"#utility.yul\":14184:14186   */\n      0x40\n        /* \"#utility.yul\":14173:14182   */\n      dup3\n        /* \"#utility.yul\":14169:14187   */\n      add\n        /* \"#utility.yul\":14161:14187   */\n      swap1\n      pop\n        /* \"#utility.yul\":14233:14242   */\n      dup2\n        /* \"#utility.yul\":14227:14231   */\n      dup2\n        /* \"#utility.yul\":14223:14243   */\n      sub\n        /* \"#utility.yul\":14219:14220   */\n      0x00\n        /* \"#utility.yul\":14208:14217   */\n      dup4\n        /* \"#utility.yul\":14204:14221   */\n      add\n        /* \"#utility.yul\":14197:14244   */\n      mstore\n        /* \"#utility.yul\":14261:14336   */\n      tag_312\n        /* \"#utility.yul\":14331:14335   */\n      dup2\n        /* \"#utility.yul\":14322:14328   */\n      dup6\n        /* \"#utility.yul\":14261:14336   */\n      tag_148\n      jump\t// in\n    tag_312:\n        /* \"#utility.yul\":14253:14336   */\n      swap1\n      pop\n        /* \"#utility.yul\":14346:14418   */\n      tag_313\n        /* \"#utility.yul\":14414:14416   */\n      0x20\n        /* \"#utility.yul\":14403:14412   */\n      dup4\n        /* \"#utility.yul\":14399:14417   */\n      add\n        /* \"#utility.yul\":14390:14396   */\n      dup5\n        /* \"#utility.yul\":14346:14418   */\n      tag_118\n      jump\t// in\n    tag_313:\n        /* \"#utility.yul\":14008:14425   */\n      swap4\n      swap3\n      pop\n      pop\n      pop\n      jump\t// out\n\n    auxdata: 0xa2646970667358221220b0798062aa4eb66da71a9978bb453e3e838b0efabc212fb816ca702f826dc3df64736f6c63430008220033\n}\n",
				"bytecode": {
					"linkReferences": {},
					"object": "60806040525f80549050600355610100600455348015601c575f5ffd5b50610fcc8061002a5f395ff3fe608060405234801561000f575f5ffd5b5060043610610091575f3560e01c80634ccc0c64116100645780634ccc0c6414610143578063906f46aa1461014d5780639974531814610169578063f35d03b214610199578063fa52c7d8146101a357610091565b806303f1d1941461009557806307391dd6146100c65780631c5220c2146100f6578063365b98b214610112575b5f5ffd5b6100af60048036038101906100aa9190610814565b6101d4565b6040516100bd9291906108c7565b60405180910390f35b6100e060048036038101906100db919061091f565b6102ce565b6040516100ed919061094a565b60405180910390f35b610110600480360381019061010b9190610a8f565b6102f1565b005b61012c6004803603810190610127919061091f565b610351565b60405161013a9291906108c7565b60405180910390f35b61014b610405565b005b61016760048036038101906101629190610ae9565b610554565b005b610183600480360381019061017e919061091f565b61062c565b6040516101909190610b64565b60405180910390f35b6101a1610667565b005b6101bd60048036038101906101b89190610814565b610703565b6040516101cb9291906108c7565b60405180910390f35b60605f5f60015f8573ffffffffffffffffffffffffffffffffffffffff1673ffffffffffffffffffffffffffffffffffffffff1681526020019081526020015f206040518060400160405290815f8201805461022f90610baa565b80601f016020809104026020016040519081016040528092919081815260200182805461025b90610baa565b80156102a65780601f1061027d576101008083540402835291602001916102a6565b820191905f5260205f20905b81548152906001019060200180831161028957829003601f168201915b505050505081526020016001820154815250509050805f015181602001519250925050915091565b5f8160045f8282546102e09190610c07565b925050819055506004549050919050565b5f604051806040016040528084815260200183815250908060018154018082558091505060019003905f5260205f2090600202015f909190919091505f820151815f0190816103409190610deb565b506020820151816001015550505050565b5f818154811061035f575f80fd5b905f5260205f2090600202015f91509050805f01805461037e90610baa565b80601f01602080910402602001604051908101604052809291908181526020018280546103aa90610baa565b80156103f55780601f106103cc576101008083540402835291602001916103f5565b820191905f5260205f20905b8154815290600101906020018083116103d857829003601f168201915b5050505050908060010154905082565b5f5f90505b600280549050811015610551577f8fd40d2776b50a211118b480c9bf278a55c60d9ea54dc8666a9fb323744c112160015f6002848154811061044f5761044e610eba565b5b905f5260205f20015f9054906101000a900473ffffffffffffffffffffffffffffffffffffffff1673ffffffffffffffffffffffffffffffffffffffff1673ffffffffffffffffffffffffffffffffffffffff1681526020019081526020015f205f0160015f600285815481106104c9576104c8610eba565b5b905f5260205f20015f9054906101000a900473ffffffffffffffffffffffffffffffffffffffff1673ffffffffffffffffffffffffffffffffffffffff1673ffffffffffffffffffffffffffffffffffffffff1681526020019081526020015f206001015460405161053c929190610f68565b60405180910390a1808060010191505061040a565b50565b60405180604001604052808381526020018281525060015f8573ffffffffffffffffffffffffffffffffffffffff1673ffffffffffffffffffffffffffffffffffffffff1681526020019081526020015f205f820151815f0190816105b99190610deb565b5060208201518160010155905050600283908060018154018082558091505060019003905f5260205f20015f9091909190916101000a81548173ffffffffffffffffffffffffffffffffffffffff021916908373ffffffffffffffffffffffffffffffffffffffff160217905550505050565b6002818154811061063b575f80fd5b905f5260205f20015f915054906101000a900473ffffffffffffffffffffffffffffffffffffffff1681565b5f5f90505b5f80549050811015610700577fc0a21ab21926025efd867c8ee07294fe346113056d91864434bfcb66bd4b4d085f82815481106106ac576106ab610eba565b5b905f5260205f2090600202015f015f83815481106106cd576106cc610eba565b5b905f5260205f209060020201600101546040516106eb929190610f68565b60405180910390a1808060010191505061066c565b50565b6001602052805f5260405f205f91509050805f01805461072290610baa565b80601f016020809104026020016040519081016040528092919081815260200182805461074e90610baa565b80156107995780601f1061077057610100808354040283529160200191610799565b820191905f5260205f20905b81548152906001019060200180831161077c57829003601f168201915b5050505050908060010154905082565b5f604051905090565b5f5ffd5b5f5ffd5b5f73ffffffffffffffffffffffffffffffffffffffff82169050919050565b5f6107e3826107ba565b9050919050565b6107f3816107d9565b81146107fd575f5ffd5b50565b5f8135905061080e816107ea565b92915050565b5f60208284031215610829576108286107b2565b5b5f61083684828501610800565b91505092915050565b5f81519050919050565b5f82825260208201905092915050565b8281835e5f83830152505050565b5f601f19601f8301169050919050565b5f6108818261083f565b61088b8185610849565b935061089b818560208601610859565b6108a481610867565b840191505092915050565b5f819050919050565b6108c1816108af565b82525050565b5f6040820190508181035f8301526108df8185610877565b90506108ee60208301846108b8565b9392505050565b6108fe816108af565b8114610908575f5ffd5b50565b5f81359050610919816108f5565b92915050565b5f60208284031215610934576109336107b2565b5b5f6109418482850161090b565b91505092915050565b5f60208201905061095d5f8301846108b8565b92915050565b5f5ffd5b5f5ffd5b7f4e487b71000000000000000000000000000000000000000000000000000000005f52604160045260245ffd5b6109a182610867565b810181811067ffffffffffffffff821117156109c0576109bf61096b565b5b80604052505050565b5f6109d26107a9565b90506109de8282610998565b919050565b5f67ffffffffffffffff8211156109fd576109fc61096b565b5b610a0682610867565b9050602081019050919050565b828183375f83830152505050565b5f610a33610a2e846109e3565b6109c9565b905082815260208101848484011115610a4f57610a4e610967565b5b610a5a848285610a13565b509392505050565b5f82601f830112610a7657610a75610963565b5b8135610a86848260208601610a21565b91505092915050565b5f5f60408385031215610aa557610aa46107b2565b5b5f83013567ffffffffffffffff811115610ac257610ac16107b6565b5b610ace85828601610a62565b9250506020610adf8582860161090b565b9150509250929050565b5f5f5f60608486031215610b0057610aff6107b2565b5b5f610b0d86828701610800565b935050602084013567ffffffffffffffff811115610b2e57610b2d6107b6565b5b610b3a86828701610a62565b9250506040610b4b8682870161090b565b9150509250925092565b610b5e816107d9565b82525050565b5f602082019050610b775f830184610b55565b92915050565b7f4e487b71000000000000000000000000000000000000000000000000000000005f52602260045260245ffd5b5f6002820490506001821680610bc157607f821691505b602082108103610bd457610bd3610b7d565b5b50919050565b7f4e487b71000000000000000000000000000000000000000000000000000000005f52601160045260245ffd5b5f610c11826108af565b9150610c1c836108af565b9250828201905080821115610c3457610c33610bda565b5b92915050565b5f819050815f5260205f209050919050565b5f6020601f8301049050919050565b5f82821b905092915050565b5f60088302610c967fffffffffffffffffffffffffffffffffffffffffffffffffffffffffffffffff82610c5b565b610ca08683610c5b565b95508019841693508086168417925050509392505050565b5f819050919050565b5f610cdb610cd6610cd1846108af565b610cb8565b6108af565b9050919050565b5f819050919050565b610cf483610cc1565b610d08610d0082610ce2565b848454610c67565b825550505050565b5f5f905090565b610d1f610d10565b610d2a818484610ceb565b505050565b5f5b82811015610d5057610d455f828401610d17565b600181019050610d31565b505050565b601f821115610da35782821115610da257610d6f81610c3a565b610d7883610c4c565b610d8185610c4c565b6020861015610d8e575f90505b808301610d9d82840382610d2f565b505050505b5b505050565b5f82821c905092915050565b5f610dc35f1984600802610da8565b1980831691505092915050565b5f610ddb8383610db4565b9150826002028217905092915050565b610df48261083f565b67ffffffffffffffff811115610e0d57610e0c61096b565b5b610e178254610baa565b610e22828285610d55565b5f60209050601f831160018114610e53575f8415610e41578287015190505b610e4b8582610dd0565b865550610eb2565b601f198416610e6186610c3a565b5f5b82811015610e8857848901518255600182019150602085019450602081019050610e63565b86831015610ea55784890151610ea1601f891682610db4565b8355505b6001600288020188555050505b505050505050565b7f4e487b71000000000000000000000000000000000000000000000000000000005f52603260045260245ffd5b5f8154610ef381610baa565b610efd8186610849565b9450600182165f8114610f175760018114610f2d57610f5f565b60ff198316865281151560200286019350610f5f565b610f3685610c3a565b5f5b83811015610f5757815481890152600182019150602081019050610f38565b808801955050505b50505092915050565b5f6040820190508181035f830152610f808185610ee7565b9050610f8f60208301846108b8565b939250505056fea2646970667358221220b0798062aa4eb66da71a9978bb453e3e838b0efabc212fb816ca702f826dc3df64736f6c63430008220033",
					"opcodes": "PUSH1 0x80 PUSH1 0x40 MSTORE PUSH0 DUP1 SLOAD SWAP1 POP PUSH1 0x3 SSTORE PUSH2 0x100 PUSH1 0x4 SSTORE CALLVALUE DUP1 ISZERO PUSH1 0x1C JUMPI PUSH0 PUSH0 REVERT JUMPDEST POP PUSH2 0xFCC DUP1 PUSH2 0x2A PUSH0 CODECOPY PUSH0 RETURN INVALID PUSH1 0x80 PUSH1 0x40 MSTORE CALLVALUE DUP1 ISZERO PUSH2 0xF JUMPI PUSH0 PUSH0 REVERT JUMPDEST POP PUSH1 0x4 CALLDATASIZE LT PUSH2 0x91 JUMPI PUSH0 CALLDATALOAD PUSH1 0xE0 SHR DUP1 PUSH4 0x4CCC0C64 GT PUSH2 0x64 JUMPI DUP1 PUSH4 0x4CCC0C64 EQ PUSH2 0x143 JUMPI DUP1 PUSH4 0x906F46AA EQ PUSH2 0x14D JUMPI DUP1 PUSH4 0x99745318 EQ PUSH2 0x169 JUMPI DUP1 PUSH4 0xF35D03B2 EQ PUSH2 0x199 JUMPI DUP1 PUSH4 0xFA52C7D8 EQ PUSH2 0x1A3 JUMPI PUSH2 0x91 JUMP JUMPDEST DUP1 PUSH4 0x3F1D194 EQ PUSH2 0x95 JUMPI DUP1 PUSH4 0x7391DD6 EQ PUSH2 0xC6 JUMPI DUP1 PUSH4 0x1C5220C2 EQ PUSH2 0xF6 JUMPI DUP1 PUSH4 0x365B98B2 EQ PUSH2 0x112 JUMPI JUMPDEST PUSH0 PUSH0 REVERT JUMPDEST PUSH2 0xAF PUSH1 0x4 DUP1 CALLDATASIZE SUB DUP2 ADD SWAP1 PUSH2 0xAA SWAP2 SWAP1 PUSH2 0x814 JUMP JUMPDEST PUSH2 0x1D4 JUMP JUMPDEST PUSH1 0x40 MLOAD PUSH2 0xBD SWAP3 SWAP2 SWAP1 PUSH2 0x8C7 JUMP JUMPDEST PUSH1 0x40 MLOAD DUP1 SWAP2 SUB SWAP1 RETURN JUMPDEST PUSH2 0xE0 PUSH1 0x4 DUP1 CALLDATASIZE SUB DUP2 ADD SWAP1 PUSH2 0xDB SWAP2 SWAP1 PUSH2 0x91F JUMP JUMPDEST PUSH2 0x2CE JUMP JUMPDEST PUSH1 0x40 MLOAD PUSH2 0xED SWAP2 SWAP1 PUSH2 0x94A JUMP JUMPDEST PUSH1 0x40 MLOAD DUP1 SWAP2 SUB SWAP1 RETURN JUMPDEST PUSH2 0x110 PUSH1 0x4 DUP1 CALLDATASIZE SUB DUP2 ADD SWAP1 PUSH2 0x10B SWAP2 SWAP1 PUSH2 0xA8F JUMP JUMPDEST PUSH2 0x2F1 JUMP JUMPDEST STOP JUMPDEST PUSH2 0x12C PUSH1 0x4 DUP1 CALLDATASIZE SUB DUP2 ADD SWAP1 PUSH2 0x127 SWAP2 SWAP1 PUSH2 0x91F JUMP JUMPDEST PUSH2 0x351 JUMP JUMPDEST PUSH1 0x40 MLOAD PUSH2 0x13A SWAP3 SWAP2 SWAP1 PUSH2 0x8C7 JUMP JUMPDEST PUSH1 0x40 MLOAD DUP1 SWAP2 SUB SWAP1 RETURN JUMPDEST PUSH2 0x14B PUSH2 0x405 JUMP JUMPDEST STOP JUMPDEST PUSH2 0x167 PUSH1 0x4 DUP1 CALLDATASIZE SUB DUP2 ADD SWAP1 PUSH2 0x162 SWAP2 SWAP1 PUSH2 0xAE9 JUMP JUMPDEST PUSH2 0x554 JUMP JUMPDEST STOP JUMPDEST PUSH2 0x183 PUSH1 0x4 DUP1 CALLDATASIZE SUB DUP2 ADD SWAP1 PUSH2 0x17E SWAP2 SWAP1 PUSH2 0x91F JUMP JUMPDEST PUSH2 0x62C JUMP JUMPDEST PUSH1 0x40 MLOAD PUSH2 0x190 SWAP2 SWAP1 PUSH2 0xB64 JUMP JUMPDEST PUSH1 0x40 MLOAD DUP1 SWAP2 SUB SWAP1 RETURN JUMPDEST PUSH2 0x1A1 PUSH2 0x667 JUMP JUMPDEST STOP JUMPDEST PUSH2 0x1BD PUSH1 0x4 DUP1 CALLDATASIZE SUB DUP2 ADD SWAP1 PUSH2 0x1B8 SWAP2 SWAP1 PUSH2 0x814 JUMP JUMPDEST PUSH2 0x703 JUMP JUMPDEST PUSH1 0x40 MLOAD PUSH2 0x1CB SWAP3 SWAP2 SWAP1 PUSH2 0x8C7 JUMP JUMPDEST PUSH1 0x40 MLOAD DUP1 SWAP2 SUB SWAP1 RETURN JUMPDEST PUSH1 0x60 PUSH0 PUSH0 PUSH1 0x1 PUSH0 DUP6 PUSH20 0xFFFFFFFFFFFFFFFFFFFFFFFFFFFFFFFFFFFFFFFF AND PUSH20 0xFFFFFFFFFFFFFFFFFFFFFFFFFFFFFFFFFFFFFFFF AND DUP2 MSTORE PUSH1 0x20 ADD SWAP1 DUP2 MSTORE PUSH1 0x20 ADD PUSH0 KECCAK256 PUSH1 0x40 MLOAD DUP1 PUSH1 0x40 ADD PUSH1 0x40 MSTORE SWAP1 DUP2 PUSH0 DUP3 ADD DUP1 SLOAD PUSH2 0x22F SWAP1 PUSH2 0xBAA JUMP JUMPDEST DUP1 PUSH1 0x1F ADD PUSH1 0x20 DUP1 SWAP2 DIV MUL PUSH1 0x20 ADD PUSH1 0x40 MLOAD SWAP1 DUP2 ADD PUSH1 0x40 MSTORE DUP1 SWAP3 SWAP2 SWAP1 DUP2 DUP2 MSTORE PUSH1 0x20 ADD DUP3 DUP1 SLOAD PUSH2 0x25B SWAP1 PUSH2 0xBAA JUMP JUMPDEST DUP1 ISZERO PUSH2 0x2A6 JUMPI DUP1 PUSH1 0x1F LT PUSH2 0x27D JUMPI PUSH2 0x100 DUP1 DUP4 SLOAD DIV MUL DUP4 MSTORE SWAP2 PUSH1 0x20 ADD SWAP2 PUSH2 0x2A6 JUMP JUMPDEST DUP3 ADD SWAP2 SWAP1 PUSH0 MSTORE PUSH1 0x20 PUSH0 KECCAK256 SWAP1 JUMPDEST DUP2 SLOAD DUP2 MSTORE SWAP1 PUSH1 0x1 ADD SWAP1 PUSH1 0x20 ADD DUP1 DUP4 GT PUSH2 0x289 JUMPI DUP3 SWAP1 SUB PUSH1 0x1F AND DUP3 ADD SWAP2 JUMPDEST POP POP POP POP POP DUP2 MSTORE PUSH1 0x20 ADD PUSH1 0x1 DUP3 ADD SLOAD DUP2 MSTORE POP POP SWAP1 POP DUP1 PUSH0 ADD MLOAD DUP2 PUSH1 0x20 ADD MLOAD SWAP3 POP SWAP3 POP POP SWAP2 POP SWAP2 JUMP JUMPDEST PUSH0 DUP2 PUSH1 0x4 PUSH0 DUP3 DUP3 SLOAD PUSH2 0x2E0 SWAP2 SWAP1 PUSH2 0xC07 JUMP JUMPDEST SWAP3 POP POP DUP2 SWAP1 SSTORE POP PUSH1 0x4 SLOAD SWAP1 POP SWAP2 SWAP1 POP JUMP JUMPDEST PUSH0 PUSH1 0x40 MLOAD DUP1 PUSH1 0x40 ADD PUSH1 0x40 MSTORE DUP1 DUP5 DUP2 MSTORE PUSH1 0x20 ADD DUP4 DUP2 MSTORE POP SWAP1 DUP1 PUSH1 0x1 DUP2 SLOAD ADD DUP1 DUP3 SSTORE DUP1 SWAP2 POP POP PUSH1 0x1 SWAP1 SUB SWAP1 PUSH0 MSTORE PUSH1 0x20 PUSH0 KECCAK256 SWAP1 PUSH1 0x2 MUL ADD PUSH0 SWAP1 SWAP2 SWAP1 SWAP2 SWAP1 SWAP2 POP PUSH0 DUP3 ADD MLOAD DUP2 PUSH0 ADD SWAP1 DUP2 PUSH2 0x340 SWAP2 SWAP1 PUSH2 0xDEB JUMP JUMPDEST POP PUSH1 0x20 DUP3 ADD MLOAD DUP2 PUSH1 0x1 ADD SSTORE POP POP POP POP JUMP JUMPDEST PUSH0 DUP2 DUP2 SLOAD DUP2 LT PUSH2 0x35F JUMPI PUSH0 DUP1 REVERT JUMPDEST SWAP1 PUSH0 MSTORE PUSH1 0x20 PUSH0 KECCAK256 SWAP1 PUSH1 0x2 MUL ADD PUSH0 SWAP2 POP SWAP1 POP DUP1 PUSH0 ADD DUP1 SLOAD PUSH2 0x37E SWAP1 PUSH2 0xBAA JUMP JUMPDEST DUP1 PUSH1 0x1F ADD PUSH1 0x20 DUP1 SWAP2 DIV MUL PUSH1 0x20 ADD PUSH1 0x40 MLOAD SWAP1 DUP2 ADD PUSH1 0x40 MSTORE DUP1 SWAP3 SWAP2 SWAP1 DUP2 DUP2 MSTORE PUSH1 0x20 ADD DUP3 DUP1 SLOAD PUSH2 0x3AA SWAP1 PUSH2 0xBAA JUMP JUMPDEST DUP1 ISZERO PUSH2 0x3F5 JUMPI DUP1 PUSH1 0x1F LT PUSH2 0x3CC JUMPI PUSH2 0x100 DUP1 DUP4 SLOAD DIV MUL DUP4 MSTORE SWAP2 PUSH1 0x20 ADD SWAP2 PUSH2 0x3F5 JUMP JUMPDEST DUP3 ADD SWAP2 SWAP1 PUSH0 MSTORE PUSH1 0x20 PUSH0 KECCAK256 SWAP1 JUMPDEST DUP2 SLOAD DUP2 MSTORE SWAP1 PUSH1 0x1 ADD SWAP1 PUSH1 0x20 ADD DUP1 DUP4 GT PUSH2 0x3D8 JUMPI DUP3 SWAP1 SUB PUSH1 0x1F AND DUP3 ADD SWAP2 JUMPDEST POP POP POP POP POP SWAP1 DUP1 PUSH1 0x1 ADD SLOAD SWAP1 POP DUP3 JUMP JUMPDEST PUSH0 PUSH0 SWAP1 POP JUMPDEST PUSH1 0x2 DUP1 SLOAD SWAP1 POP DUP2 LT ISZERO PUSH2 0x551 JUMPI PUSH32 0x8FD40D2776B50A211118B480C9BF278A55C60D9EA54DC8666A9FB323744C1121 PUSH1 0x1 PUSH0 PUSH1 0x2 DUP5 DUP2 SLOAD DUP2 LT PUSH2 0x44F JUMPI PUSH2 0x44E PUSH2 0xEBA JUMP JUMPDEST JUMPDEST SWAP1 PUSH0 MSTORE PUSH1 0x20 PUSH0 KECCAK256 ADD PUSH0 SWAP1 SLOAD SWAP1 PUSH2 0x100 EXP SWAP1 DIV PUSH20 0xFFFFFFFFFFFFFFFFFFFFFFFFFFFFFFFFFFFFFFFF AND PUSH20 0xFFFFFFFFFFFFFFFFFFFFFFFFFFFFFFFFFFFFFFFF AND PUSH20 0xFFFFFFFFFFFFFFFFFFFFFFFFFFFFFFFFFFFFFFFF AND DUP2 MSTORE PUSH1 0x20 ADD SWAP1 DUP2 MSTORE PUSH1 0x20 ADD PUSH0 KECCAK256 PUSH0 ADD PUSH1 0x1 PUSH0 PUSH1 0x2 DUP6 DUP2 SLOAD DUP2 LT PUSH2 0x4C9 JUMPI PUSH2 0x4C8 PUSH2 0xEBA JUMP JUMPDEST JUMPDEST SWAP1 PUSH0 MSTORE PUSH1 0x20 PUSH0 KECCAK256 ADD PUSH0 SWAP1 SLOAD SWAP1 PUSH2 0x100 EXP SWAP1 DIV PUSH20 0xFFFFFFFFFFFFFFFFFFFFFFFFFFFFFFFFFFFFFFFF AND PUSH20 0xFFFFFFFFFFFFFFFFFFFFFFFFFFFFFFFFFFFFFFFF AND PUSH20 0xFFFFFFFFFFFFFFFFFFFFFFFFFFFFFFFFFFFFFFFF AND DUP2 MSTORE PUSH1 0x20 ADD SWAP1 DUP2 MSTORE PUSH1 0x20 ADD PUSH0 KECCAK256 PUSH1 0x1 ADD SLOAD PUSH1 0x40 MLOAD PUSH2 0x53C SWAP3 SWAP2 SWAP1 PUSH2 0xF68 JUMP JUMPDEST PUSH1 0x40 MLOAD DUP1 SWAP2 SUB SWAP1 LOG1 DUP1 DUP1 PUSH1 0x1 ADD SWAP2 POP POP PUSH2 0x40A JUMP JUMPDEST POP JUMP JUMPDEST PUSH1 0x40 MLOAD DUP1 PUSH1 0x40 ADD PUSH1 0x40 MSTORE DUP1 DUP4 DUP2 MSTORE PUSH1 0x20 ADD DUP3 DUP2 MSTORE POP PUSH1 0x1 PUSH0 DUP6 PUSH20 0xFFFFFFFFFFFFFFFFFFFFFFFFFFFFFFFFFFFFFFFF AND PUSH20 0xFFFFFFFFFFFFFFFFFFFFFFFFFFFFFFFFFFFFFFFF AND DUP2 MSTORE PUSH1 0x20 ADD SWAP1 DUP2 MSTORE PUSH1 0x20 ADD PUSH0 KECCAK256 PUSH0 DUP3 ADD MLOAD DUP2 PUSH0 ADD SWAP1 DUP2 PUSH2 0x5B9 SWAP2 SWAP1 PUSH2 0xDEB JUMP JUMPDEST POP PUSH1 0x20 DUP3 ADD MLOAD DUP2 PUSH1 0x1 ADD SSTORE SWAP1 POP POP PUSH1 0x2 DUP4 SWAP1 DUP1 PUSH1 0x1 DUP2 SLOAD ADD DUP1 DUP3 SSTORE DUP1 SWAP2 POP POP PUSH1 0x1 SWAP1 SUB SWAP1 PUSH0 MSTORE PUSH1 0x20 PUSH0 KECCAK256 ADD PUSH0 SWAP1 SWAP2 SWAP1 SWAP2 SWAP1 SWAP2 PUSH2 0x100 EXP DUP2 SLOAD DUP2 PUSH20 0xFFFFFFFFFFFFFFFFFFFFFFFFFFFFFFFFFFFFFFFF MUL NOT AND SWAP1 DUP4 PUSH20 0xFFFFFFFFFFFFFFFFFFFFFFFFFFFFFFFFFFFFFFFF AND MUL OR SWAP1 SSTORE POP POP POP POP JUMP JUMPDEST PUSH1 0x2 DUP2 DUP2 SLOAD DUP2 LT PUSH2 0x63B JUMPI PUSH0 DUP1 REVERT JUMPDEST SWAP1 PUSH0 MSTORE PUSH1 0x20 PUSH0 KECCAK256 ADD PUSH0 SWAP2 POP SLOAD SWAP1 PUSH2 0x100 EXP SWAP1 DIV PUSH20 0xFFFFFFFFFFFFFFFFFFFFFFFFFFFFFFFFFFFFFFFF AND DUP2 JUMP JUMPDEST PUSH0 PUSH0 SWAP1 POP JUMPDEST PUSH0 DUP1 SLOAD SWAP1 POP DUP2 LT ISZERO PUSH2 0x700 JUMPI PUSH32 0xC0A21AB21926025EFD867C8EE07294FE346113056D91864434BFCB66BD4B4D08 PUSH0 DUP3 DUP2 SLOAD DUP2 LT PUSH2 0x6AC JUMPI PUSH2 0x6AB PUSH2 0xEBA JUMP JUMPDEST JUMPDEST SWAP1 PUSH0 MSTORE PUSH1 0x20 PUSH0 KECCAK256 SWAP1 PUSH1 0x2 MUL ADD PUSH0 ADD PUSH0 DUP4 DUP2 SLOAD DUP2 LT PUSH2 0x6CD JUMPI PUSH2 0x6CC PUSH2 0xEBA JUMP JUMPDEST JUMPDEST SWAP1 PUSH0 MSTORE PUSH1 0x20 PUSH0 KECCAK256 SWAP1 PUSH1 0x2 MUL ADD PUSH1 0x1 ADD SLOAD PUSH1 0x40 MLOAD PUSH2 0x6EB SWAP3 SWAP2 SWAP1 PUSH2 0xF68 JUMP JUMPDEST PUSH1 0x40 MLOAD DUP1 SWAP2 SUB SWAP1 LOG1 DUP1 DUP1 PUSH1 0x1 ADD SWAP2 POP POP PUSH2 0x66C JUMP JUMPDEST POP JUMP JUMPDEST PUSH1 0x1 PUSH1 0x20 MSTORE DUP1 PUSH0 MSTORE PUSH1 0x40 PUSH0 KECCAK256 PUSH0 SWAP2 POP SWAP1 POP DUP1 PUSH0 ADD DUP1 SLOAD PUSH2 0x722 SWAP1 PUSH2 0xBAA JUMP JUMPDEST DUP1 PUSH1 0x1F ADD PUSH1 0x20 DUP1 SWAP2 DIV MUL PUSH1 0x20 ADD PUSH1 0x40 MLOAD SWAP1 DUP2 ADD PUSH1 0x40 MSTORE DUP1 SWAP3 SWAP2 SWAP1 DUP2 DUP2 MSTORE PUSH1 0x20 ADD DUP3 DUP1 SLOAD PUSH2 0x74E SWAP1 PUSH2 0xBAA JUMP JUMPDEST DUP1 ISZERO PUSH2 0x799 JUMPI DUP1 PUSH1 0x1F LT PUSH2 0x770 JUMPI PUSH2 0x100 DUP1 DUP4 SLOAD DIV MUL DUP4 MSTORE SWAP2 PUSH1 0x20 ADD SWAP2 PUSH2 0x799 JUMP JUMPDEST DUP3 ADD SWAP2 SWAP1 PUSH0 MSTORE PUSH1 0x20 PUSH0 KECCAK256 SWAP1 JUMPDEST DUP2 SLOAD DUP2 MSTORE SWAP1 PUSH1 0x1 ADD SWAP1 PUSH1 0x20 ADD DUP1 DUP4 GT PUSH2 0x77C JUMPI DUP3 SWAP1 SUB PUSH1 0x1F AND DUP3 ADD SWAP2 JUMPDEST POP POP POP POP POP SWAP1 DUP1 PUSH1 0x1 ADD SLOAD SWAP1 POP DUP3 JUMP JUMPDEST PUSH0 PUSH1 0x40 MLOAD SWAP1 POP SWAP1 JUMP JUMPDEST PUSH0 PUSH0 REVERT JUMPDEST PUSH0 PUSH0 REVERT JUMPDEST PUSH0 PUSH20 0xFFFFFFFFFFFFFFFFFFFFFFFFFFFFFFFFFFFFFFFF DUP3 AND SWAP1 POP SWAP2 SWAP1 POP JUMP JUMPDEST PUSH0 PUSH2 0x7E3 DUP3 PUSH2 0x7BA JUMP JUMPDEST SWAP1 POP SWAP2 SWAP1 POP JUMP JUMPDEST PUSH2 0x7F3 DUP2 PUSH2 0x7D9 JUMP JUMPDEST DUP2 EQ PUSH2 0x7FD JUMPI PUSH0 PUSH0 REVERT JUMPDEST POP JUMP JUMPDEST PUSH0 DUP2 CALLDATALOAD SWAP1 POP PUSH2 0x80E DUP2 PUSH2 0x7EA JUMP JUMPDEST SWAP3 SWAP2 POP POP JUMP JUMPDEST PUSH0 PUSH1 0x20 DUP3 DUP5 SUB SLT ISZERO PUSH2 0x829 JUMPI PUSH2 0x828 PUSH2 0x7B2 JUMP JUMPDEST JUMPDEST PUSH0 PUSH2 0x836 DUP5 DUP3 DUP6 ADD PUSH2 0x800 JUMP JUMPDEST SWAP2 POP POP SWAP3 SWAP2 POP POP JUMP JUMPDEST PUSH0 DUP2 MLOAD SWAP1 POP SWAP2 SWAP1 POP JUMP JUMPDEST PUSH0 DUP3 DUP3 MSTORE PUSH1 0x20 DUP3 ADD SWAP1 POP SWAP3 SWAP2 POP POP JUMP JUMPDEST DUP3 DUP2 DUP4 MCOPY PUSH0 DUP4 DUP4 ADD MSTORE POP POP POP JUMP JUMPDEST PUSH0 PUSH1 0x1F NOT PUSH1 0x1F DUP4 ADD AND SWAP1 POP SWAP2 SWAP1 POP JUMP JUMPDEST PUSH0 PUSH2 0x881 DUP3 PUSH2 0x83F JUMP JUMPDEST PUSH2 0x88B DUP2 DUP6 PUSH2 0x849 JUMP JUMPDEST SWAP4 POP PUSH2 0x89B DUP2 DUP6 PUSH1 0x20 DUP7 ADD PUSH2 0x859 JUMP JUMPDEST PUSH2 0x8A4 DUP2 PUSH2 0x867 JUMP JUMPDEST DUP5 ADD SWAP2 POP POP SWAP3 SWAP2 POP POP JUMP JUMPDEST PUSH0 DUP2 SWAP1 POP SWAP2 SWAP1 POP JUMP JUMPDEST PUSH2 0x8C1 DUP2 PUSH2 0x8AF JUMP JUMPDEST DUP3 MSTORE POP POP JUMP JUMPDEST PUSH0 PUSH1 0x40 DUP3 ADD SWAP1 POP DUP2 DUP2 SUB PUSH0 DUP4 ADD MSTORE PUSH2 0x8DF DUP2 DUP6 PUSH2 0x877 JUMP JUMPDEST SWAP1 POP PUSH2 0x8EE PUSH1 0x20 DUP4 ADD DUP5 PUSH2 0x8B8 JUMP JUMPDEST SWAP4 SWAP3 POP POP POP JUMP JUMPDEST PUSH2 0x8FE DUP2 PUSH2 0x8AF JUMP JUMPDEST DUP2 EQ PUSH2 0x908 JUMPI PUSH0 PUSH0 REVERT JUMPDEST POP JUMP JUMPDEST PUSH0 DUP2 CALLDATALOAD SWAP1 POP PUSH2 0x919 DUP2 PUSH2 0x8F5 JUMP JUMPDEST SWAP3 SWAP2 POP POP JUMP JUMPDEST PUSH0 PUSH1 0x20 DUP3 DUP5 SUB SLT ISZERO PUSH2 0x934 JUMPI PUSH2 0x933 PUSH2 0x7B2 JUMP JUMPDEST JUMPDEST PUSH0 PUSH2 0x941 DUP5 DUP3 DUP6 ADD PUSH2 0x90B JUMP JUMPDEST SWAP2 POP POP SWAP3 SWAP2 POP POP JUMP JUMPDEST PUSH0 PUSH1 0x20 DUP3 ADD SWAP1 POP PUSH2 0x95D PUSH0 DUP4 ADD DUP5 PUSH2 0x8B8 JUMP JUMPDEST SWAP3 SWAP2 POP POP JUMP JUMPDEST PUSH0 PUSH0 REVERT JUMPDEST PUSH0 PUSH0 REVERT JUMPDEST PUSH32 0x4E487B7100000000000000000000000000000000000000000000000000000000 PUSH0 MSTORE PUSH1 0x41 PUSH1 0x4 MSTORE PUSH1 0x24 PUSH0 REVERT JUMPDEST PUSH2 0x9A1 DUP3 PUSH2 0x867 JUMP JUMPDEST DUP2 ADD DUP2 DUP2 LT PUSH8 0xFFFFFFFFFFFFFFFF DUP3 GT OR ISZERO PUSH2 0x9C0 JUMPI PUSH2 0x9BF PUSH2 0x96B JUMP JUMPDEST JUMPDEST DUP1 PUSH1 0x40 MSTORE POP POP POP JUMP JUMPDEST PUSH0 PUSH2 0x9D2 PUSH2 0x7A9 JUMP JUMPDEST SWAP1 POP PUSH2 0x9DE DUP3 DUP3 PUSH2 0x998 JUMP JUMPDEST SWAP2 SWAP1 POP JUMP JUMPDEST PUSH0 PUSH8 0xFFFFFFFFFFFFFFFF DUP3 GT ISZERO PUSH2 0x9FD JUMPI PUSH2 0x9FC PUSH2 0x96B JUMP JUMPDEST JUMPDEST PUSH2 0xA06 DUP3 PUSH2 0x867 JUMP JUMPDEST SWAP1 POP PUSH1 0x20 DUP2 ADD SWAP1 POP SWAP2 SWAP1 POP JUMP JUMPDEST DUP3 DUP2 DUP4 CALLDATACOPY PUSH0 DUP4 DUP4 ADD MSTORE POP POP POP JUMP JUMPDEST PUSH0 PUSH2 0xA33 PUSH2 0xA2E DUP5 PUSH2 0x9E3 JUMP JUMPDEST PUSH2 0x9C9 JUMP JUMPDEST SWAP1 POP DUP3 DUP2 MSTORE PUSH1 0x20 DUP2 ADD DUP5 DUP5 DUP5 ADD GT ISZERO PUSH2 0xA4F JUMPI PUSH2 0xA4E PUSH2 0x967 JUMP JUMPDEST JUMPDEST PUSH2 0xA5A DUP5 DUP3 DUP6 PUSH2 0xA13 JUMP JUMPDEST POP SWAP4 SWAP3 POP POP POP JUMP JUMPDEST PUSH0 DUP3 PUSH1 0x1F DUP4 ADD SLT PUSH2 0xA76 JUMPI PUSH2 0xA75 PUSH2 0x963 JUMP JUMPDEST JUMPDEST DUP2 CALLDATALOAD PUSH2 0xA86 DUP5 DUP3 PUSH1 0x20 DUP7 ADD PUSH2 0xA21 JUMP JUMPDEST SWAP2 POP POP SWAP3 SWAP2 POP POP JUMP JUMPDEST PUSH0 PUSH0 PUSH1 0x40 DUP4 DUP6 SUB SLT ISZERO PUSH2 0xAA5 JUMPI PUSH2 0xAA4 PUSH2 0x7B2 JUMP JUMPDEST JUMPDEST PUSH0 DUP4 ADD CALLDATALOAD PUSH8 0xFFFFFFFFFFFFFFFF DUP2 GT ISZERO PUSH2 0xAC2 JUMPI PUSH2 0xAC1 PUSH2 0x7B6 JUMP JUMPDEST JUMPDEST PUSH2 0xACE DUP6 DUP3 DUP7 ADD PUSH2 0xA62 JUMP JUMPDEST SWAP3 POP POP PUSH1 0x20 PUSH2 0xADF DUP6 DUP3 DUP7 ADD PUSH2 0x90B JUMP JUMPDEST SWAP2 POP POP SWAP3 POP SWAP3 SWAP1 POP JUMP JUMPDEST PUSH0 PUSH0 PUSH0 PUSH1 0x60 DUP5 DUP7 SUB SLT ISZERO PUSH2 0xB00 JUMPI PUSH2 0xAFF PUSH2 0x7B2 JUMP JUMPDEST JUMPDEST PUSH0 PUSH2 0xB0D DUP7 DUP3 DUP8 ADD PUSH2 0x800 JUMP JUMPDEST SWAP4 POP POP PUSH1 0x20 DUP5 ADD CALLDATALOAD PUSH8 0xFFFFFFFFFFFFFFFF DUP2 GT ISZERO PUSH2 0xB2E JUMPI PUSH2 0xB2D PUSH2 0x7B6 JUMP JUMPDEST JUMPDEST PUSH2 0xB3A DUP7 DUP3 DUP8 ADD PUSH2 0xA62 JUMP JUMPDEST SWAP3 POP POP PUSH1 0x40 PUSH2 0xB4B DUP7 DUP3 DUP8 ADD PUSH2 0x90B JUMP JUMPDEST SWAP2 POP POP SWAP3 POP SWAP3 POP SWAP3 JUMP JUMPDEST PUSH2 0xB5E DUP2 PUSH2 0x7D9 JUMP JUMPDEST DUP3 MSTORE POP POP JUMP JUMPDEST PUSH0 PUSH1 0x20 DUP3 ADD SWAP1 POP PUSH2 0xB77 PUSH0 DUP4 ADD DUP5 PUSH2 0xB55 JUMP JUMPDEST SWAP3 SWAP2 POP POP JUMP JUMPDEST PUSH32 0x4E487B7100000000000000000000000000000000000000000000000000000000 PUSH0 MSTORE PUSH1 0x22 PUSH1 0x4 MSTORE PUSH1 0x24 PUSH0 REVERT JUMPDEST PUSH0 PUSH1 0x2 DUP3 DIV SWAP1 POP PUSH1 0x1 DUP3 AND DUP1 PUSH2 0xBC1 JUMPI PUSH1 0x7F DUP3 AND SWAP2 POP JUMPDEST PUSH1 0x20 DUP3 LT DUP2 SUB PUSH2 0xBD4 JUMPI PUSH2 0xBD3 PUSH2 0xB7D JUMP JUMPDEST JUMPDEST POP SWAP2 SWAP1 POP JUMP JUMPDEST PUSH32 0x4E487B7100000000000000000000000000000000000000000000000000000000 PUSH0 MSTORE PUSH1 0x11 PUSH1 0x4 MSTORE PUSH1 0x24 PUSH0 REVERT JUMPDEST PUSH0 PUSH2 0xC11 DUP3 PUSH2 0x8AF JUMP JUMPDEST SWAP2 POP PUSH2 0xC1C DUP4 PUSH2 0x8AF JUMP JUMPDEST SWAP3 POP DUP3 DUP3 ADD SWAP1 POP DUP1 DUP3 GT ISZERO PUSH2 0xC34 JUMPI PUSH2 0xC33 PUSH2 0xBDA JUMP JUMPDEST JUMPDEST SWAP3 SWAP2 POP POP JUMP JUMPDEST PUSH0 DUP2 SWAP1 POP DUP2 PUSH0 MSTORE PUSH1 0x20 PUSH0 KECCAK256 SWAP1 POP SWAP2 SWAP1 POP JUMP JUMPDEST PUSH0 PUSH1 0x20 PUSH1 0x1F DUP4 ADD DIV SWAP1 POP SWAP2 SWAP1 POP JUMP JUMPDEST PUSH0 DUP3 DUP3 SHL SWAP1 POP SWAP3 SWAP2 POP POP JUMP JUMPDEST PUSH0 PUSH1 0x8 DUP4 MUL PUSH2 0xC96 PUSH32 0xFFFFFFFFFFFFFFFFFFFFFFFFFFFFFFFFFFFFFFFFFFFFFFFFFFFFFFFFFFFFFFFF DUP3 PUSH2 0xC5B JUMP JUMPDEST PUSH2 0xCA0 DUP7 DUP4 PUSH2 0xC5B JUMP JUMPDEST SWAP6 POP DUP1 NOT DUP5 AND SWAP4 POP DUP1 DUP7 AND DUP5 OR SWAP3 POP POP POP SWAP4 SWAP3 POP POP POP JUMP JUMPDEST PUSH0 DUP2 SWAP1 POP SWAP2 SWAP1 POP JUMP JUMPDEST PUSH0 PUSH2 0xCDB PUSH2 0xCD6 PUSH2 0xCD1 DUP5 PUSH2 0x8AF JUMP JUMPDEST PUSH2 0xCB8 JUMP JUMPDEST PUSH2 0x8AF JUMP JUMPDEST SWAP1 POP SWAP2 SWAP1 POP JUMP JUMPDEST PUSH0 DUP2 SWAP1 POP SWAP2 SWAP1 POP JUMP JUMPDEST PUSH2 0xCF4 DUP4 PUSH2 0xCC1 JUMP JUMPDEST PUSH2 0xD08 PUSH2 0xD00 DUP3 PUSH2 0xCE2 JUMP JUMPDEST DUP5 DUP5 SLOAD PUSH2 0xC67 JUMP JUMPDEST DUP3 SSTORE POP POP POP POP JUMP JUMPDEST PUSH0 PUSH0 SWAP1 POP SWAP1 JUMP JUMPDEST PUSH2 0xD1F PUSH2 0xD10 JUMP JUMPDEST PUSH2 0xD2A DUP2 DUP5 DUP5 PUSH2 0xCEB JUMP JUMPDEST POP POP POP JUMP JUMPDEST PUSH0 JUMPDEST DUP3 DUP2 LT ISZERO PUSH2 0xD50 JUMPI PUSH2 0xD45 PUSH0 DUP3 DUP5 ADD PUSH2 0xD17 JUMP JUMPDEST PUSH1 0x1 DUP2 ADD SWAP1 POP PUSH2 0xD31 JUMP JUMPDEST POP POP POP JUMP JUMPDEST PUSH1 0x1F DUP3 GT ISZERO PUSH2 0xDA3 JUMPI DUP3 DUP3 GT ISZERO PUSH2 0xDA2 JUMPI PUSH2 0xD6F DUP2 PUSH2 0xC3A JUMP JUMPDEST PUSH2 0xD78 DUP4 PUSH2 0xC4C JUMP JUMPDEST PUSH2 0xD81 DUP6 PUSH2 0xC4C JUMP JUMPDEST PUSH1 0x20 DUP7 LT ISZERO PUSH2 0xD8E JUMPI PUSH0 SWAP1 POP JUMPDEST DUP1 DUP4 ADD PUSH2 0xD9D DUP3 DUP5 SUB DUP3 PUSH2 0xD2F JUMP JUMPDEST POP POP POP POP JUMPDEST JUMPDEST POP POP POP JUMP JUMPDEST PUSH0 DUP3 DUP3 SHR SWAP1 POP SWAP3 SWAP2 POP POP JUMP JUMPDEST PUSH0 PUSH2 0xDC3 PUSH0 NOT DUP5 PUSH1 0x8 MUL PUSH2 0xDA8 JUMP JUMPDEST NOT DUP1 DUP4 AND SWAP2 POP POP SWAP3 SWAP2 POP POP JUMP JUMPDEST PUSH0 PUSH2 0xDDB DUP4 DUP4 PUSH2 0xDB4 JUMP JUMPDEST SWAP2 POP DUP3 PUSH1 0x2 MUL DUP3 OR SWAP1 POP SWAP3 SWAP2 POP POP JUMP JUMPDEST PUSH2 0xDF4 DUP3 PUSH2 0x83F JUMP JUMPDEST PUSH8 0xFFFFFFFFFFFFFFFF DUP2 GT ISZERO PUSH2 0xE0D JUMPI PUSH2 0xE0C PUSH2 0x96B JUMP JUMPDEST JUMPDEST PUSH2 0xE17 DUP3 SLOAD PUSH2 0xBAA JUMP JUMPDEST PUSH2 0xE22 DUP3 DUP3 DUP6 PUSH2 0xD55 JUMP JUMPDEST PUSH0 PUSH1 0x20 SWAP1 POP PUSH1 0x1F DUP4 GT PUSH1 0x1 DUP2 EQ PUSH2 0xE53 JUMPI PUSH0 DUP5 ISZERO PUSH2 0xE41 JUMPI DUP3 DUP8 ADD MLOAD SWAP1 POP JUMPDEST PUSH2 0xE4B DUP6 DUP3 PUSH2 0xDD0 JUMP JUMPDEST DUP7 SSTORE POP PUSH2 0xEB2 JUMP JUMPDEST PUSH1 0x1F NOT DUP5 AND PUSH2 0xE61 DUP7 PUSH2 0xC3A JUMP JUMPDEST PUSH0 JUMPDEST DUP3 DUP2 LT ISZERO PUSH2 0xE88 JUMPI DUP5 DUP10 ADD MLOAD DUP3 SSTORE PUSH1 0x1 DUP3 ADD SWAP2 POP PUSH1 0x20 DUP6 ADD SWAP5 POP PUSH1 0x20 DUP2 ADD SWAP1 POP PUSH2 0xE63 JUMP JUMPDEST DUP7 DUP4 LT ISZERO PUSH2 0xEA5 JUMPI DUP5 DUP10 ADD MLOAD PUSH2 0xEA1 PUSH1 0x1F DUP10 AND DUP3 PUSH2 0xDB4 JUMP JUMPDEST DUP4 SSTORE POP JUMPDEST PUSH1 0x1 PUSH1 0x2 DUP9 MUL ADD DUP9 SSTORE POP POP POP JUMPDEST POP POP POP POP POP POP JUMP JUMPDEST PUSH32 0x4E487B7100000000000000000000000000000000000000000000000000000000 PUSH0 MSTORE PUSH1 0x32 PUSH1 0x4 MSTORE PUSH1 0x24 PUSH0 REVERT JUMPDEST PUSH0 DUP2 SLOAD PUSH2 0xEF3 DUP2 PUSH2 0xBAA JUMP JUMPDEST PUSH2 0xEFD DUP2 DUP7 PUSH2 0x849 JUMP JUMPDEST SWAP5 POP PUSH1 0x1 DUP3 AND PUSH0 DUP2 EQ PUSH2 0xF17 JUMPI PUSH1 0x1 DUP2 EQ PUSH2 0xF2D JUMPI PUSH2 0xF5F JUMP JUMPDEST PUSH1 0xFF NOT DUP4 AND DUP7 MSTORE DUP2 ISZERO ISZERO PUSH1 0x20 MUL DUP7 ADD SWAP4 POP PUSH2 0xF5F JUMP JUMPDEST PUSH2 0xF36 DUP6 PUSH2 0xC3A JUMP JUMPDEST PUSH0 JUMPDEST DUP4 DUP2 LT ISZERO PUSH2 0xF57 JUMPI DUP2 SLOAD DUP2 DUP10 ADD MSTORE PUSH1 0x1 DUP3 ADD SWAP2 POP PUSH1 0x20 DUP2 ADD SWAP1 POP PUSH2 0xF38 JUMP JUMPDEST DUP1 DUP9 ADD SWAP6 POP POP POP JUMPDEST POP POP POP SWAP3 SWAP2 POP POP JUMP JUMPDEST PUSH0 PUSH1 0x40 DUP3 ADD SWAP1 POP DUP2 DUP2 SUB PUSH0 DUP4 ADD MSTORE PUSH2 0xF80 DUP2 DUP6 PUSH2 0xEE7 JUMP JUMPDEST SWAP1 POP PUSH2 0xF8F PUSH1 0x20 DUP4 ADD DUP5 PUSH2 0x8B8 JUMP JUMPDEST SWAP4 SWAP3 POP POP POP JUMP INVALID LOG2 PUSH5 0x6970667358 0x22 SLT KECCAK256 0xB0 PUSH26 0x8062AA4EB66DA71A9978BB453E3E838B0EFABC212FB816CA702F DUP3 PUSH14 0xC3DF64736F6C6343000822003300 "
				},
				"gasEstimates": {
					"creation": {
						"codeDepositCost": "808800",
						"executionCost": "47161",
						"totalCost": "855961"
					},
					"external": {
						"addUser(string,uint256)": "infinite",
						"addValidators(address,string,uint256)": "infinite",
						"changeNumber(uint256)": "infinite",
						"logUsers()": "infinite",
						"logValidators()": "infinite",
						"printValidator(address)": "infinite",
						"users(uint256)": "infinite",
						"validatorAddresses(uint256)": "4988",
						"validators(address)": "infinite"
					}
				},
				"methodIdentifiers": {
					"addUser(string,uint256)": "1c5220c2",
					"addValidators(address,string,uint256)": "906f46aa",
					"changeNumber(uint256)": "07391dd6",
					"logUsers()": "f35d03b2",
					"logValidators()": "4ccc0c64",
					"printValidator(address)": "03f1d194",
					"users(uint256)": "365b98b2",
					"validatorAddresses(uint256)": "99745318",
					"validators(address)": "fa52c7d8"
				}
			},
			"storageLayout": {
				"storage": [
					{
						"astId": 31,
						"contract": "contracts/ExtraStorage.sol:ExtraStorage",
						"label": "users",
						"offset": 0,
						"slot": "0",
						"type": "t_array(t_struct(People)27_storage)dyn_storage"
					},
					{
						"astId": 36,
						"contract": "contracts/ExtraStorage.sol:ExtraStorage",
						"label": "validators",
						"offset": 0,
						"slot": "1",
						"type": "t_mapping(t_address,t_struct(People)27_storage)"
					},
					{
						"astId": 39,
						"contract": "contracts/ExtraStorage.sol:ExtraStorage",
						"label": "validatorAddresses",
						"offset": 0,
						"slot": "2",
						"type": "t_array(t_address)dyn_storage"
					},
					{
						"astId": 146,
						"contract": "contracts/ExtraStorage.sol:ExtraStorage",
						"label": "length",
						"offset": 0,
						"slot": "3",
						"type": "t_uint256"
					},
					{
						"astId": 183,
						"contract": "contracts/ExtraStorage.sol:ExtraStorage",
						"label": "number",
						"offset": 0,
						"slot": "4",
						"type": "t_uint256"
					}
				],
				"types": {
					"t_address": {
						"encoding": "inplace",
						"label": "address",
						"numberOfBytes": "20"
					},
					"t_array(t_address)dyn_storage": {
						"base": "t_address",
						"encoding": "dynamic_array",
						"label": "address[]",
						"numberOfBytes": "32"
					},
					"t_array(t_struct(People)27_storage)dyn_storage": {
						"base": "t_struct(People)27_storage",
						"encoding": "dynamic_array",
						"label": "struct SimpleStorage.People[]",
						"numberOfBytes": "32"
					},
					"t_mapping(t_address,t_struct(People)27_storage)": {
						"encoding": "mapping",
						"key": "t_address",
						"label": "mapping(address => struct SimpleStorage.People)",
						"numberOfBytes": "32",
						"value": "t_struct(People)27_storage"
					},
					"t_string_storage": {
						"encoding": "bytes",
						"label": "string",
						"numberOfBytes": "32"
					},
					"t_struct(People)27_storage": {
						"encoding": "inplace",
						"label": "struct SimpleStorage.People",
						"members": [
							{
								"astId": 24,
								"contract": "contracts/ExtraStorage.sol:ExtraStorage",
								"label": "name",
								"offset": 0,
								"slot": "0",
								"type": "t_string_storage"
							},
							{
								"astId": 26,
								"contract": "contracts/ExtraStorage.sol:ExtraStorage",
								"label": "age",
								"offset": 0,
								"slot": "1",
								"type": "t_uint256"
							}
						],
						"numberOfBytes": "64"
					},
					"t_uint256": {
						"encoding": "inplace",
						"label": "uint256",
						"numberOfBytes": "32"
					}
				}
			},
			"userdoc": {
				"kind": "user",
				"methods": {},
				"version": 1
			}
		}
	}
}