{
	"contracts/SimpleStorage.sol": {
		"SimpleStorage": {
			"abi": [
				{
					"anonymous": false,
					"inputs": [
						{
							"indexed": false,
							"internalType": "string",
							"name": "name",
							"type": "string"
						},
						{
							"indexed": false,
							"internalType": "uint256",
							"name": "age",
							"type": "uint256"
						}
					],
					"name": "logValidatorsEvent",
					"type": "event"
				},
				{
					"anonymous": false,
					"inputs": [
						{
							"indexed": false,
							"internalType": "string",
							"name": "name",
							"type": "string"
						},
						{
							"indexed": false,
							"internalType": "uint256",
							"name": "age",
							"type": "uint256"
						}
					],
					"name": "printUsersEvent",
					"type": "event"
				},
				{
					"inputs": [
						{
							"internalType": "string",
							"name": "_name",
							"type": "string"
						},
						{
							"internalType": "uint256",
							"name": "_age",
							"type": "uint256"
						}
					],
					"name": "addUser",
					"outputs": [],
					"stateMutability": "nonpayable",
					"type": "function"
				},
				{
					"inputs": [
						{
							"internalType": "address",
							"name": "_walletAddress",
							"type": "address"
						},
						{
							"internalType": "string",
							"name": "_name",
							"type": "string"
						},
						{
							"internalType": "uint256",
							"name": "_age",
							"type": "uint256"
						}
					],
					"name": "addValidators",
					"outputs": [],
					"stateMutability": "nonpayable",
					"type": "function"
				},
				{
					"inputs": [
						{
							"internalType": "uint256",
							"name": "_number",
							"type": "uint256"
						}
					],
					"name": "changeNumber",
					"outputs": [
						{
							"internalType": "uint256",
							"name": "",
							"type": "uint256"
						}
					],
					"stateMutability": "nonpayable",
					"type": "function"
				},
				{
					"inputs": [],
					"name": "logUsers",
					"outputs": [],
					"stateMutability": "nonpayable",
					"type": "function"
				},
				{
					"inputs": [],
					"name": "logValidators",
					"outputs": [],
					"stateMutability": "nonpayable",
					"type": "function"
				},
				{
					"inputs": [
						{
							"internalType": "address",
							"name": "_walletAddress",
							"type": "address"
						}
					],
					"name": "printValidator",
					"outputs": [
						{
							"internalType": "string",
							"name": "",
							"type": "string"
						},
						{
							"internalType": "uint256",
							"name": "",
							"type": "uint256"
						}
					],
					"stateMutability": "view",
					"type": "function"
				},
				{
					"inputs": [
						{
							"internalType": "uint256",
							"name": "",
							"type": "uint256"
						}
					],
					"name": "users",
					"outputs": [
						{
							"internalType": "string",
							"name": "name",
							"type": "string"
						},
						{
							"internalType": "uint256",
							"name": "age",
							"type": "uint256"
						}
					],
					"stateMutability": "view",
					"type": "function"
				},
				{
					"inputs": [
						{
							"internalType": "uint256",
							"name": "",
							"type": "uint256"
						}
					],
					"name": "validatorAddresses",
					"outputs": [
						{
							"internalType": "address",
							"name": "",
							"type": "address"
						}
					],
					"stateMutability": "view",
					"type": "function"
				},
				{
					"inputs": [
						{
							"internalType": "address",
							"name": "",
							"type": "address"
						}
					],
					"name": "validators",
					"outputs": [
						{
							"internalType": "string",
							"name": "name",
							"type": "string"
						},
						{
							"internalType": "uint256",
							"name": "age",
							"type": "uint256"
						}
					],
					"stateMutability": "view",
					"type": "function"
				}
			],
			"devdoc": {
				"kind": "dev",
				"methods": {},
				"version": 1
			},
			"evm": {
				"assembly": "    /* \"contracts/SimpleStorage.sol\":61:1964  contract SimpleStorage {... */\n  mstore(0x40, 0x80)\n    /* \"contracts/SimpleStorage.sol\":1155:1160  users */\n  0x00\n    /* \"contracts/SimpleStorage.sol\":1155:1167  users.length */\n  dup1\n  sload\n  swap1\n  pop\n    /* \"contracts/SimpleStorage.sol\":1138:1167  uint256 length = users.length */\n  0x03\n  sstore\n    /* \"contracts/SimpleStorage.sol\":1819:1822  256 */\n  0x0100\n    /* \"contracts/SimpleStorage.sol\":1802:1822  uint256 number = 256 */\n  0x04\n  sstore\n    /* \"contracts/SimpleStorage.sol\":61:1964  contract SimpleStorage {... */\n  callvalue\n  dup1\n  iszero\n  tag_1\n  jumpi\n  revert(0x00, 0x00)\ntag_1:\n  pop\n  dataSize(sub_0)\n  dup1\n  dataOffset(sub_0)\n  0x00\n  codecopy\n  0x00\n  return\nstop\n\nsub_0: assembly {\n        /* \"contracts/SimpleStorage.sol\":61:1964  contract SimpleStorage {... */\n      mstore(0x40, 0x80)\n      callvalue\n      dup1\n      iszero\n      tag_1\n      jumpi\n      revert(0x00, 0x00)\n    tag_1:\n      pop\n      jumpi(tag_2, lt(calldatasize, 0x04))\n      shr(0xe0, calldataload(0x00))\n      dup1\n      0x4ccc0c64\n      gt\n      tag_12\n      jumpi\n      dup1\n      0x4ccc0c64\n      eq\n      tag_7\n      jumpi\n      dup1\n      0x906f46aa\n      eq\n      tag_8\n      jumpi\n      dup1\n      0x99745318\n      eq\n      tag_9\n      jumpi\n      dup1\n      0xf35d03b2\n      eq\n      tag_10\n      jumpi\n      dup1\n      0xfa52c7d8\n      eq\n      tag_11\n      jumpi\n      jump(tag_2)\n    tag_12:\n      dup1\n      0x03f1d194\n      eq\n      tag_3\n      jumpi\n      dup1\n      0x07391dd6\n      eq\n      tag_4\n      jumpi\n      dup1\n      0x1c5220c2\n      eq\n      tag_5\n      jumpi\n      dup1\n      0x365b98b2\n      eq\n      tag_6\n      jumpi\n    tag_2:\n      revert(0x00, 0x00)\n        /* \"contracts/SimpleStorage.sol\":564:776  function printValidator(address _walletAddress) public view returns(string memory, uint256) {... */\n    tag_3:\n      tag_13\n      0x04\n      dup1\n      calldatasize\n      sub\n      dup2\n      add\n      swap1\n      tag_14\n      swap2\n      swap1\n      tag_15\n      jump\t// in\n    tag_14:\n      tag_16\n      jump\t// in\n    tag_13:\n      mload(0x40)\n      tag_17\n      swap3\n      swap2\n      swap1\n      tag_18\n      jump\t// in\n    tag_17:\n      mload(0x40)\n      dup1\n      swap2\n      sub\n      swap1\n      return\n        /* \"contracts/SimpleStorage.sol\":1829:1959  function changeNumber(uint256 _number) public virtual returns(uint256) {... */\n    tag_4:\n      tag_19\n      0x04\n      dup1\n      calldatasize\n      sub\n      dup2\n      add\n      swap1\n      tag_20\n      swap2\n      swap1\n      tag_21\n      jump\t// in\n    tag_20:\n      tag_22\n      jump\t// in\n    tag_19:\n      mload(0x40)\n      tag_23\n      swap2\n      swap1\n      tag_24\n      jump\t// in\n    tag_23:\n      mload(0x40)\n      dup1\n      swap2\n      sub\n      swap1\n      return\n        /* \"contracts/SimpleStorage.sol\":1023:1132  function addUser(string memory _name, uint256 _age) public {... */\n    tag_5:\n      tag_25\n      0x04\n      dup1\n      calldatasize\n      sub\n      dup2\n      add\n      swap1\n      tag_26\n      swap2\n      swap1\n      tag_27\n      jump\t// in\n    tag_26:\n      tag_28\n      jump\t// in\n    tag_25:\n      stop\n        /* \"contracts/SimpleStorage.sol\":165:186  People[] public users */\n    tag_6:\n      tag_29\n      0x04\n      dup1\n      calldatasize\n      sub\n      dup2\n      add\n      swap1\n      tag_30\n      swap2\n      swap1\n      tag_21\n      jump\t// in\n    tag_30:\n      tag_31\n      jump\t// in\n    tag_29:\n      mload(0x40)\n      tag_32\n      swap3\n      swap2\n      swap1\n      tag_18\n      jump\t// in\n    tag_32:\n      mload(0x40)\n      dup1\n      swap2\n      sub\n      swap1\n      return\n        /* \"contracts/SimpleStorage.sol\":784:1015  function logValidators() public {... */\n    tag_7:\n      tag_33\n      tag_34\n      jump\t// in\n    tag_33:\n      stop\n        /* \"contracts/SimpleStorage.sol\":291:497  function addValidators(address _walletAddress, string memory _name, uint256 _age) public {... */\n    tag_8:\n      tag_35\n      0x04\n      dup1\n      calldatasize\n      sub\n      dup2\n      add\n      swap1\n      tag_36\n      swap2\n      swap1\n      tag_37\n      jump\t// in\n    tag_36:\n      tag_38\n      jump\t// in\n    tag_35:\n      stop\n        /* \"contracts/SimpleStorage.sol\":246:281  address[] public validatorAddresses */\n    tag_9:\n      tag_39\n      0x04\n      dup1\n      calldatasize\n      sub\n      dup2\n      add\n      swap1\n      tag_40\n      swap2\n      swap1\n      tag_21\n      jump\t// in\n    tag_40:\n      tag_41\n      jump\t// in\n    tag_39:\n      mload(0x40)\n      tag_42\n      swap2\n      swap1\n      tag_43\n      jump\t// in\n    tag_42:\n      mload(0x40)\n      dup1\n      swap2\n      sub\n      swap1\n      return\n        /* \"contracts/SimpleStorage.sol\":1232:1393  function logUsers() public {... */\n    tag_10:\n      tag_44\n      tag_45\n      jump\t// in\n    tag_44:\n      stop\n        /* \"contracts/SimpleStorage.sol\":195:239  mapping(address => People) public validators */\n    tag_11:\n      tag_46\n      0x04\n      dup1\n      calldatasize\n      sub\n      dup2\n      add\n      swap1\n      tag_47\n      swap2\n      swap1\n      tag_15\n      jump\t// in\n    tag_47:\n      tag_48\n      jump\t// in\n    tag_46:\n      mload(0x40)\n      tag_49\n      swap3\n      swap2\n      swap1\n      tag_18\n      jump\t// in\n    tag_49:\n      mload(0x40)\n      dup1\n      swap2\n      sub\n      swap1\n      return\n        /* \"contracts/SimpleStorage.sol\":564:776  function printValidator(address _walletAddress) public view returns(string memory, uint256) {... */\n    tag_16:\n        /* \"contracts/SimpleStorage.sol\":632:645  string memory */\n      0x60\n        /* \"contracts/SimpleStorage.sol\":647:654  uint256 */\n      0x00\n        /* \"contracts/SimpleStorage.sol\":667:690  People memory validator */\n      0x00\n        /* \"contracts/SimpleStorage.sol\":693:703  validators */\n      0x01\n        /* \"contracts/SimpleStorage.sol\":693:719  validators[_walletAddress] */\n      0x00\n        /* \"contracts/SimpleStorage.sol\":704:718  _walletAddress */\n      dup6\n        /* \"contracts/SimpleStorage.sol\":693:719  validators[_walletAddress] */\n      0xffffffffffffffffffffffffffffffffffffffff\n      and\n      0xffffffffffffffffffffffffffffffffffffffff\n      and\n      dup2\n      mstore\n      0x20\n      add\n      swap1\n      dup2\n      mstore\n      0x20\n      add\n      0x00\n      keccak256\n        /* \"contracts/SimpleStorage.sol\":667:719  People memory validator = validators[_walletAddress] */\n      mload(0x40)\n      dup1\n      0x40\n      add\n      0x40\n      mstore\n      swap1\n      dup2\n      0x00\n      dup3\n      add\n      dup1\n      sload\n      tag_51\n      swap1\n      tag_52\n      jump\t// in\n    tag_51:\n      dup1\n      0x1f\n      add\n      0x20\n      dup1\n      swap2\n      div\n      mul\n      0x20\n      add\n      mload(0x40)\n      swap1\n      dup2\n      add\n      0x40\n      mstore\n      dup1\n      swap3\n      swap2\n      swap1\n      dup2\n      dup2\n      mstore\n      0x20\n      add\n      dup3\n      dup1\n      sload\n      tag_53\n      swap1\n      tag_52\n      jump\t// in\n    tag_53:\n      dup1\n      iszero\n      tag_54\n      jumpi\n      dup1\n      0x1f\n      lt\n      tag_55\n      jumpi\n      0x0100\n      dup1\n      dup4\n      sload\n      div\n      mul\n      dup4\n      mstore\n      swap2\n      0x20\n      add\n      swap2\n      jump(tag_54)\n    tag_55:\n      dup3\n      add\n      swap2\n      swap1\n      0x00\n      mstore\n      keccak256(0x00, 0x20)\n      swap1\n    tag_56:\n      dup2\n      sload\n      dup2\n      mstore\n      swap1\n      0x01\n      add\n      swap1\n      0x20\n      add\n      dup1\n      dup4\n      gt\n      tag_56\n      jumpi\n      dup3\n      swap1\n      sub\n      0x1f\n      and\n      dup3\n      add\n      swap2\n    tag_54:\n      pop\n      pop\n      pop\n      pop\n      pop\n      dup2\n      mstore\n      0x20\n      add\n      0x01\n      dup3\n      add\n      sload\n      dup2\n      mstore\n      pop\n      pop\n      swap1\n      pop\n        /* \"contracts/SimpleStorage.sol\":738:747  validator */\n      dup1\n        /* \"contracts/SimpleStorage.sol\":738:752  validator.name */\n      0x00\n      add\n      mload\n        /* \"contracts/SimpleStorage.sol\":754:763  validator */\n      dup2\n        /* \"contracts/SimpleStorage.sol\":754:767  validator.age */\n      0x20\n      add\n      mload\n        /* \"contracts/SimpleStorage.sol\":730:768  return (validator.name, validator.age) */\n      swap3\n      pop\n      swap3\n      pop\n      pop\n        /* \"contracts/SimpleStorage.sol\":564:776  function printValidator(address _walletAddress) public view returns(string memory, uint256) {... */\n      swap2\n      pop\n      swap2\n      jump\t// out\n        /* \"contracts/SimpleStorage.sol\":1829:1959  function changeNumber(uint256 _number) public virtual returns(uint256) {... */\n    tag_22:\n        /* \"contracts/SimpleStorage.sol\":1891:1898  uint256 */\n      0x00\n        /* \"contracts/SimpleStorage.sol\":1920:1927  _number */\n      dup2\n        /* \"contracts/SimpleStorage.sol\":1911:1917  number */\n      0x04\n        /* \"contracts/SimpleStorage.sol\":1911:1927  number = _number */\n      dup2\n      swap1\n      sstore\n      pop\n        /* \"contracts/SimpleStorage.sol\":1945:1951  number */\n      sload(0x04)\n        /* \"contracts/SimpleStorage.sol\":1938:1951  return number */\n      swap1\n      pop\n        /* \"contracts/SimpleStorage.sol\":1829:1959  function changeNumber(uint256 _number) public virtual returns(uint256) {... */\n      swap2\n      swap1\n      pop\n      jump\t// out\n        /* \"contracts/SimpleStorage.sol\":1023:1132  function addUser(string memory _name, uint256 _age) public {... */\n    tag_28:\n        /* \"contracts/SimpleStorage.sol\":1093:1098  users */\n      0x00\n        /* \"contracts/SimpleStorage.sol\":1104:1123  People(_name, _age) */\n      mload(0x40)\n      dup1\n      0x40\n      add\n      0x40\n      mstore\n      dup1\n        /* \"contracts/SimpleStorage.sol\":1111:1116  _name */\n      dup5\n        /* \"contracts/SimpleStorage.sol\":1104:1123  People(_name, _age) */\n      dup2\n      mstore\n      0x20\n      add\n        /* \"contracts/SimpleStorage.sol\":1118:1122  _age */\n      dup4\n        /* \"contracts/SimpleStorage.sol\":1104:1123  People(_name, _age) */\n      dup2\n      mstore\n      pop\n        /* \"contracts/SimpleStorage.sol\":1093:1124  users.push(People(_name, _age)) */\n      swap1\n      dup1\n      0x01\n      dup2\n      sload\n      add\n      dup1\n      dup3\n      sstore\n      dup1\n      swap2\n      pop\n      pop\n      0x01\n      swap1\n      sub\n      swap1\n      0x00\n      mstore\n      keccak256(0x00, 0x20)\n      swap1\n      0x02\n      mul\n      add\n      0x00\n      swap1\n      swap2\n      swap1\n      swap2\n      swap1\n      swap2\n      pop\n      0x00\n      dup3\n      add\n      mload\n      dup2\n      0x00\n      add\n      swap1\n      dup2\n      tag_60\n      swap2\n      swap1\n      tag_61\n      jump\t// in\n    tag_60:\n      pop\n      0x20\n      dup3\n      add\n      mload\n      dup2\n      0x01\n      add\n      sstore\n      pop\n      pop\n        /* \"contracts/SimpleStorage.sol\":1023:1132  function addUser(string memory _name, uint256 _age) public {... */\n      pop\n      pop\n      jump\t// out\n        /* \"contracts/SimpleStorage.sol\":165:186  People[] public users */\n    tag_31:\n      0x00\n      dup2\n      dup2\n      sload\n      dup2\n      lt\n      tag_62\n      jumpi\n      0x00\n      dup1\n      revert\n    tag_62:\n      swap1\n      0x00\n      mstore\n      keccak256(0x00, 0x20)\n      swap1\n      0x02\n      mul\n      add\n      0x00\n      swap2\n      pop\n      swap1\n      pop\n      dup1\n      0x00\n      add\n      dup1\n      sload\n      tag_64\n      swap1\n      tag_52\n      jump\t// in\n    tag_64:\n      dup1\n      0x1f\n      add\n      0x20\n      dup1\n      swap2\n      div\n      mul\n      0x20\n      add\n      mload(0x40)\n      swap1\n      dup2\n      add\n      0x40\n      mstore\n      dup1\n      swap3\n      swap2\n      swap1\n      dup2\n      dup2\n      mstore\n      0x20\n      add\n      dup3\n      dup1\n      sload\n      tag_65\n      swap1\n      tag_52\n      jump\t// in\n    tag_65:\n      dup1\n      iszero\n      tag_66\n      jumpi\n      dup1\n      0x1f\n      lt\n      tag_67\n      jumpi\n      0x0100\n      dup1\n      dup4\n      sload\n      div\n      mul\n      dup4\n      mstore\n      swap2\n      0x20\n      add\n      swap2\n      jump(tag_66)\n    tag_67:\n      dup3\n      add\n      swap2\n      swap1\n      0x00\n      mstore\n      keccak256(0x00, 0x20)\n      swap1\n    tag_68:\n      dup2\n      sload\n      dup2\n      mstore\n      swap1\n      0x01\n      add\n      swap1\n      0x20\n      add\n      dup1\n      dup4\n      gt\n      tag_68\n      jumpi\n      dup3\n      swap1\n      sub\n      0x1f\n      and\n      dup3\n      add\n      swap2\n    tag_66:\n      pop\n      pop\n      pop\n      pop\n      pop\n      swap1\n      dup1\n      0x01\n      add\n      sload\n      swap1\n      pop\n      dup3\n      jump\t// out\n        /* \"contracts/SimpleStorage.sol\":784:1015  function logValidators() public {... */\n    tag_34:\n        /* \"contracts/SimpleStorage.sol\":831:840  uint256 i */\n      0x00\n        /* \"contracts/SimpleStorage.sol\":843:844  0 */\n      0x00\n        /* \"contracts/SimpleStorage.sol\":831:844  uint256 i = 0 */\n      swap1\n      pop\n        /* \"contracts/SimpleStorage.sol\":827:1008  for(uint256 i = 0; i<validatorAddresses.length; i++){... */\n    tag_70:\n        /* \"contracts/SimpleStorage.sol\":848:866  validatorAddresses */\n      0x02\n        /* \"contracts/SimpleStorage.sol\":848:873  validatorAddresses.length */\n      dup1\n      sload\n      swap1\n      pop\n        /* \"contracts/SimpleStorage.sol\":846:847  i */\n      dup2\n        /* \"contracts/SimpleStorage.sol\":846:873  i<validatorAddresses.length */\n      lt\n        /* \"contracts/SimpleStorage.sol\":827:1008  for(uint256 i = 0; i<validatorAddresses.length; i++){... */\n      iszero\n      tag_71\n      jumpi\n        /* \"contracts/SimpleStorage.sol\":899:996  logValidatorsEvent(validators[validatorAddresses[i]].name, validators[validatorAddresses[i]].age) */\n      0x8fd40d2776b50a211118b480c9bf278a55c60d9ea54dc8666a9fb323744c1121\n        /* \"contracts/SimpleStorage.sol\":918:928  validators */\n      0x01\n        /* \"contracts/SimpleStorage.sol\":918:951  validators[validatorAddresses[i]] */\n      0x00\n        /* \"contracts/SimpleStorage.sol\":929:947  validatorAddresses */\n      0x02\n        /* \"contracts/SimpleStorage.sol\":948:949  i */\n      dup5\n        /* \"contracts/SimpleStorage.sol\":929:950  validatorAddresses[i] */\n      dup2\n      sload\n      dup2\n      lt\n      tag_73\n      jumpi\n      tag_74\n      tag_75\n      jump\t// in\n    tag_74:\n    tag_73:\n      swap1\n      0x00\n      mstore\n      keccak256(0x00, 0x20)\n      add\n      0x00\n      swap1\n      sload\n      swap1\n      0x0100\n      exp\n      swap1\n      div\n      0xffffffffffffffffffffffffffffffffffffffff\n      and\n        /* \"contracts/SimpleStorage.sol\":918:951  validators[validatorAddresses[i]] */\n      0xffffffffffffffffffffffffffffffffffffffff\n      and\n      0xffffffffffffffffffffffffffffffffffffffff\n      and\n      dup2\n      mstore\n      0x20\n      add\n      swap1\n      dup2\n      mstore\n      0x20\n      add\n      0x00\n      keccak256\n        /* \"contracts/SimpleStorage.sol\":918:956  validators[validatorAddresses[i]].name */\n      0x00\n      add\n        /* \"contracts/SimpleStorage.sol\":958:968  validators */\n      0x01\n        /* \"contracts/SimpleStorage.sol\":958:991  validators[validatorAddresses[i]] */\n      0x00\n        /* \"contracts/SimpleStorage.sol\":969:987  validatorAddresses */\n      0x02\n        /* \"contracts/SimpleStorage.sol\":988:989  i */\n      dup6\n        /* \"contracts/SimpleStorage.sol\":969:990  validatorAddresses[i] */\n      dup2\n      sload\n      dup2\n      lt\n      tag_77\n      jumpi\n      tag_78\n      tag_75\n      jump\t// in\n    tag_78:\n    tag_77:\n      swap1\n      0x00\n      mstore\n      keccak256(0x00, 0x20)\n      add\n      0x00\n      swap1\n      sload\n      swap1\n      0x0100\n      exp\n      swap1\n      div\n      0xffffffffffffffffffffffffffffffffffffffff\n      and\n        /* \"contracts/SimpleStorage.sol\":958:991  validators[validatorAddresses[i]] */\n      0xffffffffffffffffffffffffffffffffffffffff\n      and\n      0xffffffffffffffffffffffffffffffffffffffff\n      and\n      dup2\n      mstore\n      0x20\n      add\n      swap1\n      dup2\n      mstore\n      0x20\n      add\n      0x00\n      keccak256\n        /* \"contracts/SimpleStorage.sol\":958:995  validators[validatorAddresses[i]].age */\n      0x01\n      add\n      sload\n        /* \"contracts/SimpleStorage.sol\":899:996  logValidatorsEvent(validators[validatorAddresses[i]].name, validators[validatorAddresses[i]].age) */\n      mload(0x40)\n      tag_80\n      swap3\n      swap2\n      swap1\n      tag_81\n      jump\t// in\n    tag_80:\n      mload(0x40)\n      dup1\n      swap2\n      sub\n      swap1\n      log1\n        /* \"contracts/SimpleStorage.sol\":875:878  i++ */\n      dup1\n      dup1\n      0x01\n      add\n      swap2\n      pop\n      pop\n        /* \"contracts/SimpleStorage.sol\":827:1008  for(uint256 i = 0; i<validatorAddresses.length; i++){... */\n      jump(tag_70)\n    tag_71:\n      pop\n        /* \"contracts/SimpleStorage.sol\":784:1015  function logValidators() public {... */\n      jump\t// out\n        /* \"contracts/SimpleStorage.sol\":291:497  function addValidators(address _walletAddress, string memory _name, uint256 _age) public {... */\n    tag_38:\n        /* \"contracts/SimpleStorage.sol\":420:439  People(_name, _age) */\n      mload(0x40)\n      dup1\n      0x40\n      add\n      0x40\n      mstore\n      dup1\n        /* \"contracts/SimpleStorage.sol\":427:432  _name */\n      dup4\n        /* \"contracts/SimpleStorage.sol\":420:439  People(_name, _age) */\n      dup2\n      mstore\n      0x20\n      add\n        /* \"contracts/SimpleStorage.sol\":434:438  _age */\n      dup3\n        /* \"contracts/SimpleStorage.sol\":420:439  People(_name, _age) */\n      dup2\n      mstore\n      pop\n        /* \"contracts/SimpleStorage.sol\":391:401  validators */\n      0x01\n        /* \"contracts/SimpleStorage.sol\":391:417  validators[_walletAddress] */\n      0x00\n        /* \"contracts/SimpleStorage.sol\":402:416  _walletAddress */\n      dup6\n        /* \"contracts/SimpleStorage.sol\":391:417  validators[_walletAddress] */\n      0xffffffffffffffffffffffffffffffffffffffff\n      and\n      0xffffffffffffffffffffffffffffffffffffffff\n      and\n      dup2\n      mstore\n      0x20\n      add\n      swap1\n      dup2\n      mstore\n      0x20\n      add\n      0x00\n      keccak256\n        /* \"contracts/SimpleStorage.sol\":391:439  validators[_walletAddress] = People(_name, _age) */\n      0x00\n      dup3\n      add\n      mload\n      dup2\n      0x00\n      add\n      swap1\n      dup2\n      tag_83\n      swap2\n      swap1\n      tag_61\n      jump\t// in\n    tag_83:\n      pop\n      0x20\n      dup3\n      add\n      mload\n      dup2\n      0x01\n      add\n      sstore\n      swap1\n      pop\n      pop\n        /* \"contracts/SimpleStorage.sol\":450:468  validatorAddresses */\n      0x02\n        /* \"contracts/SimpleStorage.sol\":474:488  _walletAddress */\n      dup4\n        /* \"contracts/SimpleStorage.sol\":450:489  validatorAddresses.push(_walletAddress) */\n      swap1\n      dup1\n      0x01\n      dup2\n      sload\n      add\n      dup1\n      dup3\n      sstore\n      dup1\n      swap2\n      pop\n      pop\n      0x01\n      swap1\n      sub\n      swap1\n      0x00\n      mstore\n      keccak256(0x00, 0x20)\n      add\n      0x00\n      swap1\n      swap2\n      swap1\n      swap2\n      swap1\n      swap2\n      0x0100\n      exp\n      dup2\n      sload\n      dup2\n      0xffffffffffffffffffffffffffffffffffffffff\n      mul\n      not\n      and\n      swap1\n      dup4\n      0xffffffffffffffffffffffffffffffffffffffff\n      and\n      mul\n      or\n      swap1\n      sstore\n      pop\n        /* \"contracts/SimpleStorage.sol\":291:497  function addValidators(address _walletAddress, string memory _name, uint256 _age) public {... */\n      pop\n      pop\n      pop\n      jump\t// out\n        /* \"contracts/SimpleStorage.sol\":246:281  address[] public validatorAddresses */\n    tag_41:\n      0x02\n      dup2\n      dup2\n      sload\n      dup2\n      lt\n      tag_85\n      jumpi\n      0x00\n      dup1\n      revert\n    tag_85:\n      swap1\n      0x00\n      mstore\n      keccak256(0x00, 0x20)\n      add\n      0x00\n      swap2\n      pop\n      sload\n      swap1\n      0x0100\n      exp\n      swap1\n      div\n      0xffffffffffffffffffffffffffffffffffffffff\n      and\n      dup2\n      jump\t// out\n        /* \"contracts/SimpleStorage.sol\":1232:1393  function logUsers() public {... */\n    tag_45:\n        /* \"contracts/SimpleStorage.sol\":1274:1283  uint256 i */\n      0x00\n        /* \"contracts/SimpleStorage.sol\":1286:1287  0 */\n      0x00\n        /* \"contracts/SimpleStorage.sol\":1274:1287  uint256 i = 0 */\n      swap1\n      pop\n        /* \"contracts/SimpleStorage.sol\":1270:1386  for(uint256 i = 0; i<users.length; i++) {... */\n    tag_88:\n        /* \"contracts/SimpleStorage.sol\":1291:1296  users */\n      0x00\n        /* \"contracts/SimpleStorage.sol\":1291:1303  users.length */\n      dup1\n      sload\n      swap1\n      pop\n        /* \"contracts/SimpleStorage.sol\":1289:1290  i */\n      dup2\n        /* \"contracts/SimpleStorage.sol\":1289:1303  i<users.length */\n      lt\n        /* \"contracts/SimpleStorage.sol\":1270:1386  for(uint256 i = 0; i<users.length; i++) {... */\n      iszero\n      tag_89\n      jumpi\n        /* \"contracts/SimpleStorage.sol\":1330:1374  printUsersEvent(users[i].name, users[i].age) */\n      0xc0a21ab21926025efd867c8ee07294fe346113056d91864434bfcb66bd4b4d08\n        /* \"contracts/SimpleStorage.sol\":1346:1351  users */\n      0x00\n        /* \"contracts/SimpleStorage.sol\":1352:1353  i */\n      dup3\n        /* \"contracts/SimpleStorage.sol\":1346:1354  users[i] */\n      dup2\n      sload\n      dup2\n      lt\n      tag_91\n      jumpi\n      tag_92\n      tag_75\n      jump\t// in\n    tag_92:\n    tag_91:\n      swap1\n      0x00\n      mstore\n      keccak256(0x00, 0x20)\n      swap1\n      0x02\n      mul\n      add\n        /* \"contracts/SimpleStorage.sol\":1346:1359  users[i].name */\n      0x00\n      add\n        /* \"contracts/SimpleStorage.sol\":1361:1366  users */\n      0x00\n        /* \"contracts/SimpleStorage.sol\":1367:1368  i */\n      dup4\n        /* \"contracts/SimpleStorage.sol\":1361:1369  users[i] */\n      dup2\n      sload\n      dup2\n      lt\n      tag_94\n      jumpi\n      tag_95\n      tag_75\n      jump\t// in\n    tag_95:\n    tag_94:\n      swap1\n      0x00\n      mstore\n      keccak256(0x00, 0x20)\n      swap1\n      0x02\n      mul\n      add\n        /* \"contracts/SimpleStorage.sol\":1361:1373  users[i].age */\n      0x01\n      add\n      sload\n        /* \"contracts/SimpleStorage.sol\":1330:1374  printUsersEvent(users[i].name, users[i].age) */\n      mload(0x40)\n      tag_97\n      swap3\n      swap2\n      swap1\n      tag_81\n      jump\t// in\n    tag_97:\n      mload(0x40)\n      dup1\n      swap2\n      sub\n      swap1\n      log1\n        /* \"contracts/SimpleStorage.sol\":1305:1308  i++ */\n      dup1\n      dup1\n      0x01\n      add\n      swap2\n      pop\n      pop\n        /* \"contracts/SimpleStorage.sol\":1270:1386  for(uint256 i = 0; i<users.length; i++) {... */\n      jump(tag_88)\n    tag_89:\n      pop\n        /* \"contracts/SimpleStorage.sol\":1232:1393  function logUsers() public {... */\n      jump\t// out\n        /* \"contracts/SimpleStorage.sol\":195:239  mapping(address => People) public validators */\n    tag_48:\n      mstore(0x20, 0x01)\n      dup1\n      0x00\n      mstore\n      keccak256(0x00, 0x40)\n      0x00\n      swap2\n      pop\n      swap1\n      pop\n      dup1\n      0x00\n      add\n      dup1\n      sload\n      tag_98\n      swap1\n      tag_52\n      jump\t// in\n    tag_98:\n      dup1\n      0x1f\n      add\n      0x20\n      dup1\n      swap2\n      div\n      mul\n      0x20\n      add\n      mload(0x40)\n      swap1\n      dup2\n      add\n      0x40\n      mstore\n      dup1\n      swap3\n      swap2\n      swap1\n      dup2\n      dup2\n      mstore\n      0x20\n      add\n      dup3\n      dup1\n      sload\n      tag_99\n      swap1\n      tag_52\n      jump\t// in\n    tag_99:\n      dup1\n      iszero\n      tag_100\n      jumpi\n      dup1\n      0x1f\n      lt\n      tag_101\n      jumpi\n      0x0100\n      dup1\n      dup4\n      sload\n      div\n      mul\n      dup4\n      mstore\n      swap2\n      0x20\n      add\n      swap2\n      jump(tag_100)\n    tag_101:\n      dup3\n      add\n      swap2\n      swap1\n      0x00\n      mstore\n      keccak256(0x00, 0x20)\n      swap1\n    tag_102:\n      dup2\n      sload\n      dup2\n      mstore\n      swap1\n      0x01\n      add\n      swap1\n      0x20\n      add\n      dup1\n      dup4\n      gt\n      tag_102\n      jumpi\n      dup3\n      swap1\n      sub\n      0x1f\n      and\n      dup3\n      add\n      swap2\n    tag_100:\n      pop\n      pop\n      pop\n      pop\n      pop\n      swap1\n      dup1\n      0x01\n      add\n      sload\n      swap1\n      pop\n      dup3\n      jump\t// out\n        /* \"#utility.yul\":7:82   */\n    tag_103:\n        /* \"#utility.yul\":40:46   */\n      0x00\n        /* \"#utility.yul\":73:75   */\n      0x40\n        /* \"#utility.yul\":67:76   */\n      mload\n        /* \"#utility.yul\":57:76   */\n      swap1\n      pop\n        /* \"#utility.yul\":7:82   */\n      swap1\n      jump\t// out\n        /* \"#utility.yul\":88:205   */\n    tag_104:\n        /* \"#utility.yul\":197:198   */\n      0x00\n        /* \"#utility.yul\":194:195   */\n      0x00\n        /* \"#utility.yul\":187:199   */\n      revert\n        /* \"#utility.yul\":211:328   */\n    tag_105:\n        /* \"#utility.yul\":320:321   */\n      0x00\n        /* \"#utility.yul\":317:318   */\n      0x00\n        /* \"#utility.yul\":310:322   */\n      revert\n        /* \"#utility.yul\":334:460   */\n    tag_106:\n        /* \"#utility.yul\":371:378   */\n      0x00\n        /* \"#utility.yul\":411:453   */\n      0xffffffffffffffffffffffffffffffffffffffff\n        /* \"#utility.yul\":404:409   */\n      dup3\n        /* \"#utility.yul\":400:454   */\n      and\n        /* \"#utility.yul\":389:454   */\n      swap1\n      pop\n        /* \"#utility.yul\":334:460   */\n      swap2\n      swap1\n      pop\n      jump\t// out\n        /* \"#utility.yul\":466:562   */\n    tag_107:\n        /* \"#utility.yul\":503:510   */\n      0x00\n        /* \"#utility.yul\":532:556   */\n      tag_152\n        /* \"#utility.yul\":550:555   */\n      dup3\n        /* \"#utility.yul\":532:556   */\n      tag_106\n      jump\t// in\n    tag_152:\n        /* \"#utility.yul\":521:556   */\n      swap1\n      pop\n        /* \"#utility.yul\":466:562   */\n      swap2\n      swap1\n      pop\n      jump\t// out\n        /* \"#utility.yul\":568:690   */\n    tag_108:\n        /* \"#utility.yul\":641:665   */\n      tag_154\n        /* \"#utility.yul\":659:664   */\n      dup2\n        /* \"#utility.yul\":641:665   */\n      tag_107\n      jump\t// in\n    tag_154:\n        /* \"#utility.yul\":634:639   */\n      dup2\n        /* \"#utility.yul\":631:666   */\n      eq\n        /* \"#utility.yul\":621:684   */\n      tag_155\n      jumpi\n        /* \"#utility.yul\":680:681   */\n      0x00\n        /* \"#utility.yul\":677:678   */\n      0x00\n        /* \"#utility.yul\":670:682   */\n      revert\n        /* \"#utility.yul\":621:684   */\n    tag_155:\n        /* \"#utility.yul\":568:690   */\n      pop\n      jump\t// out\n        /* \"#utility.yul\":696:835   */\n    tag_109:\n        /* \"#utility.yul\":742:747   */\n      0x00\n        /* \"#utility.yul\":780:786   */\n      dup2\n        /* \"#utility.yul\":767:787   */\n      calldataload\n        /* \"#utility.yul\":758:787   */\n      swap1\n      pop\n        /* \"#utility.yul\":796:829   */\n      tag_157\n        /* \"#utility.yul\":823:828   */\n      dup2\n        /* \"#utility.yul\":796:829   */\n      tag_108\n      jump\t// in\n    tag_157:\n        /* \"#utility.yul\":696:835   */\n      swap3\n      swap2\n      pop\n      pop\n      jump\t// out\n        /* \"#utility.yul\":841:1170   */\n    tag_15:\n        /* \"#utility.yul\":900:906   */\n      0x00\n        /* \"#utility.yul\":949:951   */\n      0x20\n        /* \"#utility.yul\":937:946   */\n      dup3\n        /* \"#utility.yul\":928:935   */\n      dup5\n        /* \"#utility.yul\":924:947   */\n      sub\n        /* \"#utility.yul\":920:952   */\n      slt\n        /* \"#utility.yul\":917:1036   */\n      iszero\n      tag_159\n      jumpi\n        /* \"#utility.yul\":955:1034   */\n      tag_160\n      tag_104\n      jump\t// in\n    tag_160:\n        /* \"#utility.yul\":917:1036   */\n    tag_159:\n        /* \"#utility.yul\":1075:1076   */\n      0x00\n        /* \"#utility.yul\":1100:1153   */\n      tag_161\n        /* \"#utility.yul\":1145:1152   */\n      dup5\n        /* \"#utility.yul\":1136:1142   */\n      dup3\n        /* \"#utility.yul\":1125:1134   */\n      dup6\n        /* \"#utility.yul\":1121:1143   */\n      add\n        /* \"#utility.yul\":1100:1153   */\n      tag_109\n      jump\t// in\n    tag_161:\n        /* \"#utility.yul\":1090:1153   */\n      swap2\n      pop\n        /* \"#utility.yul\":1046:1163   */\n      pop\n        /* \"#utility.yul\":841:1170   */\n      swap3\n      swap2\n      pop\n      pop\n      jump\t// out\n        /* \"#utility.yul\":1176:1275   */\n    tag_110:\n        /* \"#utility.yul\":1228:1234   */\n      0x00\n        /* \"#utility.yul\":1262:1267   */\n      dup2\n        /* \"#utility.yul\":1256:1268   */\n      mload\n        /* \"#utility.yul\":1246:1268   */\n      swap1\n      pop\n        /* \"#utility.yul\":1176:1275   */\n      swap2\n      swap1\n      pop\n      jump\t// out\n        /* \"#utility.yul\":1281:1450   */\n    tag_111:\n        /* \"#utility.yul\":1365:1376   */\n      0x00\n        /* \"#utility.yul\":1399:1405   */\n      dup3\n        /* \"#utility.yul\":1394:1397   */\n      dup3\n        /* \"#utility.yul\":1387:1406   */\n      mstore\n        /* \"#utility.yul\":1439:1443   */\n      0x20\n        /* \"#utility.yul\":1434:1437   */\n      dup3\n        /* \"#utility.yul\":1430:1444   */\n      add\n        /* \"#utility.yul\":1415:1444   */\n      swap1\n      pop\n        /* \"#utility.yul\":1281:1450   */\n      swap3\n      swap2\n      pop\n      pop\n      jump\t// out\n        /* \"#utility.yul\":1456:1595   */\n    tag_112:\n        /* \"#utility.yul\":1545:1551   */\n      dup3\n        /* \"#utility.yul\":1540:1543   */\n      dup2\n        /* \"#utility.yul\":1535:1538   */\n      dup4\n        /* \"#utility.yul\":1529:1552   */\n      mcopy\n        /* \"#utility.yul\":1586:1587   */\n      0x00\n        /* \"#utility.yul\":1577:1583   */\n      dup4\n        /* \"#utility.yul\":1572:1575   */\n      dup4\n        /* \"#utility.yul\":1568:1584   */\n      add\n        /* \"#utility.yul\":1561:1588   */\n      mstore\n        /* \"#utility.yul\":1456:1595   */\n      pop\n      pop\n      pop\n      jump\t// out\n        /* \"#utility.yul\":1601:1703   */\n    tag_113:\n        /* \"#utility.yul\":1642:1648   */\n      0x00\n        /* \"#utility.yul\":1693:1695   */\n      0x1f\n        /* \"#utility.yul\":1689:1696   */\n      not\n        /* \"#utility.yul\":1684:1686   */\n      0x1f\n        /* \"#utility.yul\":1677:1682   */\n      dup4\n        /* \"#utility.yul\":1673:1687   */\n      add\n        /* \"#utility.yul\":1669:1697   */\n      and\n        /* \"#utility.yul\":1659:1697   */\n      swap1\n      pop\n        /* \"#utility.yul\":1601:1703   */\n      swap2\n      swap1\n      pop\n      jump\t// out\n        /* \"#utility.yul\":1709:2086   */\n    tag_114:\n        /* \"#utility.yul\":1797:1800   */\n      0x00\n        /* \"#utility.yul\":1825:1864   */\n      tag_167\n        /* \"#utility.yul\":1858:1863   */\n      dup3\n        /* \"#utility.yul\":1825:1864   */\n      tag_110\n      jump\t// in\n    tag_167:\n        /* \"#utility.yul\":1880:1951   */\n      tag_168\n        /* \"#utility.yul\":1944:1950   */\n      dup2\n        /* \"#utility.yul\":1939:1942   */\n      dup6\n        /* \"#utility.yul\":1880:1951   */\n      tag_111\n      jump\t// in\n    tag_168:\n        /* \"#utility.yul\":1873:1951   */\n      swap4\n      pop\n        /* \"#utility.yul\":1960:2025   */\n      tag_169\n        /* \"#utility.yul\":2018:2024   */\n      dup2\n        /* \"#utility.yul\":2013:2016   */\n      dup6\n        /* \"#utility.yul\":2006:2010   */\n      0x20\n        /* \"#utility.yul\":1999:2004   */\n      dup7\n        /* \"#utility.yul\":1995:2011   */\n      add\n        /* \"#utility.yul\":1960:2025   */\n      tag_112\n      jump\t// in\n    tag_169:\n        /* \"#utility.yul\":2050:2079   */\n      tag_170\n        /* \"#utility.yul\":2072:2078   */\n      dup2\n        /* \"#utility.yul\":2050:2079   */\n      tag_113\n      jump\t// in\n    tag_170:\n        /* \"#utility.yul\":2045:2048   */\n      dup5\n        /* \"#utility.yul\":2041:2080   */\n      add\n        /* \"#utility.yul\":2034:2080   */\n      swap2\n      pop\n        /* \"#utility.yul\":1801:2086   */\n      pop\n        /* \"#utility.yul\":1709:2086   */\n      swap3\n      swap2\n      pop\n      pop\n      jump\t// out\n        /* \"#utility.yul\":2092:2169   */\n    tag_115:\n        /* \"#utility.yul\":2129:2136   */\n      0x00\n        /* \"#utility.yul\":2158:2163   */\n      dup2\n        /* \"#utility.yul\":2147:2163   */\n      swap1\n      pop\n        /* \"#utility.yul\":2092:2169   */\n      swap2\n      swap1\n      pop\n      jump\t// out\n        /* \"#utility.yul\":2175:2293   */\n    tag_116:\n        /* \"#utility.yul\":2262:2286   */\n      tag_173\n        /* \"#utility.yul\":2280:2285   */\n      dup2\n        /* \"#utility.yul\":2262:2286   */\n      tag_115\n      jump\t// in\n    tag_173:\n        /* \"#utility.yul\":2257:2260   */\n      dup3\n        /* \"#utility.yul\":2250:2287   */\n      mstore\n        /* \"#utility.yul\":2175:2293   */\n      pop\n      pop\n      jump\t// out\n        /* \"#utility.yul\":2299:2722   */\n    tag_18:\n        /* \"#utility.yul\":2440:2444   */\n      0x00\n        /* \"#utility.yul\":2478:2480   */\n      0x40\n        /* \"#utility.yul\":2467:2476   */\n      dup3\n        /* \"#utility.yul\":2463:2481   */\n      add\n        /* \"#utility.yul\":2455:2481   */\n      swap1\n      pop\n        /* \"#utility.yul\":2527:2536   */\n      dup2\n        /* \"#utility.yul\":2521:2525   */\n      dup2\n        /* \"#utility.yul\":2517:2537   */\n      sub\n        /* \"#utility.yul\":2513:2514   */\n      0x00\n        /* \"#utility.yul\":2502:2511   */\n      dup4\n        /* \"#utility.yul\":2498:2515   */\n      add\n        /* \"#utility.yul\":2491:2538   */\n      mstore\n        /* \"#utility.yul\":2555:2633   */\n      tag_175\n        /* \"#utility.yul\":2628:2632   */\n      dup2\n        /* \"#utility.yul\":2619:2625   */\n      dup6\n        /* \"#utility.yul\":2555:2633   */\n      tag_114\n      jump\t// in\n    tag_175:\n        /* \"#utility.yul\":2547:2633   */\n      swap1\n      pop\n        /* \"#utility.yul\":2643:2715   */\n      tag_176\n        /* \"#utility.yul\":2711:2713   */\n      0x20\n        /* \"#utility.yul\":2700:2709   */\n      dup4\n        /* \"#utility.yul\":2696:2714   */\n      add\n        /* \"#utility.yul\":2687:2693   */\n      dup5\n        /* \"#utility.yul\":2643:2715   */\n      tag_116\n      jump\t// in\n    tag_176:\n        /* \"#utility.yul\":2299:2722   */\n      swap4\n      swap3\n      pop\n      pop\n      pop\n      jump\t// out\n        /* \"#utility.yul\":2728:2850   */\n    tag_117:\n        /* \"#utility.yul\":2801:2825   */\n      tag_178\n        /* \"#utility.yul\":2819:2824   */\n      dup2\n        /* \"#utility.yul\":2801:2825   */\n      tag_115\n      jump\t// in\n    tag_178:\n        /* \"#utility.yul\":2794:2799   */\n      dup2\n        /* \"#utility.yul\":2791:2826   */\n      eq\n        /* \"#utility.yul\":2781:2844   */\n      tag_179\n      jumpi\n        /* \"#utility.yul\":2840:2841   */\n      0x00\n        /* \"#utility.yul\":2837:2838   */\n      0x00\n        /* \"#utility.yul\":2830:2842   */\n      revert\n        /* \"#utility.yul\":2781:2844   */\n    tag_179:\n        /* \"#utility.yul\":2728:2850   */\n      pop\n      jump\t// out\n        /* \"#utility.yul\":2856:2995   */\n    tag_118:\n        /* \"#utility.yul\":2902:2907   */\n      0x00\n        /* \"#utility.yul\":2940:2946   */\n      dup2\n        /* \"#utility.yul\":2927:2947   */\n      calldataload\n        /* \"#utility.yul\":2918:2947   */\n      swap1\n      pop\n        /* \"#utility.yul\":2956:2989   */\n      tag_181\n        /* \"#utility.yul\":2983:2988   */\n      dup2\n        /* \"#utility.yul\":2956:2989   */\n      tag_117\n      jump\t// in\n    tag_181:\n        /* \"#utility.yul\":2856:2995   */\n      swap3\n      swap2\n      pop\n      pop\n      jump\t// out\n        /* \"#utility.yul\":3001:3330   */\n    tag_21:\n        /* \"#utility.yul\":3060:3066   */\n      0x00\n        /* \"#utility.yul\":3109:3111   */\n      0x20\n        /* \"#utility.yul\":3097:3106   */\n      dup3\n        /* \"#utility.yul\":3088:3095   */\n      dup5\n        /* \"#utility.yul\":3084:3107   */\n      sub\n        /* \"#utility.yul\":3080:3112   */\n      slt\n        /* \"#utility.yul\":3077:3196   */\n      iszero\n      tag_183\n      jumpi\n        /* \"#utility.yul\":3115:3194   */\n      tag_184\n      tag_104\n      jump\t// in\n    tag_184:\n        /* \"#utility.yul\":3077:3196   */\n    tag_183:\n        /* \"#utility.yul\":3235:3236   */\n      0x00\n        /* \"#utility.yul\":3260:3313   */\n      tag_185\n        /* \"#utility.yul\":3305:3312   */\n      dup5\n        /* \"#utility.yul\":3296:3302   */\n      dup3\n        /* \"#utility.yul\":3285:3294   */\n      dup6\n        /* \"#utility.yul\":3281:3303   */\n      add\n        /* \"#utility.yul\":3260:3313   */\n      tag_118\n      jump\t// in\n    tag_185:\n        /* \"#utility.yul\":3250:3313   */\n      swap2\n      pop\n        /* \"#utility.yul\":3206:3323   */\n      pop\n        /* \"#utility.yul\":3001:3330   */\n      swap3\n      swap2\n      pop\n      pop\n      jump\t// out\n        /* \"#utility.yul\":3336:3558   */\n    tag_24:\n        /* \"#utility.yul\":3429:3433   */\n      0x00\n        /* \"#utility.yul\":3467:3469   */\n      0x20\n        /* \"#utility.yul\":3456:3465   */\n      dup3\n        /* \"#utility.yul\":3452:3470   */\n      add\n        /* \"#utility.yul\":3444:3470   */\n      swap1\n      pop\n        /* \"#utility.yul\":3480:3551   */\n      tag_187\n        /* \"#utility.yul\":3548:3549   */\n      0x00\n        /* \"#utility.yul\":3537:3546   */\n      dup4\n        /* \"#utility.yul\":3533:3550   */\n      add\n        /* \"#utility.yul\":3524:3530   */\n      dup5\n        /* \"#utility.yul\":3480:3551   */\n      tag_116\n      jump\t// in\n    tag_187:\n        /* \"#utility.yul\":3336:3558   */\n      swap3\n      swap2\n      pop\n      pop\n      jump\t// out\n        /* \"#utility.yul\":3564:3681   */\n    tag_119:\n        /* \"#utility.yul\":3673:3674   */\n      0x00\n        /* \"#utility.yul\":3670:3671   */\n      0x00\n        /* \"#utility.yul\":3663:3675   */\n      revert\n        /* \"#utility.yul\":3687:3804   */\n    tag_120:\n        /* \"#utility.yul\":3796:3797   */\n      0x00\n        /* \"#utility.yul\":3793:3794   */\n      0x00\n        /* \"#utility.yul\":3786:3798   */\n      revert\n        /* \"#utility.yul\":3810:3990   */\n    tag_121:\n        /* \"#utility.yul\":3858:3935   */\n      0x4e487b7100000000000000000000000000000000000000000000000000000000\n        /* \"#utility.yul\":3855:3856   */\n      0x00\n        /* \"#utility.yul\":3848:3936   */\n      mstore\n        /* \"#utility.yul\":3955:3959   */\n      0x41\n        /* \"#utility.yul\":3952:3953   */\n      0x04\n        /* \"#utility.yul\":3945:3960   */\n      mstore\n        /* \"#utility.yul\":3979:3983   */\n      0x24\n        /* \"#utility.yul\":3976:3977   */\n      0x00\n        /* \"#utility.yul\":3969:3984   */\n      revert\n        /* \"#utility.yul\":3996:4277   */\n    tag_122:\n        /* \"#utility.yul\":4079:4106   */\n      tag_192\n        /* \"#utility.yul\":4101:4105   */\n      dup3\n        /* \"#utility.yul\":4079:4106   */\n      tag_113\n      jump\t// in\n    tag_192:\n        /* \"#utility.yul\":4071:4077   */\n      dup2\n        /* \"#utility.yul\":4067:4107   */\n      add\n        /* \"#utility.yul\":4209:4215   */\n      dup2\n        /* \"#utility.yul\":4197:4207   */\n      dup2\n        /* \"#utility.yul\":4194:4216   */\n      lt\n        /* \"#utility.yul\":4173:4191   */\n      0xffffffffffffffff\n        /* \"#utility.yul\":4161:4171   */\n      dup3\n        /* \"#utility.yul\":4158:4192   */\n      gt\n        /* \"#utility.yul\":4155:4217   */\n      or\n        /* \"#utility.yul\":4152:4240   */\n      iszero\n      tag_193\n      jumpi\n        /* \"#utility.yul\":4220:4238   */\n      tag_194\n      tag_121\n      jump\t// in\n    tag_194:\n        /* \"#utility.yul\":4152:4240   */\n    tag_193:\n        /* \"#utility.yul\":4260:4270   */\n      dup1\n        /* \"#utility.yul\":4256:4258   */\n      0x40\n        /* \"#utility.yul\":4249:4271   */\n      mstore\n        /* \"#utility.yul\":4039:4277   */\n      pop\n        /* \"#utility.yul\":3996:4277   */\n      pop\n      pop\n      jump\t// out\n        /* \"#utility.yul\":4283:4412   */\n    tag_123:\n        /* \"#utility.yul\":4317:4323   */\n      0x00\n        /* \"#utility.yul\":4344:4364   */\n      tag_196\n      tag_103\n      jump\t// in\n    tag_196:\n        /* \"#utility.yul\":4334:4364   */\n      swap1\n      pop\n        /* \"#utility.yul\":4373:4406   */\n      tag_197\n        /* \"#utility.yul\":4401:4405   */\n      dup3\n        /* \"#utility.yul\":4393:4399   */\n      dup3\n        /* \"#utility.yul\":4373:4406   */\n      tag_122\n      jump\t// in\n    tag_197:\n        /* \"#utility.yul\":4283:4412   */\n      swap2\n      swap1\n      pop\n      jump\t// out\n        /* \"#utility.yul\":4418:4726   */\n    tag_124:\n        /* \"#utility.yul\":4480:4484   */\n      0x00\n        /* \"#utility.yul\":4570:4588   */\n      0xffffffffffffffff\n        /* \"#utility.yul\":4562:4568   */\n      dup3\n        /* \"#utility.yul\":4559:4589   */\n      gt\n        /* \"#utility.yul\":4556:4612   */\n      iszero\n      tag_199\n      jumpi\n        /* \"#utility.yul\":4592:4610   */\n      tag_200\n      tag_121\n      jump\t// in\n    tag_200:\n        /* \"#utility.yul\":4556:4612   */\n    tag_199:\n        /* \"#utility.yul\":4630:4659   */\n      tag_201\n        /* \"#utility.yul\":4652:4658   */\n      dup3\n        /* \"#utility.yul\":4630:4659   */\n      tag_113\n      jump\t// in\n    tag_201:\n        /* \"#utility.yul\":4622:4659   */\n      swap1\n      pop\n        /* \"#utility.yul\":4714:4718   */\n      0x20\n        /* \"#utility.yul\":4708:4712   */\n      dup2\n        /* \"#utility.yul\":4704:4719   */\n      add\n        /* \"#utility.yul\":4696:4719   */\n      swap1\n      pop\n        /* \"#utility.yul\":4418:4726   */\n      swap2\n      swap1\n      pop\n      jump\t// out\n        /* \"#utility.yul\":4732:4880   */\n    tag_125:\n        /* \"#utility.yul\":4830:4836   */\n      dup3\n        /* \"#utility.yul\":4825:4828   */\n      dup2\n        /* \"#utility.yul\":4820:4823   */\n      dup4\n        /* \"#utility.yul\":4807:4837   */\n      calldatacopy\n        /* \"#utility.yul\":4871:4872   */\n      0x00\n        /* \"#utility.yul\":4862:4868   */\n      dup4\n        /* \"#utility.yul\":4857:4860   */\n      dup4\n        /* \"#utility.yul\":4853:4869   */\n      add\n        /* \"#utility.yul\":4846:4873   */\n      mstore\n        /* \"#utility.yul\":4732:4880   */\n      pop\n      pop\n      pop\n      jump\t// out\n        /* \"#utility.yul\":4886:5311   */\n    tag_126:\n        /* \"#utility.yul\":4964:4969   */\n      0x00\n        /* \"#utility.yul\":4989:5055   */\n      tag_204\n        /* \"#utility.yul\":5005:5054   */\n      tag_205\n        /* \"#utility.yul\":5047:5053   */\n      dup5\n        /* \"#utility.yul\":5005:5054   */\n      tag_124\n      jump\t// in\n    tag_205:\n        /* \"#utility.yul\":4989:5055   */\n      tag_123\n      jump\t// in\n    tag_204:\n        /* \"#utility.yul\":4980:5055   */\n      swap1\n      pop\n        /* \"#utility.yul\":5078:5084   */\n      dup3\n        /* \"#utility.yul\":5071:5076   */\n      dup2\n        /* \"#utility.yul\":5064:5085   */\n      mstore\n        /* \"#utility.yul\":5116:5120   */\n      0x20\n        /* \"#utility.yul\":5109:5114   */\n      dup2\n        /* \"#utility.yul\":5105:5121   */\n      add\n        /* \"#utility.yul\":5154:5157   */\n      dup5\n        /* \"#utility.yul\":5145:5151   */\n      dup5\n        /* \"#utility.yul\":5140:5143   */\n      dup5\n        /* \"#utility.yul\":5136:5152   */\n      add\n        /* \"#utility.yul\":5133:5158   */\n      gt\n        /* \"#utility.yul\":5130:5242   */\n      iszero\n      tag_206\n      jumpi\n        /* \"#utility.yul\":5161:5240   */\n      tag_207\n      tag_120\n      jump\t// in\n    tag_207:\n        /* \"#utility.yul\":5130:5242   */\n    tag_206:\n        /* \"#utility.yul\":5251:5305   */\n      tag_208\n        /* \"#utility.yul\":5298:5304   */\n      dup5\n        /* \"#utility.yul\":5293:5296   */\n      dup3\n        /* \"#utility.yul\":5288:5291   */\n      dup6\n        /* \"#utility.yul\":5251:5305   */\n      tag_125\n      jump\t// in\n    tag_208:\n        /* \"#utility.yul\":4970:5311   */\n      pop\n        /* \"#utility.yul\":4886:5311   */\n      swap4\n      swap3\n      pop\n      pop\n      pop\n      jump\t// out\n        /* \"#utility.yul\":5331:5671   */\n    tag_127:\n        /* \"#utility.yul\":5387:5392   */\n      0x00\n        /* \"#utility.yul\":5436:5439   */\n      dup3\n        /* \"#utility.yul\":5429:5433   */\n      0x1f\n        /* \"#utility.yul\":5421:5427   */\n      dup4\n        /* \"#utility.yul\":5417:5434   */\n      add\n        /* \"#utility.yul\":5413:5440   */\n      slt\n        /* \"#utility.yul\":5403:5525   */\n      tag_210\n      jumpi\n        /* \"#utility.yul\":5444:5523   */\n      tag_211\n      tag_119\n      jump\t// in\n    tag_211:\n        /* \"#utility.yul\":5403:5525   */\n    tag_210:\n        /* \"#utility.yul\":5561:5567   */\n      dup2\n        /* \"#utility.yul\":5548:5568   */\n      calldataload\n        /* \"#utility.yul\":5586:5665   */\n      tag_212\n        /* \"#utility.yul\":5661:5664   */\n      dup5\n        /* \"#utility.yul\":5653:5659   */\n      dup3\n        /* \"#utility.yul\":5646:5650   */\n      0x20\n        /* \"#utility.yul\":5638:5644   */\n      dup7\n        /* \"#utility.yul\":5634:5651   */\n      add\n        /* \"#utility.yul\":5586:5665   */\n      tag_126\n      jump\t// in\n    tag_212:\n        /* \"#utility.yul\":5577:5665   */\n      swap2\n      pop\n        /* \"#utility.yul\":5393:5671   */\n      pop\n        /* \"#utility.yul\":5331:5671   */\n      swap3\n      swap2\n      pop\n      pop\n      jump\t// out\n        /* \"#utility.yul\":5677:6331   */\n    tag_27:\n        /* \"#utility.yul\":5755:5761   */\n      0x00\n        /* \"#utility.yul\":5763:5769   */\n      0x00\n        /* \"#utility.yul\":5812:5814   */\n      0x40\n        /* \"#utility.yul\":5800:5809   */\n      dup4\n        /* \"#utility.yul\":5791:5798   */\n      dup6\n        /* \"#utility.yul\":5787:5810   */\n      sub\n        /* \"#utility.yul\":5783:5815   */\n      slt\n        /* \"#utility.yul\":5780:5899   */\n      iszero\n      tag_214\n      jumpi\n        /* \"#utility.yul\":5818:5897   */\n      tag_215\n      tag_104\n      jump\t// in\n    tag_215:\n        /* \"#utility.yul\":5780:5899   */\n    tag_214:\n        /* \"#utility.yul\":5966:5967   */\n      0x00\n        /* \"#utility.yul\":5955:5964   */\n      dup4\n        /* \"#utility.yul\":5951:5968   */\n      add\n        /* \"#utility.yul\":5938:5969   */\n      calldataload\n        /* \"#utility.yul\":5996:6014   */\n      0xffffffffffffffff\n        /* \"#utility.yul\":5988:5994   */\n      dup2\n        /* \"#utility.yul\":5985:6015   */\n      gt\n        /* \"#utility.yul\":5982:6099   */\n      iszero\n      tag_216\n      jumpi\n        /* \"#utility.yul\":6018:6097   */\n      tag_217\n      tag_105\n      jump\t// in\n    tag_217:\n        /* \"#utility.yul\":5982:6099   */\n    tag_216:\n        /* \"#utility.yul\":6123:6186   */\n      tag_218\n        /* \"#utility.yul\":6178:6185   */\n      dup6\n        /* \"#utility.yul\":6169:6175   */\n      dup3\n        /* \"#utility.yul\":6158:6167   */\n      dup7\n        /* \"#utility.yul\":6154:6176   */\n      add\n        /* \"#utility.yul\":6123:6186   */\n      tag_127\n      jump\t// in\n    tag_218:\n        /* \"#utility.yul\":6113:6186   */\n      swap3\n      pop\n        /* \"#utility.yul\":5909:6196   */\n      pop\n        /* \"#utility.yul\":6235:6237   */\n      0x20\n        /* \"#utility.yul\":6261:6314   */\n      tag_219\n        /* \"#utility.yul\":6306:6313   */\n      dup6\n        /* \"#utility.yul\":6297:6303   */\n      dup3\n        /* \"#utility.yul\":6286:6295   */\n      dup7\n        /* \"#utility.yul\":6282:6304   */\n      add\n        /* \"#utility.yul\":6261:6314   */\n      tag_118\n      jump\t// in\n    tag_219:\n        /* \"#utility.yul\":6251:6314   */\n      swap2\n      pop\n        /* \"#utility.yul\":6206:6324   */\n      pop\n        /* \"#utility.yul\":5677:6331   */\n      swap3\n      pop\n      swap3\n      swap1\n      pop\n      jump\t// out\n        /* \"#utility.yul\":6337:7136   */\n    tag_37:\n        /* \"#utility.yul\":6424:6430   */\n      0x00\n        /* \"#utility.yul\":6432:6438   */\n      0x00\n        /* \"#utility.yul\":6440:6446   */\n      0x00\n        /* \"#utility.yul\":6489:6491   */\n      0x60\n        /* \"#utility.yul\":6477:6486   */\n      dup5\n        /* \"#utility.yul\":6468:6475   */\n      dup7\n        /* \"#utility.yul\":6464:6487   */\n      sub\n        /* \"#utility.yul\":6460:6492   */\n      slt\n        /* \"#utility.yul\":6457:6576   */\n      iszero\n      tag_221\n      jumpi\n        /* \"#utility.yul\":6495:6574   */\n      tag_222\n      tag_104\n      jump\t// in\n    tag_222:\n        /* \"#utility.yul\":6457:6576   */\n    tag_221:\n        /* \"#utility.yul\":6615:6616   */\n      0x00\n        /* \"#utility.yul\":6640:6693   */\n      tag_223\n        /* \"#utility.yul\":6685:6692   */\n      dup7\n        /* \"#utility.yul\":6676:6682   */\n      dup3\n        /* \"#utility.yul\":6665:6674   */\n      dup8\n        /* \"#utility.yul\":6661:6683   */\n      add\n        /* \"#utility.yul\":6640:6693   */\n      tag_109\n      jump\t// in\n    tag_223:\n        /* \"#utility.yul\":6630:6693   */\n      swap4\n      pop\n        /* \"#utility.yul\":6586:6703   */\n      pop\n        /* \"#utility.yul\":6770:6772   */\n      0x20\n        /* \"#utility.yul\":6759:6768   */\n      dup5\n        /* \"#utility.yul\":6755:6773   */\n      add\n        /* \"#utility.yul\":6742:6774   */\n      calldataload\n        /* \"#utility.yul\":6801:6819   */\n      0xffffffffffffffff\n        /* \"#utility.yul\":6793:6799   */\n      dup2\n        /* \"#utility.yul\":6790:6820   */\n      gt\n        /* \"#utility.yul\":6787:6904   */\n      iszero\n      tag_224\n      jumpi\n        /* \"#utility.yul\":6823:6902   */\n      tag_225\n      tag_105\n      jump\t// in\n    tag_225:\n        /* \"#utility.yul\":6787:6904   */\n    tag_224:\n        /* \"#utility.yul\":6928:6991   */\n      tag_226\n        /* \"#utility.yul\":6983:6990   */\n      dup7\n        /* \"#utility.yul\":6974:6980   */\n      dup3\n        /* \"#utility.yul\":6963:6972   */\n      dup8\n        /* \"#utility.yul\":6959:6981   */\n      add\n        /* \"#utility.yul\":6928:6991   */\n      tag_127\n      jump\t// in\n    tag_226:\n        /* \"#utility.yul\":6918:6991   */\n      swap3\n      pop\n        /* \"#utility.yul\":6713:7001   */\n      pop\n        /* \"#utility.yul\":7040:7042   */\n      0x40\n        /* \"#utility.yul\":7066:7119   */\n      tag_227\n        /* \"#utility.yul\":7111:7118   */\n      dup7\n        /* \"#utility.yul\":7102:7108   */\n      dup3\n        /* \"#utility.yul\":7091:7100   */\n      dup8\n        /* \"#utility.yul\":7087:7109   */\n      add\n        /* \"#utility.yul\":7066:7119   */\n      tag_118\n      jump\t// in\n    tag_227:\n        /* \"#utility.yul\":7056:7119   */\n      swap2\n      pop\n        /* \"#utility.yul\":7011:7129   */\n      pop\n        /* \"#utility.yul\":6337:7136   */\n      swap3\n      pop\n      swap3\n      pop\n      swap3\n      jump\t// out\n        /* \"#utility.yul\":7142:7260   */\n    tag_128:\n        /* \"#utility.yul\":7229:7253   */\n      tag_229\n        /* \"#utility.yul\":7247:7252   */\n      dup2\n        /* \"#utility.yul\":7229:7253   */\n      tag_107\n      jump\t// in\n    tag_229:\n        /* \"#utility.yul\":7224:7227   */\n      dup3\n        /* \"#utility.yul\":7217:7254   */\n      mstore\n        /* \"#utility.yul\":7142:7260   */\n      pop\n      pop\n      jump\t// out\n        /* \"#utility.yul\":7266:7488   */\n    tag_43:\n        /* \"#utility.yul\":7359:7363   */\n      0x00\n        /* \"#utility.yul\":7397:7399   */\n      0x20\n        /* \"#utility.yul\":7386:7395   */\n      dup3\n        /* \"#utility.yul\":7382:7400   */\n      add\n        /* \"#utility.yul\":7374:7400   */\n      swap1\n      pop\n        /* \"#utility.yul\":7410:7481   */\n      tag_231\n        /* \"#utility.yul\":7478:7479   */\n      0x00\n        /* \"#utility.yul\":7467:7476   */\n      dup4\n        /* \"#utility.yul\":7463:7480   */\n      add\n        /* \"#utility.yul\":7454:7460   */\n      dup5\n        /* \"#utility.yul\":7410:7481   */\n      tag_128\n      jump\t// in\n    tag_231:\n        /* \"#utility.yul\":7266:7488   */\n      swap3\n      swap2\n      pop\n      pop\n      jump\t// out\n        /* \"#utility.yul\":7494:7674   */\n    tag_129:\n        /* \"#utility.yul\":7542:7619   */\n      0x4e487b7100000000000000000000000000000000000000000000000000000000\n        /* \"#utility.yul\":7539:7540   */\n      0x00\n        /* \"#utility.yul\":7532:7620   */\n      mstore\n        /* \"#utility.yul\":7639:7643   */\n      0x22\n        /* \"#utility.yul\":7636:7637   */\n      0x04\n        /* \"#utility.yul\":7629:7644   */\n      mstore\n        /* \"#utility.yul\":7663:7667   */\n      0x24\n        /* \"#utility.yul\":7660:7661   */\n      0x00\n        /* \"#utility.yul\":7653:7668   */\n      revert\n        /* \"#utility.yul\":7680:8000   */\n    tag_52:\n        /* \"#utility.yul\":7724:7730   */\n      0x00\n        /* \"#utility.yul\":7761:7762   */\n      0x02\n        /* \"#utility.yul\":7755:7759   */\n      dup3\n        /* \"#utility.yul\":7751:7763   */\n      div\n        /* \"#utility.yul\":7741:7763   */\n      swap1\n      pop\n        /* \"#utility.yul\":7808:7809   */\n      0x01\n        /* \"#utility.yul\":7802:7806   */\n      dup3\n        /* \"#utility.yul\":7798:7810   */\n      and\n        /* \"#utility.yul\":7829:7847   */\n      dup1\n        /* \"#utility.yul\":7819:7900   */\n      tag_234\n      jumpi\n        /* \"#utility.yul\":7885:7889   */\n      0x7f\n        /* \"#utility.yul\":7877:7883   */\n      dup3\n        /* \"#utility.yul\":7873:7890   */\n      and\n        /* \"#utility.yul\":7863:7890   */\n      swap2\n      pop\n        /* \"#utility.yul\":7819:7900   */\n    tag_234:\n        /* \"#utility.yul\":7947:7949   */\n      0x20\n        /* \"#utility.yul\":7939:7945   */\n      dup3\n        /* \"#utility.yul\":7936:7950   */\n      lt\n        /* \"#utility.yul\":7916:7934   */\n      dup2\n        /* \"#utility.yul\":7913:7951   */\n      sub\n        /* \"#utility.yul\":7910:7994   */\n      tag_235\n      jumpi\n        /* \"#utility.yul\":7966:7984   */\n      tag_236\n      tag_129\n      jump\t// in\n    tag_236:\n        /* \"#utility.yul\":7910:7994   */\n    tag_235:\n        /* \"#utility.yul\":7731:8000   */\n      pop\n        /* \"#utility.yul\":7680:8000   */\n      swap2\n      swap1\n      pop\n      jump\t// out\n        /* \"#utility.yul\":8006:8147   */\n    tag_130:\n        /* \"#utility.yul\":8055:8059   */\n      0x00\n        /* \"#utility.yul\":8078:8081   */\n      dup2\n        /* \"#utility.yul\":8070:8081   */\n      swap1\n      pop\n        /* \"#utility.yul\":8101:8104   */\n      dup2\n        /* \"#utility.yul\":8098:8099   */\n      0x00\n        /* \"#utility.yul\":8091:8105   */\n      mstore\n        /* \"#utility.yul\":8135:8139   */\n      0x20\n        /* \"#utility.yul\":8132:8133   */\n      0x00\n        /* \"#utility.yul\":8122:8140   */\n      keccak256\n        /* \"#utility.yul\":8114:8140   */\n      swap1\n      pop\n        /* \"#utility.yul\":8006:8147   */\n      swap2\n      swap1\n      pop\n      jump\t// out\n        /* \"#utility.yul\":8153:8246   */\n    tag_131:\n        /* \"#utility.yul\":8190:8196   */\n      0x00\n        /* \"#utility.yul\":8237:8239   */\n      0x20\n        /* \"#utility.yul\":8232:8234   */\n      0x1f\n        /* \"#utility.yul\":8225:8230   */\n      dup4\n        /* \"#utility.yul\":8221:8235   */\n      add\n        /* \"#utility.yul\":8217:8240   */\n      div\n        /* \"#utility.yul\":8207:8240   */\n      swap1\n      pop\n        /* \"#utility.yul\":8153:8246   */\n      swap2\n      swap1\n      pop\n      jump\t// out\n        /* \"#utility.yul\":8252:8359   */\n    tag_132:\n        /* \"#utility.yul\":8296:8304   */\n      0x00\n        /* \"#utility.yul\":8346:8351   */\n      dup3\n        /* \"#utility.yul\":8340:8344   */\n      dup3\n        /* \"#utility.yul\":8336:8352   */\n      shl\n        /* \"#utility.yul\":8315:8352   */\n      swap1\n      pop\n        /* \"#utility.yul\":8252:8359   */\n      swap3\n      swap2\n      pop\n      pop\n      jump\t// out\n        /* \"#utility.yul\":8365:8758   */\n    tag_133:\n        /* \"#utility.yul\":8434:8440   */\n      0x00\n        /* \"#utility.yul\":8484:8485   */\n      0x08\n        /* \"#utility.yul\":8472:8482   */\n      dup4\n        /* \"#utility.yul\":8468:8486   */\n      mul\n        /* \"#utility.yul\":8507:8604   */\n      tag_241\n        /* \"#utility.yul\":8537:8603   */\n      0xffffffffffffffffffffffffffffffffffffffffffffffffffffffffffffffff\n        /* \"#utility.yul\":8526:8535   */\n      dup3\n        /* \"#utility.yul\":8507:8604   */\n      tag_132\n      jump\t// in\n    tag_241:\n        /* \"#utility.yul\":8625:8664   */\n      tag_242\n        /* \"#utility.yul\":8655:8663   */\n      dup7\n        /* \"#utility.yul\":8644:8653   */\n      dup4\n        /* \"#utility.yul\":8625:8664   */\n      tag_132\n      jump\t// in\n    tag_242:\n        /* \"#utility.yul\":8613:8664   */\n      swap6\n      pop\n        /* \"#utility.yul\":8697:8701   */\n      dup1\n        /* \"#utility.yul\":8693:8702   */\n      not\n        /* \"#utility.yul\":8686:8691   */\n      dup5\n        /* \"#utility.yul\":8682:8703   */\n      and\n        /* \"#utility.yul\":8673:8703   */\n      swap4\n      pop\n        /* \"#utility.yul\":8746:8750   */\n      dup1\n        /* \"#utility.yul\":8736:8744   */\n      dup7\n        /* \"#utility.yul\":8732:8751   */\n      and\n        /* \"#utility.yul\":8725:8730   */\n      dup5\n        /* \"#utility.yul\":8722:8752   */\n      or\n        /* \"#utility.yul\":8712:8752   */\n      swap3\n      pop\n        /* \"#utility.yul\":8441:8758   */\n      pop\n      pop\n        /* \"#utility.yul\":8365:8758   */\n      swap4\n      swap3\n      pop\n      pop\n      pop\n      jump\t// out\n        /* \"#utility.yul\":8764:8824   */\n    tag_134:\n        /* \"#utility.yul\":8792:8795   */\n      0x00\n        /* \"#utility.yul\":8813:8818   */\n      dup2\n        /* \"#utility.yul\":8806:8818   */\n      swap1\n      pop\n        /* \"#utility.yul\":8764:8824   */\n      swap2\n      swap1\n      pop\n      jump\t// out\n        /* \"#utility.yul\":8830:8972   */\n    tag_135:\n        /* \"#utility.yul\":8880:8889   */\n      0x00\n        /* \"#utility.yul\":8913:8966   */\n      tag_245\n        /* \"#utility.yul\":8931:8965   */\n      tag_246\n        /* \"#utility.yul\":8940:8964   */\n      tag_247\n        /* \"#utility.yul\":8958:8963   */\n      dup5\n        /* \"#utility.yul\":8940:8964   */\n      tag_115\n      jump\t// in\n    tag_247:\n        /* \"#utility.yul\":8931:8965   */\n      tag_134\n      jump\t// in\n    tag_246:\n        /* \"#utility.yul\":8913:8966   */\n      tag_115\n      jump\t// in\n    tag_245:\n        /* \"#utility.yul\":8900:8966   */\n      swap1\n      pop\n        /* \"#utility.yul\":8830:8972   */\n      swap2\n      swap1\n      pop\n      jump\t// out\n        /* \"#utility.yul\":8978:9053   */\n    tag_136:\n        /* \"#utility.yul\":9021:9024   */\n      0x00\n        /* \"#utility.yul\":9042:9047   */\n      dup2\n        /* \"#utility.yul\":9035:9047   */\n      swap1\n      pop\n        /* \"#utility.yul\":8978:9053   */\n      swap2\n      swap1\n      pop\n      jump\t// out\n        /* \"#utility.yul\":9059:9328   */\n    tag_137:\n        /* \"#utility.yul\":9169:9208   */\n      tag_250\n        /* \"#utility.yul\":9200:9207   */\n      dup4\n        /* \"#utility.yul\":9169:9208   */\n      tag_135\n      jump\t// in\n    tag_250:\n        /* \"#utility.yul\":9230:9321   */\n      tag_251\n        /* \"#utility.yul\":9279:9320   */\n      tag_252\n        /* \"#utility.yul\":9303:9319   */\n      dup3\n        /* \"#utility.yul\":9279:9320   */\n      tag_136\n      jump\t// in\n    tag_252:\n        /* \"#utility.yul\":9271:9277   */\n      dup5\n        /* \"#utility.yul\":9264:9268   */\n      dup5\n        /* \"#utility.yul\":9258:9269   */\n      sload\n        /* \"#utility.yul\":9230:9321   */\n      tag_133\n      jump\t// in\n    tag_251:\n        /* \"#utility.yul\":9224:9228   */\n      dup3\n        /* \"#utility.yul\":9217:9322   */\n      sstore\n        /* \"#utility.yul\":9135:9328   */\n      pop\n        /* \"#utility.yul\":9059:9328   */\n      pop\n      pop\n      pop\n      jump\t// out\n        /* \"#utility.yul\":9334:9407   */\n    tag_138:\n        /* \"#utility.yul\":9379:9382   */\n      0x00\n        /* \"#utility.yul\":9400:9401   */\n      0x00\n        /* \"#utility.yul\":9393:9401   */\n      swap1\n      pop\n        /* \"#utility.yul\":9334:9407   */\n      swap1\n      jump\t// out\n        /* \"#utility.yul\":9413:9602   */\n    tag_139:\n        /* \"#utility.yul\":9490:9522   */\n      tag_255\n      tag_138\n      jump\t// in\n    tag_255:\n        /* \"#utility.yul\":9531:9596   */\n      tag_256\n        /* \"#utility.yul\":9589:9595   */\n      dup2\n        /* \"#utility.yul\":9581:9587   */\n      dup5\n        /* \"#utility.yul\":9575:9579   */\n      dup5\n        /* \"#utility.yul\":9531:9596   */\n      tag_137\n      jump\t// in\n    tag_256:\n        /* \"#utility.yul\":9466:9602   */\n      pop\n        /* \"#utility.yul\":9413:9602   */\n      pop\n      pop\n      jump\t// out\n        /* \"#utility.yul\":9608:9822   */\n    tag_140:\n        /* \"#utility.yul\":9693:9694   */\n      0x00\n        /* \"#utility.yul\":9678:9816   */\n    tag_258:\n        /* \"#utility.yul\":9703:9712   */\n      dup3\n        /* \"#utility.yul\":9700:9701   */\n      dup2\n        /* \"#utility.yul\":9697:9713   */\n      lt\n        /* \"#utility.yul\":9678:9816   */\n      iszero\n      tag_260\n      jumpi\n        /* \"#utility.yul\":9755:9806   */\n      tag_261\n        /* \"#utility.yul\":9804:9805   */\n      0x00\n        /* \"#utility.yul\":9800:9801   */\n      dup3\n        /* \"#utility.yul\":9789:9798   */\n      dup5\n        /* \"#utility.yul\":9785:9802   */\n      add\n        /* \"#utility.yul\":9755:9806   */\n      tag_139\n      jump\t// in\n    tag_261:\n        /* \"#utility.yul\":9728:9729   */\n      0x01\n        /* \"#utility.yul\":9725:9726   */\n      dup2\n        /* \"#utility.yul\":9721:9730   */\n      add\n        /* \"#utility.yul\":9716:9730   */\n      swap1\n      pop\n        /* \"#utility.yul\":9678:9816   */\n      jump(tag_258)\n    tag_260:\n        /* \"#utility.yul\":9682:9696   */\n      pop\n        /* \"#utility.yul\":9608:9822   */\n      pop\n      pop\n      jump\t// out\n        /* \"#utility.yul\":9828:10574   */\n    tag_141:\n        /* \"#utility.yul\":9929:9931   */\n      0x1f\n        /* \"#utility.yul\":9924:9927   */\n      dup3\n        /* \"#utility.yul\":9921:9932   */\n      gt\n        /* \"#utility.yul\":9918:10567   */\n      iszero\n      tag_263\n      jumpi\n        /* \"#utility.yul\":9958:9968   */\n      dup3\n        /* \"#utility.yul\":9953:9956   */\n      dup3\n        /* \"#utility.yul\":9950:9969   */\n      gt\n        /* \"#utility.yul\":9947:10557   */\n      iszero\n      tag_264\n      jumpi\n        /* \"#utility.yul\":10004:10042   */\n      tag_265\n        /* \"#utility.yul\":10036:10041   */\n      dup2\n        /* \"#utility.yul\":10004:10042   */\n      tag_130\n      jump\t// in\n    tag_265:\n        /* \"#utility.yul\":10079:10101   */\n      tag_266\n        /* \"#utility.yul\":10097:10100   */\n      dup4\n        /* \"#utility.yul\":10079:10101   */\n      tag_131\n      jump\t// in\n    tag_266:\n        /* \"#utility.yul\":10138:10167   */\n      tag_267\n        /* \"#utility.yul\":10156:10166   */\n      dup6\n        /* \"#utility.yul\":10138:10167   */\n      tag_131\n      jump\t// in\n    tag_267:\n        /* \"#utility.yul\":10328:10330   */\n      0x20\n        /* \"#utility.yul\":10316:10326   */\n      dup7\n        /* \"#utility.yul\":10313:10331   */\n      lt\n        /* \"#utility.yul\":10310:10389   */\n      iszero\n      tag_268\n      jumpi\n        /* \"#utility.yul\":10370:10371   */\n      0x00\n        /* \"#utility.yul\":10354:10371   */\n      swap1\n      pop\n        /* \"#utility.yul\":10310:10389   */\n    tag_268:\n        /* \"#utility.yul\":10439:10451   */\n      dup1\n        /* \"#utility.yul\":10429:10437   */\n      dup4\n        /* \"#utility.yul\":10425:10452   */\n      add\n        /* \"#utility.yul\":10469:10543   */\n      tag_269\n        /* \"#utility.yul\":10529:10541   */\n      dup3\n        /* \"#utility.yul\":10515:10527   */\n      dup5\n        /* \"#utility.yul\":10511:10542   */\n      sub\n        /* \"#utility.yul\":10498:10509   */\n      dup3\n        /* \"#utility.yul\":10469:10543   */\n      tag_140\n      jump\t// in\n    tag_269:\n        /* \"#utility.yul\":9970:10557   */\n      pop\n      pop\n      pop\n      pop\n        /* \"#utility.yul\":9947:10557   */\n    tag_264:\n        /* \"#utility.yul\":9918:10567   */\n    tag_263:\n        /* \"#utility.yul\":9828:10574   */\n      pop\n      pop\n      pop\n      jump\t// out\n        /* \"#utility.yul\":10580:10697   */\n    tag_142:\n        /* \"#utility.yul\":10634:10642   */\n      0x00\n        /* \"#utility.yul\":10684:10689   */\n      dup3\n        /* \"#utility.yul\":10678:10682   */\n      dup3\n        /* \"#utility.yul\":10674:10690   */\n      shr\n        /* \"#utility.yul\":10653:10690   */\n      swap1\n      pop\n        /* \"#utility.yul\":10580:10697   */\n      swap3\n      swap2\n      pop\n      pop\n      jump\t// out\n        /* \"#utility.yul\":10703:10872   */\n    tag_143:\n        /* \"#utility.yul\":10747:10753   */\n      0x00\n        /* \"#utility.yul\":10780:10831   */\n      tag_272\n        /* \"#utility.yul\":10828:10829   */\n      0x00\n        /* \"#utility.yul\":10824:10830   */\n      not\n        /* \"#utility.yul\":10816:10821   */\n      dup5\n        /* \"#utility.yul\":10813:10814   */\n      0x08\n        /* \"#utility.yul\":10809:10822   */\n      mul\n        /* \"#utility.yul\":10780:10831   */\n      tag_142\n      jump\t// in\n    tag_272:\n        /* \"#utility.yul\":10776:10832   */\n      not\n        /* \"#utility.yul\":10861:10865   */\n      dup1\n        /* \"#utility.yul\":10855:10859   */\n      dup4\n        /* \"#utility.yul\":10851:10866   */\n      and\n        /* \"#utility.yul\":10841:10866   */\n      swap2\n      pop\n        /* \"#utility.yul\":10754:10872   */\n      pop\n        /* \"#utility.yul\":10703:10872   */\n      swap3\n      swap2\n      pop\n      pop\n      jump\t// out\n        /* \"#utility.yul\":10877:11172   */\n    tag_144:\n        /* \"#utility.yul\":10953:10957   */\n      0x00\n        /* \"#utility.yul\":11099:11128   */\n      tag_274\n        /* \"#utility.yul\":11124:11127   */\n      dup4\n        /* \"#utility.yul\":11118:11122   */\n      dup4\n        /* \"#utility.yul\":11099:11128   */\n      tag_143\n      jump\t// in\n    tag_274:\n        /* \"#utility.yul\":11091:11128   */\n      swap2\n      pop\n        /* \"#utility.yul\":11161:11164   */\n      dup3\n        /* \"#utility.yul\":11158:11159   */\n      0x02\n        /* \"#utility.yul\":11154:11165   */\n      mul\n        /* \"#utility.yul\":11148:11152   */\n      dup3\n        /* \"#utility.yul\":11145:11166   */\n      or\n        /* \"#utility.yul\":11137:11166   */\n      swap1\n      pop\n        /* \"#utility.yul\":10877:11172   */\n      swap3\n      swap2\n      pop\n      pop\n      jump\t// out\n        /* \"#utility.yul\":11177:12572   */\n    tag_61:\n        /* \"#utility.yul\":11294:11331   */\n      tag_276\n        /* \"#utility.yul\":11327:11330   */\n      dup3\n        /* \"#utility.yul\":11294:11331   */\n      tag_110\n      jump\t// in\n    tag_276:\n        /* \"#utility.yul\":11396:11414   */\n      0xffffffffffffffff\n        /* \"#utility.yul\":11388:11394   */\n      dup2\n        /* \"#utility.yul\":11385:11415   */\n      gt\n        /* \"#utility.yul\":11382:11438   */\n      iszero\n      tag_277\n      jumpi\n        /* \"#utility.yul\":11418:11436   */\n      tag_278\n      tag_121\n      jump\t// in\n    tag_278:\n        /* \"#utility.yul\":11382:11438   */\n    tag_277:\n        /* \"#utility.yul\":11462:11500   */\n      tag_279\n        /* \"#utility.yul\":11494:11498   */\n      dup3\n        /* \"#utility.yul\":11488:11499   */\n      sload\n        /* \"#utility.yul\":11462:11500   */\n      tag_52\n      jump\t// in\n    tag_279:\n        /* \"#utility.yul\":11547:11614   */\n      tag_280\n        /* \"#utility.yul\":11607:11613   */\n      dup3\n        /* \"#utility.yul\":11599:11605   */\n      dup3\n        /* \"#utility.yul\":11593:11597   */\n      dup6\n        /* \"#utility.yul\":11547:11614   */\n      tag_141\n      jump\t// in\n    tag_280:\n        /* \"#utility.yul\":11641:11642   */\n      0x00\n        /* \"#utility.yul\":11665:11669   */\n      0x20\n        /* \"#utility.yul\":11652:11669   */\n      swap1\n      pop\n        /* \"#utility.yul\":11697:11699   */\n      0x1f\n        /* \"#utility.yul\":11689:11695   */\n      dup4\n        /* \"#utility.yul\":11686:11700   */\n      gt\n        /* \"#utility.yul\":11714:11715   */\n      0x01\n        /* \"#utility.yul\":11709:12327   */\n      dup2\n      eq\n      tag_282\n      jumpi\n        /* \"#utility.yul\":12371:12372   */\n      0x00\n        /* \"#utility.yul\":12388:12394   */\n      dup5\n        /* \"#utility.yul\":12385:12462   */\n      iszero\n      tag_283\n      jumpi\n        /* \"#utility.yul\":12437:12446   */\n      dup3\n        /* \"#utility.yul\":12432:12435   */\n      dup8\n        /* \"#utility.yul\":12428:12447   */\n      add\n        /* \"#utility.yul\":12422:12448   */\n      mload\n        /* \"#utility.yul\":12413:12448   */\n      swap1\n      pop\n        /* \"#utility.yul\":12385:12462   */\n    tag_283:\n        /* \"#utility.yul\":12488:12555   */\n      tag_284\n        /* \"#utility.yul\":12548:12554   */\n      dup6\n        /* \"#utility.yul\":12541:12546   */\n      dup3\n        /* \"#utility.yul\":12488:12555   */\n      tag_144\n      jump\t// in\n    tag_284:\n        /* \"#utility.yul\":12482:12486   */\n      dup7\n        /* \"#utility.yul\":12475:12556   */\n      sstore\n        /* \"#utility.yul\":12344:12566   */\n      pop\n        /* \"#utility.yul\":11679:12566   */\n      jump(tag_281)\n        /* \"#utility.yul\":11709:12327   */\n    tag_282:\n        /* \"#utility.yul\":11761:11765   */\n      0x1f\n        /* \"#utility.yul\":11757:11766   */\n      not\n        /* \"#utility.yul\":11749:11755   */\n      dup5\n        /* \"#utility.yul\":11745:11767   */\n      and\n        /* \"#utility.yul\":11795:11832   */\n      tag_285\n        /* \"#utility.yul\":11827:11831   */\n      dup7\n        /* \"#utility.yul\":11795:11832   */\n      tag_130\n      jump\t// in\n    tag_285:\n        /* \"#utility.yul\":11854:11855   */\n      0x00\n        /* \"#utility.yul\":11868:12076   */\n    tag_286:\n        /* \"#utility.yul\":11882:11889   */\n      dup3\n        /* \"#utility.yul\":11879:11880   */\n      dup2\n        /* \"#utility.yul\":11876:11890   */\n      lt\n        /* \"#utility.yul\":11868:12076   */\n      iszero\n      tag_288\n      jumpi\n        /* \"#utility.yul\":11961:11970   */\n      dup5\n        /* \"#utility.yul\":11956:11959   */\n      dup10\n        /* \"#utility.yul\":11952:11971   */\n      add\n        /* \"#utility.yul\":11946:11972   */\n      mload\n        /* \"#utility.yul\":11938:11944   */\n      dup3\n        /* \"#utility.yul\":11931:11973   */\n      sstore\n        /* \"#utility.yul\":12012:12013   */\n      0x01\n        /* \"#utility.yul\":12004:12010   */\n      dup3\n        /* \"#utility.yul\":12000:12014   */\n      add\n        /* \"#utility.yul\":11990:12014   */\n      swap2\n      pop\n        /* \"#utility.yul\":12059:12061   */\n      0x20\n        /* \"#utility.yul\":12048:12057   */\n      dup6\n        /* \"#utility.yul\":12044:12062   */\n      add\n        /* \"#utility.yul\":12031:12062   */\n      swap5\n      pop\n        /* \"#utility.yul\":11905:11909   */\n      0x20\n        /* \"#utility.yul\":11902:11903   */\n      dup2\n        /* \"#utility.yul\":11898:11910   */\n      add\n        /* \"#utility.yul\":11893:11910   */\n      swap1\n      pop\n        /* \"#utility.yul\":11868:12076   */\n      jump(tag_286)\n    tag_288:\n        /* \"#utility.yul\":12104:12110   */\n      dup7\n        /* \"#utility.yul\":12095:12102   */\n      dup4\n        /* \"#utility.yul\":12092:12111   */\n      lt\n        /* \"#utility.yul\":12089:12268   */\n      iszero\n      tag_289\n      jumpi\n        /* \"#utility.yul\":12162:12171   */\n      dup5\n        /* \"#utility.yul\":12157:12160   */\n      dup10\n        /* \"#utility.yul\":12153:12172   */\n      add\n        /* \"#utility.yul\":12147:12173   */\n      mload\n        /* \"#utility.yul\":12205:12253   */\n      tag_290\n        /* \"#utility.yul\":12247:12251   */\n      0x1f\n        /* \"#utility.yul\":12239:12245   */\n      dup10\n        /* \"#utility.yul\":12235:12252   */\n      and\n        /* \"#utility.yul\":12224:12233   */\n      dup3\n        /* \"#utility.yul\":12205:12253   */\n      tag_143\n      jump\t// in\n    tag_290:\n        /* \"#utility.yul\":12197:12203   */\n      dup4\n        /* \"#utility.yul\":12190:12254   */\n      sstore\n        /* \"#utility.yul\":12112:12268   */\n      pop\n        /* \"#utility.yul\":12089:12268   */\n    tag_289:\n        /* \"#utility.yul\":12314:12315   */\n      0x01\n        /* \"#utility.yul\":12310:12311   */\n      0x02\n        /* \"#utility.yul\":12302:12308   */\n      dup9\n        /* \"#utility.yul\":12298:12312   */\n      mul\n        /* \"#utility.yul\":12294:12316   */\n      add\n        /* \"#utility.yul\":12288:12292   */\n      dup9\n        /* \"#utility.yul\":12281:12317   */\n      sstore\n        /* \"#utility.yul\":11716:12327   */\n      pop\n      pop\n      pop\n        /* \"#utility.yul\":11679:12566   */\n    tag_281:\n      pop\n        /* \"#utility.yul\":11269:12572   */\n      pop\n      pop\n      pop\n        /* \"#utility.yul\":11177:12572   */\n      pop\n      pop\n      jump\t// out\n        /* \"#utility.yul\":12578:12758   */\n    tag_75:\n        /* \"#utility.yul\":12626:12703   */\n      0x4e487b7100000000000000000000000000000000000000000000000000000000\n        /* \"#utility.yul\":12623:12624   */\n      0x00\n        /* \"#utility.yul\":12616:12704   */\n      mstore\n        /* \"#utility.yul\":12723:12727   */\n      0x32\n        /* \"#utility.yul\":12720:12721   */\n      0x04\n        /* \"#utility.yul\":12713:12728   */\n      mstore\n        /* \"#utility.yul\":12747:12751   */\n      0x24\n        /* \"#utility.yul\":12744:12745   */\n      0x00\n        /* \"#utility.yul\":12737:12752   */\n      revert\n        /* \"#utility.yul\":12788:13619   */\n    tag_145:\n        /* \"#utility.yul\":12873:12876   */\n      0x00\n        /* \"#utility.yul\":12910:12915   */\n      dup2\n        /* \"#utility.yul\":12904:12916   */\n      sload\n        /* \"#utility.yul\":12939:12975   */\n      tag_293\n        /* \"#utility.yul\":12965:12974   */\n      dup2\n        /* \"#utility.yul\":12939:12975   */\n      tag_52\n      jump\t// in\n    tag_293:\n        /* \"#utility.yul\":12991:13062   */\n      tag_294\n        /* \"#utility.yul\":13055:13061   */\n      dup2\n        /* \"#utility.yul\":13050:13053   */\n      dup7\n        /* \"#utility.yul\":12991:13062   */\n      tag_111\n      jump\t// in\n    tag_294:\n        /* \"#utility.yul\":12984:13062   */\n      swap5\n      pop\n        /* \"#utility.yul\":13093:13094   */\n      0x01\n        /* \"#utility.yul\":13082:13091   */\n      dup3\n        /* \"#utility.yul\":13078:13095   */\n      and\n        /* \"#utility.yul\":13109:13110   */\n      0x00\n        /* \"#utility.yul\":13104:13268   */\n      dup2\n      eq\n      tag_296\n      jumpi\n        /* \"#utility.yul\":13282:13283   */\n      0x01\n        /* \"#utility.yul\":13277:13613   */\n      dup2\n      eq\n      tag_297\n      jumpi\n        /* \"#utility.yul\":13071:13613   */\n      jump(tag_295)\n        /* \"#utility.yul\":13104:13268   */\n    tag_296:\n        /* \"#utility.yul\":13188:13192   */\n      0xff\n        /* \"#utility.yul\":13184:13193   */\n      not\n        /* \"#utility.yul\":13173:13182   */\n      dup4\n        /* \"#utility.yul\":13169:13194   */\n      and\n        /* \"#utility.yul\":13164:13167   */\n      dup7\n        /* \"#utility.yul\":13157:13195   */\n      mstore\n        /* \"#utility.yul\":13248:13254   */\n      dup2\n        /* \"#utility.yul\":13241:13255   */\n      iszero\n        /* \"#utility.yul\":13234:13256   */\n      iszero\n        /* \"#utility.yul\":13228:13232   */\n      0x20\n        /* \"#utility.yul\":13224:13257   */\n      mul\n        /* \"#utility.yul\":13219:13222   */\n      dup7\n        /* \"#utility.yul\":13215:13258   */\n      add\n        /* \"#utility.yul\":13208:13258   */\n      swap4\n      pop\n        /* \"#utility.yul\":13104:13268   */\n      jump(tag_295)\n        /* \"#utility.yul\":13277:13613   */\n    tag_297:\n        /* \"#utility.yul\":13344:13382   */\n      tag_298\n        /* \"#utility.yul\":13376:13381   */\n      dup6\n        /* \"#utility.yul\":13344:13382   */\n      tag_130\n      jump\t// in\n    tag_298:\n        /* \"#utility.yul\":13404:13405   */\n      0x00\n        /* \"#utility.yul\":13418:13572   */\n    tag_299:\n        /* \"#utility.yul\":13432:13438   */\n      dup4\n        /* \"#utility.yul\":13429:13430   */\n      dup2\n        /* \"#utility.yul\":13426:13439   */\n      lt\n        /* \"#utility.yul\":13418:13572   */\n      iszero\n      tag_301\n      jumpi\n        /* \"#utility.yul\":13506:13513   */\n      dup2\n        /* \"#utility.yul\":13500:13514   */\n      sload\n        /* \"#utility.yul\":13496:13497   */\n      dup2\n        /* \"#utility.yul\":13491:13494   */\n      dup10\n        /* \"#utility.yul\":13487:13498   */\n      add\n        /* \"#utility.yul\":13480:13515   */\n      mstore\n        /* \"#utility.yul\":13556:13557   */\n      0x01\n        /* \"#utility.yul\":13547:13554   */\n      dup3\n        /* \"#utility.yul\":13543:13558   */\n      add\n        /* \"#utility.yul\":13532:13558   */\n      swap2\n      pop\n        /* \"#utility.yul\":13454:13458   */\n      0x20\n        /* \"#utility.yul\":13451:13452   */\n      dup2\n        /* \"#utility.yul\":13447:13459   */\n      add\n        /* \"#utility.yul\":13442:13459   */\n      swap1\n      pop\n        /* \"#utility.yul\":13418:13572   */\n      jump(tag_299)\n    tag_301:\n        /* \"#utility.yul\":13601:13602   */\n      dup1\n        /* \"#utility.yul\":13596:13599   */\n      dup9\n        /* \"#utility.yul\":13592:13603   */\n      add\n        /* \"#utility.yul\":13585:13603   */\n      swap6\n      pop\n        /* \"#utility.yul\":13284:13613   */\n      pop\n      pop\n        /* \"#utility.yul\":13071:13613   */\n    tag_295:\n      pop\n        /* \"#utility.yul\":12877:13619   */\n      pop\n      pop\n        /* \"#utility.yul\":12788:13619   */\n      swap3\n      swap2\n      pop\n      pop\n      jump\t// out\n        /* \"#utility.yul\":13625:14042   */\n    tag_81:\n        /* \"#utility.yul\":13763:13767   */\n      0x00\n        /* \"#utility.yul\":13801:13803   */\n      0x40\n        /* \"#utility.yul\":13790:13799   */\n      dup3\n        /* \"#utility.yul\":13786:13804   */\n      add\n        /* \"#utility.yul\":13778:13804   */\n      swap1\n      pop\n        /* \"#utility.yul\":13850:13859   */\n      dup2\n        /* \"#utility.yul\":13844:13848   */\n      dup2\n        /* \"#utility.yul\":13840:13860   */\n      sub\n        /* \"#utility.yul\":13836:13837   */\n      0x00\n        /* \"#utility.yul\":13825:13834   */\n      dup4\n        /* \"#utility.yul\":13821:13838   */\n      add\n        /* \"#utility.yul\":13814:13861   */\n      mstore\n        /* \"#utility.yul\":13878:13953   */\n      tag_303\n        /* \"#utility.yul\":13948:13952   */\n      dup2\n        /* \"#utility.yul\":13939:13945   */\n      dup6\n        /* \"#utility.yul\":13878:13953   */\n      tag_145\n      jump\t// in\n    tag_303:\n        /* \"#utility.yul\":13870:13953   */\n      swap1\n      pop\n        /* \"#utility.yul\":13963:14035   */\n      tag_304\n        /* \"#utility.yul\":14031:14033   */\n      0x20\n        /* \"#utility.yul\":14020:14029   */\n      dup4\n        /* \"#utility.yul\":14016:14034   */\n      add\n        /* \"#utility.yul\":14007:14013   */\n      dup5\n        /* \"#utility.yul\":13963:14035   */\n      tag_116\n      jump\t// in\n    tag_304:\n        /* \"#utility.yul\":13625:14042   */\n      swap4\n      swap3\n      pop\n      pop\n      pop\n      jump\t// out\n\n    auxdata: 0xa264697066735822122097113ff342614d113aa03ea4b7e4c06fa60c0df87fc161e98ac8e0b0c3312d0264736f6c63430008220033\n}\n",
				"bytecode": {
					"linkReferences": {},
					"object": "60806040525f80549050600355610100600455348015601c575f5ffd5b50610f5b8061002a5f395ff3fe608060405234801561000f575f5ffd5b5060043610610091575f3560e01c80634ccc0c64116100645780634ccc0c6414610143578063906f46aa1461014d5780639974531814610169578063f35d03b214610199578063fa52c7d8146101a357610091565b806303f1d1941461009557806307391dd6146100c65780631c5220c2146100f6578063365b98b214610112575b5f5ffd5b6100af60048036038101906100aa9190610803565b6101d4565b6040516100bd9291906108b6565b60405180910390f35b6100e060048036038101906100db919061090e565b6102ce565b6040516100ed9190610939565b60405180910390f35b610110600480360381019061010b9190610a7e565b6102e0565b005b61012c6004803603810190610127919061090e565b610340565b60405161013a9291906108b6565b60405180910390f35b61014b6103f4565b005b61016760048036038101906101629190610ad8565b610543565b005b610183600480360381019061017e919061090e565b61061b565b6040516101909190610b53565b60405180910390f35b6101a1610656565b005b6101bd60048036038101906101b89190610803565b6106f2565b6040516101cb9291906108b6565b60405180910390f35b60605f5f60015f8573ffffffffffffffffffffffffffffffffffffffff1673ffffffffffffffffffffffffffffffffffffffff1681526020019081526020015f206040518060400160405290815f8201805461022f90610b99565b80601f016020809104026020016040519081016040528092919081815260200182805461025b90610b99565b80156102a65780601f1061027d576101008083540402835291602001916102a6565b820191905f5260205f20905b81548152906001019060200180831161028957829003601f168201915b505050505081526020016001820154815250509050805f015181602001519250925050915091565b5f816004819055506004549050919050565b5f604051806040016040528084815260200183815250908060018154018082558091505060019003905f5260205f2090600202015f909190919091505f820151815f01908161032f9190610d7a565b506020820151816001015550505050565b5f818154811061034e575f80fd5b905f5260205f2090600202015f91509050805f01805461036d90610b99565b80601f016020809104026020016040519081016040528092919081815260200182805461039990610b99565b80156103e45780601f106103bb576101008083540402835291602001916103e4565b820191905f5260205f20905b8154815290600101906020018083116103c757829003601f168201915b5050505050908060010154905082565b5f5f90505b600280549050811015610540577f8fd40d2776b50a211118b480c9bf278a55c60d9ea54dc8666a9fb323744c112160015f6002848154811061043e5761043d610e49565b5b905f5260205f20015f9054906101000a900473ffffffffffffffffffffffffffffffffffffffff1673ffffffffffffffffffffffffffffffffffffffff1673ffffffffffffffffffffffffffffffffffffffff1681526020019081526020015f205f0160015f600285815481106104b8576104b7610e49565b5b905f5260205f20015f9054906101000a900473ffffffffffffffffffffffffffffffffffffffff1673ffffffffffffffffffffffffffffffffffffffff1673ffffffffffffffffffffffffffffffffffffffff1681526020019081526020015f206001015460405161052b929190610ef7565b60405180910390a180806001019150506103f9565b50565b60405180604001604052808381526020018281525060015f8573ffffffffffffffffffffffffffffffffffffffff1673ffffffffffffffffffffffffffffffffffffffff1681526020019081526020015f205f820151815f0190816105a89190610d7a565b5060208201518160010155905050600283908060018154018082558091505060019003905f5260205f20015f9091909190916101000a81548173ffffffffffffffffffffffffffffffffffffffff021916908373ffffffffffffffffffffffffffffffffffffffff160217905550505050565b6002818154811061062a575f80fd5b905f5260205f20015f915054906101000a900473ffffffffffffffffffffffffffffffffffffffff1681565b5f5f90505b5f805490508110156106ef577fc0a21ab21926025efd867c8ee07294fe346113056d91864434bfcb66bd4b4d085f828154811061069b5761069a610e49565b5b905f5260205f2090600202015f015f83815481106106bc576106bb610e49565b5b905f5260205f209060020201600101546040516106da929190610ef7565b60405180910390a1808060010191505061065b565b50565b6001602052805f5260405f205f91509050805f01805461071190610b99565b80601f016020809104026020016040519081016040528092919081815260200182805461073d90610b99565b80156107885780601f1061075f57610100808354040283529160200191610788565b820191905f5260205f20905b81548152906001019060200180831161076b57829003601f168201915b5050505050908060010154905082565b5f604051905090565b5f5ffd5b5f5ffd5b5f73ffffffffffffffffffffffffffffffffffffffff82169050919050565b5f6107d2826107a9565b9050919050565b6107e2816107c8565b81146107ec575f5ffd5b50565b5f813590506107fd816107d9565b92915050565b5f60208284031215610818576108176107a1565b5b5f610825848285016107ef565b91505092915050565b5f81519050919050565b5f82825260208201905092915050565b8281835e5f83830152505050565b5f601f19601f8301169050919050565b5f6108708261082e565b61087a8185610838565b935061088a818560208601610848565b61089381610856565b840191505092915050565b5f819050919050565b6108b08161089e565b82525050565b5f6040820190508181035f8301526108ce8185610866565b90506108dd60208301846108a7565b9392505050565b6108ed8161089e565b81146108f7575f5ffd5b50565b5f81359050610908816108e4565b92915050565b5f60208284031215610923576109226107a1565b5b5f610930848285016108fa565b91505092915050565b5f60208201905061094c5f8301846108a7565b92915050565b5f5ffd5b5f5ffd5b7f4e487b71000000000000000000000000000000000000000000000000000000005f52604160045260245ffd5b61099082610856565b810181811067ffffffffffffffff821117156109af576109ae61095a565b5b80604052505050565b5f6109c1610798565b90506109cd8282610987565b919050565b5f67ffffffffffffffff8211156109ec576109eb61095a565b5b6109f582610856565b9050602081019050919050565b828183375f83830152505050565b5f610a22610a1d846109d2565b6109b8565b905082815260208101848484011115610a3e57610a3d610956565b5b610a49848285610a02565b509392505050565b5f82601f830112610a6557610a64610952565b5b8135610a75848260208601610a10565b91505092915050565b5f5f60408385031215610a9457610a936107a1565b5b5f83013567ffffffffffffffff811115610ab157610ab06107a5565b5b610abd85828601610a51565b9250506020610ace858286016108fa565b9150509250929050565b5f5f5f60608486031215610aef57610aee6107a1565b5b5f610afc868287016107ef565b935050602084013567ffffffffffffffff811115610b1d57610b1c6107a5565b5b610b2986828701610a51565b9250506040610b3a868287016108fa565b9150509250925092565b610b4d816107c8565b82525050565b5f602082019050610b665f830184610b44565b92915050565b7f4e487b71000000000000000000000000000000000000000000000000000000005f52602260045260245ffd5b5f6002820490506001821680610bb057607f821691505b602082108103610bc357610bc2610b6c565b5b50919050565b5f819050815f5260205f209050919050565b5f6020601f8301049050919050565b5f82821b905092915050565b5f60088302610c257fffffffffffffffffffffffffffffffffffffffffffffffffffffffffffffffff82610bea565b610c2f8683610bea565b95508019841693508086168417925050509392505050565b5f819050919050565b5f610c6a610c65610c608461089e565b610c47565b61089e565b9050919050565b5f819050919050565b610c8383610c50565b610c97610c8f82610c71565b848454610bf6565b825550505050565b5f5f905090565b610cae610c9f565b610cb9818484610c7a565b505050565b5f5b82811015610cdf57610cd45f828401610ca6565b600181019050610cc0565b505050565b601f821115610d325782821115610d3157610cfe81610bc9565b610d0783610bdb565b610d1085610bdb565b6020861015610d1d575f90505b808301610d2c82840382610cbe565b505050505b5b505050565b5f82821c905092915050565b5f610d525f1984600802610d37565b1980831691505092915050565b5f610d6a8383610d43565b9150826002028217905092915050565b610d838261082e565b67ffffffffffffffff811115610d9c57610d9b61095a565b5b610da68254610b99565b610db1828285610ce4565b5f60209050601f831160018114610de2575f8415610dd0578287015190505b610dda8582610d5f565b865550610e41565b601f198416610df086610bc9565b5f5b82811015610e1757848901518255600182019150602085019450602081019050610df2565b86831015610e345784890151610e30601f891682610d43565b8355505b6001600288020188555050505b505050505050565b7f4e487b71000000000000000000000000000000000000000000000000000000005f52603260045260245ffd5b5f8154610e8281610b99565b610e8c8186610838565b9450600182165f8114610ea65760018114610ebc57610eee565b60ff198316865281151560200286019350610eee565b610ec585610bc9565b5f5b83811015610ee657815481890152600182019150602081019050610ec7565b808801955050505b50505092915050565b5f6040820190508181035f830152610f0f8185610e76565b9050610f1e60208301846108a7565b939250505056fea264697066735822122097113ff342614d113aa03ea4b7e4c06fa60c0df87fc161e98ac8e0b0c3312d0264736f6c63430008220033",
					"opcodes": "PUSH1 0x80 PUSH1 0x40 MSTORE PUSH0 DUP1 SLOAD SWAP1 POP PUSH1 0x3 SSTORE PUSH2 0x100 PUSH1 0x4 SSTORE CALLVALUE DUP1 ISZERO PUSH1 0x1C JUMPI PUSH0 PUSH0 REVERT JUMPDEST POP PUSH2 0xF5B DUP1 PUSH2 0x2A PUSH0 CODECOPY PUSH0 RETURN INVALID PUSH1 0x80 PUSH1 0x40 MSTORE CALLVALUE DUP1 ISZERO PUSH2 0xF JUMPI PUSH0 PUSH0 REVERT JUMPDEST POP PUSH1 0x4 CALLDATASIZE LT PUSH2 0x91 JUMPI PUSH0 CALLDATALOAD PUSH1 0xE0 SHR DUP1 PUSH4 0x4CCC0C64 GT PUSH2 0x64 JUMPI DUP1 PUSH4 0x4CCC0C64 EQ PUSH2 0x143 JUMPI DUP1 PUSH4 0x906F46AA EQ PUSH2 0x14D JUMPI DUP1 PUSH4 0x99745318 EQ PUSH2 0x169 JUMPI DUP1 PUSH4 0xF35D03B2 EQ PUSH2 0x199 JUMPI DUP1 PUSH4 0xFA52C7D8 EQ PUSH2 0x1A3 JUMPI PUSH2 0x91 JUMP JUMPDEST DUP1 PUSH4 0x3F1D194 EQ PUSH2 0x95 JUMPI DUP1 PUSH4 0x7391DD6 EQ PUSH2 0xC6 JUMPI DUP1 PUSH4 0x1C5220C2 EQ PUSH2 0xF6 JUMPI DUP1 PUSH4 0x365B98B2 EQ PUSH2 0x112 JUMPI JUMPDEST PUSH0 PUSH0 REVERT JUMPDEST PUSH2 0xAF PUSH1 0x4 DUP1 CALLDATASIZE SUB DUP2 ADD SWAP1 PUSH2 0xAA SWAP2 SWAP1 PUSH2 0x803 JUMP JUMPDEST PUSH2 0x1D4 JUMP JUMPDEST PUSH1 0x40 MLOAD PUSH2 0xBD SWAP3 SWAP2 SWAP1 PUSH2 0x8B6 JUMP JUMPDEST PUSH1 0x40 MLOAD DUP1 SWAP2 SUB SWAP1 RETURN JUMPDEST PUSH2 0xE0 PUSH1 0x4 DUP1 CALLDATASIZE SUB DUP2 ADD SWAP1 PUSH2 0xDB SWAP2 SWAP1 PUSH2 0x90E JUMP JUMPDEST PUSH2 0x2CE JUMP JUMPDEST PUSH1 0x40 MLOAD PUSH2 0xED SWAP2 SWAP1 PUSH2 0x939 JUMP JUMPDEST PUSH1 0x40 MLOAD DUP1 SWAP2 SUB SWAP1 RETURN JUMPDEST PUSH2 0x110 PUSH1 0x4 DUP1 CALLDATASIZE SUB DUP2 ADD SWAP1 PUSH2 0x10B SWAP2 SWAP1 PUSH2 0xA7E JUMP JUMPDEST PUSH2 0x2E0 JUMP JUMPDEST STOP JUMPDEST PUSH2 0x12C PUSH1 0x4 DUP1 CALLDATASIZE SUB DUP2 ADD SWAP1 PUSH2 0x127 SWAP2 SWAP1 PUSH2 0x90E JUMP JUMPDEST PUSH2 0x340 JUMP JUMPDEST PUSH1 0x40 MLOAD PUSH2 0x13A SWAP3 SWAP2 SWAP1 PUSH2 0x8B6 JUMP JUMPDEST PUSH1 0x40 MLOAD DUP1 SWAP2 SUB SWAP1 RETURN JUMPDEST PUSH2 0x14B PUSH2 0x3F4 JUMP JUMPDEST STOP JUMPDEST PUSH2 0x167 PUSH1 0x4 DUP1 CALLDATASIZE SUB DUP2 ADD SWAP1 PUSH2 0x162 SWAP2 SWAP1 PUSH2 0xAD8 JUMP JUMPDEST PUSH2 0x543 JUMP JUMPDEST STOP JUMPDEST PUSH2 0x183 PUSH1 0x4 DUP1 CALLDATASIZE SUB DUP2 ADD SWAP1 PUSH2 0x17E SWAP2 SWAP1 PUSH2 0x90E JUMP JUMPDEST PUSH2 0x61B JUMP JUMPDEST PUSH1 0x40 MLOAD PUSH2 0x190 SWAP2 SWAP1 PUSH2 0xB53 JUMP JUMPDEST PUSH1 0x40 MLOAD DUP1 SWAP2 SUB SWAP1 RETURN JUMPDEST PUSH2 0x1A1 PUSH2 0x656 JUMP JUMPDEST STOP JUMPDEST PUSH2 0x1BD PUSH1 0x4 DUP1 CALLDATASIZE SUB DUP2 ADD SWAP1 PUSH2 0x1B8 SWAP2 SWAP1 PUSH2 0x803 JUMP JUMPDEST PUSH2 0x6F2 JUMP JUMPDEST PUSH1 0x40 MLOAD PUSH2 0x1CB SWAP3 SWAP2 SWAP1 PUSH2 0x8B6 JUMP JUMPDEST PUSH1 0x40 MLOAD DUP1 SWAP2 SUB SWAP1 RETURN JUMPDEST PUSH1 0x60 PUSH0 PUSH0 PUSH1 0x1 PUSH0 DUP6 PUSH20 0xFFFFFFFFFFFFFFFFFFFFFFFFFFFFFFFFFFFFFFFF AND PUSH20 0xFFFFFFFFFFFFFFFFFFFFFFFFFFFFFFFFFFFFFFFF AND DUP2 MSTORE PUSH1 0x20 ADD SWAP1 DUP2 MSTORE PUSH1 0x20 ADD PUSH0 KECCAK256 PUSH1 0x40 MLOAD DUP1 PUSH1 0x40 ADD PUSH1 0x40 MSTORE SWAP1 DUP2 PUSH0 DUP3 ADD DUP1 SLOAD PUSH2 0x22F SWAP1 PUSH2 0xB99 JUMP JUMPDEST DUP1 PUSH1 0x1F ADD PUSH1 0x20 DUP1 SWAP2 DIV MUL PUSH1 0x20 ADD PUSH1 0x40 MLOAD SWAP1 DUP2 ADD PUSH1 0x40 MSTORE DUP1 SWAP3 SWAP2 SWAP1 DUP2 DUP2 MSTORE PUSH1 0x20 ADD DUP3 DUP1 SLOAD PUSH2 0x25B SWAP1 PUSH2 0xB99 JUMP JUMPDEST DUP1 ISZERO PUSH2 0x2A6 JUMPI DUP1 PUSH1 0x1F LT PUSH2 0x27D JUMPI PUSH2 0x100 DUP1 DUP4 SLOAD DIV MUL DUP4 MSTORE SWAP2 PUSH1 0x20 ADD SWAP2 PUSH2 0x2A6 JUMP JUMPDEST DUP3 ADD SWAP2 SWAP1 PUSH0 MSTORE PUSH1 0x20 PUSH0 KECCAK256 SWAP1 JUMPDEST DUP2 SLOAD DUP2 MSTORE SWAP1 PUSH1 0x1 ADD SWAP1 PUSH1 0x20 ADD DUP1 DUP4 GT PUSH2 0x289 JUMPI DUP3 SWAP1 SUB PUSH1 0x1F AND DUP3 ADD SWAP2 JUMPDEST POP POP POP POP POP DUP2 MSTORE PUSH1 0x20 ADD PUSH1 0x1 DUP3 ADD SLOAD DUP2 MSTORE POP POP SWAP1 POP DUP1 PUSH0 ADD MLOAD DUP2 PUSH1 0x20 ADD MLOAD SWAP3 POP SWAP3 POP POP SWAP2 POP SWAP2 JUMP JUMPDEST PUSH0 DUP2 PUSH1 0x4 DUP2 SWAP1 SSTORE POP PUSH1 0x4 SLOAD SWAP1 POP SWAP2 SWAP1 POP JUMP JUMPDEST PUSH0 PUSH1 0x40 MLOAD DUP1 PUSH1 0x40 ADD PUSH1 0x40 MSTORE DUP1 DUP5 DUP2 MSTORE PUSH1 0x20 ADD DUP4 DUP2 MSTORE POP SWAP1 DUP1 PUSH1 0x1 DUP2 SLOAD ADD DUP1 DUP3 SSTORE DUP1 SWAP2 POP POP PUSH1 0x1 SWAP1 SUB SWAP1 PUSH0 MSTORE PUSH1 0x20 PUSH0 KECCAK256 SWAP1 PUSH1 0x2 MUL ADD PUSH0 SWAP1 SWAP2 SWAP1 SWAP2 SWAP1 SWAP2 POP PUSH0 DUP3 ADD MLOAD DUP2 PUSH0 ADD SWAP1 DUP2 PUSH2 0x32F SWAP2 SWAP1 PUSH2 0xD7A JUMP JUMPDEST POP PUSH1 0x20 DUP3 ADD MLOAD DUP2 PUSH1 0x1 ADD SSTORE POP POP POP POP JUMP JUMPDEST PUSH0 DUP2 DUP2 SLOAD DUP2 LT PUSH2 0x34E JUMPI PUSH0 DUP1 REVERT JUMPDEST SWAP1 PUSH0 MSTORE PUSH1 0x20 PUSH0 KECCAK256 SWAP1 PUSH1 0x2 MUL ADD PUSH0 SWAP2 POP SWAP1 POP DUP1 PUSH0 ADD DUP1 SLOAD PUSH2 0x36D SWAP1 PUSH2 0xB99 JUMP JUMPDEST DUP1 PUSH1 0x1F ADD PUSH1 0x20 DUP1 SWAP2 DIV MUL PUSH1 0x20 ADD PUSH1 0x40 MLOAD SWAP1 DUP2 ADD PUSH1 0x40 MSTORE DUP1 SWAP3 SWAP2 SWAP1 DUP2 DUP2 MSTORE PUSH1 0x20 ADD DUP3 DUP1 SLOAD PUSH2 0x399 SWAP1 PUSH2 0xB99 JUMP JUMPDEST DUP1 ISZERO PUSH2 0x3E4 JUMPI DUP1 PUSH1 0x1F LT PUSH2 0x3BB JUMPI PUSH2 0x100 DUP1 DUP4 SLOAD DIV MUL DUP4 MSTORE SWAP2 PUSH1 0x20 ADD SWAP2 PUSH2 0x3E4 JUMP JUMPDEST DUP3 ADD SWAP2 SWAP1 PUSH0 MSTORE PUSH1 0x20 PUSH0 KECCAK256 SWAP1 JUMPDEST DUP2 SLOAD DUP2 MSTORE SWAP1 PUSH1 0x1 ADD SWAP1 PUSH1 0x20 ADD DUP1 DUP4 GT PUSH2 0x3C7 JUMPI DUP3 SWAP1 SUB PUSH1 0x1F AND DUP3 ADD SWAP2 JUMPDEST POP POP POP POP POP SWAP1 DUP1 PUSH1 0x1 ADD SLOAD SWAP1 POP DUP3 JUMP JUMPDEST PUSH0 PUSH0 SWAP1 POP JUMPDEST PUSH1 0x2 DUP1 SLOAD SWAP1 POP DUP2 LT ISZERO PUSH2 0x540 JUMPI PUSH32 0x8FD40D2776B50A211118B480C9BF278A55C60D9EA54DC8666A9FB323744C1121 PUSH1 0x1 PUSH0 PUSH1 0x2 DUP5 DUP2 SLOAD DUP2 LT PUSH2 0x43E JUMPI PUSH2 0x43D PUSH2 0xE49 JUMP JUMPDEST JUMPDEST SWAP1 PUSH0 MSTORE PUSH1 0x20 PUSH0 KECCAK256 ADD PUSH0 SWAP1 SLOAD SWAP1 PUSH2 0x100 EXP SWAP1 DIV PUSH20 0xFFFFFFFFFFFFFFFFFFFFFFFFFFFFFFFFFFFFFFFF AND PUSH20 0xFFFFFFFFFFFFFFFFFFFFFFFFFFFFFFFFFFFFFFFF AND PUSH20 0xFFFFFFFFFFFFFFFFFFFFFFFFFFFFFFFFFFFFFFFF AND DUP2 MSTORE PUSH1 0x20 ADD SWAP1 DUP2 MSTORE PUSH1 0x20 ADD PUSH0 KECCAK256 PUSH0 ADD PUSH1 0x1 PUSH0 PUSH1 0x2 DUP6 DUP2 SLOAD DUP2 LT PUSH2 0x4B8 JUMPI PUSH2 0x4B7 PUSH2 0xE49 JUMP JUMPDEST JUMPDEST SWAP1 PUSH0 MSTORE PUSH1 0x20 PUSH0 KECCAK256 ADD PUSH0 SWAP1 SLOAD SWAP1 PUSH2 0x100 EXP SWAP1 DIV PUSH20 0xFFFFFFFFFFFFFFFFFFFFFFFFFFFFFFFFFFFFFFFF AND PUSH20 0xFFFFFFFFFFFFFFFFFFFFFFFFFFFFFFFFFFFFFFFF AND PUSH20 0xFFFFFFFFFFFFFFFFFFFFFFFFFFFFFFFFFFFFFFFF AND DUP2 MSTORE PUSH1 0x20 ADD SWAP1 DUP2 MSTORE PUSH1 0x20 ADD PUSH0 KECCAK256 PUSH1 0x1 ADD SLOAD PUSH1 0x40 MLOAD PUSH2 0x52B SWAP3 SWAP2 SWAP1 PUSH2 0xEF7 JUMP JUMPDEST PUSH1 0x40 MLOAD DUP1 SWAP2 SUB SWAP1 LOG1 DUP1 DUP1 PUSH1 0x1 ADD SWAP2 POP POP PUSH2 0x3F9 JUMP JUMPDEST POP JUMP JUMPDEST PUSH1 0x40 MLOAD DUP1 PUSH1 0x40 ADD PUSH1 0x40 MSTORE DUP1 DUP4 DUP2 MSTORE PUSH1 0x20 ADD DUP3 DUP2 MSTORE POP PUSH1 0x1 PUSH0 DUP6 PUSH20 0xFFFFFFFFFFFFFFFFFFFFFFFFFFFFFFFFFFFFFFFF AND PUSH20 0xFFFFFFFFFFFFFFFFFFFFFFFFFFFFFFFFFFFFFFFF AND DUP2 MSTORE PUSH1 0x20 ADD SWAP1 DUP2 MSTORE PUSH1 0x20 ADD PUSH0 KECCAK256 PUSH0 DUP3 ADD MLOAD DUP2 PUSH0 ADD SWAP1 DUP2 PUSH2 0x5A8 SWAP2 SWAP1 PUSH2 0xD7A JUMP JUMPDEST POP PUSH1 0x20 DUP3 ADD MLOAD DUP2 PUSH1 0x1 ADD SSTORE SWAP1 POP POP PUSH1 0x2 DUP4 SWAP1 DUP1 PUSH1 0x1 DUP2 SLOAD ADD DUP1 DUP3 SSTORE DUP1 SWAP2 POP POP PUSH1 0x1 SWAP1 SUB SWAP1 PUSH0 MSTORE PUSH1 0x20 PUSH0 KECCAK256 ADD PUSH0 SWAP1 SWAP2 SWAP1 SWAP2 SWAP1 SWAP2 PUSH2 0x100 EXP DUP2 SLOAD DUP2 PUSH20 0xFFFFFFFFFFFFFFFFFFFFFFFFFFFFFFFFFFFFFFFF MUL NOT AND SWAP1 DUP4 PUSH20 0xFFFFFFFFFFFFFFFFFFFFFFFFFFFFFFFFFFFFFFFF AND MUL OR SWAP1 SSTORE POP POP POP POP JUMP JUMPDEST PUSH1 0x2 DUP2 DUP2 SLOAD DUP2 LT PUSH2 0x62A JUMPI PUSH0 DUP1 REVERT JUMPDEST SWAP1 PUSH0 MSTORE PUSH1 0x20 PUSH0 KECCAK256 ADD PUSH0 SWAP2 POP SLOAD SWAP1 PUSH2 0x100 EXP SWAP1 DIV PUSH20 0xFFFFFFFFFFFFFFFFFFFFFFFFFFFFFFFFFFFFFFFF AND DUP2 JUMP JUMPDEST PUSH0 PUSH0 SWAP1 POP JUMPDEST PUSH0 DUP1 SLOAD SWAP1 POP DUP2 LT ISZERO PUSH2 0x6EF JUMPI PUSH32 0xC0A21AB21926025EFD867C8EE07294FE346113056D91864434BFCB66BD4B4D08 PUSH0 DUP3 DUP2 SLOAD DUP2 LT PUSH2 0x69B JUMPI PUSH2 0x69A PUSH2 0xE49 JUMP JUMPDEST JUMPDEST SWAP1 PUSH0 MSTORE PUSH1 0x20 PUSH0 KECCAK256 SWAP1 PUSH1 0x2 MUL ADD PUSH0 ADD PUSH0 DUP4 DUP2 SLOAD DUP2 LT PUSH2 0x6BC JUMPI PUSH2 0x6BB PUSH2 0xE49 JUMP JUMPDEST JUMPDEST SWAP1 PUSH0 MSTORE PUSH1 0x20 PUSH0 KECCAK256 SWAP1 PUSH1 0x2 MUL ADD PUSH1 0x1 ADD SLOAD PUSH1 0x40 MLOAD PUSH2 0x6DA SWAP3 SWAP2 SWAP1 PUSH2 0xEF7 JUMP JUMPDEST PUSH1 0x40 MLOAD DUP1 SWAP2 SUB SWAP1 LOG1 DUP1 DUP1 PUSH1 0x1 ADD SWAP2 POP POP PUSH2 0x65B JUMP JUMPDEST POP JUMP JUMPDEST PUSH1 0x1 PUSH1 0x20 MSTORE DUP1 PUSH0 MSTORE PUSH1 0x40 PUSH0 KECCAK256 PUSH0 SWAP2 POP SWAP1 POP DUP1 PUSH0 ADD DUP1 SLOAD PUSH2 0x711 SWAP1 PUSH2 0xB99 JUMP JUMPDEST DUP1 PUSH1 0x1F ADD PUSH1 0x20 DUP1 SWAP2 DIV MUL PUSH1 0x20 ADD PUSH1 0x40 MLOAD SWAP1 DUP2 ADD PUSH1 0x40 MSTORE DUP1 SWAP3 SWAP2 SWAP1 DUP2 DUP2 MSTORE PUSH1 0x20 ADD DUP3 DUP1 SLOAD PUSH2 0x73D SWAP1 PUSH2 0xB99 JUMP JUMPDEST DUP1 ISZERO PUSH2 0x788 JUMPI DUP1 PUSH1 0x1F LT PUSH2 0x75F JUMPI PUSH2 0x100 DUP1 DUP4 SLOAD DIV MUL DUP4 MSTORE SWAP2 PUSH1 0x20 ADD SWAP2 PUSH2 0x788 JUMP JUMPDEST DUP3 ADD SWAP2 SWAP1 PUSH0 MSTORE PUSH1 0x20 PUSH0 KECCAK256 SWAP1 JUMPDEST DUP2 SLOAD DUP2 MSTORE SWAP1 PUSH1 0x1 ADD SWAP1 PUSH1 0x20 ADD DUP1 DUP4 GT PUSH2 0x76B JUMPI DUP3 SWAP1 SUB PUSH1 0x1F AND DUP3 ADD SWAP2 JUMPDEST POP POP POP POP POP SWAP1 DUP1 PUSH1 0x1 ADD SLOAD SWAP1 POP DUP3 JUMP JUMPDEST PUSH0 PUSH1 0x40 MLOAD SWAP1 POP SWAP1 JUMP JUMPDEST PUSH0 PUSH0 REVERT JUMPDEST PUSH0 PUSH0 REVERT JUMPDEST PUSH0 PUSH20 0xFFFFFFFFFFFFFFFFFFFFFFFFFFFFFFFFFFFFFFFF DUP3 AND SWAP1 POP SWAP2 SWAP1 POP JUMP JUMPDEST PUSH0 PUSH2 0x7D2 DUP3 PUSH2 0x7A9 JUMP JUMPDEST SWAP1 POP SWAP2 SWAP1 POP JUMP JUMPDEST PUSH2 0x7E2 DUP2 PUSH2 0x7C8 JUMP JUMPDEST DUP2 EQ PUSH2 0x7EC JUMPI PUSH0 PUSH0 REVERT JUMPDEST POP JUMP JUMPDEST PUSH0 DUP2 CALLDATALOAD SWAP1 POP PUSH2 0x7FD DUP2 PUSH2 0x7D9 JUMP JUMPDEST SWAP3 SWAP2 POP POP JUMP JUMPDEST PUSH0 PUSH1 0x20 DUP3 DUP5 SUB SLT ISZERO PUSH2 0x818 JUMPI PUSH2 0x817 PUSH2 0x7A1 JUMP JUMPDEST JUMPDEST PUSH0 PUSH2 0x825 DUP5 DUP3 DUP6 ADD PUSH2 0x7EF JUMP JUMPDEST SWAP2 POP POP SWAP3 SWAP2 POP POP JUMP JUMPDEST PUSH0 DUP2 MLOAD SWAP1 POP SWAP2 SWAP1 POP JUMP JUMPDEST PUSH0 DUP3 DUP3 MSTORE PUSH1 0x20 DUP3 ADD SWAP1 POP SWAP3 SWAP2 POP POP JUMP JUMPDEST DUP3 DUP2 DUP4 MCOPY PUSH0 DUP4 DUP4 ADD MSTORE POP POP POP JUMP JUMPDEST PUSH0 PUSH1 0x1F NOT PUSH1 0x1F DUP4 ADD AND SWAP1 POP SWAP2 SWAP1 POP JUMP JUMPDEST PUSH0 PUSH2 0x870 DUP3 PUSH2 0x82E JUMP JUMPDEST PUSH2 0x87A DUP2 DUP6 PUSH2 0x838 JUMP JUMPDEST SWAP4 POP PUSH2 0x88A DUP2 DUP6 PUSH1 0x20 DUP7 ADD PUSH2 0x848 JUMP JUMPDEST PUSH2 0x893 DUP2 PUSH2 0x856 JUMP JUMPDEST DUP5 ADD SWAP2 POP POP SWAP3 SWAP2 POP POP JUMP JUMPDEST PUSH0 DUP2 SWAP1 POP SWAP2 SWAP1 POP JUMP JUMPDEST PUSH2 0x8B0 DUP2 PUSH2 0x89E JUMP JUMPDEST DUP3 MSTORE POP POP JUMP JUMPDEST PUSH0 PUSH1 0x40 DUP3 ADD SWAP1 POP DUP2 DUP2 SUB PUSH0 DUP4 ADD MSTORE PUSH2 0x8CE DUP2 DUP6 PUSH2 0x866 JUMP JUMPDEST SWAP1 POP PUSH2 0x8DD PUSH1 0x20 DUP4 ADD DUP5 PUSH2 0x8A7 JUMP JUMPDEST SWAP4 SWAP3 POP POP POP JUMP JUMPDEST PUSH2 0x8ED DUP2 PUSH2 0x89E JUMP JUMPDEST DUP2 EQ PUSH2 0x8F7 JUMPI PUSH0 PUSH0 REVERT JUMPDEST POP JUMP JUMPDEST PUSH0 DUP2 CALLDATALOAD SWAP1 POP PUSH2 0x908 DUP2 PUSH2 0x8E4 JUMP JUMPDEST SWAP3 SWAP2 POP POP JUMP JUMPDEST PUSH0 PUSH1 0x20 DUP3 DUP5 SUB SLT ISZERO PUSH2 0x923 JUMPI PUSH2 0x922 PUSH2 0x7A1 JUMP JUMPDEST JUMPDEST PUSH0 PUSH2 0x930 DUP5 DUP3 DUP6 ADD PUSH2 0x8FA JUMP JUMPDEST SWAP2 POP POP SWAP3 SWAP2 POP POP JUMP JUMPDEST PUSH0 PUSH1 0x20 DUP3 ADD SWAP1 POP PUSH2 0x94C PUSH0 DUP4 ADD DUP5 PUSH2 0x8A7 JUMP JUMPDEST SWAP3 SWAP2 POP POP JUMP JUMPDEST PUSH0 PUSH0 REVERT JUMPDEST PUSH0 PUSH0 REVERT JUMPDEST PUSH32 0x4E487B7100000000000000000000000000000000000000000000000000000000 PUSH0 MSTORE PUSH1 0x41 PUSH1 0x4 MSTORE PUSH1 0x24 PUSH0 REVERT JUMPDEST PUSH2 0x990 DUP3 PUSH2 0x856 JUMP JUMPDEST DUP2 ADD DUP2 DUP2 LT PUSH8 0xFFFFFFFFFFFFFFFF DUP3 GT OR ISZERO PUSH2 0x9AF JUMPI PUSH2 0x9AE PUSH2 0x95A JUMP JUMPDEST JUMPDEST DUP1 PUSH1 0x40 MSTORE POP POP POP JUMP JUMPDEST PUSH0 PUSH2 0x9C1 PUSH2 0x798 JUMP JUMPDEST SWAP1 POP PUSH2 0x9CD DUP3 DUP3 PUSH2 0x987 JUMP JUMPDEST SWAP2 SWAP1 POP JUMP JUMPDEST PUSH0 PUSH8 0xFFFFFFFFFFFFFFFF DUP3 GT ISZERO PUSH2 0x9EC JUMPI PUSH2 0x9EB PUSH2 0x95A JUMP JUMPDEST JUMPDEST PUSH2 0x9F5 DUP3 PUSH2 0x856 JUMP JUMPDEST SWAP1 POP PUSH1 0x20 DUP2 ADD SWAP1 POP SWAP2 SWAP1 POP JUMP JUMPDEST DUP3 DUP2 DUP4 CALLDATACOPY PUSH0 DUP4 DUP4 ADD MSTORE POP POP POP JUMP JUMPDEST PUSH0 PUSH2 0xA22 PUSH2 0xA1D DUP5 PUSH2 0x9D2 JUMP JUMPDEST PUSH2 0x9B8 JUMP JUMPDEST SWAP1 POP DUP3 DUP2 MSTORE PUSH1 0x20 DUP2 ADD DUP5 DUP5 DUP5 ADD GT ISZERO PUSH2 0xA3E JUMPI PUSH2 0xA3D PUSH2 0x956 JUMP JUMPDEST JUMPDEST PUSH2 0xA49 DUP5 DUP3 DUP6 PUSH2 0xA02 JUMP JUMPDEST POP SWAP4 SWAP3 POP POP POP JUMP JUMPDEST PUSH0 DUP3 PUSH1 0x1F DUP4 ADD SLT PUSH2 0xA65 JUMPI PUSH2 0xA64 PUSH2 0x952 JUMP JUMPDEST JUMPDEST DUP2 CALLDATALOAD PUSH2 0xA75 DUP5 DUP3 PUSH1 0x20 DUP7 ADD PUSH2 0xA10 JUMP JUMPDEST SWAP2 POP POP SWAP3 SWAP2 POP POP JUMP JUMPDEST PUSH0 PUSH0 PUSH1 0x40 DUP4 DUP6 SUB SLT ISZERO PUSH2 0xA94 JUMPI PUSH2 0xA93 PUSH2 0x7A1 JUMP JUMPDEST JUMPDEST PUSH0 DUP4 ADD CALLDATALOAD PUSH8 0xFFFFFFFFFFFFFFFF DUP2 GT ISZERO PUSH2 0xAB1 JUMPI PUSH2 0xAB0 PUSH2 0x7A5 JUMP JUMPDEST JUMPDEST PUSH2 0xABD DUP6 DUP3 DUP7 ADD PUSH2 0xA51 JUMP JUMPDEST SWAP3 POP POP PUSH1 0x20 PUSH2 0xACE DUP6 DUP3 DUP7 ADD PUSH2 0x8FA JUMP JUMPDEST SWAP2 POP POP SWAP3 POP SWAP3 SWAP1 POP JUMP JUMPDEST PUSH0 PUSH0 PUSH0 PUSH1 0x60 DUP5 DUP7 SUB SLT ISZERO PUSH2 0xAEF JUMPI PUSH2 0xAEE PUSH2 0x7A1 JUMP JUMPDEST JUMPDEST PUSH0 PUSH2 0xAFC DUP7 DUP3 DUP8 ADD PUSH2 0x7EF JUMP JUMPDEST SWAP4 POP POP PUSH1 0x20 DUP5 ADD CALLDATALOAD PUSH8 0xFFFFFFFFFFFFFFFF DUP2 GT ISZERO PUSH2 0xB1D JUMPI PUSH2 0xB1C PUSH2 0x7A5 JUMP JUMPDEST JUMPDEST PUSH2 0xB29 DUP7 DUP3 DUP8 ADD PUSH2 0xA51 JUMP JUMPDEST SWAP3 POP POP PUSH1 0x40 PUSH2 0xB3A DUP7 DUP3 DUP8 ADD PUSH2 0x8FA JUMP JUMPDEST SWAP2 POP POP SWAP3 POP SWAP3 POP SWAP3 JUMP JUMPDEST PUSH2 0xB4D DUP2 PUSH2 0x7C8 JUMP JUMPDEST DUP3 MSTORE POP POP JUMP JUMPDEST PUSH0 PUSH1 0x20 DUP3 ADD SWAP1 POP PUSH2 0xB66 PUSH0 DUP4 ADD DUP5 PUSH2 0xB44 JUMP JUMPDEST SWAP3 SWAP2 POP POP JUMP JUMPDEST PUSH32 0x4E487B7100000000000000000000000000000000000000000000000000000000 PUSH0 MSTORE PUSH1 0x22 PUSH1 0x4 MSTORE PUSH1 0x24 PUSH0 REVERT JUMPDEST PUSH0 PUSH1 0x2 DUP3 DIV SWAP1 POP PUSH1 0x1 DUP3 AND DUP1 PUSH2 0xBB0 JUMPI PUSH1 0x7F DUP3 AND SWAP2 POP JUMPDEST PUSH1 0x20 DUP3 LT DUP2 SUB PUSH2 0xBC3 JUMPI PUSH2 0xBC2 PUSH2 0xB6C JUMP JUMPDEST JUMPDEST POP SWAP2 SWAP1 POP JUMP JUMPDEST PUSH0 DUP2 SWAP1 POP DUP2 PUSH0 MSTORE PUSH1 0x20 PUSH0 KECCAK256 SWAP1 POP SWAP2 SWAP1 POP JUMP JUMPDEST PUSH0 PUSH1 0x20 PUSH1 0x1F DUP4 ADD DIV SWAP1 POP SWAP2 SWAP1 POP JUMP JUMPDEST PUSH0 DUP3 DUP3 SHL SWAP1 POP SWAP3 SWAP2 POP POP JUMP JUMPDEST PUSH0 PUSH1 0x8 DUP4 MUL PUSH2 0xC25 PUSH32 0xFFFFFFFFFFFFFFFFFFFFFFFFFFFFFFFFFFFFFFFFFFFFFFFFFFFFFFFFFFFFFFFF DUP3 PUSH2 0xBEA JUMP JUMPDEST PUSH2 0xC2F DUP7 DUP4 PUSH2 0xBEA JUMP JUMPDEST SWAP6 POP DUP1 NOT DUP5 AND SWAP4 POP DUP1 DUP7 AND DUP5 OR SWAP3 POP POP POP SWAP4 SWAP3 POP POP POP JUMP JUMPDEST PUSH0 DUP2 SWAP1 POP SWAP2 SWAP1 POP JUMP JUMPDEST PUSH0 PUSH2 0xC6A PUSH2 0xC65 PUSH2 0xC60 DUP5 PUSH2 0x89E JUMP JUMPDEST PUSH2 0xC47 JUMP JUMPDEST PUSH2 0x89E JUMP JUMPDEST SWAP1 POP SWAP2 SWAP1 POP JUMP JUMPDEST PUSH0 DUP2 SWAP1 POP SWAP2 SWAP1 POP JUMP JUMPDEST PUSH2 0xC83 DUP4 PUSH2 0xC50 JUMP JUMPDEST PUSH2 0xC97 PUSH2 0xC8F DUP3 PUSH2 0xC71 JUMP JUMPDEST DUP5 DUP5 SLOAD PUSH2 0xBF6 JUMP JUMPDEST DUP3 SSTORE POP POP POP POP JUMP JUMPDEST PUSH0 PUSH0 SWAP1 POP SWAP1 JUMP JUMPDEST PUSH2 0xCAE PUSH2 0xC9F JUMP JUMPDEST PUSH2 0xCB9 DUP2 DUP5 DUP5 PUSH2 0xC7A JUMP JUMPDEST POP POP POP JUMP JUMPDEST PUSH0 JUMPDEST DUP3 DUP2 LT ISZERO PUSH2 0xCDF JUMPI PUSH2 0xCD4 PUSH0 DUP3 DUP5 ADD PUSH2 0xCA6 JUMP JUMPDEST PUSH1 0x1 DUP2 ADD SWAP1 POP PUSH2 0xCC0 JUMP JUMPDEST POP POP POP JUMP JUMPDEST PUSH1 0x1F DUP3 GT ISZERO PUSH2 0xD32 JUMPI DUP3 DUP3 GT ISZERO PUSH2 0xD31 JUMPI PUSH2 0xCFE DUP2 PUSH2 0xBC9 JUMP JUMPDEST PUSH2 0xD07 DUP4 PUSH2 0xBDB JUMP JUMPDEST PUSH2 0xD10 DUP6 PUSH2 0xBDB JUMP JUMPDEST PUSH1 0x20 DUP7 LT ISZERO PUSH2 0xD1D JUMPI PUSH0 SWAP1 POP JUMPDEST DUP1 DUP4 ADD PUSH2 0xD2C DUP3 DUP5 SUB DUP3 PUSH2 0xCBE JUMP JUMPDEST POP POP POP POP JUMPDEST JUMPDEST POP POP POP JUMP JUMPDEST PUSH0 DUP3 DUP3 SHR SWAP1 POP SWAP3 SWAP2 POP POP JUMP JUMPDEST PUSH0 PUSH2 0xD52 PUSH0 NOT DUP5 PUSH1 0x8 MUL PUSH2 0xD37 JUMP JUMPDEST NOT DUP1 DUP4 AND SWAP2 POP POP SWAP3 SWAP2 POP POP JUMP JUMPDEST PUSH0 PUSH2 0xD6A DUP4 DUP4 PUSH2 0xD43 JUMP JUMPDEST SWAP2 POP DUP3 PUSH1 0x2 MUL DUP3 OR SWAP1 POP SWAP3 SWAP2 POP POP JUMP JUMPDEST PUSH2 0xD83 DUP3 PUSH2 0x82E JUMP JUMPDEST PUSH8 0xFFFFFFFFFFFFFFFF DUP2 GT ISZERO PUSH2 0xD9C JUMPI PUSH2 0xD9B PUSH2 0x95A JUMP JUMPDEST JUMPDEST PUSH2 0xDA6 DUP3 SLOAD PUSH2 0xB99 JUMP JUMPDEST PUSH2 0xDB1 DUP3 DUP3 DUP6 PUSH2 0xCE4 JUMP JUMPDEST PUSH0 PUSH1 0x20 SWAP1 POP PUSH1 0x1F DUP4 GT PUSH1 0x1 DUP2 EQ PUSH2 0xDE2 JUMPI PUSH0 DUP5 ISZERO PUSH2 0xDD0 JUMPI DUP3 DUP8 ADD MLOAD SWAP1 POP JUMPDEST PUSH2 0xDDA DUP6 DUP3 PUSH2 0xD5F JUMP JUMPDEST DUP7 SSTORE POP PUSH2 0xE41 JUMP JUMPDEST PUSH1 0x1F NOT DUP5 AND PUSH2 0xDF0 DUP7 PUSH2 0xBC9 JUMP JUMPDEST PUSH0 JUMPDEST DUP3 DUP2 LT ISZERO PUSH2 0xE17 JUMPI DUP5 DUP10 ADD MLOAD DUP3 SSTORE PUSH1 0x1 DUP3 ADD SWAP2 POP PUSH1 0x20 DUP6 ADD SWAP5 POP PUSH1 0x20 DUP2 ADD SWAP1 POP PUSH2 0xDF2 JUMP JUMPDEST DUP7 DUP4 LT ISZERO PUSH2 0xE34 JUMPI DUP5 DUP10 ADD MLOAD PUSH2 0xE30 PUSH1 0x1F DUP10 AND DUP3 PUSH2 0xD43 JUMP JUMPDEST DUP4 SSTORE POP JUMPDEST PUSH1 0x1 PUSH1 0x2 DUP9 MUL ADD DUP9 SSTORE POP POP POP JUMPDEST POP POP POP POP POP POP JUMP JUMPDEST PUSH32 0x4E487B7100000000000000000000000000000000000000000000000000000000 PUSH0 MSTORE PUSH1 0x32 PUSH1 0x4 MSTORE PUSH1 0x24 PUSH0 REVERT JUMPDEST PUSH0 DUP2 SLOAD PUSH2 0xE82 DUP2 PUSH2 0xB99 JUMP JUMPDEST PUSH2 0xE8C DUP2 DUP7 PUSH2 0x838 JUMP JUMPDEST SWAP5 POP PUSH1 0x1 DUP3 AND PUSH0 DUP2 EQ PUSH2 0xEA6 JUMPI PUSH1 0x1 DUP2 EQ PUSH2 0xEBC JUMPI PUSH2 0xEEE JUMP JUMPDEST PUSH1 0xFF NOT DUP4 AND DUP7 MSTORE DUP2 ISZERO ISZERO PUSH1 0x20 MUL DUP7 ADD SWAP4 POP PUSH2 0xEEE JUMP JUMPDEST PUSH2 0xEC5 DUP6 PUSH2 0xBC9 JUMP JUMPDEST PUSH0 JUMPDEST DUP4 DUP2 LT ISZERO PUSH2 0xEE6 JUMPI DUP2 SLOAD DUP2 DUP10 ADD MSTORE PUSH1 0x1 DUP3 ADD SWAP2 POP PUSH1 0x20 DUP2 ADD SWAP1 POP PUSH2 0xEC7 JUMP JUMPDEST DUP1 DUP9 ADD SWAP6 POP POP POP JUMPDEST POP POP POP SWAP3 SWAP2 POP POP JUMP JUMPDEST PUSH0 PUSH1 0x40 DUP3 ADD SWAP1 POP DUP2 DUP2 SUB PUSH0 DUP4 ADD MSTORE PUSH2 0xF0F DUP2 DUP6 PUSH2 0xE76 JUMP JUMPDEST SWAP1 POP PUSH2 0xF1E PUSH1 0x20 DUP4 ADD DUP5 PUSH2 0x8A7 JUMP JUMPDEST SWAP4 SWAP3 POP POP POP JUMP INVALID LOG2 PUSH5 0x6970667358 0x22 SLT KECCAK256 SWAP8 GT EXTCODEHASH RETURN TIMESTAMP PUSH2 0x4D11 GASPRICE LOG0 RETURNDATACOPY LOG4 0xB7 RETF 0xC0 PUSH16 0xA60C0DF87FC161E98AC8E0B0C3312D02 PUSH5 0x736F6C6343 STOP ADDMOD 0x22 STOP CALLER "
				},
				"gasEstimates": {
					"creation": {
						"codeDepositCost": "786200",
						"executionCost": "47135",
						"totalCost": "833335"
					},
					"external": {
						"addUser(string,uint256)": "infinite",
						"addValidators(address,string,uint256)": "infinite",
						"changeNumber(uint256)": "infinite",
						"logUsers()": "infinite",
						"logValidators()": "infinite",
						"printValidator(address)": "infinite",
						"users(uint256)": "infinite",
						"validatorAddresses(uint256)": "4988",
						"validators(address)": "infinite"
					}
				},
				"methodIdentifiers": {
					"addUser(string,uint256)": "1c5220c2",
					"addValidators(address,string,uint256)": "906f46aa",
					"changeNumber(uint256)": "07391dd6",
					"logUsers()": "f35d03b2",
					"logValidators()": "4ccc0c64",
					"printValidator(address)": "03f1d194",
					"users(uint256)": "365b98b2",
					"validatorAddresses(uint256)": "99745318",
					"validators(address)": "fa52c7d8"
				}
			},
			"storageLayout": {
				"storage": [
					{
						"astId": 31,
						"contract": "contracts/SimpleStorage.sol:SimpleStorage",
						"label": "users",
						"offset": 0,
						"slot": "0",
						"type": "t_array(t_struct(People)27_storage)dyn_storage"
					},
					{
						"astId": 36,
						"contract": "contracts/SimpleStorage.sol:SimpleStorage",
						"label": "validators",
						"offset": 0,
						"slot": "1",
						"type": "t_mapping(t_address,t_struct(People)27_storage)"
					},
					{
						"astId": 39,
						"contract": "contracts/SimpleStorage.sol:SimpleStorage",
						"label": "validatorAddresses",
						"offset": 0,
						"slot": "2",
						"type": "t_array(t_address)dyn_storage"
					},
					{
						"astId": 146,
						"contract": "contracts/SimpleStorage.sol:SimpleStorage",
						"label": "length",
						"offset": 0,
						"slot": "3",
						"type": "t_uint256"
					},
					{
						"astId": 183,
						"contract": "contracts/SimpleStorage.sol:SimpleStorage",
						"label": "number",
						"offset": 0,
						"slot": "4",
						"type": "t_uint256"
					}
				],
				"types": {
					"t_address": {
						"encoding": "inplace",
						"label": "address",
						"numberOfBytes": "20"
					},
					"t_array(t_address)dyn_storage": {
						"base": "t_address",
						"encoding": "dynamic_array",
						"label": "address[]",
						"numberOfBytes": "32"
					},
					"t_array(t_struct(People)27_storage)dyn_storage": {
						"base": "t_struct(People)27_storage",
						"encoding": "dynamic_array",
						"label": "struct SimpleStorage.People[]",
						"numberOfBytes": "32"
					},
					"t_mapping(t_address,t_struct(People)27_storage)": {
						"encoding": "mapping",
						"key": "t_address",
						"label": "mapping(address => struct SimpleStorage.People)",
						"numberOfBytes": "32",
						"value": "t_struct(People)27_storage"
					},
					"t_string_storage": {
						"encoding": "bytes",
						"label": "string",
						"numberOfBytes": "32"
					},
					"t_struct(People)27_storage": {
						"encoding": "inplace",
						"label": "struct SimpleStorage.People",
						"members": [
							{
								"astId": 24,
								"contract": "contracts/SimpleStorage.sol:SimpleStorage",
								"label": "name",
								"offset": 0,
								"slot": "0",
								"type": "t_string_storage"
							},
							{
								"astId": 26,
								"contract": "contracts/SimpleStorage.sol:SimpleStorage",
								"label": "age",
								"offset": 0,
								"slot": "1",
								"type": "t_uint256"
							}
						],
						"numberOfBytes": "64"
					},
					"t_uint256": {
						"encoding": "inplace",
						"label": "uint256",
						"numberOfBytes": "32"
					}
				}
			},
			"userdoc": {
				"kind": "user",
				"methods": {},
				"version": 1
			}
		}
	}
}