{
	"contracts/FundMe.sol": {
		"FundMe": {
			"abi": [
				{
					"inputs": [],
					"stateMutability": "nonpayable",
					"type": "constructor"
				},
				{
					"inputs": [
						{
							"internalType": "address",
							"name": "",
							"type": "address"
						}
					],
					"name": "addressToAmountFunded",
					"outputs": [
						{
							"internalType": "uint256",
							"name": "",
							"type": "uint256"
						}
					],
					"stateMutability": "view",
					"type": "function"
				},
				{
					"inputs": [],
					"name": "fund",
					"outputs": [],
					"stateMutability": "payable",
					"type": "function"
				},
				{
					"inputs": [
						{
							"internalType": "uint256",
							"name": "",
							"type": "uint256"
						}
					],
					"name": "funders",
					"outputs": [
						{
							"internalType": "address",
							"name": "",
							"type": "address"
						}
					],
					"stateMutability": "view",
					"type": "function"
				},
				{
					"inputs": [],
					"name": "minimumUSD",
					"outputs": [
						{
							"internalType": "uint256",
							"name": "",
							"type": "uint256"
						}
					],
					"stateMutability": "view",
					"type": "function"
				},
				{
					"inputs": [],
					"name": "owner",
					"outputs": [
						{
							"internalType": "address",
							"name": "",
							"type": "address"
						}
					],
					"stateMutability": "view",
					"type": "function"
				},
				{
					"inputs": [],
					"name": "withdraw",
					"outputs": [],
					"stateMutability": "nonpayable",
					"type": "function"
				}
			],
			"devdoc": {
				"kind": "dev",
				"methods": {},
				"version": 1
			},
			"evm": {
				"assembly": "    /* \"contracts/FundMe.sol\":179:1353  contract FundMe {... */\n  mstore(0x40, 0x80)\n    /* \"contracts/FundMe.sol\":271:280  50 * 1e18 */\n  0x02b5e3af16b1880000\n    /* \"contracts/FundMe.sol\":243:280  uint256 public minimumUSD = 50 * 1e18 */\n  0x00\n  sstore\n    /* \"contracts/FundMe.sol\":414:465  constructor() {... */\n  callvalue\n  dup1\n  iszero\n  tag_1\n  jumpi\n  revert(0x00, 0x00)\ntag_1:\n  pop\n    /* \"contracts/FundMe.sol\":447:457  msg.sender */\n  caller\n    /* \"contracts/FundMe.sol\":439:444  owner */\n  0x03\n  0x00\n    /* \"contracts/FundMe.sol\":439:457  owner = msg.sender */\n  0x0100\n  exp\n  dup2\n  sload\n  dup2\n  0xffffffffffffffffffffffffffffffffffffffff\n  mul\n  not\n  and\n  swap1\n  dup4\n  0xffffffffffffffffffffffffffffffffffffffff\n  and\n  mul\n  or\n  swap1\n  sstore\n  pop\n    /* \"contracts/FundMe.sol\":179:1353  contract FundMe {... */\n  dataSize(sub_0)\n  dup1\n  dataOffset(sub_0)\n  0x00\n  codecopy\n  0x00\n  return\nstop\n\nsub_0: assembly {\n        /* \"contracts/FundMe.sol\":179:1353  contract FundMe {... */\n      mstore(0x40, 0x80)\n      jumpi(tag_1, lt(calldatasize, 0x04))\n      shr(0xe0, calldataload(0x00))\n      dup1\n      0x3430a88c\n      eq\n      tag_2\n      jumpi\n      dup1\n      0x3ccfd60b\n      eq\n      tag_3\n      jumpi\n      dup1\n      0x3e47d6f3\n      eq\n      tag_4\n      jumpi\n      dup1\n      0x8da5cb5b\n      eq\n      tag_5\n      jumpi\n      dup1\n      0xb60d4288\n      eq\n      tag_6\n      jumpi\n      dup1\n      0xdc0d3dff\n      eq\n      tag_7\n      jumpi\n    tag_1:\n      revert(0x00, 0x00)\n        /* \"contracts/FundMe.sol\":243:280  uint256 public minimumUSD = 50 * 1e18 */\n    tag_2:\n      callvalue\n      dup1\n      iszero\n      tag_8\n      jumpi\n      revert(0x00, 0x00)\n    tag_8:\n      pop\n      tag_9\n      tag_10\n      jump\t// in\n    tag_9:\n      mload(0x40)\n      tag_11\n      swap2\n      swap1\n      tag_12\n      jump\t// in\n    tag_11:\n      mload(0x40)\n      dup1\n      swap2\n      sub\n      swap1\n      return\n        /* \"contracts/FundMe.sol\":916:1345  function withdraw() public onlyOwner {... */\n    tag_3:\n      callvalue\n      dup1\n      iszero\n      tag_13\n      jumpi\n      revert(0x00, 0x00)\n    tag_13:\n      pop\n      tag_14\n      tag_15\n      jump\t// in\n    tag_14:\n      stop\n        /* \"contracts/FundMe.sol\":320:376  mapping(address => uint256) public addressToAmountFunded */\n    tag_4:\n      callvalue\n      dup1\n      iszero\n      tag_16\n      jumpi\n      revert(0x00, 0x00)\n    tag_16:\n      pop\n      tag_17\n      0x04\n      dup1\n      calldatasize\n      sub\n      dup2\n      add\n      swap1\n      tag_18\n      swap2\n      swap1\n      tag_19\n      jump\t// in\n    tag_18:\n      tag_20\n      jump\t// in\n    tag_17:\n      mload(0x40)\n      tag_21\n      swap2\n      swap1\n      tag_12\n      jump\t// in\n    tag_21:\n      mload(0x40)\n      dup1\n      swap2\n      sub\n      swap1\n      return\n        /* \"contracts/FundMe.sol\":385:405  address public owner */\n    tag_5:\n      callvalue\n      dup1\n      iszero\n      tag_22\n      jumpi\n      revert(0x00, 0x00)\n    tag_22:\n      pop\n      tag_23\n      tag_24\n      jump\t// in\n    tag_23:\n      mload(0x40)\n      tag_25\n      swap2\n      swap1\n      tag_26\n      jump\t// in\n    tag_25:\n      mload(0x40)\n      dup1\n      swap2\n      sub\n      swap1\n      return\n        /* \"contracts/FundMe.sol\":586:908  function fund() public payable {... */\n    tag_6:\n      tag_27\n      tag_28\n      jump\t// in\n    tag_27:\n      stop\n        /* \"contracts/FundMe.sol\":289:313  address[] public funders */\n    tag_7:\n      callvalue\n      dup1\n      iszero\n      tag_29\n      jumpi\n      revert(0x00, 0x00)\n    tag_29:\n      pop\n      tag_30\n      0x04\n      dup1\n      calldatasize\n      sub\n      dup2\n      add\n      swap1\n      tag_31\n      swap2\n      swap1\n      tag_32\n      jump\t// in\n    tag_31:\n      tag_33\n      jump\t// in\n    tag_30:\n      mload(0x40)\n      tag_34\n      swap2\n      swap1\n      tag_26\n      jump\t// in\n    tag_34:\n      mload(0x40)\n      dup1\n      swap2\n      sub\n      swap1\n      return\n        /* \"contracts/FundMe.sol\":243:280  uint256 public minimumUSD = 50 * 1e18 */\n    tag_10:\n      sload(0x00)\n      dup2\n      jump\t// out\n        /* \"contracts/FundMe.sol\":916:1345  function withdraw() public onlyOwner {... */\n    tag_15:\n        /* \"contracts/FundMe.sol\":525:530  owner */\n      0x03\n      0x00\n      swap1\n      sload\n      swap1\n      0x0100\n      exp\n      swap1\n      div\n      0xffffffffffffffffffffffffffffffffffffffff\n      and\n        /* \"contracts/FundMe.sol\":511:530  msg.sender == owner */\n      0xffffffffffffffffffffffffffffffffffffffff\n      and\n        /* \"contracts/FundMe.sol\":511:521  msg.sender */\n      caller\n        /* \"contracts/FundMe.sol\":511:530  msg.sender == owner */\n      0xffffffffffffffffffffffffffffffffffffffff\n      and\n      eq\n        /* \"contracts/FundMe.sol\":503:558  require(msg.sender == owner, \"Sender is not the owner\") */\n      tag_36\n      jumpi\n      mload(0x40)\n      0x08c379a000000000000000000000000000000000000000000000000000000000\n      dup2\n      mstore\n      0x04\n      add\n      tag_37\n      swap1\n      tag_38\n      jump\t// in\n    tag_37:\n      mload(0x40)\n      dup1\n      swap2\n      sub\n      swap1\n      revert\n    tag_36:\n        /* \"contracts/FundMe.sol\":968:977  uint256 i */\n      0x00\n        /* \"contracts/FundMe.sol\":980:981  0 */\n      0x00\n        /* \"contracts/FundMe.sol\":968:981  uint256 i = 0 */\n      swap1\n      pop\n        /* \"contracts/FundMe.sol\":964:1107  for(uint256 i = 0; i<funders.length; i++){... */\n    tag_40:\n        /* \"contracts/FundMe.sol\":985:992  funders */\n      0x01\n        /* \"contracts/FundMe.sol\":985:999  funders.length */\n      dup1\n      sload\n      swap1\n      pop\n        /* \"contracts/FundMe.sol\":983:984  i */\n      dup2\n        /* \"contracts/FundMe.sol\":983:999  i<funders.length */\n      lt\n        /* \"contracts/FundMe.sol\":964:1107  for(uint256 i = 0; i<funders.length; i++){... */\n      iszero\n      tag_41\n      jumpi\n        /* \"contracts/FundMe.sol\":1020:1034  address funder */\n      0x00\n        /* \"contracts/FundMe.sol\":1037:1044  funders */\n      0x01\n        /* \"contracts/FundMe.sol\":1045:1046  i */\n      dup3\n        /* \"contracts/FundMe.sol\":1037:1047  funders[i] */\n      dup2\n      sload\n      dup2\n      lt\n      tag_43\n      jumpi\n      tag_44\n      tag_45\n      jump\t// in\n    tag_44:\n    tag_43:\n      swap1\n      0x00\n      mstore\n      keccak256(0x00, 0x20)\n      add\n      0x00\n      swap1\n      sload\n      swap1\n      0x0100\n      exp\n      swap1\n      div\n      0xffffffffffffffffffffffffffffffffffffffff\n      and\n        /* \"contracts/FundMe.sol\":1020:1047  address funder = funders[i] */\n      swap1\n      pop\n        /* \"contracts/FundMe.sol\":1094:1095  0 */\n      0x00\n        /* \"contracts/FundMe.sol\":1062:1083  addressToAmountFunded */\n      0x02\n        /* \"contracts/FundMe.sol\":1062:1091  addressToAmountFunded[funder] */\n      0x00\n        /* \"contracts/FundMe.sol\":1084:1090  funder */\n      dup4\n        /* \"contracts/FundMe.sol\":1062:1091  addressToAmountFunded[funder] */\n      0xffffffffffffffffffffffffffffffffffffffff\n      and\n      0xffffffffffffffffffffffffffffffffffffffff\n      and\n      dup2\n      mstore\n      0x20\n      add\n      swap1\n      dup2\n      mstore\n      0x20\n      add\n      0x00\n      keccak256\n        /* \"contracts/FundMe.sol\":1062:1095  addressToAmountFunded[funder] = 0 */\n      dup2\n      swap1\n      sstore\n      pop\n        /* \"contracts/FundMe.sol\":1005:1107  {... */\n      pop\n        /* \"contracts/FundMe.sol\":1001:1004  i++ */\n      dup1\n      dup1\n      0x01\n      add\n      swap2\n      pop\n      pop\n        /* \"contracts/FundMe.sol\":964:1107  for(uint256 i = 0; i<funders.length; i++){... */\n      jump(tag_40)\n    tag_41:\n      pop\n        /* \"contracts/FundMe.sol\":1173:1174  0 */\n      0x00\n        /* \"contracts/FundMe.sol\":1159:1175  new address[](0) */\n      0xffffffffffffffff\n      dup2\n      gt\n      iszero\n      tag_47\n      jumpi\n      tag_48\n      tag_49\n      jump\t// in\n    tag_48:\n    tag_47:\n      mload(0x40)\n      swap1\n      dup1\n      dup3\n      mstore\n      dup1\n      0x20\n      mul\n      0x20\n      add\n      dup3\n      add\n      0x40\n      mstore\n      dup1\n      iszero\n      tag_50\n      jumpi\n      dup2\n      0x20\n      add\n      0x20\n      dup3\n      mul\n      dup1\n      calldatasize\n      dup4\n      calldatacopy\n      dup1\n      dup3\n      add\n      swap2\n      pop\n      pop\n      swap1\n      pop\n    tag_50:\n      pop\n        /* \"contracts/FundMe.sol\":1149:1156  funders */\n      0x01\n        /* \"contracts/FundMe.sol\":1149:1175  funders = new address[](0) */\n      swap1\n      dup2\n      tag_51\n      swap2\n      swap1\n      tag_52\n      jump\t// in\n    tag_51:\n      pop\n        /* \"contracts/FundMe.sol\":1212:1228  bool callSuccess */\n      0x00\n        /* \"contracts/FundMe.sol\":1241:1251  msg.sender */\n      caller\n        /* \"contracts/FundMe.sol\":1233:1257  payable(msg.sender).call */\n      0xffffffffffffffffffffffffffffffffffffffff\n      and\n        /* \"contracts/FundMe.sol\":1265:1286  address(this).balance */\n      selfbalance\n        /* \"contracts/FundMe.sol\":1233:1291  payable(msg.sender).call{value: address(this).balance}(\"\") */\n      mload(0x40)\n      tag_53\n      swap1\n      tag_54\n      jump\t// in\n    tag_53:\n      0x00\n      mload(0x40)\n      dup1\n      dup4\n      sub\n      dup2\n      dup6\n      dup8\n      gas\n      call\n      swap3\n      pop\n      pop\n      pop\n      returndatasize\n      dup1\n      0x00\n      dup2\n      eq\n      tag_57\n      jumpi\n      mload(0x40)\n      swap2\n      pop\n      and(add(returndatasize, 0x3f), not(0x1f))\n      dup3\n      add\n      0x40\n      mstore\n      returndatasize\n      dup3\n      mstore\n      returndatasize\n      0x00\n      0x20\n      dup5\n      add\n      returndatacopy\n      jump(tag_56)\n    tag_57:\n      0x60\n      swap2\n      pop\n    tag_56:\n      pop\n        /* \"contracts/FundMe.sol\":1211:1291  (bool callSuccess,) = payable(msg.sender).call{value: address(this).balance}(\"\") */\n      pop\n      swap1\n      pop\n        /* \"contracts/FundMe.sol\":1310:1321  callSuccess */\n      dup1\n        /* \"contracts/FundMe.sol\":1302:1337  require(callSuccess, \"Call failed\") */\n      tag_58\n      jumpi\n      mload(0x40)\n      0x08c379a000000000000000000000000000000000000000000000000000000000\n      dup2\n      mstore\n      0x04\n      add\n      tag_59\n      swap1\n      tag_60\n      jump\t// in\n    tag_59:\n      mload(0x40)\n      dup1\n      swap2\n      sub\n      swap1\n      revert\n    tag_58:\n        /* \"contracts/FundMe.sol\":953:1345  {... */\n      pop\n        /* \"contracts/FundMe.sol\":916:1345  function withdraw() public onlyOwner {... */\n      jump\t// out\n        /* \"contracts/FundMe.sol\":320:376  mapping(address => uint256) public addressToAmountFunded */\n    tag_20:\n      mstore(0x20, 0x02)\n      dup1\n      0x00\n      mstore\n      keccak256(0x00, 0x40)\n      0x00\n      swap2\n      pop\n      swap1\n      pop\n      sload\n      dup2\n      jump\t// out\n        /* \"contracts/FundMe.sol\":385:405  address public owner */\n    tag_24:\n      0x03\n      0x00\n      swap1\n      sload\n      swap1\n      0x0100\n      exp\n      swap1\n      div\n      0xffffffffffffffffffffffffffffffffffffffff\n      and\n      dup2\n      jump\t// out\n        /* \"contracts/FundMe.sol\":586:908  function fund() public payable {... */\n    tag_28:\n        /* \"contracts/FundMe.sol\":765:775  minimumUSD */\n      sload(0x00)\n        /* \"contracts/FundMe.sol\":732:761  msg.value.getConversionRate() */\n      tag_62\n        /* \"contracts/FundMe.sol\":732:741  msg.value */\n      callvalue\n        /* \"contracts/FundMe.sol\":732:759  msg.value.getConversionRate */\n      tag_63\n        /* \"contracts/FundMe.sol\":732:761  msg.value.getConversionRate() */\n      jump\t// in\n    tag_62:\n        /* \"contracts/FundMe.sol\":732:775  msg.value.getConversionRate() >= minimumUSD */\n      lt\n      iszero\n        /* \"contracts/FundMe.sol\":724:809  require(msg.value.getConversionRate() >= minimumUSD, \"Minimum required fund not met\") */\n      tag_64\n      jumpi\n      mload(0x40)\n      0x08c379a000000000000000000000000000000000000000000000000000000000\n      dup2\n      mstore\n      0x04\n      add\n      tag_65\n      swap1\n      tag_66\n      jump\t// in\n    tag_65:\n      mload(0x40)\n      dup1\n      swap2\n      sub\n      swap1\n      revert\n    tag_64:\n        /* \"contracts/FundMe.sol\":820:827  funders */\n      0x01\n        /* \"contracts/FundMe.sol\":833:843  msg.sender */\n      caller\n        /* \"contracts/FundMe.sol\":820:844  funders.push(msg.sender) */\n      swap1\n      dup1\n      0x01\n      dup2\n      sload\n      add\n      dup1\n      dup3\n      sstore\n      dup1\n      swap2\n      pop\n      pop\n      0x01\n      swap1\n      sub\n      swap1\n      0x00\n      mstore\n      keccak256(0x00, 0x20)\n      add\n      0x00\n      swap1\n      swap2\n      swap1\n      swap2\n      swap1\n      swap2\n      0x0100\n      exp\n      dup2\n      sload\n      dup2\n      0xffffffffffffffffffffffffffffffffffffffff\n      mul\n      not\n      and\n      swap1\n      dup4\n      0xffffffffffffffffffffffffffffffffffffffff\n      and\n      mul\n      or\n      swap1\n      sstore\n      pop\n        /* \"contracts/FundMe.sol\":891:900  msg.value */\n      callvalue\n        /* \"contracts/FundMe.sol\":855:876  addressToAmountFunded */\n      0x02\n        /* \"contracts/FundMe.sol\":855:888  addressToAmountFunded[msg.sender] */\n      0x00\n        /* \"contracts/FundMe.sol\":877:887  msg.sender */\n      caller\n        /* \"contracts/FundMe.sol\":855:888  addressToAmountFunded[msg.sender] */\n      0xffffffffffffffffffffffffffffffffffffffff\n      and\n      0xffffffffffffffffffffffffffffffffffffffff\n      and\n      dup2\n      mstore\n      0x20\n      add\n      swap1\n      dup2\n      mstore\n      0x20\n      add\n      0x00\n      keccak256\n        /* \"contracts/FundMe.sol\":855:900  addressToAmountFunded[msg.sender] = msg.value */\n      dup2\n      swap1\n      sstore\n      pop\n        /* \"contracts/FundMe.sol\":586:908  function fund() public payable {... */\n      jump\t// out\n        /* \"contracts/FundMe.sol\":289:313  address[] public funders */\n    tag_33:\n      0x01\n      dup2\n      dup2\n      sload\n      dup2\n      lt\n      tag_68\n      jumpi\n      0x00\n      dup1\n      revert\n    tag_68:\n      swap1\n      0x00\n      mstore\n      keccak256(0x00, 0x20)\n      add\n      0x00\n      swap2\n      pop\n      sload\n      swap1\n      0x0100\n      exp\n      swap1\n      div\n      0xffffffffffffffffffffffffffffffffffffffff\n      and\n      dup2\n      jump\t// out\n        /* \"contracts/PriceConverter.sol\":1043:1267  function getConversionRate(uint256 _ethAmount) internal view returns(uint256) {... */\n    tag_63:\n        /* \"contracts/PriceConverter.sol\":1112:1119  uint256 */\n      0x00\n        /* \"contracts/PriceConverter.sol\":1132:1148  uint256 ethPrice */\n      0x00\n        /* \"contracts/PriceConverter.sol\":1151:1161  getPrice() */\n      tag_71\n        /* \"contracts/PriceConverter.sol\":1151:1159  getPrice */\n      tag_72\n        /* \"contracts/PriceConverter.sol\":1151:1161  getPrice() */\n      jump\t// in\n    tag_71:\n        /* \"contracts/PriceConverter.sol\":1132:1161  uint256 ethPrice = getPrice() */\n      swap1\n      pop\n        /* \"contracts/PriceConverter.sol\":1172:1194  uint256 ethAmountInUSD */\n      0x00\n        /* \"contracts/PriceConverter.sol\":1223:1227  1e18 */\n      0x0de0b6b3a7640000\n        /* \"contracts/PriceConverter.sol\":1209:1219  _ethAmount */\n      dup5\n        /* \"contracts/PriceConverter.sol\":1198:1206  ethPrice */\n      dup4\n        /* \"contracts/PriceConverter.sol\":1198:1219  ethPrice * _ethAmount */\n      tag_73\n      swap2\n      swap1\n      tag_74\n      jump\t// in\n    tag_73:\n        /* \"contracts/PriceConverter.sol\":1197:1227  (ethPrice * _ethAmount) / 1e18 */\n      tag_75\n      swap2\n      swap1\n      tag_76\n      jump\t// in\n    tag_75:\n        /* \"contracts/PriceConverter.sol\":1172:1227  uint256 ethAmountInUSD = (ethPrice * _ethAmount) / 1e18 */\n      swap1\n      pop\n        /* \"contracts/PriceConverter.sol\":1245:1259  ethAmountInUSD */\n      dup1\n        /* \"contracts/PriceConverter.sol\":1238:1259  return ethAmountInUSD */\n      swap3\n      pop\n      pop\n      pop\n        /* \"contracts/PriceConverter.sol\":1043:1267  function getConversionRate(uint256 _ethAmount) internal view returns(uint256) {... */\n      swap2\n      swap1\n      pop\n      jump\t// out\n        /* \"contracts/PriceConverter.sol\":175:819  function getPrice() internal view returns(uint256) {... */\n    tag_72:\n        /* \"contracts/PriceConverter.sol\":217:224  uint256 */\n      0x00\n        /* \"contracts/PriceConverter.sol\":563:594  AggregatorV3Interface priceFeed */\n      0x00\n        /* \"contracts/PriceConverter.sol\":619:661  0x694AA1769357215DE4FAC081bf1f309aDC325306 */\n      0x694aa1769357215de4fac081bf1f309adc325306\n        /* \"contracts/PriceConverter.sol\":563:662  AggregatorV3Interface priceFeed = AggregatorV3Interface(0x694AA1769357215DE4FAC081bf1f309aDC325306) */\n      swap1\n      pop\n        /* \"contracts/PriceConverter.sol\":675:687  int256 price */\n      0x00\n        /* \"contracts/PriceConverter.sol\":694:703  priceFeed */\n      dup2\n        /* \"contracts/PriceConverter.sol\":694:719  priceFeed.latestRoundData */\n      0xffffffffffffffffffffffffffffffffffffffff\n      and\n      0xfeaf968c\n        /* \"contracts/PriceConverter.sol\":694:721  priceFeed.latestRoundData() */\n      mload(0x40)\n      dup2\n      0xffffffff\n      and\n      0xe0\n      shl\n      dup2\n      mstore\n      0x04\n      add\n      0xa0\n      mload(0x40)\n      dup1\n      dup4\n      sub\n      dup2\n      dup7\n      gas\n      staticcall\n      iszero\n      dup1\n      iszero\n      tag_79\n      jumpi\n      returndatacopy(0x00, 0x00, returndatasize)\n      revert(0x00, returndatasize)\n    tag_79:\n      pop\n      pop\n      pop\n      pop\n      mload(0x40)\n      returndatasize\n      not(0x1f)\n      0x1f\n      dup3\n      add\n      and\n      dup3\n      add\n      dup1\n      0x40\n      mstore\n      pop\n      dup2\n      add\n      swap1\n      tag_80\n      swap2\n      swap1\n      tag_81\n      jump\t// in\n    tag_80:\n        /* \"contracts/PriceConverter.sol\":673:721  (,int256 price,,,) = priceFeed.latestRoundData() */\n      pop\n      pop\n      pop\n      swap2\n      pop\n      pop\n        /* \"contracts/PriceConverter.sol\":806:810  1e10 */\n      0x02540be400\n        /* \"contracts/PriceConverter.sol\":798:803  price */\n      dup2\n        /* \"contracts/PriceConverter.sol\":798:810  price * 1e10 */\n      tag_82\n      swap2\n      swap1\n      tag_83\n      jump\t// in\n    tag_82:\n        /* \"contracts/PriceConverter.sol\":783:811  return uint256(price * 1e10) */\n      swap3\n      pop\n      pop\n      pop\n        /* \"contracts/PriceConverter.sol\":175:819  function getPrice() internal view returns(uint256) {... */\n      swap1\n      jump\t// out\n        /* \"#utility.yul\":7:84   */\n    tag_84:\n        /* \"#utility.yul\":44:51   */\n      0x00\n        /* \"#utility.yul\":73:78   */\n      dup2\n        /* \"#utility.yul\":62:78   */\n      swap1\n      pop\n        /* \"#utility.yul\":7:84   */\n      swap2\n      swap1\n      pop\n      jump\t// out\n        /* \"#utility.yul\":90:208   */\n    tag_85:\n        /* \"#utility.yul\":177:201   */\n      tag_144\n        /* \"#utility.yul\":195:200   */\n      dup2\n        /* \"#utility.yul\":177:201   */\n      tag_84\n      jump\t// in\n    tag_144:\n        /* \"#utility.yul\":172:175   */\n      dup3\n        /* \"#utility.yul\":165:202   */\n      mstore\n        /* \"#utility.yul\":90:208   */\n      pop\n      pop\n      jump\t// out\n        /* \"#utility.yul\":214:436   */\n    tag_12:\n        /* \"#utility.yul\":307:311   */\n      0x00\n        /* \"#utility.yul\":345:347   */\n      0x20\n        /* \"#utility.yul\":334:343   */\n      dup3\n        /* \"#utility.yul\":330:348   */\n      add\n        /* \"#utility.yul\":322:348   */\n      swap1\n      pop\n        /* \"#utility.yul\":358:429   */\n      tag_146\n        /* \"#utility.yul\":426:427   */\n      0x00\n        /* \"#utility.yul\":415:424   */\n      dup4\n        /* \"#utility.yul\":411:428   */\n      add\n        /* \"#utility.yul\":402:408   */\n      dup5\n        /* \"#utility.yul\":358:429   */\n      tag_85\n      jump\t// in\n    tag_146:\n        /* \"#utility.yul\":214:436   */\n      swap3\n      swap2\n      pop\n      pop\n      jump\t// out\n        /* \"#utility.yul\":523:640   */\n    tag_87:\n        /* \"#utility.yul\":632:633   */\n      0x00\n        /* \"#utility.yul\":629:630   */\n      0x00\n        /* \"#utility.yul\":622:634   */\n      revert\n        /* \"#utility.yul\":769:895   */\n    tag_89:\n        /* \"#utility.yul\":806:813   */\n      0x00\n        /* \"#utility.yul\":846:888   */\n      0xffffffffffffffffffffffffffffffffffffffff\n        /* \"#utility.yul\":839:844   */\n      dup3\n        /* \"#utility.yul\":835:889   */\n      and\n        /* \"#utility.yul\":824:889   */\n      swap1\n      pop\n        /* \"#utility.yul\":769:895   */\n      swap2\n      swap1\n      pop\n      jump\t// out\n        /* \"#utility.yul\":901:997   */\n    tag_90:\n        /* \"#utility.yul\":938:945   */\n      0x00\n        /* \"#utility.yul\":967:991   */\n      tag_152\n        /* \"#utility.yul\":985:990   */\n      dup3\n        /* \"#utility.yul\":967:991   */\n      tag_89\n      jump\t// in\n    tag_152:\n        /* \"#utility.yul\":956:991   */\n      swap1\n      pop\n        /* \"#utility.yul\":901:997   */\n      swap2\n      swap1\n      pop\n      jump\t// out\n        /* \"#utility.yul\":1003:1125   */\n    tag_91:\n        /* \"#utility.yul\":1076:1100   */\n      tag_154\n        /* \"#utility.yul\":1094:1099   */\n      dup2\n        /* \"#utility.yul\":1076:1100   */\n      tag_90\n      jump\t// in\n    tag_154:\n        /* \"#utility.yul\":1069:1074   */\n      dup2\n        /* \"#utility.yul\":1066:1101   */\n      eq\n        /* \"#utility.yul\":1056:1119   */\n      tag_155\n      jumpi\n        /* \"#utility.yul\":1115:1116   */\n      0x00\n        /* \"#utility.yul\":1112:1113   */\n      0x00\n        /* \"#utility.yul\":1105:1117   */\n      revert\n        /* \"#utility.yul\":1056:1119   */\n    tag_155:\n        /* \"#utility.yul\":1003:1125   */\n      pop\n      jump\t// out\n        /* \"#utility.yul\":1131:1270   */\n    tag_92:\n        /* \"#utility.yul\":1177:1182   */\n      0x00\n        /* \"#utility.yul\":1215:1221   */\n      dup2\n        /* \"#utility.yul\":1202:1222   */\n      calldataload\n        /* \"#utility.yul\":1193:1222   */\n      swap1\n      pop\n        /* \"#utility.yul\":1231:1264   */\n      tag_157\n        /* \"#utility.yul\":1258:1263   */\n      dup2\n        /* \"#utility.yul\":1231:1264   */\n      tag_91\n      jump\t// in\n    tag_157:\n        /* \"#utility.yul\":1131:1270   */\n      swap3\n      swap2\n      pop\n      pop\n      jump\t// out\n        /* \"#utility.yul\":1276:1605   */\n    tag_19:\n        /* \"#utility.yul\":1335:1341   */\n      0x00\n        /* \"#utility.yul\":1384:1386   */\n      0x20\n        /* \"#utility.yul\":1372:1381   */\n      dup3\n        /* \"#utility.yul\":1363:1370   */\n      dup5\n        /* \"#utility.yul\":1359:1382   */\n      sub\n        /* \"#utility.yul\":1355:1387   */\n      slt\n        /* \"#utility.yul\":1352:1471   */\n      iszero\n      tag_159\n      jumpi\n        /* \"#utility.yul\":1390:1469   */\n      tag_160\n      tag_87\n      jump\t// in\n    tag_160:\n        /* \"#utility.yul\":1352:1471   */\n    tag_159:\n        /* \"#utility.yul\":1510:1511   */\n      0x00\n        /* \"#utility.yul\":1535:1588   */\n      tag_161\n        /* \"#utility.yul\":1580:1587   */\n      dup5\n        /* \"#utility.yul\":1571:1577   */\n      dup3\n        /* \"#utility.yul\":1560:1569   */\n      dup6\n        /* \"#utility.yul\":1556:1578   */\n      add\n        /* \"#utility.yul\":1535:1588   */\n      tag_92\n      jump\t// in\n    tag_161:\n        /* \"#utility.yul\":1525:1588   */\n      swap2\n      pop\n        /* \"#utility.yul\":1481:1598   */\n      pop\n        /* \"#utility.yul\":1276:1605   */\n      swap3\n      swap2\n      pop\n      pop\n      jump\t// out\n        /* \"#utility.yul\":1611:1729   */\n    tag_93:\n        /* \"#utility.yul\":1698:1722   */\n      tag_163\n        /* \"#utility.yul\":1716:1721   */\n      dup2\n        /* \"#utility.yul\":1698:1722   */\n      tag_90\n      jump\t// in\n    tag_163:\n        /* \"#utility.yul\":1693:1696   */\n      dup3\n        /* \"#utility.yul\":1686:1723   */\n      mstore\n        /* \"#utility.yul\":1611:1729   */\n      pop\n      pop\n      jump\t// out\n        /* \"#utility.yul\":1735:1957   */\n    tag_26:\n        /* \"#utility.yul\":1828:1832   */\n      0x00\n        /* \"#utility.yul\":1866:1868   */\n      0x20\n        /* \"#utility.yul\":1855:1864   */\n      dup3\n        /* \"#utility.yul\":1851:1869   */\n      add\n        /* \"#utility.yul\":1843:1869   */\n      swap1\n      pop\n        /* \"#utility.yul\":1879:1950   */\n      tag_165\n        /* \"#utility.yul\":1947:1948   */\n      0x00\n        /* \"#utility.yul\":1936:1945   */\n      dup4\n        /* \"#utility.yul\":1932:1949   */\n      add\n        /* \"#utility.yul\":1923:1929   */\n      dup5\n        /* \"#utility.yul\":1879:1950   */\n      tag_93\n      jump\t// in\n    tag_165:\n        /* \"#utility.yul\":1735:1957   */\n      swap3\n      swap2\n      pop\n      pop\n      jump\t// out\n        /* \"#utility.yul\":1963:2085   */\n    tag_94:\n        /* \"#utility.yul\":2036:2060   */\n      tag_167\n        /* \"#utility.yul\":2054:2059   */\n      dup2\n        /* \"#utility.yul\":2036:2060   */\n      tag_84\n      jump\t// in\n    tag_167:\n        /* \"#utility.yul\":2029:2034   */\n      dup2\n        /* \"#utility.yul\":2026:2061   */\n      eq\n        /* \"#utility.yul\":2016:2079   */\n      tag_168\n      jumpi\n        /* \"#utility.yul\":2075:2076   */\n      0x00\n        /* \"#utility.yul\":2072:2073   */\n      0x00\n        /* \"#utility.yul\":2065:2077   */\n      revert\n        /* \"#utility.yul\":2016:2079   */\n    tag_168:\n        /* \"#utility.yul\":1963:2085   */\n      pop\n      jump\t// out\n        /* \"#utility.yul\":2091:2230   */\n    tag_95:\n        /* \"#utility.yul\":2137:2142   */\n      0x00\n        /* \"#utility.yul\":2175:2181   */\n      dup2\n        /* \"#utility.yul\":2162:2182   */\n      calldataload\n        /* \"#utility.yul\":2153:2182   */\n      swap1\n      pop\n        /* \"#utility.yul\":2191:2224   */\n      tag_170\n        /* \"#utility.yul\":2218:2223   */\n      dup2\n        /* \"#utility.yul\":2191:2224   */\n      tag_94\n      jump\t// in\n    tag_170:\n        /* \"#utility.yul\":2091:2230   */\n      swap3\n      swap2\n      pop\n      pop\n      jump\t// out\n        /* \"#utility.yul\":2236:2565   */\n    tag_32:\n        /* \"#utility.yul\":2295:2301   */\n      0x00\n        /* \"#utility.yul\":2344:2346   */\n      0x20\n        /* \"#utility.yul\":2332:2341   */\n      dup3\n        /* \"#utility.yul\":2323:2330   */\n      dup5\n        /* \"#utility.yul\":2319:2342   */\n      sub\n        /* \"#utility.yul\":2315:2347   */\n      slt\n        /* \"#utility.yul\":2312:2431   */\n      iszero\n      tag_172\n      jumpi\n        /* \"#utility.yul\":2350:2429   */\n      tag_173\n      tag_87\n      jump\t// in\n    tag_173:\n        /* \"#utility.yul\":2312:2431   */\n    tag_172:\n        /* \"#utility.yul\":2470:2471   */\n      0x00\n        /* \"#utility.yul\":2495:2548   */\n      tag_174\n        /* \"#utility.yul\":2540:2547   */\n      dup5\n        /* \"#utility.yul\":2531:2537   */\n      dup3\n        /* \"#utility.yul\":2520:2529   */\n      dup6\n        /* \"#utility.yul\":2516:2538   */\n      add\n        /* \"#utility.yul\":2495:2548   */\n      tag_95\n      jump\t// in\n    tag_174:\n        /* \"#utility.yul\":2485:2548   */\n      swap2\n      pop\n        /* \"#utility.yul\":2441:2558   */\n      pop\n        /* \"#utility.yul\":2236:2565   */\n      swap3\n      swap2\n      pop\n      pop\n      jump\t// out\n        /* \"#utility.yul\":2571:2740   */\n    tag_96:\n        /* \"#utility.yul\":2655:2666   */\n      0x00\n        /* \"#utility.yul\":2689:2695   */\n      dup3\n        /* \"#utility.yul\":2684:2687   */\n      dup3\n        /* \"#utility.yul\":2677:2696   */\n      mstore\n        /* \"#utility.yul\":2729:2733   */\n      0x20\n        /* \"#utility.yul\":2724:2727   */\n      dup3\n        /* \"#utility.yul\":2720:2734   */\n      add\n        /* \"#utility.yul\":2705:2734   */\n      swap1\n      pop\n        /* \"#utility.yul\":2571:2740   */\n      swap3\n      swap2\n      pop\n      pop\n      jump\t// out\n        /* \"#utility.yul\":2746:2919   */\n    tag_97:\n        /* \"#utility.yul\":2886:2911   */\n      0x53656e646572206973206e6f7420746865206f776e6572000000000000000000\n        /* \"#utility.yul\":2882:2883   */\n      0x00\n        /* \"#utility.yul\":2874:2880   */\n      dup3\n        /* \"#utility.yul\":2870:2884   */\n      add\n        /* \"#utility.yul\":2863:2912   */\n      mstore\n        /* \"#utility.yul\":2746:2919   */\n      pop\n      jump\t// out\n        /* \"#utility.yul\":2925:3291   */\n    tag_98:\n        /* \"#utility.yul\":3067:3070   */\n      0x00\n        /* \"#utility.yul\":3088:3155   */\n      tag_178\n        /* \"#utility.yul\":3152:3154   */\n      0x17\n        /* \"#utility.yul\":3147:3150   */\n      dup4\n        /* \"#utility.yul\":3088:3155   */\n      tag_96\n      jump\t// in\n    tag_178:\n        /* \"#utility.yul\":3081:3155   */\n      swap2\n      pop\n        /* \"#utility.yul\":3164:3257   */\n      tag_179\n        /* \"#utility.yul\":3253:3256   */\n      dup3\n        /* \"#utility.yul\":3164:3257   */\n      tag_97\n      jump\t// in\n    tag_179:\n        /* \"#utility.yul\":3282:3284   */\n      0x20\n        /* \"#utility.yul\":3277:3280   */\n      dup3\n        /* \"#utility.yul\":3273:3285   */\n      add\n        /* \"#utility.yul\":3266:3285   */\n      swap1\n      pop\n        /* \"#utility.yul\":2925:3291   */\n      swap2\n      swap1\n      pop\n      jump\t// out\n        /* \"#utility.yul\":3297:3716   */\n    tag_38:\n        /* \"#utility.yul\":3463:3467   */\n      0x00\n        /* \"#utility.yul\":3501:3503   */\n      0x20\n        /* \"#utility.yul\":3490:3499   */\n      dup3\n        /* \"#utility.yul\":3486:3504   */\n      add\n        /* \"#utility.yul\":3478:3504   */\n      swap1\n      pop\n        /* \"#utility.yul\":3550:3559   */\n      dup2\n        /* \"#utility.yul\":3544:3548   */\n      dup2\n        /* \"#utility.yul\":3540:3560   */\n      sub\n        /* \"#utility.yul\":3536:3537   */\n      0x00\n        /* \"#utility.yul\":3525:3534   */\n      dup4\n        /* \"#utility.yul\":3521:3538   */\n      add\n        /* \"#utility.yul\":3514:3561   */\n      mstore\n        /* \"#utility.yul\":3578:3709   */\n      tag_181\n        /* \"#utility.yul\":3704:3708   */\n      dup2\n        /* \"#utility.yul\":3578:3709   */\n      tag_98\n      jump\t// in\n    tag_181:\n        /* \"#utility.yul\":3570:3709   */\n      swap1\n      pop\n        /* \"#utility.yul\":3297:3716   */\n      swap2\n      swap1\n      pop\n      jump\t// out\n        /* \"#utility.yul\":3722:3902   */\n    tag_45:\n        /* \"#utility.yul\":3770:3847   */\n      0x4e487b7100000000000000000000000000000000000000000000000000000000\n        /* \"#utility.yul\":3767:3768   */\n      0x00\n        /* \"#utility.yul\":3760:3848   */\n      mstore\n        /* \"#utility.yul\":3867:3871   */\n      0x32\n        /* \"#utility.yul\":3864:3865   */\n      0x04\n        /* \"#utility.yul\":3857:3872   */\n      mstore\n        /* \"#utility.yul\":3891:3895   */\n      0x24\n        /* \"#utility.yul\":3888:3889   */\n      0x00\n        /* \"#utility.yul\":3881:3896   */\n      revert\n        /* \"#utility.yul\":3908:4088   */\n    tag_49:\n        /* \"#utility.yul\":3956:4033   */\n      0x4e487b7100000000000000000000000000000000000000000000000000000000\n        /* \"#utility.yul\":3953:3954   */\n      0x00\n        /* \"#utility.yul\":3946:4034   */\n      mstore\n        /* \"#utility.yul\":4053:4057   */\n      0x41\n        /* \"#utility.yul\":4050:4051   */\n      0x04\n        /* \"#utility.yul\":4043:4058   */\n      mstore\n        /* \"#utility.yul\":4077:4081   */\n      0x24\n        /* \"#utility.yul\":4074:4075   */\n      0x00\n        /* \"#utility.yul\":4067:4082   */\n      revert\n        /* \"#utility.yul\":4094:4205   */\n    tag_99:\n        /* \"#utility.yul\":4158:4164   */\n      0x00\n        /* \"#utility.yul\":4192:4197   */\n      dup2\n        /* \"#utility.yul\":4186:4198   */\n      sload\n        /* \"#utility.yul\":4176:4198   */\n      swap1\n      pop\n        /* \"#utility.yul\":4094:4205   */\n      swap2\n      swap1\n      pop\n      jump\t// out\n        /* \"#utility.yul\":4211:4391   */\n    tag_100:\n        /* \"#utility.yul\":4259:4336   */\n      0x4e487b7100000000000000000000000000000000000000000000000000000000\n        /* \"#utility.yul\":4256:4257   */\n      0x00\n        /* \"#utility.yul\":4249:4337   */\n      mstore\n        /* \"#utility.yul\":4356:4360   */\n      0x11\n        /* \"#utility.yul\":4353:4354   */\n      0x04\n        /* \"#utility.yul\":4346:4361   */\n      mstore\n        /* \"#utility.yul\":4380:4384   */\n      0x24\n        /* \"#utility.yul\":4377:4378   */\n      0x00\n        /* \"#utility.yul\":4370:4385   */\n      revert\n        /* \"#utility.yul\":4397:4807   */\n    tag_74:\n        /* \"#utility.yul\":4437:4444   */\n      0x00\n        /* \"#utility.yul\":4460:4480   */\n      tag_187\n        /* \"#utility.yul\":4478:4479   */\n      dup3\n        /* \"#utility.yul\":4460:4480   */\n      tag_84\n      jump\t// in\n    tag_187:\n        /* \"#utility.yul\":4455:4480   */\n      swap2\n      pop\n        /* \"#utility.yul\":4494:4514   */\n      tag_188\n        /* \"#utility.yul\":4512:4513   */\n      dup4\n        /* \"#utility.yul\":4494:4514   */\n      tag_84\n      jump\t// in\n    tag_188:\n        /* \"#utility.yul\":4489:4514   */\n      swap3\n      pop\n        /* \"#utility.yul\":4549:4550   */\n      dup3\n        /* \"#utility.yul\":4546:4547   */\n      dup3\n        /* \"#utility.yul\":4542:4551   */\n      mul\n        /* \"#utility.yul\":4571:4601   */\n      tag_189\n        /* \"#utility.yul\":4589:4600   */\n      dup2\n        /* \"#utility.yul\":4571:4601   */\n      tag_84\n      jump\t// in\n    tag_189:\n        /* \"#utility.yul\":4560:4601   */\n      swap2\n      pop\n        /* \"#utility.yul\":4750:4751   */\n      dup3\n        /* \"#utility.yul\":4741:4748   */\n      dup3\n        /* \"#utility.yul\":4737:4752   */\n      div\n        /* \"#utility.yul\":4734:4735   */\n      dup5\n        /* \"#utility.yul\":4731:4753   */\n      eq\n        /* \"#utility.yul\":4711:4712   */\n      dup4\n        /* \"#utility.yul\":4704:4713   */\n      iszero\n        /* \"#utility.yul\":4684:4767   */\n      or\n        /* \"#utility.yul\":4661:4800   */\n      tag_190\n      jumpi\n        /* \"#utility.yul\":4780:4798   */\n      tag_191\n      tag_100\n      jump\t// in\n    tag_191:\n        /* \"#utility.yul\":4661:4800   */\n    tag_190:\n        /* \"#utility.yul\":4445:4807   */\n      pop\n        /* \"#utility.yul\":4397:4807   */\n      swap3\n      swap2\n      pop\n      pop\n      jump\t// out\n        /* \"#utility.yul\":4813:5016   */\n    tag_101:\n        /* \"#utility.yul\":4894:4898   */\n      0x00\n        /* \"#utility.yul\":4917:4923   */\n      dup2\n        /* \"#utility.yul\":4909:4923   */\n      swap1\n      pop\n        /* \"#utility.yul\":5007:5008   */\n      0x01\n        /* \"#utility.yul\":5002:5003   */\n      dup1\n        /* \"#utility.yul\":4999:5000   */\n      0x01\n        /* \"#utility.yul\":4995:5004   */\n      sub\n        /* \"#utility.yul\":4987:4993   */\n      dup4\n        /* \"#utility.yul\":4983:5005   */\n      add\n        /* \"#utility.yul\":4979:5009   */\n      div\n        /* \"#utility.yul\":4971:5009   */\n      swap1\n      pop\n        /* \"#utility.yul\":4813:5016   */\n      swap2\n      swap1\n      pop\n      jump\t// out\n        /* \"#utility.yul\":5021:5177   */\n    tag_102:\n        /* \"#utility.yul\":5085:5089   */\n      0x00\n        /* \"#utility.yul\":5108:5111   */\n      dup2\n        /* \"#utility.yul\":5100:5111   */\n      swap1\n      pop\n        /* \"#utility.yul\":5131:5134   */\n      dup2\n        /* \"#utility.yul\":5128:5129   */\n      0x00\n        /* \"#utility.yul\":5121:5135   */\n      mstore\n        /* \"#utility.yul\":5165:5169   */\n      0x20\n        /* \"#utility.yul\":5162:5163   */\n      0x00\n        /* \"#utility.yul\":5152:5170   */\n      keccak256\n        /* \"#utility.yul\":5144:5170   */\n      swap1\n      pop\n        /* \"#utility.yul\":5021:5177   */\n      swap2\n      swap1\n      pop\n      jump\t// out\n        /* \"#utility.yul\":5183:5290   */\n    tag_103:\n        /* \"#utility.yul\":5227:5235   */\n      0x00\n        /* \"#utility.yul\":5277:5282   */\n      dup3\n        /* \"#utility.yul\":5271:5275   */\n      dup3\n        /* \"#utility.yul\":5267:5283   */\n      shl\n        /* \"#utility.yul\":5246:5283   */\n      swap1\n      pop\n        /* \"#utility.yul\":5183:5290   */\n      swap3\n      swap2\n      pop\n      pop\n      jump\t// out\n        /* \"#utility.yul\":5296:5689   */\n    tag_104:\n        /* \"#utility.yul\":5365:5371   */\n      0x00\n        /* \"#utility.yul\":5415:5416   */\n      0x08\n        /* \"#utility.yul\":5403:5413   */\n      dup4\n        /* \"#utility.yul\":5399:5417   */\n      mul\n        /* \"#utility.yul\":5438:5535   */\n      tag_196\n        /* \"#utility.yul\":5468:5534   */\n      0xffffffffffffffffffffffffffffffffffffffffffffffffffffffffffffffff\n        /* \"#utility.yul\":5457:5466   */\n      dup3\n        /* \"#utility.yul\":5438:5535   */\n      tag_103\n      jump\t// in\n    tag_196:\n        /* \"#utility.yul\":5556:5595   */\n      tag_197\n        /* \"#utility.yul\":5586:5594   */\n      dup7\n        /* \"#utility.yul\":5575:5584   */\n      dup4\n        /* \"#utility.yul\":5556:5595   */\n      tag_103\n      jump\t// in\n    tag_197:\n        /* \"#utility.yul\":5544:5595   */\n      swap6\n      pop\n        /* \"#utility.yul\":5628:5632   */\n      dup1\n        /* \"#utility.yul\":5624:5633   */\n      not\n        /* \"#utility.yul\":5617:5622   */\n      dup5\n        /* \"#utility.yul\":5613:5634   */\n      and\n        /* \"#utility.yul\":5604:5634   */\n      swap4\n      pop\n        /* \"#utility.yul\":5677:5681   */\n      dup1\n        /* \"#utility.yul\":5667:5675   */\n      dup7\n        /* \"#utility.yul\":5663:5682   */\n      and\n        /* \"#utility.yul\":5656:5661   */\n      dup5\n        /* \"#utility.yul\":5653:5683   */\n      or\n        /* \"#utility.yul\":5643:5683   */\n      swap3\n      pop\n        /* \"#utility.yul\":5372:5689   */\n      pop\n      pop\n        /* \"#utility.yul\":5296:5689   */\n      swap4\n      swap3\n      pop\n      pop\n      pop\n      jump\t// out\n        /* \"#utility.yul\":5695:5755   */\n    tag_105:\n        /* \"#utility.yul\":5723:5726   */\n      0x00\n        /* \"#utility.yul\":5744:5749   */\n      dup2\n        /* \"#utility.yul\":5737:5749   */\n      swap1\n      pop\n        /* \"#utility.yul\":5695:5755   */\n      swap2\n      swap1\n      pop\n      jump\t// out\n        /* \"#utility.yul\":5761:5903   */\n    tag_106:\n        /* \"#utility.yul\":5811:5820   */\n      0x00\n        /* \"#utility.yul\":5844:5897   */\n      tag_200\n        /* \"#utility.yul\":5862:5896   */\n      tag_201\n        /* \"#utility.yul\":5871:5895   */\n      tag_202\n        /* \"#utility.yul\":5889:5894   */\n      dup5\n        /* \"#utility.yul\":5871:5895   */\n      tag_84\n      jump\t// in\n    tag_202:\n        /* \"#utility.yul\":5862:5896   */\n      tag_105\n      jump\t// in\n    tag_201:\n        /* \"#utility.yul\":5844:5897   */\n      tag_84\n      jump\t// in\n    tag_200:\n        /* \"#utility.yul\":5831:5897   */\n      swap1\n      pop\n        /* \"#utility.yul\":5761:5903   */\n      swap2\n      swap1\n      pop\n      jump\t// out\n        /* \"#utility.yul\":5909:5984   */\n    tag_107:\n        /* \"#utility.yul\":5952:5955   */\n      0x00\n        /* \"#utility.yul\":5973:5978   */\n      dup2\n        /* \"#utility.yul\":5966:5978   */\n      swap1\n      pop\n        /* \"#utility.yul\":5909:5984   */\n      swap2\n      swap1\n      pop\n      jump\t// out\n        /* \"#utility.yul\":5990:6259   */\n    tag_108:\n        /* \"#utility.yul\":6100:6139   */\n      tag_205\n        /* \"#utility.yul\":6131:6138   */\n      dup4\n        /* \"#utility.yul\":6100:6139   */\n      tag_106\n      jump\t// in\n    tag_205:\n        /* \"#utility.yul\":6161:6252   */\n      tag_206\n        /* \"#utility.yul\":6210:6251   */\n      tag_207\n        /* \"#utility.yul\":6234:6250   */\n      dup3\n        /* \"#utility.yul\":6210:6251   */\n      tag_107\n      jump\t// in\n    tag_207:\n        /* \"#utility.yul\":6202:6208   */\n      dup5\n        /* \"#utility.yul\":6195:6199   */\n      dup5\n        /* \"#utility.yul\":6189:6200   */\n      sload\n        /* \"#utility.yul\":6161:6252   */\n      tag_104\n      jump\t// in\n    tag_206:\n        /* \"#utility.yul\":6155:6159   */\n      dup3\n        /* \"#utility.yul\":6148:6253   */\n      sstore\n        /* \"#utility.yul\":6066:6259   */\n      pop\n        /* \"#utility.yul\":5990:6259   */\n      pop\n      pop\n      pop\n      jump\t// out\n        /* \"#utility.yul\":6265:6338   */\n    tag_109:\n        /* \"#utility.yul\":6310:6313   */\n      0x00\n        /* \"#utility.yul\":6331:6332   */\n      0x00\n        /* \"#utility.yul\":6324:6332   */\n      swap1\n      pop\n        /* \"#utility.yul\":6265:6338   */\n      swap1\n      jump\t// out\n        /* \"#utility.yul\":6344:6533   */\n    tag_110:\n        /* \"#utility.yul\":6421:6453   */\n      tag_210\n      tag_109\n      jump\t// in\n    tag_210:\n        /* \"#utility.yul\":6462:6527   */\n      tag_211\n        /* \"#utility.yul\":6520:6526   */\n      dup2\n        /* \"#utility.yul\":6512:6518   */\n      dup5\n        /* \"#utility.yul\":6506:6510   */\n      dup5\n        /* \"#utility.yul\":6462:6527   */\n      tag_108\n      jump\t// in\n    tag_211:\n        /* \"#utility.yul\":6397:6533   */\n      pop\n        /* \"#utility.yul\":6344:6533   */\n      pop\n      pop\n      jump\t// out\n        /* \"#utility.yul\":6539:6754   */\n    tag_111:\n        /* \"#utility.yul\":6625:6626   */\n      0x00\n        /* \"#utility.yul\":6610:6748   */\n    tag_213:\n        /* \"#utility.yul\":6635:6644   */\n      dup3\n        /* \"#utility.yul\":6632:6633   */\n      dup2\n        /* \"#utility.yul\":6629:6645   */\n      lt\n        /* \"#utility.yul\":6610:6748   */\n      iszero\n      tag_215\n      jumpi\n        /* \"#utility.yul\":6687:6738   */\n      tag_216\n        /* \"#utility.yul\":6736:6737   */\n      0x00\n        /* \"#utility.yul\":6732:6733   */\n      dup3\n        /* \"#utility.yul\":6721:6730   */\n      dup5\n        /* \"#utility.yul\":6717:6734   */\n      add\n        /* \"#utility.yul\":6687:6738   */\n      tag_110\n      jump\t// in\n    tag_216:\n        /* \"#utility.yul\":6660:6661   */\n      0x01\n        /* \"#utility.yul\":6657:6658   */\n      dup2\n        /* \"#utility.yul\":6653:6662   */\n      add\n        /* \"#utility.yul\":6648:6662   */\n      swap1\n      pop\n        /* \"#utility.yul\":6610:6748   */\n      jump(tag_213)\n    tag_215:\n        /* \"#utility.yul\":6614:6628   */\n      pop\n        /* \"#utility.yul\":6539:6754   */\n      pop\n      pop\n      jump\t// out\n        /* \"#utility.yul\":7133:7773   */\n    tag_114:\n        /* \"#utility.yul\":7253:7256   */\n      dup2\n        /* \"#utility.yul\":7241:7251   */\n      dup4\n        /* \"#utility.yul\":7238:7257   */\n      lt\n        /* \"#utility.yul\":7235:7766   */\n      iszero\n      tag_221\n      jumpi\n        /* \"#utility.yul\":7344:7409   */\n      tag_222\n        /* \"#utility.yul\":7405:7408   */\n      dup3\n        /* \"#utility.yul\":7344:7409   */\n      tag_101\n      jump\t// in\n    tag_222:\n        /* \"#utility.yul\":7442:7514   */\n      tag_223\n        /* \"#utility.yul\":7503:7513   */\n      dup5\n        /* \"#utility.yul\":7442:7514   */\n      tag_101\n      jump\t// in\n    tag_223:\n        /* \"#utility.yul\":7549:7602   */\n      tag_224\n        /* \"#utility.yul\":7596:7601   */\n      dup4\n        /* \"#utility.yul\":7549:7602   */\n      tag_102\n      jump\t// in\n    tag_224:\n        /* \"#utility.yul\":7654:7666   */\n      dup2\n        /* \"#utility.yul\":7638:7652   */\n      dup2\n        /* \"#utility.yul\":7634:7667   */\n      add\n        /* \"#utility.yul\":7681:7756   */\n      tag_225\n        /* \"#utility.yul\":7742:7754   */\n      dup4\n        /* \"#utility.yul\":7728:7740   */\n      dup6\n        /* \"#utility.yul\":7724:7755   */\n      sub\n        /* \"#utility.yul\":7711:7722   */\n      dup3\n        /* \"#utility.yul\":7681:7756   */\n      tag_111\n      jump\t// in\n    tag_225:\n        /* \"#utility.yul\":7258:7766   */\n      pop\n      pop\n      pop\n      pop\n        /* \"#utility.yul\":7235:7766   */\n    tag_221:\n        /* \"#utility.yul\":7133:7773   */\n      pop\n      pop\n      pop\n      jump\t// out\n        /* \"#utility.yul\":7779:8167   */\n    tag_115:\n        /* \"#utility.yul\":7872:7892   */\n      0x010000000000000000\n        /* \"#utility.yul\":7864:7870   */\n      dup3\n        /* \"#utility.yul\":7861:7893   */\n      gt\n        /* \"#utility.yul\":7858:7936   */\n      iszero\n      tag_227\n      jumpi\n        /* \"#utility.yul\":7908:7926   */\n      tag_228\n      tag_49\n      jump\t// in\n    tag_228:\n        /* \"#utility.yul\":7858:7936   */\n    tag_227:\n        /* \"#utility.yul\":7960:8011   */\n      tag_229\n        /* \"#utility.yul\":8005:8010   */\n      dup2\n        /* \"#utility.yul\":7960:8011   */\n      tag_99\n      jump\t// in\n    tag_229:\n        /* \"#utility.yul\":8063:8069   */\n      dup3\n        /* \"#utility.yul\":8056:8061   */\n      dup3\n        /* \"#utility.yul\":8049:8070   */\n      sstore\n        /* \"#utility.yul\":8080:8160   */\n      tag_230\n        /* \"#utility.yul\":8153:8159   */\n      dup4\n        /* \"#utility.yul\":8145:8151   */\n      dup3\n        /* \"#utility.yul\":8138:8143   */\n      dup5\n        /* \"#utility.yul\":8080:8160   */\n      tag_114\n      jump\t// in\n    tag_230:\n        /* \"#utility.yul\":7848:8167   */\n      pop\n        /* \"#utility.yul\":7779:8167   */\n      pop\n      pop\n      jump\t// out\n        /* \"#utility.yul\":8172:8286   */\n    tag_116:\n        /* \"#utility.yul\":8239:8245   */\n      0x00\n        /* \"#utility.yul\":8273:8278   */\n      dup2\n        /* \"#utility.yul\":8267:8279   */\n      mload\n        /* \"#utility.yul\":8257:8279   */\n      swap1\n      pop\n        /* \"#utility.yul\":8172:8286   */\n      swap2\n      swap1\n      pop\n      jump\t// out\n        /* \"#utility.yul\":8292:8446   */\n    tag_117:\n        /* \"#utility.yul\":8335:8346   */\n      0x00\n        /* \"#utility.yul\":8371:8400   */\n      tag_233\n        /* \"#utility.yul\":8395:8398   */\n      dup3\n        /* \"#utility.yul\":8389:8399   */\n      mload\n        /* \"#utility.yul\":8371:8400   */\n      tag_90\n      jump\t// in\n    tag_233:\n        /* \"#utility.yul\":8434:8439   */\n      dup1\n        /* \"#utility.yul\":8410:8439   */\n      swap2\n      pop\n        /* \"#utility.yul\":8347:8446   */\n      pop\n        /* \"#utility.yul\":8292:8446   */\n      swap2\n      swap1\n      pop\n      jump\t// out\n        /* \"#utility.yul\":8452:8584   */\n    tag_118:\n        /* \"#utility.yul\":8519:8523   */\n      0x00\n        /* \"#utility.yul\":8542:8545   */\n      dup2\n        /* \"#utility.yul\":8534:8545   */\n      swap1\n      pop\n        /* \"#utility.yul\":8572:8576   */\n      0x20\n        /* \"#utility.yul\":8567:8570   */\n      dup3\n        /* \"#utility.yul\":8563:8577   */\n      add\n        /* \"#utility.yul\":8555:8577   */\n      swap1\n      pop\n        /* \"#utility.yul\":8452:8584   */\n      swap2\n      swap1\n      pop\n      jump\t// out\n        /* \"#utility.yul\":9723:9798   */\n    tag_125:\n        /* \"#utility.yul\":9766:9769   */\n      0x00\n        /* \"#utility.yul\":9787:9792   */\n      dup2\n        /* \"#utility.yul\":9780:9792   */\n      swap1\n      pop\n        /* \"#utility.yul\":9723:9798   */\n      swap2\n      swap1\n      pop\n      jump\t// out\n        /* \"#utility.yul\":9804:10805   */\n    tag_52:\n        /* \"#utility.yul\":9945:9997   */\n      tag_252\n        /* \"#utility.yul\":9993:9996   */\n      dup3\n        /* \"#utility.yul\":9945:9997   */\n      tag_116\n      jump\t// in\n    tag_252:\n        /* \"#utility.yul\":10062:10080   */\n      0xffffffffffffffff\n        /* \"#utility.yul\":10054:10060   */\n      dup2\n        /* \"#utility.yul\":10051:10081   */\n      gt\n        /* \"#utility.yul\":10048:10104   */\n      iszero\n      tag_253\n      jumpi\n        /* \"#utility.yul\":10084:10102   */\n      tag_254\n      tag_49\n      jump\t// in\n    tag_254:\n        /* \"#utility.yul\":10048:10104   */\n    tag_253:\n        /* \"#utility.yul\":10113:10170   */\n      tag_255\n        /* \"#utility.yul\":10163:10169   */\n      dup2\n        /* \"#utility.yul\":10158:10161   */\n      dup4\n        /* \"#utility.yul\":10113:10170   */\n      tag_115\n      jump\t// in\n    tag_255:\n        /* \"#utility.yul\":10194:10248   */\n      tag_256\n        /* \"#utility.yul\":10244:10247   */\n      dup4\n        /* \"#utility.yul\":10194:10248   */\n      tag_118\n      jump\t// in\n    tag_256:\n        /* \"#utility.yul\":10272:10323   */\n      tag_257\n        /* \"#utility.yul\":10319:10322   */\n      dup4\n        /* \"#utility.yul\":10272:10323   */\n      tag_102\n      jump\t// in\n    tag_257:\n        /* \"#utility.yul\":10362:10363   */\n      0x01\n        /* \"#utility.yul\":10354:10360   */\n      dup4\n        /* \"#utility.yul\":10350:10364   */\n      div\n        /* \"#utility.yul\":10389:10390   */\n      0x00\n        /* \"#utility.yul\":10374:10798   */\n    tag_258:\n        /* \"#utility.yul\":10399:10408   */\n      dup2\n        /* \"#utility.yul\":10396:10397   */\n      dup2\n        /* \"#utility.yul\":10393:10409   */\n      lt\n        /* \"#utility.yul\":10374:10798   */\n      iszero\n      tag_260\n      jumpi\n        /* \"#utility.yul\":10463:10464   */\n      0x00\n        /* \"#utility.yul\":10516:10549   */\n      tag_261\n        /* \"#utility.yul\":10542:10548   */\n      dup6\n        /* \"#utility.yul\":10516:10549   */\n      tag_117\n      jump\t// in\n    tag_261:\n        /* \"#utility.yul\":10584:10620   */\n      tag_262\n        /* \"#utility.yul\":10608:10619   */\n      dup2\n        /* \"#utility.yul\":10584:10620   */\n      tag_125\n      jump\t// in\n    tag_262:\n        /* \"#utility.yul\":10670:10679   */\n      dup1\n        /* \"#utility.yul\":10637:10679   */\n      swap3\n      pop\n        /* \"#utility.yul\":10719:10721   */\n      0x20\n        /* \"#utility.yul\":10711:10717   */\n      dup8\n        /* \"#utility.yul\":10707:10722   */\n      add\n        /* \"#utility.yul\":10697:10722   */\n      swap7\n      pop\n        /* \"#utility.yul\":10478:10737   */\n      pop\n      pop\n        /* \"#utility.yul\":10775:10787   */\n      dup1\n        /* \"#utility.yul\":10771:10772   */\n      dup3\n        /* \"#utility.yul\":10762:10769   */\n      dup6\n        /* \"#utility.yul\":10758:10773   */\n      add\n        /* \"#utility.yul\":10751:10788   */\n      sstore\n        /* \"#utility.yul\":10429:10798   */\n      pop\n        /* \"#utility.yul\":10424:10425   */\n      0x01\n        /* \"#utility.yul\":10421:10422   */\n      dup2\n        /* \"#utility.yul\":10417:10426   */\n      add\n        /* \"#utility.yul\":10412:10426   */\n      swap1\n      pop\n        /* \"#utility.yul\":10374:10798   */\n      jump(tag_258)\n    tag_260:\n        /* \"#utility.yul\":10378:10392   */\n      pop\n        /* \"#utility.yul\":9920:10805   */\n      pop\n      pop\n      pop\n      pop\n        /* \"#utility.yul\":9804:10805   */\n      pop\n      pop\n      jump\t// out\n        /* \"#utility.yul\":10811:10958   */\n    tag_126:\n        /* \"#utility.yul\":10912:10923   */\n      0x00\n        /* \"#utility.yul\":10949:10952   */\n      dup2\n        /* \"#utility.yul\":10934:10952   */\n      swap1\n      pop\n        /* \"#utility.yul\":10811:10958   */\n      swap3\n      swap2\n      pop\n      pop\n      jump\t// out\n        /* \"#utility.yul\":10964:11078   */\n    tag_127:\n      pop\n      jump\t// out\n        /* \"#utility.yul\":11084:11482   */\n    tag_128:\n        /* \"#utility.yul\":11243:11246   */\n      0x00\n        /* \"#utility.yul\":11264:11347   */\n      tag_266\n        /* \"#utility.yul\":11345:11346   */\n      0x00\n        /* \"#utility.yul\":11340:11343   */\n      dup4\n        /* \"#utility.yul\":11264:11347   */\n      tag_126\n      jump\t// in\n    tag_266:\n        /* \"#utility.yul\":11257:11347   */\n      swap2\n      pop\n        /* \"#utility.yul\":11356:11449   */\n      tag_267\n        /* \"#utility.yul\":11445:11448   */\n      dup3\n        /* \"#utility.yul\":11356:11449   */\n      tag_127\n      jump\t// in\n    tag_267:\n        /* \"#utility.yul\":11474:11475   */\n      0x00\n        /* \"#utility.yul\":11469:11472   */\n      dup3\n        /* \"#utility.yul\":11465:11476   */\n      add\n        /* \"#utility.yul\":11458:11476   */\n      swap1\n      pop\n        /* \"#utility.yul\":11084:11482   */\n      swap2\n      swap1\n      pop\n      jump\t// out\n        /* \"#utility.yul\":11488:11867   */\n    tag_54:\n        /* \"#utility.yul\":11672:11675   */\n      0x00\n        /* \"#utility.yul\":11694:11841   */\n      tag_269\n        /* \"#utility.yul\":11837:11840   */\n      dup3\n        /* \"#utility.yul\":11694:11841   */\n      tag_128\n      jump\t// in\n    tag_269:\n        /* \"#utility.yul\":11687:11841   */\n      swap2\n      pop\n        /* \"#utility.yul\":11858:11861   */\n      dup2\n        /* \"#utility.yul\":11851:11861   */\n      swap1\n      pop\n        /* \"#utility.yul\":11488:11867   */\n      swap2\n      swap1\n      pop\n      jump\t// out\n        /* \"#utility.yul\":11873:12034   */\n    tag_129:\n        /* \"#utility.yul\":12013:12026   */\n      0x43616c6c206661696c6564000000000000000000000000000000000000000000\n        /* \"#utility.yul\":12009:12010   */\n      0x00\n        /* \"#utility.yul\":12001:12007   */\n      dup3\n        /* \"#utility.yul\":11997:12011   */\n      add\n        /* \"#utility.yul\":11990:12027   */\n      mstore\n        /* \"#utility.yul\":11873:12034   */\n      pop\n      jump\t// out\n        /* \"#utility.yul\":12040:12406   */\n    tag_130:\n        /* \"#utility.yul\":12182:12185   */\n      0x00\n        /* \"#utility.yul\":12203:12270   */\n      tag_272\n        /* \"#utility.yul\":12267:12269   */\n      0x0b\n        /* \"#utility.yul\":12262:12265   */\n      dup4\n        /* \"#utility.yul\":12203:12270   */\n      tag_96\n      jump\t// in\n    tag_272:\n        /* \"#utility.yul\":12196:12270   */\n      swap2\n      pop\n        /* \"#utility.yul\":12279:12372   */\n      tag_273\n        /* \"#utility.yul\":12368:12371   */\n      dup3\n        /* \"#utility.yul\":12279:12372   */\n      tag_129\n      jump\t// in\n    tag_273:\n        /* \"#utility.yul\":12397:12399   */\n      0x20\n        /* \"#utility.yul\":12392:12395   */\n      dup3\n        /* \"#utility.yul\":12388:12400   */\n      add\n        /* \"#utility.yul\":12381:12400   */\n      swap1\n      pop\n        /* \"#utility.yul\":12040:12406   */\n      swap2\n      swap1\n      pop\n      jump\t// out\n        /* \"#utility.yul\":12412:12831   */\n    tag_60:\n        /* \"#utility.yul\":12578:12582   */\n      0x00\n        /* \"#utility.yul\":12616:12618   */\n      0x20\n        /* \"#utility.yul\":12605:12614   */\n      dup3\n        /* \"#utility.yul\":12601:12619   */\n      add\n        /* \"#utility.yul\":12593:12619   */\n      swap1\n      pop\n        /* \"#utility.yul\":12665:12674   */\n      dup2\n        /* \"#utility.yul\":12659:12663   */\n      dup2\n        /* \"#utility.yul\":12655:12675   */\n      sub\n        /* \"#utility.yul\":12651:12652   */\n      0x00\n        /* \"#utility.yul\":12640:12649   */\n      dup4\n        /* \"#utility.yul\":12636:12653   */\n      add\n        /* \"#utility.yul\":12629:12676   */\n      mstore\n        /* \"#utility.yul\":12693:12824   */\n      tag_275\n        /* \"#utility.yul\":12819:12823   */\n      dup2\n        /* \"#utility.yul\":12693:12824   */\n      tag_130\n      jump\t// in\n    tag_275:\n        /* \"#utility.yul\":12685:12824   */\n      swap1\n      pop\n        /* \"#utility.yul\":12412:12831   */\n      swap2\n      swap1\n      pop\n      jump\t// out\n        /* \"#utility.yul\":12837:13016   */\n    tag_131:\n        /* \"#utility.yul\":12977:13008   */\n      0x4d696e696d756d2072657175697265642066756e64206e6f74206d6574000000\n        /* \"#utility.yul\":12973:12974   */\n      0x00\n        /* \"#utility.yul\":12965:12971   */\n      dup3\n        /* \"#utility.yul\":12961:12975   */\n      add\n        /* \"#utility.yul\":12954:13009   */\n      mstore\n        /* \"#utility.yul\":12837:13016   */\n      pop\n      jump\t// out\n        /* \"#utility.yul\":13022:13388   */\n    tag_132:\n        /* \"#utility.yul\":13164:13167   */\n      0x00\n        /* \"#utility.yul\":13185:13252   */\n      tag_278\n        /* \"#utility.yul\":13249:13251   */\n      0x1d\n        /* \"#utility.yul\":13244:13247   */\n      dup4\n        /* \"#utility.yul\":13185:13252   */\n      tag_96\n      jump\t// in\n    tag_278:\n        /* \"#utility.yul\":13178:13252   */\n      swap2\n      pop\n        /* \"#utility.yul\":13261:13354   */\n      tag_279\n        /* \"#utility.yul\":13350:13353   */\n      dup3\n        /* \"#utility.yul\":13261:13354   */\n      tag_131\n      jump\t// in\n    tag_279:\n        /* \"#utility.yul\":13379:13381   */\n      0x20\n        /* \"#utility.yul\":13374:13377   */\n      dup3\n        /* \"#utility.yul\":13370:13382   */\n      add\n        /* \"#utility.yul\":13363:13382   */\n      swap1\n      pop\n        /* \"#utility.yul\":13022:13388   */\n      swap2\n      swap1\n      pop\n      jump\t// out\n        /* \"#utility.yul\":13394:13813   */\n    tag_66:\n        /* \"#utility.yul\":13560:13564   */\n      0x00\n        /* \"#utility.yul\":13598:13600   */\n      0x20\n        /* \"#utility.yul\":13587:13596   */\n      dup3\n        /* \"#utility.yul\":13583:13601   */\n      add\n        /* \"#utility.yul\":13575:13601   */\n      swap1\n      pop\n        /* \"#utility.yul\":13647:13656   */\n      dup2\n        /* \"#utility.yul\":13641:13645   */\n      dup2\n        /* \"#utility.yul\":13637:13657   */\n      sub\n        /* \"#utility.yul\":13633:13634   */\n      0x00\n        /* \"#utility.yul\":13622:13631   */\n      dup4\n        /* \"#utility.yul\":13618:13635   */\n      add\n        /* \"#utility.yul\":13611:13658   */\n      mstore\n        /* \"#utility.yul\":13675:13806   */\n      tag_281\n        /* \"#utility.yul\":13801:13805   */\n      dup2\n        /* \"#utility.yul\":13675:13806   */\n      tag_132\n      jump\t// in\n    tag_281:\n        /* \"#utility.yul\":13667:13806   */\n      swap1\n      pop\n        /* \"#utility.yul\":13394:13813   */\n      swap2\n      swap1\n      pop\n      jump\t// out\n        /* \"#utility.yul\":13819:13999   */\n    tag_133:\n        /* \"#utility.yul\":13867:13944   */\n      0x4e487b7100000000000000000000000000000000000000000000000000000000\n        /* \"#utility.yul\":13864:13865   */\n      0x00\n        /* \"#utility.yul\":13857:13945   */\n      mstore\n        /* \"#utility.yul\":13964:13968   */\n      0x12\n        /* \"#utility.yul\":13961:13962   */\n      0x04\n        /* \"#utility.yul\":13954:13969   */\n      mstore\n        /* \"#utility.yul\":13988:13992   */\n      0x24\n        /* \"#utility.yul\":13985:13986   */\n      0x00\n        /* \"#utility.yul\":13978:13993   */\n      revert\n        /* \"#utility.yul\":14005:14190   */\n    tag_76:\n        /* \"#utility.yul\":14045:14046   */\n      0x00\n        /* \"#utility.yul\":14062:14082   */\n      tag_284\n        /* \"#utility.yul\":14080:14081   */\n      dup3\n        /* \"#utility.yul\":14062:14082   */\n      tag_84\n      jump\t// in\n    tag_284:\n        /* \"#utility.yul\":14057:14082   */\n      swap2\n      pop\n        /* \"#utility.yul\":14096:14116   */\n      tag_285\n        /* \"#utility.yul\":14114:14115   */\n      dup4\n        /* \"#utility.yul\":14096:14116   */\n      tag_84\n      jump\t// in\n    tag_285:\n        /* \"#utility.yul\":14091:14116   */\n      swap3\n      pop\n        /* \"#utility.yul\":14135:14136   */\n      dup3\n        /* \"#utility.yul\":14125:14160   */\n      tag_286\n      jumpi\n        /* \"#utility.yul\":14140:14158   */\n      tag_287\n      tag_133\n      jump\t// in\n    tag_287:\n        /* \"#utility.yul\":14125:14160   */\n    tag_286:\n        /* \"#utility.yul\":14182:14183   */\n      dup3\n        /* \"#utility.yul\":14179:14180   */\n      dup3\n        /* \"#utility.yul\":14175:14184   */\n      div\n        /* \"#utility.yul\":14170:14184   */\n      swap1\n      pop\n        /* \"#utility.yul\":14005:14190   */\n      swap3\n      swap2\n      pop\n      pop\n      jump\t// out\n        /* \"#utility.yul\":14196:14301   */\n    tag_134:\n        /* \"#utility.yul\":14232:14239   */\n      0x00\n        /* \"#utility.yul\":14272:14294   */\n      0xffffffffffffffffffff\n        /* \"#utility.yul\":14265:14270   */\n      dup3\n        /* \"#utility.yul\":14261:14295   */\n      and\n        /* \"#utility.yul\":14250:14295   */\n      swap1\n      pop\n        /* \"#utility.yul\":14196:14301   */\n      swap2\n      swap1\n      pop\n      jump\t// out\n        /* \"#utility.yul\":14307:14427   */\n    tag_135:\n        /* \"#utility.yul\":14379:14402   */\n      tag_290\n        /* \"#utility.yul\":14396:14401   */\n      dup2\n        /* \"#utility.yul\":14379:14402   */\n      tag_134\n      jump\t// in\n    tag_290:\n        /* \"#utility.yul\":14372:14377   */\n      dup2\n        /* \"#utility.yul\":14369:14403   */\n      eq\n        /* \"#utility.yul\":14359:14421   */\n      tag_291\n      jumpi\n        /* \"#utility.yul\":14417:14418   */\n      0x00\n        /* \"#utility.yul\":14414:14415   */\n      0x00\n        /* \"#utility.yul\":14407:14419   */\n      revert\n        /* \"#utility.yul\":14359:14421   */\n    tag_291:\n        /* \"#utility.yul\":14307:14427   */\n      pop\n      jump\t// out\n        /* \"#utility.yul\":14433:14574   */\n    tag_136:\n        /* \"#utility.yul\":14489:14494   */\n      0x00\n        /* \"#utility.yul\":14520:14526   */\n      dup2\n        /* \"#utility.yul\":14514:14527   */\n      mload\n        /* \"#utility.yul\":14505:14527   */\n      swap1\n      pop\n        /* \"#utility.yul\":14536:14568   */\n      tag_293\n        /* \"#utility.yul\":14562:14567   */\n      dup2\n        /* \"#utility.yul\":14536:14568   */\n      tag_135\n      jump\t// in\n    tag_293:\n        /* \"#utility.yul\":14433:14574   */\n      swap3\n      swap2\n      pop\n      pop\n      jump\t// out\n        /* \"#utility.yul\":14580:14656   */\n    tag_137:\n        /* \"#utility.yul\":14616:14623   */\n      0x00\n        /* \"#utility.yul\":14645:14650   */\n      dup2\n        /* \"#utility.yul\":14634:14650   */\n      swap1\n      pop\n        /* \"#utility.yul\":14580:14656   */\n      swap2\n      swap1\n      pop\n      jump\t// out\n        /* \"#utility.yul\":14662:14782   */\n    tag_138:\n        /* \"#utility.yul\":14734:14757   */\n      tag_296\n        /* \"#utility.yul\":14751:14756   */\n      dup2\n        /* \"#utility.yul\":14734:14757   */\n      tag_137\n      jump\t// in\n    tag_296:\n        /* \"#utility.yul\":14727:14732   */\n      dup2\n        /* \"#utility.yul\":14724:14758   */\n      eq\n        /* \"#utility.yul\":14714:14776   */\n      tag_297\n      jumpi\n        /* \"#utility.yul\":14772:14773   */\n      0x00\n        /* \"#utility.yul\":14769:14770   */\n      0x00\n        /* \"#utility.yul\":14762:14774   */\n      revert\n        /* \"#utility.yul\":14714:14776   */\n    tag_297:\n        /* \"#utility.yul\":14662:14782   */\n      pop\n      jump\t// out\n        /* \"#utility.yul\":14788:14929   */\n    tag_139:\n        /* \"#utility.yul\":14844:14849   */\n      0x00\n        /* \"#utility.yul\":14875:14881   */\n      dup2\n        /* \"#utility.yul\":14869:14882   */\n      mload\n        /* \"#utility.yul\":14860:14882   */\n      swap1\n      pop\n        /* \"#utility.yul\":14891:14923   */\n      tag_299\n        /* \"#utility.yul\":14917:14922   */\n      dup2\n        /* \"#utility.yul\":14891:14923   */\n      tag_138\n      jump\t// in\n    tag_299:\n        /* \"#utility.yul\":14788:14929   */\n      swap3\n      swap2\n      pop\n      pop\n      jump\t// out\n        /* \"#utility.yul\":14935:15078   */\n    tag_140:\n        /* \"#utility.yul\":14992:14997   */\n      0x00\n        /* \"#utility.yul\":15023:15029   */\n      dup2\n        /* \"#utility.yul\":15017:15030   */\n      mload\n        /* \"#utility.yul\":15008:15030   */\n      swap1\n      pop\n        /* \"#utility.yul\":15039:15072   */\n      tag_301\n        /* \"#utility.yul\":15066:15071   */\n      dup2\n        /* \"#utility.yul\":15039:15072   */\n      tag_94\n      jump\t// in\n    tag_301:\n        /* \"#utility.yul\":14935:15078   */\n      swap3\n      swap2\n      pop\n      pop\n      jump\t// out\n        /* \"#utility.yul\":15084:16055   */\n    tag_81:\n        /* \"#utility.yul\":15187:15193   */\n      0x00\n        /* \"#utility.yul\":15195:15201   */\n      0x00\n        /* \"#utility.yul\":15203:15209   */\n      0x00\n        /* \"#utility.yul\":15211:15217   */\n      0x00\n        /* \"#utility.yul\":15219:15225   */\n      0x00\n        /* \"#utility.yul\":15268:15271   */\n      0xa0\n        /* \"#utility.yul\":15256:15265   */\n      dup7\n        /* \"#utility.yul\":15247:15254   */\n      dup9\n        /* \"#utility.yul\":15243:15266   */\n      sub\n        /* \"#utility.yul\":15239:15272   */\n      slt\n        /* \"#utility.yul\":15236:15356   */\n      iszero\n      tag_303\n      jumpi\n        /* \"#utility.yul\":15275:15354   */\n      tag_304\n      tag_87\n      jump\t// in\n    tag_304:\n        /* \"#utility.yul\":15236:15356   */\n    tag_303:\n        /* \"#utility.yul\":15395:15396   */\n      0x00\n        /* \"#utility.yul\":15420:15483   */\n      tag_305\n        /* \"#utility.yul\":15475:15482   */\n      dup9\n        /* \"#utility.yul\":15466:15472   */\n      dup3\n        /* \"#utility.yul\":15455:15464   */\n      dup10\n        /* \"#utility.yul\":15451:15473   */\n      add\n        /* \"#utility.yul\":15420:15483   */\n      tag_136\n      jump\t// in\n    tag_305:\n        /* \"#utility.yul\":15410:15483   */\n      swap6\n      pop\n        /* \"#utility.yul\":15366:15493   */\n      pop\n        /* \"#utility.yul\":15532:15534   */\n      0x20\n        /* \"#utility.yul\":15558:15621   */\n      tag_306\n        /* \"#utility.yul\":15613:15620   */\n      dup9\n        /* \"#utility.yul\":15604:15610   */\n      dup3\n        /* \"#utility.yul\":15593:15602   */\n      dup10\n        /* \"#utility.yul\":15589:15611   */\n      add\n        /* \"#utility.yul\":15558:15621   */\n      tag_139\n      jump\t// in\n    tag_306:\n        /* \"#utility.yul\":15548:15621   */\n      swap5\n      pop\n        /* \"#utility.yul\":15503:15631   */\n      pop\n        /* \"#utility.yul\":15670:15672   */\n      0x40\n        /* \"#utility.yul\":15696:15760   */\n      tag_307\n        /* \"#utility.yul\":15752:15759   */\n      dup9\n        /* \"#utility.yul\":15743:15749   */\n      dup3\n        /* \"#utility.yul\":15732:15741   */\n      dup10\n        /* \"#utility.yul\":15728:15750   */\n      add\n        /* \"#utility.yul\":15696:15760   */\n      tag_140\n      jump\t// in\n    tag_307:\n        /* \"#utility.yul\":15686:15760   */\n      swap4\n      pop\n        /* \"#utility.yul\":15641:15770   */\n      pop\n        /* \"#utility.yul\":15809:15811   */\n      0x60\n        /* \"#utility.yul\":15835:15899   */\n      tag_308\n        /* \"#utility.yul\":15891:15898   */\n      dup9\n        /* \"#utility.yul\":15882:15888   */\n      dup3\n        /* \"#utility.yul\":15871:15880   */\n      dup10\n        /* \"#utility.yul\":15867:15889   */\n      add\n        /* \"#utility.yul\":15835:15899   */\n      tag_140\n      jump\t// in\n    tag_308:\n        /* \"#utility.yul\":15825:15899   */\n      swap3\n      pop\n        /* \"#utility.yul\":15780:15909   */\n      pop\n        /* \"#utility.yul\":15948:15951   */\n      0x80\n        /* \"#utility.yul\":15975:16038   */\n      tag_309\n        /* \"#utility.yul\":16030:16037   */\n      dup9\n        /* \"#utility.yul\":16021:16027   */\n      dup3\n        /* \"#utility.yul\":16010:16019   */\n      dup10\n        /* \"#utility.yul\":16006:16028   */\n      add\n        /* \"#utility.yul\":15975:16038   */\n      tag_136\n      jump\t// in\n    tag_309:\n        /* \"#utility.yul\":15965:16038   */\n      swap2\n      pop\n        /* \"#utility.yul\":15919:16048   */\n      pop\n        /* \"#utility.yul\":15084:16055   */\n      swap3\n      swap6\n      pop\n      swap3\n      swap6\n      swap1\n      swap4\n      pop\n      jump\t// out\n        /* \"#utility.yul\":16061:16617   */\n    tag_83:\n        /* \"#utility.yul\":16100:16107   */\n      0x00\n        /* \"#utility.yul\":16123:16142   */\n      tag_311\n        /* \"#utility.yul\":16140:16141   */\n      dup3\n        /* \"#utility.yul\":16123:16142   */\n      tag_137\n      jump\t// in\n    tag_311:\n        /* \"#utility.yul\":16118:16142   */\n      swap2\n      pop\n        /* \"#utility.yul\":16156:16175   */\n      tag_312\n        /* \"#utility.yul\":16173:16174   */\n      dup4\n        /* \"#utility.yul\":16156:16175   */\n      tag_137\n      jump\t// in\n    tag_312:\n        /* \"#utility.yul\":16151:16175   */\n      swap3\n      pop\n        /* \"#utility.yul\":16210:16211   */\n      dup3\n        /* \"#utility.yul\":16207:16208   */\n      dup3\n        /* \"#utility.yul\":16203:16212   */\n      mul\n        /* \"#utility.yul\":16232:16261   */\n      tag_313\n        /* \"#utility.yul\":16249:16260   */\n      dup2\n        /* \"#utility.yul\":16232:16261   */\n      tag_137\n      jump\t// in\n    tag_313:\n        /* \"#utility.yul\":16221:16261   */\n      swap2\n      pop\n        /* \"#utility.yul\":16319:16385   */\n      0x8000000000000000000000000000000000000000000000000000000000000000\n        /* \"#utility.yul\":16316:16317   */\n      dup5\n        /* \"#utility.yul\":16313:16386   */\n      eq\n        /* \"#utility.yul\":16309:16310   */\n      0x00\n        /* \"#utility.yul\":16306:16307   */\n      dup5\n        /* \"#utility.yul\":16302:16311   */\n      slt\n        /* \"#utility.yul\":16298:16387   */\n      and\n        /* \"#utility.yul\":16295:16410   */\n      iszero\n      tag_314\n      jumpi\n        /* \"#utility.yul\":16390:16408   */\n      tag_315\n      tag_100\n      jump\t// in\n    tag_315:\n        /* \"#utility.yul\":16295:16410   */\n    tag_314:\n        /* \"#utility.yul\":16560:16561   */\n      dup3\n        /* \"#utility.yul\":16551:16558   */\n      dup3\n        /* \"#utility.yul\":16546:16562   */\n      sdiv\n        /* \"#utility.yul\":16543:16544   */\n      dup5\n        /* \"#utility.yul\":16540:16563   */\n      eq\n        /* \"#utility.yul\":16520:16521   */\n      dup4\n        /* \"#utility.yul\":16513:16522   */\n      iszero\n        /* \"#utility.yul\":16493:16577   */\n      or\n        /* \"#utility.yul\":16470:16610   */\n      tag_316\n      jumpi\n        /* \"#utility.yul\":16590:16608   */\n      tag_317\n      tag_100\n      jump\t// in\n    tag_317:\n        /* \"#utility.yul\":16470:16610   */\n    tag_316:\n        /* \"#utility.yul\":16108:16617   */\n      pop\n        /* \"#utility.yul\":16061:16617   */\n      swap3\n      swap2\n      pop\n      pop\n      jump\t// out\n\n    auxdata: 0xa26469706673582212202358d1afd9ea4a253f1c5ad66c1c2f81a2d3d78f12959a3df65d6211ee234b3164736f6c63430008220033\n}\n",
				"bytecode": {
					"linkReferences": {},
					"object": "60806040526802b5e3af16b18800005f55348015601a575f5ffd5b503360035f6101000a81548173ffffffffffffffffffffffffffffffffffffffff021916908373ffffffffffffffffffffffffffffffffffffffff160217905550610da3806100685f395ff3fe608060405260043610610054575f3560e01c80633430a88c146100585780633ccfd60b146100825780633e47d6f3146100985780638da5cb5b146100d4578063b60d4288146100fe578063dc0d3dff14610108575b5f5ffd5b348015610063575f5ffd5b5061006c610144565b60405161007991906105d7565b60405180910390f35b34801561008d575f5ffd5b50610096610149565b005b3480156100a3575f5ffd5b506100be60048036038101906100b9919061064e565b61037d565b6040516100cb91906105d7565b60405180910390f35b3480156100df575f5ffd5b506100e8610392565b6040516100f59190610688565b60405180910390f35b6101066103b7565b005b348015610113575f5ffd5b5061012e600480360381019061012991906106cb565b6104a7565b60405161013b9190610688565b60405180910390f35b5f5481565b60035f9054906101000a900473ffffffffffffffffffffffffffffffffffffffff1673ffffffffffffffffffffffffffffffffffffffff163373ffffffffffffffffffffffffffffffffffffffff16146101d8576040517f08c379a00000000000000000000000000000000000000000000000000000000081526004016101cf90610750565b60405180910390fd5b5f5f90505b600180549050811015610279575f600182815481106101ff576101fe61076e565b5b905f5260205f20015f9054906101000a900473ffffffffffffffffffffffffffffffffffffffff1690505f60025f8373ffffffffffffffffffffffffffffffffffffffff1673ffffffffffffffffffffffffffffffffffffffff1681526020019081526020015f20819055505080806001019150506101dd565b505f67ffffffffffffffff8111156102945761029361079b565b5b6040519080825280602002602001820160405280156102c25781602001602082028036833780820191505090505b50600190816102d19190610a08565b505f3373ffffffffffffffffffffffffffffffffffffffff16476040516102f790610ab9565b5f6040518083038185875af1925050503d805f8114610331576040519150601f19603f3d011682016040523d82523d5f602084013e610336565b606091505b505090508061037a576040517f08c379a000000000000000000000000000000000000000000000000000000000815260040161037190610b17565b60405180910390fd5b50565b6002602052805f5260405f205f915090505481565b60035f9054906101000a900473ffffffffffffffffffffffffffffffffffffffff1681565b5f546103c2346104e2565b1015610403576040517f08c379a00000000000000000000000000000000000000000000000000000000081526004016103fa90610b7f565b60405180910390fd5b600133908060018154018082558091505060019003905f5260205f20015f9091909190916101000a81548173ffffffffffffffffffffffffffffffffffffffff021916908373ffffffffffffffffffffffffffffffffffffffff1602179055503460025f3373ffffffffffffffffffffffffffffffffffffffff1673ffffffffffffffffffffffffffffffffffffffff1681526020019081526020015f2081905550565b600181815481106104b6575f80fd5b905f5260205f20015f915054906101000a900473ffffffffffffffffffffffffffffffffffffffff1681565b5f5f6104ec61051a565b90505f670de0b6b3a7640000848361050491906107ff565b61050e9190610bca565b90508092505050919050565b5f5f73694aa1769357215de4fac081bf1f309adc32530690505f8173ffffffffffffffffffffffffffffffffffffffff1663feaf968c6040518163ffffffff1660e01b815260040160a060405180830381865afa15801561057d573d5f5f3e3d5ffd5b505050506040513d601f19601f820116820180604052508101906105a19190610c80565b5050509150506402540be400816105b89190610cf7565b9250505090565b5f819050919050565b6105d1816105bf565b82525050565b5f6020820190506105ea5f8301846105c8565b92915050565b5f5ffd5b5f73ffffffffffffffffffffffffffffffffffffffff82169050919050565b5f61061d826105f4565b9050919050565b61062d81610613565b8114610637575f5ffd5b50565b5f8135905061064881610624565b92915050565b5f60208284031215610663576106626105f0565b5b5f6106708482850161063a565b91505092915050565b61068281610613565b82525050565b5f60208201905061069b5f830184610679565b92915050565b6106aa816105bf565b81146106b4575f5ffd5b50565b5f813590506106c5816106a1565b92915050565b5f602082840312156106e0576106df6105f0565b5b5f6106ed848285016106b7565b91505092915050565b5f82825260208201905092915050565b7f53656e646572206973206e6f7420746865206f776e65720000000000000000005f82015250565b5f61073a6017836106f6565b915061074582610706565b602082019050919050565b5f6020820190508181035f8301526107678161072e565b9050919050565b7f4e487b71000000000000000000000000000000000000000000000000000000005f52603260045260245ffd5b7f4e487b71000000000000000000000000000000000000000000000000000000005f52604160045260245ffd5b5f81549050919050565b7f4e487b71000000000000000000000000000000000000000000000000000000005f52601160045260245ffd5b5f610809826105bf565b9150610814836105bf565b9250828202610822816105bf565b91508282048414831517610839576108386107d2565b5b5092915050565b5f8190506001806001038301049050919050565b5f819050815f5260205f209050919050565b5f82821b905092915050565b5f600883026108a17fffffffffffffffffffffffffffffffffffffffffffffffffffffffffffffffff82610866565b6108ab8683610866565b95508019841693508086168417925050509392505050565b5f819050919050565b5f6108e66108e16108dc846105bf565b6108c3565b6105bf565b9050919050565b5f819050919050565b6108ff836108cc565b61091361090b826108ed565b848454610872565b825550505050565b5f5f905090565b61092a61091b565b6109358184846108f6565b505050565b5f5b8281101561095b576109505f828401610922565b60018101905061093c565b505050565b818310156109975761097182610840565b61097a84610840565b61098383610854565b8181016109928385038261093a565b505050505b505050565b680100000000000000008211156109b6576109b561079b565b5b6109bf816107c8565b8282556109cd838284610960565b505050565b5f81519050919050565b5f6109e78251610613565b80915050919050565b5f819050602082019050919050565b5f819050919050565b610a11826109d2565b67ffffffffffffffff811115610a2a57610a2961079b565b5b610a34818361099c565b610a3d836109f0565b610a4683610854565b600183045f5b81811015610a83575f610a5e856109dc565b610a67816109ff565b8092506020870196505050808285015550600181019050610a4c565b50505050505050565b5f81905092915050565b50565b5f610aa45f83610a8c565b9150610aaf82610a96565b5f82019050919050565b5f610ac382610a99565b9150819050919050565b7f43616c6c206661696c65640000000000000000000000000000000000000000005f82015250565b5f610b01600b836106f6565b9150610b0c82610acd565b602082019050919050565b5f6020820190508181035f830152610b2e81610af5565b9050919050565b7f4d696e696d756d2072657175697265642066756e64206e6f74206d65740000005f82015250565b5f610b69601d836106f6565b9150610b7482610b35565b602082019050919050565b5f6020820190508181035f830152610b9681610b5d565b9050919050565b7f4e487b71000000000000000000000000000000000000000000000000000000005f52601260045260245ffd5b5f610bd4826105bf565b9150610bdf836105bf565b925082610bef57610bee610b9d565b5b828204905092915050565b5f69ffffffffffffffffffff82169050919050565b610c1881610bfa565b8114610c22575f5ffd5b50565b5f81519050610c3381610c0f565b92915050565b5f819050919050565b610c4b81610c39565b8114610c55575f5ffd5b50565b5f81519050610c6681610c42565b92915050565b5f81519050610c7a816106a1565b92915050565b5f5f5f5f5f60a08688031215610c9957610c986105f0565b5b5f610ca688828901610c25565b9550506020610cb788828901610c58565b9450506040610cc888828901610c6c565b9350506060610cd988828901610c6c565b9250506080610cea88828901610c25565b9150509295509295909350565b5f610d0182610c39565b9150610d0c83610c39565b9250828202610d1a81610c39565b91507f800000000000000000000000000000000000000000000000000000000000000084145f84121615610d5157610d506107d2565b5b8282058414831517610d6657610d656107d2565b5b509291505056fea26469706673582212202358d1afd9ea4a253f1c5ad66c1c2f81a2d3d78f12959a3df65d6211ee234b3164736f6c63430008220033",
					"opcodes": "PUSH1 0x80 PUSH1 0x40 MSTORE PUSH9 0x2B5E3AF16B1880000 PUSH0 SSTORE CALLVALUE DUP1 ISZERO PUSH1 0x1A JUMPI PUSH0 PUSH0 REVERT JUMPDEST POP CALLER PUSH1 0x3 PUSH0 PUSH2 0x100 EXP DUP2 SLOAD DUP2 PUSH20 0xFFFFFFFFFFFFFFFFFFFFFFFFFFFFFFFFFFFFFFFF MUL NOT AND SWAP1 DUP4 PUSH20 0xFFFFFFFFFFFFFFFFFFFFFFFFFFFFFFFFFFFFFFFF AND MUL OR SWAP1 SSTORE POP PUSH2 0xDA3 DUP1 PUSH2 0x68 PUSH0 CODECOPY PUSH0 RETURN INVALID PUSH1 0x80 PUSH1 0x40 MSTORE PUSH1 0x4 CALLDATASIZE LT PUSH2 0x54 JUMPI PUSH0 CALLDATALOAD PUSH1 0xE0 SHR DUP1 PUSH4 0x3430A88C EQ PUSH2 0x58 JUMPI DUP1 PUSH4 0x3CCFD60B EQ PUSH2 0x82 JUMPI DUP1 PUSH4 0x3E47D6F3 EQ PUSH2 0x98 JUMPI DUP1 PUSH4 0x8DA5CB5B EQ PUSH2 0xD4 JUMPI DUP1 PUSH4 0xB60D4288 EQ PUSH2 0xFE JUMPI DUP1 PUSH4 0xDC0D3DFF EQ PUSH2 0x108 JUMPI JUMPDEST PUSH0 PUSH0 REVERT JUMPDEST CALLVALUE DUP1 ISZERO PUSH2 0x63 JUMPI PUSH0 PUSH0 REVERT JUMPDEST POP PUSH2 0x6C PUSH2 0x144 JUMP JUMPDEST PUSH1 0x40 MLOAD PUSH2 0x79 SWAP2 SWAP1 PUSH2 0x5D7 JUMP JUMPDEST PUSH1 0x40 MLOAD DUP1 SWAP2 SUB SWAP1 RETURN JUMPDEST CALLVALUE DUP1 ISZERO PUSH2 0x8D JUMPI PUSH0 PUSH0 REVERT JUMPDEST POP PUSH2 0x96 PUSH2 0x149 JUMP JUMPDEST STOP JUMPDEST CALLVALUE DUP1 ISZERO PUSH2 0xA3 JUMPI PUSH0 PUSH0 REVERT JUMPDEST POP PUSH2 0xBE PUSH1 0x4 DUP1 CALLDATASIZE SUB DUP2 ADD SWAP1 PUSH2 0xB9 SWAP2 SWAP1 PUSH2 0x64E JUMP JUMPDEST PUSH2 0x37D JUMP JUMPDEST PUSH1 0x40 MLOAD PUSH2 0xCB SWAP2 SWAP1 PUSH2 0x5D7 JUMP JUMPDEST PUSH1 0x40 MLOAD DUP1 SWAP2 SUB SWAP1 RETURN JUMPDEST CALLVALUE DUP1 ISZERO PUSH2 0xDF JUMPI PUSH0 PUSH0 REVERT JUMPDEST POP PUSH2 0xE8 PUSH2 0x392 JUMP JUMPDEST PUSH1 0x40 MLOAD PUSH2 0xF5 SWAP2 SWAP1 PUSH2 0x688 JUMP JUMPDEST PUSH1 0x40 MLOAD DUP1 SWAP2 SUB SWAP1 RETURN JUMPDEST PUSH2 0x106 PUSH2 0x3B7 JUMP JUMPDEST STOP JUMPDEST CALLVALUE DUP1 ISZERO PUSH2 0x113 JUMPI PUSH0 PUSH0 REVERT JUMPDEST POP PUSH2 0x12E PUSH1 0x4 DUP1 CALLDATASIZE SUB DUP2 ADD SWAP1 PUSH2 0x129 SWAP2 SWAP1 PUSH2 0x6CB JUMP JUMPDEST PUSH2 0x4A7 JUMP JUMPDEST PUSH1 0x40 MLOAD PUSH2 0x13B SWAP2 SWAP1 PUSH2 0x688 JUMP JUMPDEST PUSH1 0x40 MLOAD DUP1 SWAP2 SUB SWAP1 RETURN JUMPDEST PUSH0 SLOAD DUP2 JUMP JUMPDEST PUSH1 0x3 PUSH0 SWAP1 SLOAD SWAP1 PUSH2 0x100 EXP SWAP1 DIV PUSH20 0xFFFFFFFFFFFFFFFFFFFFFFFFFFFFFFFFFFFFFFFF AND PUSH20 0xFFFFFFFFFFFFFFFFFFFFFFFFFFFFFFFFFFFFFFFF AND CALLER PUSH20 0xFFFFFFFFFFFFFFFFFFFFFFFFFFFFFFFFFFFFFFFF AND EQ PUSH2 0x1D8 JUMPI PUSH1 0x40 MLOAD PUSH32 0x8C379A000000000000000000000000000000000000000000000000000000000 DUP2 MSTORE PUSH1 0x4 ADD PUSH2 0x1CF SWAP1 PUSH2 0x750 JUMP JUMPDEST PUSH1 0x40 MLOAD DUP1 SWAP2 SUB SWAP1 REVERT JUMPDEST PUSH0 PUSH0 SWAP1 POP JUMPDEST PUSH1 0x1 DUP1 SLOAD SWAP1 POP DUP2 LT ISZERO PUSH2 0x279 JUMPI PUSH0 PUSH1 0x1 DUP3 DUP2 SLOAD DUP2 LT PUSH2 0x1FF JUMPI PUSH2 0x1FE PUSH2 0x76E JUMP JUMPDEST JUMPDEST SWAP1 PUSH0 MSTORE PUSH1 0x20 PUSH0 KECCAK256 ADD PUSH0 SWAP1 SLOAD SWAP1 PUSH2 0x100 EXP SWAP1 DIV PUSH20 0xFFFFFFFFFFFFFFFFFFFFFFFFFFFFFFFFFFFFFFFF AND SWAP1 POP PUSH0 PUSH1 0x2 PUSH0 DUP4 PUSH20 0xFFFFFFFFFFFFFFFFFFFFFFFFFFFFFFFFFFFFFFFF AND PUSH20 0xFFFFFFFFFFFFFFFFFFFFFFFFFFFFFFFFFFFFFFFF AND DUP2 MSTORE PUSH1 0x20 ADD SWAP1 DUP2 MSTORE PUSH1 0x20 ADD PUSH0 KECCAK256 DUP2 SWAP1 SSTORE POP POP DUP1 DUP1 PUSH1 0x1 ADD SWAP2 POP POP PUSH2 0x1DD JUMP JUMPDEST POP PUSH0 PUSH8 0xFFFFFFFFFFFFFFFF DUP2 GT ISZERO PUSH2 0x294 JUMPI PUSH2 0x293 PUSH2 0x79B JUMP JUMPDEST JUMPDEST PUSH1 0x40 MLOAD SWAP1 DUP1 DUP3 MSTORE DUP1 PUSH1 0x20 MUL PUSH1 0x20 ADD DUP3 ADD PUSH1 0x40 MSTORE DUP1 ISZERO PUSH2 0x2C2 JUMPI DUP2 PUSH1 0x20 ADD PUSH1 0x20 DUP3 MUL DUP1 CALLDATASIZE DUP4 CALLDATACOPY DUP1 DUP3 ADD SWAP2 POP POP SWAP1 POP JUMPDEST POP PUSH1 0x1 SWAP1 DUP2 PUSH2 0x2D1 SWAP2 SWAP1 PUSH2 0xA08 JUMP JUMPDEST POP PUSH0 CALLER PUSH20 0xFFFFFFFFFFFFFFFFFFFFFFFFFFFFFFFFFFFFFFFF AND SELFBALANCE PUSH1 0x40 MLOAD PUSH2 0x2F7 SWAP1 PUSH2 0xAB9 JUMP JUMPDEST PUSH0 PUSH1 0x40 MLOAD DUP1 DUP4 SUB DUP2 DUP6 DUP8 GAS CALL SWAP3 POP POP POP RETURNDATASIZE DUP1 PUSH0 DUP2 EQ PUSH2 0x331 JUMPI PUSH1 0x40 MLOAD SWAP2 POP PUSH1 0x1F NOT PUSH1 0x3F RETURNDATASIZE ADD AND DUP3 ADD PUSH1 0x40 MSTORE RETURNDATASIZE DUP3 MSTORE RETURNDATASIZE PUSH0 PUSH1 0x20 DUP5 ADD RETURNDATACOPY PUSH2 0x336 JUMP JUMPDEST PUSH1 0x60 SWAP2 POP JUMPDEST POP POP SWAP1 POP DUP1 PUSH2 0x37A JUMPI PUSH1 0x40 MLOAD PUSH32 0x8C379A000000000000000000000000000000000000000000000000000000000 DUP2 MSTORE PUSH1 0x4 ADD PUSH2 0x371 SWAP1 PUSH2 0xB17 JUMP JUMPDEST PUSH1 0x40 MLOAD DUP1 SWAP2 SUB SWAP1 REVERT JUMPDEST POP JUMP JUMPDEST PUSH1 0x2 PUSH1 0x20 MSTORE DUP1 PUSH0 MSTORE PUSH1 0x40 PUSH0 KECCAK256 PUSH0 SWAP2 POP SWAP1 POP SLOAD DUP2 JUMP JUMPDEST PUSH1 0x3 PUSH0 SWAP1 SLOAD SWAP1 PUSH2 0x100 EXP SWAP1 DIV PUSH20 0xFFFFFFFFFFFFFFFFFFFFFFFFFFFFFFFFFFFFFFFF AND DUP2 JUMP JUMPDEST PUSH0 SLOAD PUSH2 0x3C2 CALLVALUE PUSH2 0x4E2 JUMP JUMPDEST LT ISZERO PUSH2 0x403 JUMPI PUSH1 0x40 MLOAD PUSH32 0x8C379A000000000000000000000000000000000000000000000000000000000 DUP2 MSTORE PUSH1 0x4 ADD PUSH2 0x3FA SWAP1 PUSH2 0xB7F JUMP JUMPDEST PUSH1 0x40 MLOAD DUP1 SWAP2 SUB SWAP1 REVERT JUMPDEST PUSH1 0x1 CALLER SWAP1 DUP1 PUSH1 0x1 DUP2 SLOAD ADD DUP1 DUP3 SSTORE DUP1 SWAP2 POP POP PUSH1 0x1 SWAP1 SUB SWAP1 PUSH0 MSTORE PUSH1 0x20 PUSH0 KECCAK256 ADD PUSH0 SWAP1 SWAP2 SWAP1 SWAP2 SWAP1 SWAP2 PUSH2 0x100 EXP DUP2 SLOAD DUP2 PUSH20 0xFFFFFFFFFFFFFFFFFFFFFFFFFFFFFFFFFFFFFFFF MUL NOT AND SWAP1 DUP4 PUSH20 0xFFFFFFFFFFFFFFFFFFFFFFFFFFFFFFFFFFFFFFFF AND MUL OR SWAP1 SSTORE POP CALLVALUE PUSH1 0x2 PUSH0 CALLER PUSH20 0xFFFFFFFFFFFFFFFFFFFFFFFFFFFFFFFFFFFFFFFF AND PUSH20 0xFFFFFFFFFFFFFFFFFFFFFFFFFFFFFFFFFFFFFFFF AND DUP2 MSTORE PUSH1 0x20 ADD SWAP1 DUP2 MSTORE PUSH1 0x20 ADD PUSH0 KECCAK256 DUP2 SWAP1 SSTORE POP JUMP JUMPDEST PUSH1 0x1 DUP2 DUP2 SLOAD DUP2 LT PUSH2 0x4B6 JUMPI PUSH0 DUP1 REVERT JUMPDEST SWAP1 PUSH0 MSTORE PUSH1 0x20 PUSH0 KECCAK256 ADD PUSH0 SWAP2 POP SLOAD SWAP1 PUSH2 0x100 EXP SWAP1 DIV PUSH20 0xFFFFFFFFFFFFFFFFFFFFFFFFFFFFFFFFFFFFFFFF AND DUP2 JUMP JUMPDEST PUSH0 PUSH0 PUSH2 0x4EC PUSH2 0x51A JUMP JUMPDEST SWAP1 POP PUSH0 PUSH8 0xDE0B6B3A7640000 DUP5 DUP4 PUSH2 0x504 SWAP2 SWAP1 PUSH2 0x7FF JUMP JUMPDEST PUSH2 0x50E SWAP2 SWAP1 PUSH2 0xBCA JUMP JUMPDEST SWAP1 POP DUP1 SWAP3 POP POP POP SWAP2 SWAP1 POP JUMP JUMPDEST PUSH0 PUSH0 PUSH20 0x694AA1769357215DE4FAC081BF1F309ADC325306 SWAP1 POP PUSH0 DUP2 PUSH20 0xFFFFFFFFFFFFFFFFFFFFFFFFFFFFFFFFFFFFFFFF AND PUSH4 0xFEAF968C PUSH1 0x40 MLOAD DUP2 PUSH4 0xFFFFFFFF AND PUSH1 0xE0 SHL DUP2 MSTORE PUSH1 0x4 ADD PUSH1 0xA0 PUSH1 0x40 MLOAD DUP1 DUP4 SUB DUP2 DUP7 GAS STATICCALL ISZERO DUP1 ISZERO PUSH2 0x57D JUMPI RETURNDATASIZE PUSH0 PUSH0 RETURNDATACOPY RETURNDATASIZE PUSH0 REVERT JUMPDEST POP POP POP POP PUSH1 0x40 MLOAD RETURNDATASIZE PUSH1 0x1F NOT PUSH1 0x1F DUP3 ADD AND DUP3 ADD DUP1 PUSH1 0x40 MSTORE POP DUP2 ADD SWAP1 PUSH2 0x5A1 SWAP2 SWAP1 PUSH2 0xC80 JUMP JUMPDEST POP POP POP SWAP2 POP POP PUSH5 0x2540BE400 DUP2 PUSH2 0x5B8 SWAP2 SWAP1 PUSH2 0xCF7 JUMP JUMPDEST SWAP3 POP POP POP SWAP1 JUMP JUMPDEST PUSH0 DUP2 SWAP1 POP SWAP2 SWAP1 POP JUMP JUMPDEST PUSH2 0x5D1 DUP2 PUSH2 0x5BF JUMP JUMPDEST DUP3 MSTORE POP POP JUMP JUMPDEST PUSH0 PUSH1 0x20 DUP3 ADD SWAP1 POP PUSH2 0x5EA PUSH0 DUP4 ADD DUP5 PUSH2 0x5C8 JUMP JUMPDEST SWAP3 SWAP2 POP POP JUMP JUMPDEST PUSH0 PUSH0 REVERT JUMPDEST PUSH0 PUSH20 0xFFFFFFFFFFFFFFFFFFFFFFFFFFFFFFFFFFFFFFFF DUP3 AND SWAP1 POP SWAP2 SWAP1 POP JUMP JUMPDEST PUSH0 PUSH2 0x61D DUP3 PUSH2 0x5F4 JUMP JUMPDEST SWAP1 POP SWAP2 SWAP1 POP JUMP JUMPDEST PUSH2 0x62D DUP2 PUSH2 0x613 JUMP JUMPDEST DUP2 EQ PUSH2 0x637 JUMPI PUSH0 PUSH0 REVERT JUMPDEST POP JUMP JUMPDEST PUSH0 DUP2 CALLDATALOAD SWAP1 POP PUSH2 0x648 DUP2 PUSH2 0x624 JUMP JUMPDEST SWAP3 SWAP2 POP POP JUMP JUMPDEST PUSH0 PUSH1 0x20 DUP3 DUP5 SUB SLT ISZERO PUSH2 0x663 JUMPI PUSH2 0x662 PUSH2 0x5F0 JUMP JUMPDEST JUMPDEST PUSH0 PUSH2 0x670 DUP5 DUP3 DUP6 ADD PUSH2 0x63A JUMP JUMPDEST SWAP2 POP POP SWAP3 SWAP2 POP POP JUMP JUMPDEST PUSH2 0x682 DUP2 PUSH2 0x613 JUMP JUMPDEST DUP3 MSTORE POP POP JUMP JUMPDEST PUSH0 PUSH1 0x20 DUP3 ADD SWAP1 POP PUSH2 0x69B PUSH0 DUP4 ADD DUP5 PUSH2 0x679 JUMP JUMPDEST SWAP3 SWAP2 POP POP JUMP JUMPDEST PUSH2 0x6AA DUP2 PUSH2 0x5BF JUMP JUMPDEST DUP2 EQ PUSH2 0x6B4 JUMPI PUSH0 PUSH0 REVERT JUMPDEST POP JUMP JUMPDEST PUSH0 DUP2 CALLDATALOAD SWAP1 POP PUSH2 0x6C5 DUP2 PUSH2 0x6A1 JUMP JUMPDEST SWAP3 SWAP2 POP POP JUMP JUMPDEST PUSH0 PUSH1 0x20 DUP3 DUP5 SUB SLT ISZERO PUSH2 0x6E0 JUMPI PUSH2 0x6DF PUSH2 0x5F0 JUMP JUMPDEST JUMPDEST PUSH0 PUSH2 0x6ED DUP5 DUP3 DUP6 ADD PUSH2 0x6B7 JUMP JUMPDEST SWAP2 POP POP SWAP3 SWAP2 POP POP JUMP JUMPDEST PUSH0 DUP3 DUP3 MSTORE PUSH1 0x20 DUP3 ADD SWAP1 POP SWAP3 SWAP2 POP POP JUMP JUMPDEST PUSH32 0x53656E646572206973206E6F7420746865206F776E6572000000000000000000 PUSH0 DUP3 ADD MSTORE POP JUMP JUMPDEST PUSH0 PUSH2 0x73A PUSH1 0x17 DUP4 PUSH2 0x6F6 JUMP JUMPDEST SWAP2 POP PUSH2 0x745 DUP3 PUSH2 0x706 JUMP JUMPDEST PUSH1 0x20 DUP3 ADD SWAP1 POP SWAP2 SWAP1 POP JUMP JUMPDEST PUSH0 PUSH1 0x20 DUP3 ADD SWAP1 POP DUP2 DUP2 SUB PUSH0 DUP4 ADD MSTORE PUSH2 0x767 DUP2 PUSH2 0x72E JUMP JUMPDEST SWAP1 POP SWAP2 SWAP1 POP JUMP JUMPDEST PUSH32 0x4E487B7100000000000000000000000000000000000000000000000000000000 PUSH0 MSTORE PUSH1 0x32 PUSH1 0x4 MSTORE PUSH1 0x24 PUSH0 REVERT JUMPDEST PUSH32 0x4E487B7100000000000000000000000000000000000000000000000000000000 PUSH0 MSTORE PUSH1 0x41 PUSH1 0x4 MSTORE PUSH1 0x24 PUSH0 REVERT JUMPDEST PUSH0 DUP2 SLOAD SWAP1 POP SWAP2 SWAP1 POP JUMP JUMPDEST PUSH32 0x4E487B7100000000000000000000000000000000000000000000000000000000 PUSH0 MSTORE PUSH1 0x11 PUSH1 0x4 MSTORE PUSH1 0x24 PUSH0 REVERT JUMPDEST PUSH0 PUSH2 0x809 DUP3 PUSH2 0x5BF JUMP JUMPDEST SWAP2 POP PUSH2 0x814 DUP4 PUSH2 0x5BF JUMP JUMPDEST SWAP3 POP DUP3 DUP3 MUL PUSH2 0x822 DUP2 PUSH2 0x5BF JUMP JUMPDEST SWAP2 POP DUP3 DUP3 DIV DUP5 EQ DUP4 ISZERO OR PUSH2 0x839 JUMPI PUSH2 0x838 PUSH2 0x7D2 JUMP JUMPDEST JUMPDEST POP SWAP3 SWAP2 POP POP JUMP JUMPDEST PUSH0 DUP2 SWAP1 POP PUSH1 0x1 DUP1 PUSH1 0x1 SUB DUP4 ADD DIV SWAP1 POP SWAP2 SWAP1 POP JUMP JUMPDEST PUSH0 DUP2 SWAP1 POP DUP2 PUSH0 MSTORE PUSH1 0x20 PUSH0 KECCAK256 SWAP1 POP SWAP2 SWAP1 POP JUMP JUMPDEST PUSH0 DUP3 DUP3 SHL SWAP1 POP SWAP3 SWAP2 POP POP JUMP JUMPDEST PUSH0 PUSH1 0x8 DUP4 MUL PUSH2 0x8A1 PUSH32 0xFFFFFFFFFFFFFFFFFFFFFFFFFFFFFFFFFFFFFFFFFFFFFFFFFFFFFFFFFFFFFFFF DUP3 PUSH2 0x866 JUMP JUMPDEST PUSH2 0x8AB DUP7 DUP4 PUSH2 0x866 JUMP JUMPDEST SWAP6 POP DUP1 NOT DUP5 AND SWAP4 POP DUP1 DUP7 AND DUP5 OR SWAP3 POP POP POP SWAP4 SWAP3 POP POP POP JUMP JUMPDEST PUSH0 DUP2 SWAP1 POP SWAP2 SWAP1 POP JUMP JUMPDEST PUSH0 PUSH2 0x8E6 PUSH2 0x8E1 PUSH2 0x8DC DUP5 PUSH2 0x5BF JUMP JUMPDEST PUSH2 0x8C3 JUMP JUMPDEST PUSH2 0x5BF JUMP JUMPDEST SWAP1 POP SWAP2 SWAP1 POP JUMP JUMPDEST PUSH0 DUP2 SWAP1 POP SWAP2 SWAP1 POP JUMP JUMPDEST PUSH2 0x8FF DUP4 PUSH2 0x8CC JUMP JUMPDEST PUSH2 0x913 PUSH2 0x90B DUP3 PUSH2 0x8ED JUMP JUMPDEST DUP5 DUP5 SLOAD PUSH2 0x872 JUMP JUMPDEST DUP3 SSTORE POP POP POP POP JUMP JUMPDEST PUSH0 PUSH0 SWAP1 POP SWAP1 JUMP JUMPDEST PUSH2 0x92A PUSH2 0x91B JUMP JUMPDEST PUSH2 0x935 DUP2 DUP5 DUP5 PUSH2 0x8F6 JUMP JUMPDEST POP POP POP JUMP JUMPDEST PUSH0 JUMPDEST DUP3 DUP2 LT ISZERO PUSH2 0x95B JUMPI PUSH2 0x950 PUSH0 DUP3 DUP5 ADD PUSH2 0x922 JUMP JUMPDEST PUSH1 0x1 DUP2 ADD SWAP1 POP PUSH2 0x93C JUMP JUMPDEST POP POP POP JUMP JUMPDEST DUP2 DUP4 LT ISZERO PUSH2 0x997 JUMPI PUSH2 0x971 DUP3 PUSH2 0x840 JUMP JUMPDEST PUSH2 0x97A DUP5 PUSH2 0x840 JUMP JUMPDEST PUSH2 0x983 DUP4 PUSH2 0x854 JUMP JUMPDEST DUP2 DUP2 ADD PUSH2 0x992 DUP4 DUP6 SUB DUP3 PUSH2 0x93A JUMP JUMPDEST POP POP POP POP JUMPDEST POP POP POP JUMP JUMPDEST PUSH9 0x10000000000000000 DUP3 GT ISZERO PUSH2 0x9B6 JUMPI PUSH2 0x9B5 PUSH2 0x79B JUMP JUMPDEST JUMPDEST PUSH2 0x9BF DUP2 PUSH2 0x7C8 JUMP JUMPDEST DUP3 DUP3 SSTORE PUSH2 0x9CD DUP4 DUP3 DUP5 PUSH2 0x960 JUMP JUMPDEST POP POP POP JUMP JUMPDEST PUSH0 DUP2 MLOAD SWAP1 POP SWAP2 SWAP1 POP JUMP JUMPDEST PUSH0 PUSH2 0x9E7 DUP3 MLOAD PUSH2 0x613 JUMP JUMPDEST DUP1 SWAP2 POP POP SWAP2 SWAP1 POP JUMP JUMPDEST PUSH0 DUP2 SWAP1 POP PUSH1 0x20 DUP3 ADD SWAP1 POP SWAP2 SWAP1 POP JUMP JUMPDEST PUSH0 DUP2 SWAP1 POP SWAP2 SWAP1 POP JUMP JUMPDEST PUSH2 0xA11 DUP3 PUSH2 0x9D2 JUMP JUMPDEST PUSH8 0xFFFFFFFFFFFFFFFF DUP2 GT ISZERO PUSH2 0xA2A JUMPI PUSH2 0xA29 PUSH2 0x79B JUMP JUMPDEST JUMPDEST PUSH2 0xA34 DUP2 DUP4 PUSH2 0x99C JUMP JUMPDEST PUSH2 0xA3D DUP4 PUSH2 0x9F0 JUMP JUMPDEST PUSH2 0xA46 DUP4 PUSH2 0x854 JUMP JUMPDEST PUSH1 0x1 DUP4 DIV PUSH0 JUMPDEST DUP2 DUP2 LT ISZERO PUSH2 0xA83 JUMPI PUSH0 PUSH2 0xA5E DUP6 PUSH2 0x9DC JUMP JUMPDEST PUSH2 0xA67 DUP2 PUSH2 0x9FF JUMP JUMPDEST DUP1 SWAP3 POP PUSH1 0x20 DUP8 ADD SWAP7 POP POP POP DUP1 DUP3 DUP6 ADD SSTORE POP PUSH1 0x1 DUP2 ADD SWAP1 POP PUSH2 0xA4C JUMP JUMPDEST POP POP POP POP POP POP POP JUMP JUMPDEST PUSH0 DUP2 SWAP1 POP SWAP3 SWAP2 POP POP JUMP JUMPDEST POP JUMP JUMPDEST PUSH0 PUSH2 0xAA4 PUSH0 DUP4 PUSH2 0xA8C JUMP JUMPDEST SWAP2 POP PUSH2 0xAAF DUP3 PUSH2 0xA96 JUMP JUMPDEST PUSH0 DUP3 ADD SWAP1 POP SWAP2 SWAP1 POP JUMP JUMPDEST PUSH0 PUSH2 0xAC3 DUP3 PUSH2 0xA99 JUMP JUMPDEST SWAP2 POP DUP2 SWAP1 POP SWAP2 SWAP1 POP JUMP JUMPDEST PUSH32 0x43616C6C206661696C6564000000000000000000000000000000000000000000 PUSH0 DUP3 ADD MSTORE POP JUMP JUMPDEST PUSH0 PUSH2 0xB01 PUSH1 0xB DUP4 PUSH2 0x6F6 JUMP JUMPDEST SWAP2 POP PUSH2 0xB0C DUP3 PUSH2 0xACD JUMP JUMPDEST PUSH1 0x20 DUP3 ADD SWAP1 POP SWAP2 SWAP1 POP JUMP JUMPDEST PUSH0 PUSH1 0x20 DUP3 ADD SWAP1 POP DUP2 DUP2 SUB PUSH0 DUP4 ADD MSTORE PUSH2 0xB2E DUP2 PUSH2 0xAF5 JUMP JUMPDEST SWAP1 POP SWAP2 SWAP1 POP JUMP JUMPDEST PUSH32 0x4D696E696D756D2072657175697265642066756E64206E6F74206D6574000000 PUSH0 DUP3 ADD MSTORE POP JUMP JUMPDEST PUSH0 PUSH2 0xB69 PUSH1 0x1D DUP4 PUSH2 0x6F6 JUMP JUMPDEST SWAP2 POP PUSH2 0xB74 DUP3 PUSH2 0xB35 JUMP JUMPDEST PUSH1 0x20 DUP3 ADD SWAP1 POP SWAP2 SWAP1 POP JUMP JUMPDEST PUSH0 PUSH1 0x20 DUP3 ADD SWAP1 POP DUP2 DUP2 SUB PUSH0 DUP4 ADD MSTORE PUSH2 0xB96 DUP2 PUSH2 0xB5D JUMP JUMPDEST SWAP1 POP SWAP2 SWAP1 POP JUMP JUMPDEST PUSH32 0x4E487B7100000000000000000000000000000000000000000000000000000000 PUSH0 MSTORE PUSH1 0x12 PUSH1 0x4 MSTORE PUSH1 0x24 PUSH0 REVERT JUMPDEST PUSH0 PUSH2 0xBD4 DUP3 PUSH2 0x5BF JUMP JUMPDEST SWAP2 POP PUSH2 0xBDF DUP4 PUSH2 0x5BF JUMP JUMPDEST SWAP3 POP DUP3 PUSH2 0xBEF JUMPI PUSH2 0xBEE PUSH2 0xB9D JUMP JUMPDEST JUMPDEST DUP3 DUP3 DIV SWAP1 POP SWAP3 SWAP2 POP POP JUMP JUMPDEST PUSH0 PUSH10 0xFFFFFFFFFFFFFFFFFFFF DUP3 AND SWAP1 POP SWAP2 SWAP1 POP JUMP JUMPDEST PUSH2 0xC18 DUP2 PUSH2 0xBFA JUMP JUMPDEST DUP2 EQ PUSH2 0xC22 JUMPI PUSH0 PUSH0 REVERT JUMPDEST POP JUMP JUMPDEST PUSH0 DUP2 MLOAD SWAP1 POP PUSH2 0xC33 DUP2 PUSH2 0xC0F JUMP JUMPDEST SWAP3 SWAP2 POP POP JUMP JUMPDEST PUSH0 DUP2 SWAP1 POP SWAP2 SWAP1 POP JUMP JUMPDEST PUSH2 0xC4B DUP2 PUSH2 0xC39 JUMP JUMPDEST DUP2 EQ PUSH2 0xC55 JUMPI PUSH0 PUSH0 REVERT JUMPDEST POP JUMP JUMPDEST PUSH0 DUP2 MLOAD SWAP1 POP PUSH2 0xC66 DUP2 PUSH2 0xC42 JUMP JUMPDEST SWAP3 SWAP2 POP POP JUMP JUMPDEST PUSH0 DUP2 MLOAD SWAP1 POP PUSH2 0xC7A DUP2 PUSH2 0x6A1 JUMP JUMPDEST SWAP3 SWAP2 POP POP JUMP JUMPDEST PUSH0 PUSH0 PUSH0 PUSH0 PUSH0 PUSH1 0xA0 DUP7 DUP9 SUB SLT ISZERO PUSH2 0xC99 JUMPI PUSH2 0xC98 PUSH2 0x5F0 JUMP JUMPDEST JUMPDEST PUSH0 PUSH2 0xCA6 DUP9 DUP3 DUP10 ADD PUSH2 0xC25 JUMP JUMPDEST SWAP6 POP POP PUSH1 0x20 PUSH2 0xCB7 DUP9 DUP3 DUP10 ADD PUSH2 0xC58 JUMP JUMPDEST SWAP5 POP POP PUSH1 0x40 PUSH2 0xCC8 DUP9 DUP3 DUP10 ADD PUSH2 0xC6C JUMP JUMPDEST SWAP4 POP POP PUSH1 0x60 PUSH2 0xCD9 DUP9 DUP3 DUP10 ADD PUSH2 0xC6C JUMP JUMPDEST SWAP3 POP POP PUSH1 0x80 PUSH2 0xCEA DUP9 DUP3 DUP10 ADD PUSH2 0xC25 JUMP JUMPDEST SWAP2 POP POP SWAP3 SWAP6 POP SWAP3 SWAP6 SWAP1 SWAP4 POP JUMP JUMPDEST PUSH0 PUSH2 0xD01 DUP3 PUSH2 0xC39 JUMP JUMPDEST SWAP2 POP PUSH2 0xD0C DUP4 PUSH2 0xC39 JUMP JUMPDEST SWAP3 POP DUP3 DUP3 MUL PUSH2 0xD1A DUP2 PUSH2 0xC39 JUMP JUMPDEST SWAP2 POP PUSH32 0x8000000000000000000000000000000000000000000000000000000000000000 DUP5 EQ PUSH0 DUP5 SLT AND ISZERO PUSH2 0xD51 JUMPI PUSH2 0xD50 PUSH2 0x7D2 JUMP JUMPDEST JUMPDEST DUP3 DUP3 SDIV DUP5 EQ DUP4 ISZERO OR PUSH2 0xD66 JUMPI PUSH2 0xD65 PUSH2 0x7D2 JUMP JUMPDEST JUMPDEST POP SWAP3 SWAP2 POP POP JUMP INVALID LOG2 PUSH5 0x6970667358 0x22 SLT KECCAK256 0x23 PC DATALOADN 0xAFD9 0xEA BLOBBASEFEE 0x25 EXTCODEHASH SHR GAS 0xD6 PUSH13 0x1C2F81A2D3D78F12959A3DF65D PUSH3 0x11EE23 0x4B BALANCE PUSH5 0x736F6C6343 STOP ADDMOD 0x22 STOP CALLER "
				},
				"gasEstimates": {
					"creation": {
						"codeDepositCost": "698200",
						"executionCost": "47102",
						"totalCost": "745302"
					},
					"external": {
						"addressToAmountFunded(address)": "2824",
						"fund()": "infinite",
						"funders(uint256)": "5032",
						"minimumUSD()": "2402",
						"owner()": "2552",
						"withdraw()": "infinite"
					}
				},
				"methodIdentifiers": {
					"addressToAmountFunded(address)": "3e47d6f3",
					"fund()": "b60d4288",
					"funders(uint256)": "dc0d3dff",
					"minimumUSD()": "3430a88c",
					"owner()": "8da5cb5b",
					"withdraw()": "3ccfd60b"
				}
			},
			"storageLayout": {
				"storage": [
					{
						"astId": 56,
						"contract": "contracts/FundMe.sol:FundMe",
						"label": "minimumUSD",
						"offset": 0,
						"slot": "0",
						"type": "t_uint256"
					},
					{
						"astId": 59,
						"contract": "contracts/FundMe.sol:FundMe",
						"label": "funders",
						"offset": 0,
						"slot": "1",
						"type": "t_array(t_address)dyn_storage"
					},
					{
						"astId": 63,
						"contract": "contracts/FundMe.sol:FundMe",
						"label": "addressToAmountFunded",
						"offset": 0,
						"slot": "2",
						"type": "t_mapping(t_address,t_uint256)"
					},
					{
						"astId": 65,
						"contract": "contracts/FundMe.sol:FundMe",
						"label": "owner",
						"offset": 0,
						"slot": "3",
						"type": "t_address"
					}
				],
				"types": {
					"t_address": {
						"encoding": "inplace",
						"label": "address",
						"numberOfBytes": "20"
					},
					"t_array(t_address)dyn_storage": {
						"base": "t_address",
						"encoding": "dynamic_array",
						"label": "address[]",
						"numberOfBytes": "32"
					},
					"t_mapping(t_address,t_uint256)": {
						"encoding": "mapping",
						"key": "t_address",
						"label": "mapping(address => uint256)",
						"numberOfBytes": "32",
						"value": "t_uint256"
					},
					"t_uint256": {
						"encoding": "inplace",
						"label": "uint256",
						"numberOfBytes": "32"
					}
				}
			},
			"userdoc": {
				"kind": "user",
				"methods": {},
				"version": 1
			}
		}
	}
}